S00F000046617265466172652E733337E9
S113000000100020E9030000E9290000E9290000AC
S1130010E9290000E9290000E9290000E929000094
S1130020E9290000E9290000E9290000E929000084
S1130030E9290000E9290000E9290000E929000074
S1130040E9290000E9290000E9290000E929000064
S1130050E9290000E9290000E9290000E929000054
S1130060E9290000E9290000E9290000E929000044
S113007099170000E9290000E9290000E929000096
S1130080E9290000E9290000E9290000E929000024
S1130090E9290000E9290000E9290000E929000014
S11300A0E9290000E9290000E9290000E929000004
S11300B0E9290000E9290000E9290000E9290000F4
S11300C0E9290000E9290000E9290000E9290000E4
S11300D0E9290000E9290000E9290000E9290000D4
S11300E0E9290000E9290000E9290000E9290000C4
S11300F0E9290000E9290000E9290000E9290000B4
S1130100E9290000E9290000E9290000E9290000A3
S1130110E9290000E9290000E9290000E929000093
S1130120E9290000E9290000E9290000E929000083
S1130130E9290000E9290000E9290000E929000073
S11301400348044B834202D0034B03B11847704762
S1130150881000208810002000000000064B07498A
S1130160C91A891048BF0131491003D0044B0BB19F
S113017001481847704700BF8810002088100020ED
S11301800000000010B5064C237843B9FFF7D8FFF0
S1130190044B13B10448AFF300800123237010BD56
S11301A022120020000000004C36000008B5054B68
S11301B01BB105490548AFF30080BDE80840FFF7CF
S11301C0CDBF00BF00000000881000204C360000A6
S11301D0A3F5803A704700BF174B002B08BF134BA1
S11301E09D46FFF7F5FF00218B460F461348144A3E
S11301F0121A02F0B4FD0E4B002B00D098470D4BA1
S1130200002B00D098470020002104000D000D4869
S1130210002802D00C48AFF3008001F0DDFF20007D
S1130220290002F0C3FB01F01DFE00BF000008001E
S113023000000000000000000010002088100020D2
S113024030120020000000000000000010B5032060
S113025000F080F860B10A4C0A49206802F081FC81
S113026002F0C0FB02F0BFFB0749206802F079FCF2
S113027001F0ACFABDE810400021012001F0EEBA13
S1130280A0100020A0310000A531000010B51E4CC4
S113029000F032FD236F23F0070343F002032367CA
S11302A002F0D5FBD4F82031002023F0030343F0FF
S11302B00103C4F82031D4F8243123F0070343F0B8
S11302C00103C4F82431D4F8403123F0030343F08C
S11302D00103C4F84031D4F8603123F0030343F040
S11302E00103C4F86031D4F8403223F0030343F02F
S11302F00103C4F84032D4F8003223F0070343F07A
S11303000103C4F8003210BD0080005008B500F0AD
S11303101BFF01280ED10C4B04205A6E4FF480238E
S11303200A49520358BF0A4A4B6601F51041086254
S113033058BF536600F032FF00F00EFFFFF7A6FF30
S1130340BDE8084000F018BF008000500090005045
S113035000A000500B4B02461B7883B10A4B1B785C
S1130360834234BF00200120084B1B7833B1084B73
S11303701B78134113F0010F08BF002070470120C0
S1130380F2E700BF7E1000207D1000202312002021
S11303907C10002008B50122074B1A700022074B7D
S11303A01A700422064B1A701F22064B1A7000F0B2
S11303B01FFF054B186008BD7E100020231200208B
S11303C07D1000207C100020A01000200348044A67
S11303D00449121A921002F008BB00BFE83600006C
S11303E0E83600003012002008B500F02FF8FFF7BF
S11303F0EDFF124B12498B4212D30020114B1249CC
S11304008B4218D3FFF7E8FE186850F8224058686A
S113041040F82240013298688242F5D30C33EAE76F
S11304200022F8E71C6844F8220001325C68A2420A
S1130430F8D30833E4E70022F8E700BF543600009D
S113044060360000603600006036000010B54FF4DE
S113045000414FF0FF30124B124A9A60D3F88820C3
S113046042F47002C3F888200F4A916601F1884172
S113047001F5005210664FF6DF7050660220C3F893
S1130480D000BFF34F8FBFF36F8F08244FF4403376
S11304900648C0F88041D36004600B6110BD00BF02
S11304A000ED00E0000000000090005000E100E0DA
S11304B0014B1868704700BF04100020084B1B6FE5
S11304C003F00703022B04D0032B05D0012B05D026
S11304D0FEE7044B18687047034BFBE7034870477B
S11304E000800050041000200C100020002D310169
S11304F008B5FFF7E3FF054B1B6FC3F30333013369
S1130500B0FBF3F0024B186008BD00BF0080005040
S1130510001000200048704700B4C404014B186860
S1130520704700BF0C10002000487047002D3101B7
S1130530014B1868704700BF081000200346054AA5
S11305400549106803448B428CBF4FF0FF301360A1
S1130550704700BF101000200080002008B5012162
S11305603A2000F041FA032101230422002000F084
S113057031FD002002F0A1FA0122214B4FF46070FA
S1130580C3F8442400F05AFA1E4B00F5D520D3F8E2
S1130590F02000F2FC4042F00102C3F8F020D3F84E
S11305A0FC2042F08072C3F8FC20174AA3F55D4397
S11305B01A60164B0222B0FBF3F0154B0138186198
S11305C0C3F8F0204FF48072C3F804234FF0604363
S11305D0104A0020C3F8B02F0F4AC3F8802ED3F876
S11305E0002E42F48072C3F8002EFF2283F82020EC
S11305F0D3F8002E22F48072C3F8002E08BD00BF89
S113060000D0035000ED00E0FF030040F8590D0056
S1130610000004E055CEACC50900010030B54FF030
S11306206043D3F8802ED20715D501240B4D8440A6
S1130630D5F8FC2042F08072C5F8FC20D3F8002ED7
S11306402243C3F8002E53F82020002AF0D003F8E8
S11306502010002030BD1120FCE700BF00ED00E0B9
S1130660044BD3F88420D206FBD4D3F88400C0F31F
S1130670811070470040005038B5104B0546D3F840
S113068020310C4603F00303022B0BD0032B0DD0B7
S1130690012B0FD1FFF70CFF052305B1286004B12E
S11306A0236038BDFFF73AFF0323F6E7FFF73CFF6B
S11306B00223F2E701230020EFE700BF008000508F
S11306C0F7B50027114B0197D3F88041064604F093
S11306D00304012C0D4608D0022C12D041F2B13192
S11306E00B4802F095F93C4604E0394601A8FFF7AF
S11306F0C3FF0F240EB1019B336005B12C6003B01E
S1130700F0BDFFF711FF0190F4E700BF0080005037
S1130710BC31000038B51A4B0546D3F824010C4609
S113072000F00700062821D8DFE800F0280410189C
S11307301C0C1400FFF7BCFE052305B1286004B1AE
S1130740236038BDFFF7B4FE0623F6E7FFF7E6FEA5
S11307500323F2E7FFF7E2FE0423EEE7FFF7E4FEEC
S11307600223EAE702F04CF90723E6E7054840F6DE
S1130770A87102F04DF900231846DEE70123DCE7F7
S113078000800050BC31000038B5104B0546D3F84A
S113079040310C4603F00303022B0BD0032B0DD086
S11307A0012B0FD102F02EF9092305B1286004B101
S11307B0236038BDFFF7BCFE0823F6E702F025F9F5
S11307C00B23F2E701230020EFE700BF0080005075
S11307D038B5164B0546D3F800020C4600F0070066
S11307E0042819D8DFE800F020030B0F130002F0EF
S11307F009F9092305B1286004B1236038BDFFF766
S113080097FE0823F6E702F000F90B23F2E7FFF75F
S11308106FFE0E23800AEDE7054841F26F4102F0B6
S1130820F7F800231846E5E70123E3E700800050CA
S1130830BC31000038B5124B0546D3F840320C46A3
S113084003F00303022B0BD0032B0DD0012B0FD18C
S113085002F0D8F8092305B1286004B1236038BD3B
S1130860FFF766FE0823F6E702F0CFF80B23F2E762
S1130870044841F2FA3102F0CBF800231846EAE7C3
S113088000800050BC31000038B5104B0546D3F849
S113089060310C4603F00303022B0BD0032B0DD065
S11308A0012B0FD102F0AEF8092305B1286004B181
S11308B0236038BDFFF73CFE0823F6E702F0A5F8F5
S11308C00B23F2E701230020EFE700BF0080005074
S11308D010B40F4C0B46D4F8204204F00304012C4E
S11308E00ED0022C10D008B1002101600BB10022FF
S11308F01A6040F6D27107485DF8044B02F088B8DC
S11309005DF8044BFFF7B8BE5DF8044BFFF73CBF3E
S113091000800050BC31000010B5B0F5207F34D009
S113092009D8B0F5007F2AD003D898B1B0F5C07FBC
S113093010D0002421E0B0F5607FFAD1154BD3F834
S11309408030C3F301149B0617D5032C15D040F255
S113095095210FE00F4B1C6F230B13F00E0FC4F304
S113096003340AD0072C08D00F2C06D0032C04D053
S113097040F28521084802F04BF8601C10BD054B7D
S1130980D3F89040C4F30464F7E7024B1C6FC4F33C
S11309908024F2E700800050BC31000010B54FF411
S11309A000320E4B04469A660020FFF7B5FF604301
S11309B041F671320A4C0B4BA04294BF0020012037
S11309C0D969DA639A6822F4401242EA00529A60C2
S11309D0CA0344BF0022DA6310BD00BF0090005078
S11309E0005A62020000035070B5460904460D46E1
S11309F00ED140F22F310D4802F00AF8334604F0CC
S1130A001F047DB103F580530122A2401A6070BD1A
S1130A10012E05D0064B074A022E18BF1346EEE7F7
S1130A20054BECE703F50053EEE700BFBC310000D3
S1130A3068800050608200506480005030B585B0FA
S1130A40002380280446019374D02AD8002877D044
S1130A50A0F12004412C32D8412C30D8DFE804F036
S1130A6070737073888888887373923FA8653F7326
S1130A7073732F2F2F2F2F2F8D57737373B2AD7363
S1130A802F2F2F2F2F2F2F2F2F2F2F2F2F702F70F0
S1130A907070882F2F2F2F2F2F2F2F2F2F2F2F2F87
S1130AA07070B0F5806F63D024D8B0F5007F55D056
S1130AB00BD8B0F5807F6AD0B0F5C07F40D040F24B
S1130AC09441434801F0A4FF37E0B0F5607F45D07E
S1130AD0F5D8B0F5207F36D0B0F5407FEFD1FFF7E1
S1130AE007FD04464FF42070FFF716FFB4FBF0F443
S1130AF0640831E0B0F5C06F5AD00DD8B0F5A06FDE
S1130B003BD0B0F5B06F3DD0B0F5906FD7D1002198
S1130B1001A8FFF7FFFD10E0B0F5E06F4DD0B0F590
S1130B20F06F4FD0B0F5D06FC9D1002101A8FFF705
S1130B304FFE02E0FFF7C2FC0190019805B030BD02
S1130B40FFF7D6FCF8E7FFF7D3FC04464FF4207018
S1130B50FFF7E2FEB4FBF0F40194EEE7FFF7AEFC1E
S1130B6005462046FFF7D8FEB5FBF0F50195E4E70E
S1130B70002101A8FFF780FDDFE7002101A8FFF7AE
S1130B80A7FEDAE7002101A8FFF79AFDD5E7029353
S1130B904FF0E0231B695B0705D5FFF7A9FC029022
S1130BA0029B0193C9E703A902A8FFF7EDFDF7E74C
S1130BB0002101A8FFF7E8FDBFE7002101A8FFF726
S1130BC039FEBAE7002101A8FFF75EFEB5E700BFD2
S1130BD0BC31000008B58020FFF730FF034B98427A
S1130BE09EBF4FF48032024B1A6708BD005A62025E
S1130BF000A0005010B5B0F5207F65D00ED8B0F538
S1130C00007F4FD003D800B3B0F5C07F1DD040F2B1
S1130C101231BDE81040344801F0FABEB0F5607FEF
S1130C20F5D14C1E012C06D9042904D04FF43D7192
S1130C302D4801F0EDFE2D4AD2F8803023F0300328
S1130C4043EA0413C2F8803010BD4C1E012C0AD9AB
S1130C50102903D8264BCB40DB0704D440F2C7212C
S1130C60214801F0D5FE01F0DFFE01F0EBFE4FF468
S1130C708031204B1D4A1967136F23F4704343EAF4
S1130C8004331367FFF734FC0446FFF7E9FCC0F1B3
S1130C900201204601F0D0FE00F03EF8BDE810400D
S1130CA0FFF798BF4C1E1F2C04D940F206310E48A2
S1130CB001F0AEFE0D4AD2F8903023F0F85343EA27
S1130CC00463C2F89030BFE74C1E012C04D94FF4E2
S1130CD04371054801F09CFE044A136F23F48063BA
S1130CE043EA84231367AFE7BC310000008000505F
S1130CF0100101000090005008B50121022000F00D
S1130D0027F801F091FE01F09DFE4FF48032014B73
S1130D101A6708BD0090005008B54FF4C070FFF783
S1130D208DFEBDE808400449884294BF0121022198
S1130D304FF42070FFF75EBF80F0FA02034A017996
S1130D40D36E23F030030B43D3667047004000504A
S1130D50F8B50446244BD3F88420D006FBD4D3F84A
S1130D608430C3F381139C423CD0FFF7A7FB012CD2
S1130D7005460BD11D4B984204D940F281711C48A1
S1130D8001F046FE0121284601F056FE01F074FEF2
S1130D904FF00072174B07465A66204601F07CFE5E
S1130DA04FF48063104E621E93403367736E9A0152
S1130DB003D4D6F884309B060AD5384601F060FE89
S1130DC0022C0FD12846BDE8F840002101F034BEC2
S1130DD0D6F884309906E9D540F28F71044801F0C1
S1130DE017FEE3E7F8BD00BF00400050005A62025E
S1130DF00C3200000060005010B50C4608B9FFF733
S1130E005DFB074B21461B783BB1064B984204D847
S1130E100120BDE81040FFF79BBF0220F9E700BFA7
S1130E2024120020005A620238B54FF00042264BCB
S1130E3026495A6601224A604AF6CD3103F50B234E
S1130E405D6C1964154030BB9968C9070BD4002444
S1130E5001221F4B5A6015B11E4B1F4A1A6401F040
S1130E601CFE204638BD1A498A601C4AD96ACC0740
S1130E7005D4904201D10724EAE70130F6E7904215
S1130E80E5D1F8E70132DC6A14F0080406D08A429E
S1130E90F8D10724DFE700221049F4E78A42F8D0AA
S1130EA020220B4B0B495A620122A3F580539A600E
S1130EB023460A4A486A800603D49342E9D00133A0
S1130EC0F8E79342C7D1E4E700900050005009507E
S1130ED000600950004009503254FFFF40420F00A7
S1130EE038B54FF00042174B174C5A66012203F5F0
S1130EF00C235A604AF6CD33656C236443789340DF
S1130F001343124AD363C3788178A2689B0043EAEF
S1130F10011322F074021343A3600279837943EA34
S1130F20022323614279C37943EA0223636100788F
S1130F30FFF77AFFEB0744BF054B236401F0ADFDD7
S1130F40012038BD0090005000400950004000507E
S1130F503254FFFF38B5032804460D4605D80B4B21
S1130F6033F81030CB40DB0704D440F22D4108485D
S1130F7001F04EFD30220123544341F2100204F1EA
S1130F80A044AB4004F57034A35038BDFE320000D9
S1130F905C32000038B5032804460D4605D80B4BD7
S1130FA033F81030CB40DB0704D440F2FE3108485C
S1130FB001F02EFD30220123544342F2100204F1C9
S1130FC0A044AB4004F57034A35038BDFE32000099
S1130FD05C320000F8B5032804460D4616461F4649
S1130FE005D81C4B33F81030CB40DB0704D44FF446
S1130FF0B071194801F00CFD26B129462046CFB145
S1131000FFF7A8FF04EB4403072D4FF00F014FEA4D
S1131010031312D8A80006FA00F281400F481844BE
S113102001F03CFDAEB92946204677B1BDE8F84051
S1131030FFF790BFFFF7AEFFE4E7A5F108008000DB
S113104006FA00F281400648E9E7BDE8F840FFF7F8
S1131050A1BFF8BDFE320000AD32000004C0035051
S11310600CC0035038B5022805460C4603D94C2160
S11310700C4801F0CDFCE378627821785B0143EA07
S1131080820322790B4343EA02130C226A4302F1DE
S1131090B0421363012902BFA278034B43F8252011
S11310A038BD00BF06330000E880035008B54FF098
S11310B0B0435A686AB958B15B680BB101F0FEFCE1
S11310C001210D4B596001F0F9FC4FF0B043D96098
S11310D008BD5B680BB101F0F1FC0028F0D101F010
S11310E0EDFC4FF0B0430222DA6001F0E7FC01228C
S11310F0024B5A60ECE700BF001000580020005873
S113110010B54FF0B0414B680BB101F0D7FC012290
S11311100B4BC4785A608378934043EA8403447841
S11311202343047943EA0413447943EAC4038B60F8
S1131130044B5A600378C3F10203CB6010BD00BFB7
S11311400020005800100058024B1868C0F30740F4
S1131150704700BF0080E00F07B56B46054A106872
S1131160516803C36846FFF7BBFE002003B05DF877
S113117004FB00BF5733000013B50024064A684639
S1131180536F43F00103536700948DF80440FFF755
S1131190D5FD204602B010BD0040005010B56FF0E0
S11311A0040350210A480B4C13F0800F03F1010291
S11311B007D12344402A83F800131346F4D10020B6
S11311C010BD03F00F03043B034419761346EBE709
S11311D000ED00E000E100E010B5044601F04CFC35
S11311E0024B1C6001F04CFC002010BDA410002038
S11311F010B501F041FC034B1C6801F041FC204692
S113120010BD00BFA410002010B50020144601F04A
S11312105DFC022804D018B1C321024801F0F8FB98
S1131220204610BD5F330000034B022218680023E0
S11312308068194600F0CCBE2C10002010B50020A8
S113124001F0E7FB044610B90248FFF7C5FF20464A
S113125010BD00BF1410002030B50E4C416123684E
S11312608BB9206083600DE0891A9A681D4641613C
S11312706AB113465A698A42F6D935B1A860521A3E
S113128083605A6130BD0025F4E72060F7E7986079
S11312908260F7E7B010002038B501F0BEFC0025ED
S11312A0084B094C1A682368C31A2AB123B151693F
S11312B0994203D3C91A5161206038BD55615B1A44
S11312C09268F2E7B0100020AC10002038B5134D3E
S11312D02B685B6993B1124A022014681C4401F024
S11312E0A3FC204600F006FA00230E492A680B707E
S11312F0D088800709D501230B7038BD022001F086
S113130093FC022000F040FAEEE79268002AF4D041
S113131050690344012BEBD9EFE700BFB010002064
S1131320AC1000202612002070B516469DF814203B
S1131330C0E903360271049ABDF818300260002235
S113134004460D468260C380EEB901F066FC284471
S1131350A0619DB12E4601F08FFB0546FFF79CFF6F
S113136031462046FFF778FF104B1B68A34201D19A
S1131370FFF7ACFF284601F083FB02E0E3686561F8
S11313807BB9002070BD01F048FC3044A061002D01
S1131390E0D1E3686561002BDDD0204621689847E1
S11313A0D9E7204621689847EBE700BFB01000203A
S11313B000220C490B687BB183420AD183687AB15D
S11313C0936083681BB15A6941690A445A610020D9
S11313D070471A469B68EEE70028EFD0022070475A
S11313E00B60EEE7B010002070B501F04CFB144E1A
S11313F005463478FCB9134B1C60134B1C60134B2B
S11314001C8000F033F9012001F00EFC01F018FCFF
S11314100F4B0246186020B9284601F03AFB2320FE
S113142070BD234640F2E7310A4800F08BFB0A4BBB
S1131430186001233370284601F02BFB0020EFE7EE
S113144027120020B0100020AC1000202012002031
S1131450B410002018FCFFFFA810002070B504464B
S113146040B301F009FB144E0546FFF715FF306841
S1131470A04209D02046FFF79BFF0446B0B128469E
S113148001F0FEFA204670BDFFF792FF04460028E3
S1131490F5D133683BB9022000F05EF9284601F02B
S11314A0EFFA0024EEE7FFF711FFF7E73368002BAC
S11314B0F4D1F0E72224E5E7B010002038B50C465B
S11314C00546A8B1A1B100230B7001F0DCFA01219B
S11314D0084B1B6833B901F0DCFA002038BD9D428B
S11314E004D121702278002AF9D0F4E79B68F1E74F
S11314F02220F3E7B010002038B50021044640F262
S1131500E730054B4FF47A721D680023E5FB0401B4
S113151000F018FB38BD00BFB41000202DE9F047DF
S1131520C20704460BD54D4A138801339BB213807E
S1131530FFF7B2FE4A4B1B680BB1FFF7C7FEA307C8
S113154040F18A8001F09FFA4FF0000905464E46AB
S1131550FFF7A2FEC846424F3C680CB163698BB1E9
S11315600022404B012E1A7003D119F0020F18BF4C
S11315701E70002C6CD0FFF7A9FE2846BDE8F0478A
S113158001F087BA23465A693AB91A792179914206
S113159088BF1C469B68002BF5D1284601F079FAD8
S11315A02569DDB101F039FBA269A0EB02094FEA1C
S11315B0E9734D4578EB030311DA23691344A361FE
S11315C0E368B4F80690013613B1204621689847C1
S11315D001F059FA0546FFF75FFEBDE7A94601F0A1
S11315E052FA82462046FFF7E3FE504601F051FAD4
S11315F02369002BE4D0B5EB09054FEAE97363EBEB
S11316004303002B04DA40F22B51174801F000FA8F
S1131610A38B33B1E28B13449BB2B3F57A7F0FD221
S1131620E38301F030FA814629462046FFF714FE91
S1131630A369226948461344A36101F02AFABFE76B
S1131640A3F57A73E383A369013D013BA361E8E752
S1131650022000F081F890E7BDE8F0872012002016
S1131660B010002025120020CE3300001FB5002446
S11316701D4B012118689A880290D3F806009B7AC2
S113168000903E20ADF80C208DF80430FFF7ACF943
S11316908DF8084001F0BFFA8DF80C0002A8FFF79E
S11316A02FFD694601208DF80040FFF7DBFC4FF069
S11316B0B04240F2FF31936923F47F7323F00303B4
S11316C093610A4B5961936A13F00803FBD11362C7
S11316D00120FFF7EBFC4FF48052054BC3F8802147
S11316E01A6004B010BD00BF32340000002000585E
S11316F000E100E010B5044601F0BEF94FF0B0423D
S1131700936A1907FCD4136A116C5269520604D403
S1131710CA1A032A01D88B420ED1E21A022A98BFB0
S1131720DC1CB4F1FF3F38BF013C4FF0B0431C64F4
S11317309A6942F040029A6101F0A2F9054A1378CD
S11317403BB14FF0B041CB6B43F00203CB630023BA
S1131750137010BD7F100020820700F001030AD52A
S11317600121084A43F0400311704FF0B041CA6BA5
S113177022F00302CA634FF0B0418A6922EA0303EC
S11317808B6170477F100020830742BF4022014BCA
S11317905A6170470010005810B501F074F94FF009
S11317A0B04304465B695A06074A03F0010003F09C
S11317B0510348BF40F002005361FFF7AFFE2046DB
S11317C0BDE8104001F065B9002000580023034A29
S11317D01370034A1370034A137070472A120020CF
S11317E0291200202812002070B5194E194D3478A2
S11317F02B789C4219D0032B12D8DFE803F0020A9D
S11318001F24012C0CD100F061F82C7000F07AF840
S113181006E0022C0AD100F0ADF82C7000F04CF96F
S113182000222B7833700C4B1A7070BD032CF7D147
S113183000F0A0F82C7000F0D1F8F1E7012CEFD102
S113184000F060F9E1E7012CEAD100F001F9DCE7EE
S1131850291200202A12002028120020044B09B962
S11318601A781AB901221A70024B1870704700BF17
S1131870281200202912002037B50C461546FFF720
S11318803BFE142300220146CDE9003203482B46D7
S1131890224601F09CF903B030BD00BFB81000200F
S11318A007B5012308480DF107018DF80730FFF74C
S11318B005FE10B99DF8073013B10348FFF7CEFDBC
S11318C003B05DF804FB00BFB810002010B503207E
S11318D0FEF740FD70B1084C0849206801F041F959
S11318E001F080F801F07FF820680549BDE8104058
S11318F001F037B910BD00BFA0100020A0310000D6
S11319003D34000038B50320FEF724FD60B1144CCB
S11319101449206801F025F901F064F801F063F836
S11319201149206801F01DF9002264200F49FFF7D6
S1131930A3FF044698B10320FEF70CFD78B1084DCF
S11319400849286801F00DF901F04CF801F04BF852
S1131950224628680649BDE8384001F002B938BD7E
S1131960A0100020A03100004D340000852C0000A0
S11319706734000038B50320FEF7ECFC60B1134C6B
S11319801349206801F0EDF801F02CF801F02BF870
S11319901049206801F0E5F8FFF782FF044698B18A
S11319A00320FEF7D7FC78B1084D0949286801F0F7
S11319B0D8F801F017F801F016F82246286806490D
S11319C0BDE8384001F0CDB838BD00BFA0100020FC
S11319D0A0310000A8340000C134000038B5032051
S11319E0FEF7B8FC60B1154C1549206801F0B9F850
S11319F000F0F8FF00F0F7FF1249206801F0B1F899
S1131A0000224FF47A701049FFF736FF044698B16C
S1131A100320FEF79FFC78B1084D0949286801F0BE
S1131A20A0F800F0DFFF00F0DEFF22462868074937
S1131A30BDE8384001F095B838BD00BFA0100020C3
S1131A40A0310000013500008D2C00001735000086
S1131A5038B50320FEF77EFC60B1134C13492068AF
S1131A6001F07FF800F0BEFF00F0BDFF10492068D0
S1131A7001F077F8FFF714FF044698B10320FEF74E
S1131A8069FC78B1084D0949286801F06AF800F04A
S1131A90A9FF00F0A8FF224628680649BDE838409F
S1131AA001F05FB838BD00BFA0100020A0310000D5
S1131AB0543500006935000038B5002241F2883001
S1131AC00C49FFF7D9FE044698B10320FEF742FC07
S1131AD078B1094D0949286801F043F800F082FF04
S1131AE000F081FF224628680549BDE8384001F02E
S1131AF038B838BD952C0000A0100020A03100009B
S1131B00A535000038B5FFF7CBFE044698B1032095
S1131B10FEF720FC78B1084D0849286801F021F847
S1131B2000F060FF00F05FFF224628680449BDE82A
S1131B30384001F016B838BDA0100020A0310000D4
S1131B40DE35000053B94AB9002908BF00281CBF7C
S1131B504FF0FF314FF0FF3000F082B9ADF1080CC7
S1131B606DE904CE00F006F8DDF804E0DDE90223B7
S1131B7004B070472DE9F04F099D0C46002B4DD160
S1131B808A420F4684469646B2FA82F360D94BB134
S1131B9002FA03FEC3F120029F4000FA03FC20FA7C
S1131BA002F217434FEA1E461FFA8EF44FEA1C4214
S1131BB0B7FBF6F106FB117701FB04F042EA07429A
S1131BC0904208D91EEB020201F1FF3702D2904283
S1131BD000F231813946121A1FFA8CFCB2FBF6F07E
S1131BE006FB102200FB04F44CEA024C644508D9BD
S1131BF01EEB0C0C00F1FF3202D2644500F21E8190
S1131C00104640EA0140ACEB040C002125B12CFA4B
S1131C1003F30022C5E90032BDE8F08F8B4205D9F9
S1131C200DB1C5E9000100210846F5E7B3FA83F1D7
S1131C3000294DD1A342C0F0F380904280F0F0809F
S1131C40064623460846002DE6D0C5E90063E3E7CF
S1131C50002B40F0A3808A1A4FEA1E471FFA8EF623
S1131C600121B2FBF7F407FB14204FEA1C4242EABD
S1131C70004206FB04F090420FD91EEB020204F16D
S1131C80FF382CBF4FF001094FF00009904203D9EF
S1131C90B9F1000F00F0CC804446121A1FFA8CFCF4
S1131CA0B2FBF7F007FB102200FB06F64CEA024CED
S1131CB0664508D91EEB0C0C00F1FF3202D26645D2
S1131CC000F2B3801046ACEB060C40EA04409DE7FA
S1131CD0C1F120068B4004FA01FE22FA06F720FA2D
S1131CE006FCF4408A401F434EEA0C0300FA01FE4E
S1131CF04FEA17484FEA13491FFA87FCB4FBF8F080
S1131D0008FB104449EA044400FB0CF9A1450ED930
S1131D103C1900F1FF3A2CBF4FF0010B4FF0000BC0
S1131D20A14503D9BBF1000F00F08B805046A4EB12
S1131D3009041FFA83F9B4FBF8F308FB134403FB0B
S1131D400CFC49EA0444A44506D93C1903F1FF38C4
S1131D5001D2A4457BD8434643EA0040A4EB0C04DB
S1131D60A0FB02984445CC46434602D306D1CE4557
S1131D7004D20138B9EB020C68EB0703002D6CD0D8
S1131D80BEEB0C0264EB030422FA01F304FA06F638
S1131D90CC4000211E43C5E900643DE702FA03FE7E
S1131DA0C3F1200104FA03F200FA03FCCC404FEA29
S1131DB01E4720FA01F11FFA8EF6B4FBF7F00A432E
S1131DC007FB1044110C41EA044100FB06F48C4269
S1131DD00ED91EEB010100F1FF382CBF4FF00109B1
S1131DE04FF000098C4202D9B9F1000F2CD04046C3
S1131DF0091B92B2B1FBF7F407FB141142EA01424A
S1131E0004FB06F1914207D91EEB020204F1FF38EC
S1131E1001D291421ED84446521A44EA004120E7B6
S1131E20861A64EB030301200DE7F44402384AE701
S1131E30023C724431E702397244CCE6F44402387D
S1131E40DFE602383C4472E702387144D0E7023BD3
S1131E503C4481E7023C7244DEE72946DCE600BFED
S1131E60704700BF08B5064B044613B10021AFF319
S1131E700080044B1B6803B19847204600F080FEA5
S1131E800000000010120020002310B504468360F7
S1131E90818119464366C28108228361C0E9003307
S1131EA0C0E904335C3000F05AFF0D4B24626362D6
S1131EB00C4BA3620C4BE3620C4B23630C4B9C4214
S1131EC006D003F16802944202D0D0339C4205D17B
S1131ED004F15800BDE8104000F049BF10BD00BF38
S1131EE0D92C0000FB2C0000332D0000572D0000DE
S1131EF0D8100020024A0349034800F0CFBE00BFB7
S1131F0020100020B12F00003010002041680C4B3D
S1131F10994210B5044601D001F04AF8A168094B72
S1131F20994202D0204601F043F8E168064B9942F9
S1131F3004D02046BDE8104001F03AB810BD00BFFF
S1131F40D810002040110020A811002010B50B4B20
S1131F5004210B4C0B4A20461A600022FFF794FF21
S1131F6004F1680001220921FFF78EFF04F1D0007B
S1131F7002221221BDE81040FFF786BF1012002094
S1131F80D8100020F51E0000014800F0F1BE00BF8B
S1131F902C120020014800F0ECBE00BF2C120020DF
S1131FA010B50446FFF7F0FF236A1BB1BDE81040EB
S1131FB0FFF7F0BF044B2362044B1B68002BF5D1E1
S1131FC0FFF7C4FFF2E700BF0D1F0000101200204E
S1131FD02DE9F7431D46574B04460E461F689046AD
S1131FE027B13B6A13B93846FFF7DAFFB8F1020F9D
S1131FF006D0B8F1010F00F29980002DC0F296804E
S1132000636ED90705D4A3899A0502D4A06D00F0A4
S1132010AFFE2146384600F0CBFF616B41B104F1BD
S11320204403994202D0384600F0FAF8002363636F
S11320300023A3616360A3891B0603D52169384685
S113204000F0EEF8A389B8F1020F23F44A6323F0F9
S11320500303A38160D001AB6A462146384600F0F1
S1132060CFFFA3891843A0812DBB009D284600F013
S113207021F90646002851D1DDF80090A9453FD149
S11320804FF0FF35B4F90C3043F00202A281002274
S1132090A26004F147022260226101226261626E41
S11320A0D60704D4980502D4A06D00F062FE284639
S11320B003B0BDE8F083002ED8D03B6A13B938468C
S11320C0FFF76EFFB8F1010F266002BFA38943F04A
S11320D00103A381B4F90C3013F00802C4E90465C8
S11320E01ED0D90745BF00226D42A560A26048BF3B
S11320F0A561626ED20701D49B0513D50025D6E7EE
S1132100484600F0D7F806460028B9D0A3894D46C2
S113211043F08003A381D0E70025B3E7A946F5E7A0
S1132120A260E6E7A06D00F024FEE7E74FF0FF357C
S1132130BDE700BF2C1000200B4603490246086887
S1132140816800F065B900BF2C10002038B5002369
S1132150054D044608462B6000F010FD431C02D1D7
S11321602B6803B1236038BD1412002038B504462F
S1132170064D0846114600222A601A4600F008FD62
S1132180431C02D12B6803B1236038BD1412002014
S113219038B50446064D0846114600222A601A4600
S11321A000F0F8FC431C02D12B6803B1236038BD56
S11321B01412002038B50446064D08461146002284
S11321C02A601A46FFF720F8431C02D12B6803B19A
S11321D0236038BD1412002070B50D4D00260D4C3F
S11321E0641BA410A64209D10B4D00260B4C00F031
S11321F0B7FF641BA410A64205D170BD55F8043B7B
S113220001369847EEE755F8043B01369847F2E764
S113221080100020801000208010002084100020F6
S113222038B50546002941D051F8043C0C1F002B59
S1132230B8BFE41800F0E0F81D4A136833B96360CE
S113224014602846BDE8384000F0DCB8A34208D941
S1132250206821188B4201BF19685B680918216046
S1132260EDE71A465B680BB1A342FAD9116850181E
S1132270A0420BD120680144501811608342E0D180
S113228018685B68084453601060DAE702D90C23CD
S11322902B60D6E7206821188B4202BF19685B685F
S11322A00918636008BF21605460CAE738BD00BFE5
S11322B01C120020024B0146186800F025B800BF2C
S11322C02C10002070B50F4E0C460546316811B92C
S11322D000F05AFB30602146284600F055FB431CB1
S11322E003D14FF0FF34204670BDC41C24F0030416
S11322F0A042F8D0211A284600F046FB0130F2D162
S1132300EFE700BF181200202DE9F041CD1C06466E
S113231025F0030508350C2D38BF0C25002D01DBF5
S1132320A94204D90C2333600020BDE8F081314F69
S113233000F062F83B681C4644BB29463046FFF770
S1132340C1FF431C044650D13C682146002941D1B9
S1132350002C44D02368304604EB030800F014FB3F
S113236080453CD1216830466D1A2946FFF7AAFF03
S1132370013034D023682B4423603B68002B36D0D3
S11323805A68A24229D100225A600EE02268521BE8
S11323901DD40B2A16D96119A342256018BF5960B0
S11323A0636808BF396062514B60304600F02AF818
S11323B004F10B00231D20F00700C21AB5D01B1A2C
S11323C0A350B2E7A3426268DED13A60EDE7234648
S11323D06468B1E70C464968B8E71346CEE70C23B6
S11323E03046336000F00EF89EE70560DDE75B6081
S11323F0FFDE00BF1C120020014800F0B9BC00BF82
S11324002B120020014800F0B4BC00BF2B120020A6
S11324102DE9F04F0D469DB014469846064618B176
S1132420036A0BB9FFF7BCFD6B6ED90705D4AB8902
S11324309A0502D4A86D00F09BFCAB891B0701D55B
S11324402B699BB92946304600F026FA70B16B6EB1
S1132450DC0704D54FF0FF301DB0BDE8F08FAB8929
S11324609805F7D4A86D00F084FCF3E70023CDF8B9
S11324700C804FF00109DFF8B481099320238DF813
S1132480293030238DF82A3023469A4613F8012B3D
S11324900AB1252AF9D1BAEB040B0BD05B462246CC
S11324A02946304600F07DFC013000F0A780099AEF
S11324B05A4409929AF80030002B00F09F800023C0
S11324C04FF0FF320AF1010A049307938DF8533059
S11324D01A93CDE9052354460522544814F8011BE8
S11324E000F02DFE049AD8B9D10644BF20238DF8FC
S11324F05330130744BF2B238DF853309AF8003020
S11325002A2B15D0079A544600204FF00A0C214676
S113251011F8013B303B092B4BD9B0B1079214E0C1
S1132520A0EB0803A24609FA03F313430493D2E78A
S1132530039B191D1B68002B0391BBBF5B4242F038
S1132540020207930793B8BF049223782E2B0AD173
S113255063782A2B32D1039B02341A1D1B6843EA89
S1132560E37303920593DFF8D4A003222178504645
S113257000F0E5FD38B1A0EB0A004022049B0134D1
S113258082401343049314F8011B062228488DF853
S1132590281000F0D4FD00283FD0264B1BBB039B22
S11325A0073323F0070308330393099B3B44099340
S11325B06AE70CFB02320C460120A8E70023013431
S11325C04FF00A0C19460593204610F8012B303AB7
S11325D0092A03D9002BC6D00591C4E70CFB0121BD
S11325E004460123F0E703AB2A4604A930460093CE
S11325F0114BAFF300800746781CD6D16B6ED90718
S113260005D4AB899A0502D4A86D00F0B2FBAB895E
S11326105B063FF51FAF09981EE703AB2A4604A9E2
S113262030460093044B00F00BF8E4E71636000044
S11326302036000000000000A32D00001C3600001E
S11326402DE9FF470F7E914680460C46782F9A4627
S11326500C9E01F1430207D8622F0AD8002F00F024
S1132660DD80582F00F0C38004F1420684F84270E4
S11326703AE0A7F16303152BF6D801A151F823F032
S1132680D9260000ED260000692600006926000016
S11326906926000069260000ED2600006926000076
S11326A0692600006926000069260000032800004E
S11326B07B270000BB270000692600006926000074
S11326C025280000692600007B27000069260000F9
S11326D069260000C327000033681A1D1B68326096
S11326E004F1420684F842300123A8E031682368EB
S11326F0081D30601E0601D50D6803E05D06FBD59C
S1132700B1F90050002D616878DA2D200029A1600C
S113271084F843002DDA6D425D480A231646B5FB62
S1132720F3F103FB1157C75D06F8017D2F460D46F3
S1132730BB42F4D9082B0BD12368DF0708D52369E2
S113274061689942DEBF302306F8013C06F1FF368A
S1132750921B22614B4603AA21464046CDF800A0B5
S113276000F031FB01306FD14FF0FF3004B0BDE811
S1132770F08723F004032360CDE72168336808065B
S113278053F8045B02D4490648BFADB26F2F3360DF
S11327903F4814BF0A230823002184F843106668C5
S11327A0002EA660BADB216821F004012160002D0F
S11327B0B4D1002EB2D11646BCE7236843F02003FF
S11327C0236078273348236884F845701F063168EE
S11327D051F8045B02D45F0648BFADB23160D9073B
S11327E044BF43F0200323601DB11023D4E72848DD
S11327F0E9E7236823F020032360F6E724480A234B
S1132800CDE733682568181D616930602E061B68A2
S113281001D5196002E06806FBD51980002316462D
S1132820236197E7336800211A1D32601E686268CD
S1132830304600F084FC08B1801B6060636823614B
S1132840002384F8433085E72369324649464046ED
S1132850D047013088D023689B0714D4E068039BD9
S11328609842B8BF184681E701233246494640469C
S1132870D04701303FF478AF0135E36803995B1A20
S1132880AB42F1DCEAE7002504F11906F5E700BFE5
S1132890273600003836000038B5294B05460C466B
S11328A0186818B1036A0BB9FFF77AFBB4F90C3056
S11328B0190722D4DA0607D409222A6043F0400318
S11328C04FF0FF30A38133E0580712D5616B41B15B
S11328D004F14403994202D02846FFF7A1FC0023E7
S11328E06363A38923F02403A38100236360236922
S11328F02360A38943F00803A38123694BB9A38907
S113290003F42073B3F5007F03D02146284600F07A
S11329109CFBB4F90C3013F001020AD00022A2602F
S113292062695242A261226942B913F08000C5D1A2
S113293038BD990758BF6269A260F4E70020F7E741
S11329402C10002038B50023064D044608461146D5
S11329502B6000F016F9431C02D12B6803B12360ED
S113296038BD00BF1412002038B50023054D0446BD
S113297008462B6000F00AF9431C02D12B6803B10E
S1132980236038BD1412002038B50023054D0446D9
S113299008462B60FDF7D2FD431C02D12B6803B11E
S11329A0236038BD14120020FEF71EBF08B500F0E6
S11329B051F9FDF74BFC00F05AF9FFF7F5FFFAE780
S11329C0FDF7CCBD08B5FEF70FFDFEF72DFCBDE805
S11329D00840FEF733BC7047FDF7DCBC7047704716
S11329E07047704770477047FEE710B53AB100234F
S11329F050F8234041F8234001339A42F8D110BDE6
S1132A00002070474FF4004070474FF47A707047CD
S1132A10FEE74FF060420123D2F8001E83400B43CF
S1132A200020C2F8003E704708B5FDF773FDBDE80D
S1132A3008400021FDF7B2BF0029CCBF01210021CD
S1132A40FDF7ACBF02214FF42070FEF7D3B810B5E8
S1132A50FDF74EFD0446FDF703FEC0F102012046DA
S1132A60FFF7EAFF01210020FEF7C6F9FEF754F94B
S1132A70BDE81040FEF7AEB8EFF3108072B67047B1
S1132A8000B962B67047EFF31180302383F31188E5
S1132A90704780F3118870477047704770B50546DA
S1132AA014460E46FFF7E8FF2B685C4034405C4058
S1132AB02C60BDE87040FFF7E3BF70474FF0B043B0
S1132AC05A6812B19A6A002AFAD1704770B50C4656
S1132AD0154610B9FEF78CFB38B143682BB12A4672
S1132AE02146BDE8704000681847232070BDF7B543
S1132AF00D4616461C4648B103B901AC87685FB160
S1132B002346324629460068B84706E0FEF770FBC4
S1132B1004B901AC0028F1D1232003B0F0BDF8B50D
S1132B200C461546064658B9FEF762FB2046294670
S1132B30FFF702FB0446002CD4BF37200020F8BD69
S1132B40FEF756FB86420746F0D03046FEF744FBBC
S1132B5029462046FFF7F0FA04463846FEF73CFBC8
S1132B60E9E70EB403B503AA52F8041B0192FFF778
S1132B70D6FF02B05DF804EB03B070470020704745
S1132B80FEE74FF4005300204B607047012070476C
S1132B900020704707B5002001AB0190FFF7A7FFA5
S1132BA00198002808BF4FF0FF3003B05DF804FB24
S1132BB038B50C468D18AC4201D1002006E0002047
S1132BC014F8011BFDF72AFD0028F4D038BDF0B538
S1132BD087B01F4600230D46164604468DF817306D
S1132BE0A8B1C3610DF11701FEF768FC9DF8172029
S1132BF07AB9BDF83430294602939DF83030204626
S1132C00CDE900733346FEF78FFB07B0F0BD2220F9
S1132C10FBE70320F9E7002070474FF0B0439A6ABE
S1132C201207FCD4186A704782074FF0B04200F0D4
S1132C300103916948BF43F040030B43936170471C
S1132C4008B53E20FDF7FAFE0346FFF7E4FF23FA3A
S1132C5000F008BD08B5FDF759FBFFF7B1FEFFF71B
S1132C60B1FEFFF7B8FEBDE80840FFF7B5BE08B5F2
S1132C70FFF7B4FEFFF7B3FEFFF7B2FEBDE808406E
S1132C80FFF7AFBE00210220FEF7E8BD00210120BE
S1132C90FEF7E4BD01210846FEF7E0BD2DE9F84347
S1132CA00746884614460026D4E90195B9F101097E
S1132CB005D52468002CF7D13046BDE8F883AB89EC
S1132CC0012B07D9B5F90E30013303D02946384614
S1132CD0C04706436835E9E710B50C46B1F90E1054
S1132CE0FFF756FA0028ABBF636DA3891B1823F4C2
S1132CF08053ACBF6365A38110BD2DE9F0411F462D
S1132D008B8905460C46DB05164605D502230022B1
S1132D10B1F90E10FFF72AFAA3893246B4F90E105E
S1132D20284623F48053A3813B46BDE8F041FFF7D6
S1132D3041BA10B50C46B1F90E10FFF717FA431C4F
S1132D40A38915BF606523F4805343F48053A381A2
S1132D5018BFA38110BDB1F90E10FFF7F7B90244F3
S1132D600346934200D1704703F8011BF9E770470B
S1132D70704770479368013B002B936010B408DAE6
S1132D809469A34201DB0A2903D15DF8044B00F0E6
S1132D9098B91368581C1060084619705DF8044B04
S1132DA07047F8B506460F461446D518AC4201D113
S1132DB0002007E03A4614F8011B3046FFF7DAFF1B
S1132DC0431CF3D1F8BD2DE9F047164698468A68AE
S1132DD007460B690C46DDF820909342B8BF1346B2
S1132DE0336091F843200AB10133336023689906B4
S1132DF042BF336802333360256815F0060506D1F7
S1132E0004F1190AE36832689B1AAB422BDC94F88C
S1132E1043302268003B18BF0123920630D404F1EA
S1132E20430241463846C847013023D023681A3448
S1132E3054F80A2C03F00603042B0ABF54F80E5C62
S1132E40002533684FF0000608BFED1A54F8123C11
S1132E5008BF25EAE5759342C4BF9B1AED18B54235
S1132E601AD1002008E00123524641463846C8479B
S1132E70013003D14FF0FF30BDE8F0870135C1E7E1
S1132E80E1185A1C30200233224481F8430094F89C
S1132E90451082F84310C2E70123224641463846D2
S1132EA0C8470130E6D00136D9E7B1F90C202DE945
S1132EB0F041170705460C4656D44B68002B02DC3C
S1132EC00B6C002B3DDDE66A002E3AD0002312F491
S1132ED080522F68216A2B6025D0626DA389580720
S1132EE005D56368D21A636B0BB1236CD21A216ABD
S1132EF00023E66A2846B047411C24D000236360BF
S1132F0023692360A389DA0400D56065616B2F60AF
S1132F10B9B104F14403994202D02846FFF780F97D
S1132F20002363630DE001232846B047461C024694
S1132F30D4D12B68002BD1D01D2B01D0162B2AD134
S1132F402F6000202EE02A68B4F90C3042B11D2A0B
S1132F5001D0162A21D10023636023692360D5E7B9
S1132F60626022692260CEE70F69002FE9D09307DF
S1132F700E680F600CBF4B690023A6EB07088B603B
S1132F80B8F1000FDDDD43463A46216A2846A66AB9
S1132F90B047002808DCB4F90C3043F040034FF08C
S1132FA0FF30A381BDE8F0810744A8EB0008E7E700
S1132FB038B50B6905460C4613B90025284638BDBB
S1132FC018B1036A0BB9FEF7EBFFB4F90C30002B10
S1132FD0F3D0626ED00704D4990502D4A06DFFF734
S1132FE0C7FE28462146FFF760FF636E0546DA07F1
S1132FF0E4D4A3899B05E1D4A06DFFF7BAFEDDE715
S113300070B50C46B1F90E1096B0154600291E464F
S11330100CDAA389002113F0800F14BF40234FF46E
S11330208063002031602B6016B070BD6A46FFF7E4
S113303089FC0028EDDB019901F47041A1F50053EE
S1133040594259414FF48063EBE78B89F7B59D07EB
S113305006460C4607D504F1470323602361012388
S1133060636103B0F0BD01AB6A46FFF7C9FF009F7F
S1133070054630463946FFF747F948B9B4F90C30EC
S11330809A05EED423F0030343F00203A381E2E79D
S1133090A389206043F08003A381019BC4E9040752
S11330A05BB1B4F90E103046FFF75EFC28B1A3897A
S11330B023F0030343F00103A381A3891D43A581E6
S11330C0CFE7F8B50E461446054618B1036A0BB9A6
S11330D0FEF766FFA369A360A3891A0701D52369D4
S11330E043B921462846FFF7D7FB18B14FF0FF3705
S11330F03846F8BD2368F6B222693746981A6369E0
S1133100834205DC21462846FFF752FF0028EDD113
S1133110A368013BA36023685A1C22601E70431CF1
S113312062699A4204D0A389DB07E1D50A2EDFD174
S113313021462846FFF73CFF0028D9D0D6E7C9B27C
S11331400346024410B59342184601D1002003E01F
S1133150047801338C42F6D110BD00000000000059
S1133160F8B500BFF8BC08BC9E467047F8B500BF70
S1133170F8BC08BC9E467047000000000000000038
S1133180000000000000000000000000000000003B
S1133190000000000000000000000000000000002B
S11331A05B495D2000496E697469616C697A617478
S11331B0696F6E207374617274656400433A2F55AD
S11331C0736572732F4A6F656C2F53696D706C69E8
S11331D06369747953747564696F2F53444B732F07
S11331E06765636B6F5F73646B5F342E342E302FAF
S11331F0706C6174666F726D2F656D6C69622F738C
S113320072632F656D5F636D752E6300433A2F55AE
S1133210736572732F4A6F656C2F53696D706C6997
S11332206369747953747564696F2F53444B732FB6
S11332306765636B6F5F73646B5F342E342E302F5E
S1133240706C6174666F726D2F656D6C69622F733B
S113325072632F656D5F656D752E6300633A5C75EF
S1133260736572735C6A6F656C5C73696D706C69AD
S11332706369747973747564696F5C73646B735C8C
S11332806765636B6F5F73646B5F342E342E305CE1
S1133290706C6174666F726D5C656D6C69625C699B
S11332A06E635C656D5F6770696F2E6800433A2FCB
S11332B055736572732F4A6F656C2F53696D706C0B
S11332C0696369747953747564696F2F53444B73DC
S11332D02F6765636B6F5F73646B5F342E342E30BE
S11332E02F706C6174666F726D2F656D6C69622FDF
S11332F07372632F656D5F6770696F2E6300FF01E2
S11333001F00FF000F00433A2F55736572732F4A55
S11333106F656C2F53696D706C696369747953744C
S11333207564696F2F53444B732F6765636B6F5FCD
S113333073646B5F342E342E302F706C6174666F3F
S1133340726D2F656D6C69622F7372632F656D5F8B
S1133350727463632E6300010304010101090343D2
S11333603A2F55736572732F4A6F656C2F53696DCD
S1133370706C696369747953747564696F2F53440D
S11333804B732F6765636B6F5F73646B5F342E34AD
S11333902E302F706C6174666F726D2F7365727648
S11333A06963652F696F73747265616D2F737263DE
S11333B02F736C5F696F73747265616D5F7265748E
S11333C061726765745F737464696F2E6300433A56
S11333D02F55736572732F4A6F656C2F53696D7027
S11333E06C696369747953747564696F2F53444BC2
S11333F0732F6765636B6F5F73646B5F342E342E5A
S1133400302F706C6174666F726D2F73657276699C
S113341063652F736C65657074696D65722F737263
S1133420632F736C5F736C65657074696D65722E60
S113343063000100000005000200000300534D3A40
S113344020426F6F742065786974656400534D3A47
S113345020436865636B20666F7220427573206534
S11334606E7465726564004661696C656420746F8E
S11334702073746172742074696D657220666F7252
S113348020534D5F434845434B5F464F525F42557F
S1133490533A2072657475726E2076616C7565207E
S11334A03D20256C750A0D00534D3A204368656331
S11334B06B20666F72204275732065786974656449
S11334C0004661696C656420746F2073746F7020AA
S11334D074696D657220666F7220534D5F43484571
S11334E0434B5F464F525F4255533A2072657475A1
S11334F0726E2076616C7565203D20256C750A0D11
S113350000534D3A2052617069642041647620650D
S11335106E7465726564004661696C656420746FDD
S11335202073746172742074696D657220666F72A1
S113353020534D5F52415049445F4144563A2072F2
S1133540657475726E2076616C7565203D20256CFE
S1133550750A0D00534D3A2052617069642041642C
S11335607620657869746564004661696C656420D9
S1133570746F2073746F702074696D657220666F48
S11335807220534D5F52415049445F4144563A20A2
S113359072657475726E2076616C7565203D2025A8
S11335A06C750A0D004661696C656420746F207344
S11335B0746172742074696D657220666F72205331
S11335C04D5F534C4545503A2072657475726E20B8
S11335D076616C7565203D20256C750A0D00466189
S11335E0696C656420746F2073746F702074696DE6
S11335F0657220666F7220534D5F534C4545503AB7
S11336002072657475726E2076616C7565203D203C
S1133610256C750A0D00232D302B2000686C4C009E
S113362065666745464700303132333435363738BE
S1133630394142434445460030313233343536371C
S10F3640383961626364656600000000B4
S10B364C84CBFF7F01000000A4
S10F36546036000000100020220000007E
S1133660C0EA2101C0EA21010080000000F0490203
S11336703012002000000000B12B00000000000008
S11336800000000003000000D810002030100020CB
S113369000000000D810002040110020A8110020D4
S11336A00000000000000000000000000000000016
S11336B00000000000000000000000000000000006
S11336C000000000000000000000000000000000F6
S11336D00000000000000000000000001F040101C1
S10B36E0AD01000085010000AA
S90303E910
