S00F000046617265466172652E733337E9
S113000000100020A9030000B11C0000B11C000076
S1130010B11C0000B11C0000B11C0000B11C0000A8
S1130020B11C0000B11C0000B11C0000B11C000098
S1130030B11C0000B11C0000B11C0000B11C000088
S1130040B11C0000B11C0000B11C0000B11C000078
S1130050B11C0000B11C0000B11C0000B11C000068
S1130060B11C0000B11C0000B11C0000B11C000058
S1130070B11C0000B11C0000B11C0000B11C000048
S1130080B11C0000B11C0000B11C0000B11C000038
S1130090B11C0000B11C0000B11C0000B11C000028
S11300A0B11C0000B11C0000B11C0000B11C000018
S11300B0B11C0000B11C0000B11C0000B11C000008
S11300C0B11C0000B11C0000B11C0000B11C0000F8
S11300D0B11C0000B11C0000B11C0000B11C0000E8
S11300E0B11C0000B11C0000B11C0000B11C0000D8
S11300F0B11C0000B11C0000B11C0000B11C0000C8
S1130100B11C0000B11C0000B11C0000B11C0000B7
S1130110B11C0000B11C0000B11C0000B11C0000A7
S1130120B11C0000B11C0000B11C0000B11C000097
S1130130B11C0000B11C0000B11C0000B11C000087
S11301400348044B834202D0034B03B11847704762
S1130150881000208810002000000000064B07498A
S1130160C91A891048BF0131491003D0044B0BB19F
S113017001481847704700BF8810002088100020ED
S11301800000000010B5064C237843B9FFF7D8FFF0
S1130190044B13B10448AFF300800123237010BD56
S11301A0F011002000000000C425000008B5054B34
S11301B01BB105490548AFF30080BDE80840FFF7CF
S11301C0CDBF00BF0000000088100020C42500003F
S11301D0A3F5803A704700BF174B002B08BF134BA1
S11301E09D46FFF7F5FF00218B460F461348144A3E
S11301F0121A01F0B8FE0E4B002B00D098470D4B9D
S1130200002B00D098470020002104000D000D4869
S1130210002802D00C48AFF3008001F045F920001B
S1130220290001F029FD00F085FF00BF000008004F
S113023000000000000000000010002088100020D2
S1130240F8110020000000000000000008B501F0D3
S11302502DFD01F02CFD034B03491868BDE808404F
S113026001F0D2BDA0100020C023000008B501F0A9
S11302701DFD01F01CFD034B03491868BDE808404F
S113028001F0C2BDA0100020C823000010B51E4C10
S113029000F012FD236F23F0070343F002032367EA
S11302A001F039FDD4F82031002023F0030343F09A
S11302B00103C4F82031D4F8243123F0070343F0B8
S11302C00103C4F82431D4F8403123F0030343F08C
S11302D00103C4F84031D4F8603123F0030343F040
S11302E00103C4F86031D4F8403223F0030343F02F
S11302F00103C4F84032D4F8003223F0070343F07A
S11303000103C4F8003210BD0080005008B500F0AD
S113031089FE01280ED10C4B04205A6E4FF4802321
S11303200A49520358BF0A4A4B6601F51041086254
S113033058BF536600F0A0FE00F07CFEFFF7A6FF56
S1130340BDE8084000F086BE0080005000900050D8
S113035000A0005008B50122074B1A700022074B79
S11303601A700422064B1A701F22064B1A7000F0F2
S1130370ADFE054B186008BD7E100020F111002071
S11303807D1000207C100020A01000200348044AA7
S11303900449121A921001F08CBC00BF60260000C0
S11303A060260000F811002008B500F02FF8FFF7D0
S11303B0EDFF124B12498B4212D30020114B12490C
S11303C08B4218D3FFF708FF186850F8224058688A
S11303D040F82240013298688242F5D30C33EAE7B0
S11303E00022F8E71C6844F8220001325C68A2424B
S11303F0F8D30833E4E70022F8E700BFCC25000077
S1130400D8250000D8250000D825000010B54FF4E9
S113041000414FF0FF30124B124A9A60D3F8882003
S113042042F47002C3F888200F4A916601F18841B2
S113043001F5005210664FF6DF7050660220C3F8D3
S1130440D000BFF34F8FBFF36F8F08244FF44033B6
S11304500648C0F88041D36004600B6110BD00BF42
S113046000ED00E0000000000090005000E100E01A
S1130470014B1868704700BF04100020084B1B6F25
S113048003F00703022B04D0032B05D0012B05D066
S1130490FEE7044B18687047034BFBE703487047BB
S11304A000800050041000200C100020002D3101A9
S11304B008B5FFF7E3FF054B1B6FC3F303330133A9
S11304C0B0FBF3F0024B186008BD00BF0080005081
S11304D0001000200048704700B4C404014B1868A1
S11304E0704700BF0C10002000487047002D3101F8
S11304F0014B1868704700BF081000200346054AE6
S11305000549106803448B428CBF4FF0FF301360E1
S1130510704700BF101000200080002008B50121A2
S11305203A2000F041FA032101230422002000F0C4
S113053031FD002001F01CFC0122214B4FF46070BE
S1130540C3F8442400F05AFA1E4B00F5D520D3F822
S1130550F02000F2FC4042F00102C3F8F020D3F88E
S1130560FC2042F08072C3F8FC20174AA3F55D43D7
S11305701A60164B0222B0FBF3F0154B01381861D8
S1130580C3F8F0204FF48072C3F804234FF06043A3
S1130590104A0020C3F8B02F0F4AC3F8802ED3F8B6
S11305A0002E42F48072C3F8002EFF2283F820202C
S11305B0D3F8002E22F48072C3F8002E08BD00BFC9
S11305C000D0035000ED00E0FF030040F8590D0097
S11305D0000004E055CEACC50900010030B54FF071
S11305E06043D3F8802ED20715D501240B4D8440E7
S11305F0D5F8FC2042F08072C5F8FC20D3F8002E18
S11306002243C3F8002E53F82020002AF0D003F828
S11306102010002030BD1120FCE700BF00ED00E0F9
S1130620044BD3F88420D206FBD4D3F88400C0F35F
S1130630811070470040005038B5104B0546D3F880
S113064020310C4603F00303022B0BD0032B0DD0F7
S1130650012B0FD1FFF70CFF052305B1286004B16E
S1130660236038BDFFF73AFF0323F6E7FFF73CFFAB
S11306700223F2E701230020EFE700BF00800050CF
S1130680F7B50027114B0197D3F88041064604F0D3
S11306900304012C0D4608D0022C12D041F2B131D2
S11306A00B4801F019FB3C4604E0394601A8FFF76A
S11306B0C3FF0F240EB1019B336005B12C6003B05E
S11306C0F0BDFFF711FF0190F4E700BF0080005078
S11306D0CE23000038B51A4B0546D3F824010C4646
S11306E000F00700062821D8DFE800F028041018DD
S11306F01C0C1400FFF7BCFE052305B1286004B1EF
S1130700236038BDFFF7B4FE0623F6E7FFF7E6FEE5
S11307100323F2E7FFF7E2FE0423EEE7FFF7E4FE2C
S11307200223EAE701F0D0FA0723E6E7054840F69A
S1130730A87101F0D1FA00231846DEE70123DCE7B3
S113074000800050CE23000038B5104B0546D3F886
S113075040310C4603F00303022B0BD0032B0DD0C6
S1130760012B0FD101F0B2FA092305B1286004B1BD
S1130770236038BDFFF7BCFE0823F6E701F0A9FAB1
S11307800B23F2E701230020EFE700BF00800050B5
S113079038B5164B0546D3F800020C4600F00700A6
S11307A0042819D8DFE800F020030B0F130001F030
S11307B08DFA092305B1286004B1236038BDFFF721
S11307C097FE0823F6E701F084FA0B23F2E7FFF71C
S11307D06FFE0E23800AEDE7054841F26F4101F0F8
S11307E07BFA00231846E5E70123E3E70080005085
S11307F0CE23000038B5124B0546D3F840320C46E0
S113080003F00303022B0BD0032B0DD0012B0FD1CC
S113081001F05CFA092305B1286004B1236038BDF6
S1130820FFF766FE0823F6E701F053FA0B23F2E71D
S1130830044841F2FA3101F04FFA00231846EAE77E
S113084000800050CE23000038B5104B0546D3F885
S113085060310C4603F00303022B0BD0032B0DD0A5
S1130860012B0FD101F032FA092305B1286004B13C
S1130870236038BDFFF73CFE0823F6E701F029FAB0
S11308800B23F2E701230020EFE700BF00800050B4
S113089010B40F4C0B46D4F8204204F00304012C8E
S11308A00ED0022C10D008B1002101600BB100223F
S11308B01A6040F6D27107485DF8044B01F00CBA97
S11308C05DF8044BFFF7B8BE5DF8044BFFF73CBF7F
S11308D000800050CE23000010B5B0F5207F34D046
S11308E009D8B0F5007F2AD003D898B1B0F5C07FFD
S11308F010D0002421E0B0F5607FFAD1154BD3F875
S11309008030C3F301149B0617D5032C15D040F295
S113091095210FE00F4B1C6F230B13F00E0FC4F344
S113092003340AD0072C08D00F2C06D0032C04D093
S113093040F28521084801F0CFF9601C10BD054B39
S1130940D3F89040C4F30464F7E7024B1C6FC4F37C
S11309508024F2E700800050CE23000010B54FF44D
S113096000320E4B04469A660020FFF7B5FF604341
S113097041F671320A4C0B4BA04294BF0020012077
S1130980D969DA639A6822F4401242EA00529A6002
S1130990CA0344BF0022DA6310BD00BF00900050B8
S11309A0005A62020000035070B5460904460D4621
S11309B00ED140F22F310D4801F08EF9334604F088
S11309C01F047DB103F580530122A2401A6070BD5B
S11309D0012E05D0064B074A022E18BF1346EEE738
S11309E0054BECE703F50053EEE700BFCE23000010
S11309F068800050608200506480005030B585B03B
S1130A00002380280446019374D02AD8002877D084
S1130A10A0F12004412C32D8412C30D8DFE804F076
S1130A2070737073888888887373923FA8653F7366
S1130A3073732F2F2F2F2F2F8D57737373B2AD73A3
S1130A402F2F2F2F2F2F2F2F2F2F2F2F2F702F7030
S1130A507070882F2F2F2F2F2F2F2F2F2F2F2F2FC7
S1130A607070B0F5806F63D024D8B0F5007F55D096
S1130A700BD8B0F5807F6AD0B0F5C07F40D040F28B
S1130A809441434801F028F937E0B0F5607F45D040
S1130A90F5D8B0F5207F36D0B0F5407FEFD1FFF721
S1130AA007FD04464FF42070FFF716FFB4FBF0F483
S1130AB0640831E0B0F5C06F5AD00DD8B0F5A06F1E
S1130AC03BD0B0F5B06F3DD0B0F5906FD7D10021D9
S1130AD001A8FFF7FFFD10E0B0F5E06F4DD0B0F5D1
S1130AE0F06F4FD0B0F5D06FC9D1002101A8FFF746
S1130AF04FFE02E0FFF7C2FC0190019805B030BD43
S1130B00FFF7D6FCF8E7FFF7D3FC04464FF4207058
S1130B10FFF7E2FEB4FBF0F40194EEE7FFF7AEFC5E
S1130B2005462046FFF7D8FEB5FBF0F50195E4E74E
S1130B30002101A8FFF780FDDFE7002101A8FFF7EE
S1130B40A7FEDAE7002101A8FFF79AFDD5E7029393
S1130B504FF0E0231B695B0705D5FFF7A9FC029062
S1130B60029B0193C9E703A902A8FFF7EDFDF7E78C
S1130B70002101A8FFF7E8FDBFE7002101A8FFF766
S1130B8039FEBAE7002101A8FFF75EFEB5E700BF12
S1130B90CE23000008B58020FFF730FF034B9842B6
S1130BA09EBF4FF48032024B1A6708BD005A62029E
S1130BB000A0005010B5B0F5207F65D00ED8B0F578
S1130BC0007F4FD003D800B3B0F5C07F1DD040F2F2
S1130BD01231BDE81040344801F07EB8B0F5607FB2
S1130BE0F5D14C1E012C06D9042904D04FF43D71D3
S1130BF02D4801F071F82D4AD2F8803023F03003EB
S1130C0043EA0413C2F8803010BD4C1E012C0AD9EB
S1130C10102903D8264BCB40DB0704D440F2C7216C
S1130C20214801F059F801F063F801F06FF84FF42E
S1130C308031204B1D4A1967136F23F4704343EA34
S1130C4004331367FFF734FC0446FFF7E9FCC0F1F3
S1130C500201204601F054F800F03EF8BDE81040CF
S1130C60FFF798BF4C1E1F2C04D940F206310E48E2
S1130C7001F032F80D4AD2F8903023F0F85343EAE9
S1130C800463C2F89030BFE74C1E012C04D94FF422
S1130C904371054801F020F8044A136F23F480637C
S1130CA043EA84231367AFE7CE230000008000509B
S1130CB0100101000090005008B50121022000F04D
S1130CC027F801F015F801F021F84FF48032014BB8
S1130CD01A6708BD0090005008B54FF4C070FFF7C4
S1130CE08DFEBDE808400449884294BF01210221D9
S1130CF04FF42070FFF75EBF80F0FA02034A0179D7
S1130D00D36E23F030030B43D3667047004000508A
S1130D10F8B50446244BD3F88420D006FBD4D3F88A
S1130D208430C3F381139C423CD0FFF7A7FB012C12
S1130D3005460BD11D4B984204D940F281711C48E1
S1130D4000F0CAFF0121284600F0DAFF00F0F8FFA6
S1130D504FF00072174B07465A66204600F0F7FF23
S1130D604FF48063104E621E93403367736E9A0192
S1130D7003D4D6F884309B060AD5384600F0E4FF45
S1130D80022C0FD12846BDE8F840002100F0B8BF7E
S1130D90D6F884309906E9D540F28F71044800F002
S1130DA09BFFE3E7F8BD00BF00400050005A620219
S1130DB01E2400000060005010B50C4608B9FFF76F
S1130DC05DFB074B21461B783BB1064B984204D888
S1130DD00120BDE81040FFF79BBF0220F9E700BFE8
S1130DE0F2110020005A620238B54FF00042264B3F
S1130DF026495A6601224A604AF6CD3103F50B238F
S1130E005D6C1964154030BB9968C9070BD4002484
S1130E1001221F4B5A6015B11E4B1F4A1A6400F081
S1130E2097FF204638BD1A498A601C4AD96ACC0704
S1130E3005D4904201D10724EAE70130F6E7904255
S1130E40E5D1F8E70132DC6A14F0080406D08A42DE
S1130E50F8D10724DFE700221049F4E78A42F8D0EA
S1130E6020220B4B0B495A620122A3F580539A604E
S1130E7023460A4A486A800603D49342E9D00133E0
S1130E80F8E79342C7D1E4E70090005000500950BE
S1130E9000600950004009503254FFFF40420F00E7
S1130EA038B54FF00042174B174C5A66012203F530
S1130EB00C235A604AF6CD33656C2364437893401F
S1130EC01343124AD363C3788178A2689B0043EA30
S1130ED0011322F074021343A3600279837943EA75
S1130EE0022323614279C37943EA022363610078D0
S1130EF0FFF77AFFEB0744BF054B236400F028FF9C
S1130F00012038BD009000500040095000400050BE
S1130F103254FFFF38B5032804460D4605D80B4B61
S1130F2033F81030CB40DB0704D440F22D4108489D
S1130F3000F0D2FE30220123544341F2100204F1A6
S1130F40A044AB4004F57034A35038BD1025000014
S1130F506E24000038B5032804460D4605D80B4B13
S1130F6033F81030CB40DB0704D440F2FE3108489C
S1130F7000F0B2FE30220123544342F2100204F185
S1130F80A044AB4004F57034A35038BD10250000D4
S1130F906E240000F8B5032804460D4616461F4685
S1130FA005D81C4B33F81030CB40DB0704D44FF486
S1130FB0B071194800F090FE26B129462046CFB101
S1130FC0FFF7A8FF04EB4403072D4FF00F014FEA8E
S1130FD0031312D8A80006FA00F281400F481844FF
S1130FE000F0B7FEAEB92946204677B1BDE8F84017
S1130FF0FFF790BFFFF7AEFFE4E7A5F1080080001C
S113100006FA00F281400648E9E7BDE8F840FFF738
S1131010A1BFF8BD10250000BF24000004C0035088
S11310200CC00350024B1868C0F30740704700BF60
S11310300080E00F07B56B46054A1068516803C38A
S11310406846FFF72DFF002003B05DF804FB00BFE6
S11310501825000013B50024064A6846536F43F070
S11310600103536700948DF80440FFF747FE2046C0
S113107002B010BD0040005010B56FF004035021C1
S11310800A480B4C13F0800F03F1010207D12344EB
S1131090402A83F800131346F4D1002010BD03F056
S11310A00F03043B034419761346EBE700ED00E01D
S11310B000E100E010B5044600F042FE024B1C6063
S11310C000F042FE002010BDA410002010B500F076
S11310D037FE034B1C6800F037FE204610BD00BFEE
S11310E0A410002010B50020144600F042FE02288F
S11310F004D018B1C321024800F0EEFD204610BD13
S113110020250000034B022218680023806819463A
S113111000F0C6B82C10002010B5002000F0DDFD52
S1131120044610B90248FFF7C5FF204610BD00BFB2
S11311301410002008B5064B044613B10021AFF388
S11311400080044B1B6803B19847204600F06BFEF7
S113115000000000E0110020002310B50446836065
S1131160818119464366C28108228361C0E9003344
S1131170C0E904335C3000F0F6FE0D4B2462636278
S11311800C4BA3620C4BE3620C4B23630C4B9C4251
S113119006D003F16802944202D0D0339C4205D1B8
S11311A004F15800BDE8104000F0E5BE10BD00BFDA
S11311B0E11E0000031F00003B1F00005F1F000032
S11311C0A8100020024A0349034800F06BBE00BF88
S11311D020100020B92100003010002041680C4B81
S11311E0994210B5044601D000F0E6FFA168094B0E
S11311F0994202D0204600F0DFFFE168064B994295
S113120004D02046BDE8104000F0D6BF10BD00BF9A
S1131210A8100020101100207811002010B50B4BED
S113122004210B4C0B4A20461A600022FFF794FF5E
S113123004F1680001220921FFF78EFF04F1D000B8
S113124002221221BDE81040FFF786BFE011002002
S1131250A8100020C5110000014800F08DBE00BF99
S1131260F4110020014800F088BE00BFF4110020F2
S113127010B50446FFF7F0FF236A1BB1BDE8104028
S1131280FFF7F0BF044B2362044B1B68002BF5D11E
S1131290FFF7C4FFF2E700BFDD110000E0110020FA
S11312A02DE9F7431D46574B04460E461F689046EA
S11312B027B13B6A13B93846FFF7DAFFB8F1020FDA
S11312C006D0B8F1010F00F29980002DC0F296808B
S11312D0636ED90705D4A3899A0502D4A06D00F0E2
S11312E04BFE2146384600F067FF616B41B104F1C3
S11312F04403994202D0384600F0FAF800236363AD
S11313000023A3616360A3891B0603D521693846C2
S113131000F0EEF8A389B8F1020F23F44A6323F036
S11313200303A38160D001AB6A462146384600F02E
S11313306BFFA3891843A0812DBB009D284600F0B4
S113134021F90646002851D1DDF80090A9453FD186
S11313504FF0FF35B4F90C3043F00202A2810022B1
S1131360A26004F147022260226101226261626E7E
S1131370D60704D4980502D4A06D00F0FEFD2846DB
S113138003B0BDE8F083002ED8D03B6A13B93846C9
S1131390FFF76EFFB8F1010F266002BFA38943F087
S11313A00103A381B4F90C3013F00802C4E9046505
S11313B01ED0D90745BF00226D42A560A26048BF78
S11313C0A561626ED20701D49B0513D50025D6E72B
S11313D0484600F0D7F806460028B9D0A3894D4600
S11313E043F08003A381D0E70025B3E7A946F5E7DE
S11313F0A260E6E7A06D00F0C0FDE7E74FF0FF351F
S1131400BDE700BF2C1000200B46034902460868C4
S1131410816800F065B900BF2C10002038B50023A6
S1131420054D044608462B6000F0FBFC431C02D12A
S11314302B6803B1236038BDE411002038B504469D
S1131440064D0846114600222A601A4600F0F3FCB5
S1131450431C02D12B6803B1236038BDE411002082
S113146038B50446064D0846114600222A601A463D
S113147000F0E3FC431C02D12B6803B1236038BDA8
S1131480E411002038B50446064D084611460022F2
S11314902A601A46FFF726FE431C02D12B6803B1CB
S11314A0236038BDE411002070B50D4D00260D4CAD
S11314B0641BA410A64209D10B4D00260B4C00F06E
S11314C05FFF641BA410A64205D170BD55F8043B10
S11314D001369847EEE755F8043B01369847F2E7A2
S11314E08010002080100020801000208410002034
S11314F038B50546002941D051F8043C0C1F002B97
S1131500B8BFE41800F0E0F81D4A136833B963600B
S113151014602846BDE8384000F0DCB8A34208D97E
S1131520206821188B4201BF19685B680918216083
S1131530EDE71A465B680BB1A342FAD9116850185B
S1131540A0420BD120680144501811608342E0D1BD
S113155018685B68084453601060DAE702D90C230A
S11315602B60D6E7206821188B4202BF19685B689C
S11315700918636008BF21605460CAE738BD00BF22
S1131580EC110020024B0146186800F025B800BF9A
S11315902C10002070B50F4E0C460546316811B969
S11315A000F05AFB30602146284600F055FB431CEE
S11315B003D14FF0FF34204670BDC41C24F0030453
S11315C0A042F8D0211A284600F046FB0130F2D19F
S11315D0EFE700BFE81100202DE9F041CD1C0646DD
S11315E025F0030508350C2D38BF0C25002D01DB33
S11315F0A94204D90C2333600020BDE8F081314FA7
S113160000F062F83B681C4644BB29463046FFF7AD
S1131610C1FF431C044650D13C682146002941D1F6
S1131620002C44D02368304604EB030800F014FB7C
S113163080453CD1216830466D1A2946FFF7AAFF40
S1131640013034D023682B4423603B68002B36D010
S11316505A68A24229D100225A600EE02268521B25
S11316601DD40B2A16D96119A342256018BF5960ED
S1131670636808BF396062514B60304600F02AF855
S113168004F10B00231D20F00700C21AB5D01B1A69
S1131690A350B2E7A3426268DED13A60EDE7234685
S11316A06468B1E70C464968B8E71346CEE70C23F3
S11316B03046336000F00EF89EE70560DDE75B60BE
S11316C0FFDE00BFEC110020014800F055BC00BF54
S11316D0F3110020014800F050BC00BFF3110020BA
S11316E02DE9F04F0D469DB014469846064618B1B4
S11316F0036A0BB9FFF7BCFD6B6ED90705D4AB8940
S11317009A0502D4A86D00F037FCAB891B0701D5FC
S11317102B699BB92946304600F026FA70B16B6EEE
S1131720DC0704D54FF0FF301DB0BDE8F08FAB8966
S11317309805F7D4A86D00F020FCF3E70023CDF85A
S11317400C804FF00109DFF8B481099320238DF850
S1131750293030238DF82A3023469A4613F8012B7A
S11317600AB1252AF9D1BAEB040B0BD05B46224609
S11317702946304600F019FC013000F0A780099A90
S11317805A4409929AF80030002B00F09F800023FD
S11317904FF0FF320AF1010A049307938DF8533096
S11317A01A93CDE9052354460522544814F8011B25
S11317B000F0C9FD049AD8B9D10644BF20238DF89E
S11317C05330130744BF2B238DF853309AF800305D
S11317D02A2B15D0079A544600204FF00A0C2146B4
S11317E011F8013B303B092B4BD9B0B1079214E0FF
S11317F0A0EB0803A24609FA03F313430493D2E7C8
S1131800039B191D1B68002B0391BBBF5B4242F075
S1131810020207930793B8BF049223782E2B0AD1B0
S113182063782A2B32D1039B02341A1D1B6843EAC6
S1131830E37303920593DFF8D4A003222178504682
S113184000F081FD38B1A0EB0A004022049B013472
S113185082401343049314F8011B062228488DF890
S1131860281000F070FD00283FD0264B1BBB039BC3
S1131870073323F0070308330393099B3B4409937D
S11318806AE70CFB02320C460120A8E7002301346E
S11318904FF00A0C19460593204610F8012B303AF4
S11318A0092A03D9002BC6D00591C4E70CFB0121FA
S11318B004460123F0E703AB2A4604A9304600930B
S11318C0114BAFF300800746781CD6D16B6ED90755
S11318D005D4AB899A0502D4A86D00F04EFBAB8900
S11318E05B063FF51FAF09981EE703AB2A4604A920
S11318F030460093044B00F00BF8E4E78F2500001A
S11319009925000000000000AB1F00009525000091
S11319102DE9FF470F7E914680460C46782F9A4664
S11319200C9E01F1430207D8622F0AD8002F00F061
S1131930DD80582F00F0C38004F1420684F8427021
S11319403AE0A7F16303152BF6D801A151F823F06F
S1131950A9190000BD190000391900003919000047
S11319603919000039190000BD19000039190000A7
S1131970391900003919000039190000D31A000080
S11319804B1A00008B1A00003919000039190000A5
S1131990F51A0000391900004B1A0000391900002B
S11319A039190000931A000033681A1D1B6832604D
S11319B004F1420684F842300123A8E03168236828
S11319C0081D30601E0601D50D6803E05D06FBD5D9
S11319D0B1F90050002D616878DA2D200029A1604A
S11319E084F843002DDA6D425D480A231646B5FBA0
S11319F0F3F103FB1157C75D06F8017D2F460D4631
S1131A00BB42F4D9082B0BD12368DF0708D523691F
S1131A1061689942DEBF302306F8013C06F1FF36C7
S1131A20921B22614B4603AA21464046CDF800A0F2
S1131A3000F0CDFA01306FD14FF0FF3004B0BDE8B3
S1131A40F08723F004032360CDE721683368080698
S1131A5053F8045B02D4490648BFADB26F2F33601C
S1131A603F4814BF0A230823002184F84310666802
S1131A70002EA660BADB216821F004012160002D4C
S1131A80B4D1002EB2D11646BCE7236843F020033C
S1131A90236078273348236884F845701F0631682B
S1131AA051F8045B02D45F0648BFADB23160D90778
S1131AB044BF43F0200323601DB11023D4E728481A
S1131AC0E9E7236823F020032360F6E724480A2388
S1131AD0CDE733682568181D616930602E061B68E0
S1131AE001D5196002E06806FBD51980002316466B
S1131AF0236197E7336800211A1D32601E6862680B
S1131B00304600F020FC08B1801B606063682361EC
S1131B10002384F8433085E723693246494640462A
S1131B20D047013088D023689B0714D4E068039B16
S1131B309842B8BF184681E70123324649464046D9
S1131B40D04701303FF478AF0135E36803995B1A5D
S1131B50AB42F1DCEAE7002504F11906F5E700BF22
S1131B60A0250000B125000038B5294B05460C46D8
S1131B70186818B1036A0BB9FFF77AFBB4F90C3093
S1131B80190722D4DA0607D409222A6043F0400355
S1131B904FF0FF30A38133E0580712D5616B41B198
S1131BA004F14403994202D02846FFF7A1FC002324
S1131BB06363A38923F02403A3810023636023695F
S1131BC02360A38943F00803A38123694BB9A38944
S1131BD003F42073B3F5007F03D02146284600F0B8
S1131BE038FBB4F90C3013F001020AD00022A260D1
S1131BF062695242A261226942B913F08000C5D1E0
S1131C0038BD990758BF6269A260F4E70020F7E77E
S1131C102C10002038B50023064D04460846114612
S1131C202B6000F001F9431C02D12B6803B123603F
S1131C3038BD00BFE411002038B50023054D04462B
S1131C4008462B6000F0F5F8431C02D12B6803B161
S1131C50236038BDE411002038B50023054D044647
S1131C6008462B60FEF74AFC431C02D12B6803B1E3
S1131C70236038BDE411002008B500F0FBF8FEF73E
S1131C80E5FA00F004F9FEF7F1FAFAE7FEF746BCCC
S1131C9008B5FFF737FABDE80840FFF73DBA7047CB
S1131CA0FEF758BB704770477047704770477047DE
S1131CB0FEE710B53AB1002350F8234041F8234021
S1131CC001339A42F8D110BD002070474FF4004010
S1131CD070474FF47A707047FEE74FF0604201237B
S1131CE0D2F8001E83400B430020C2F8003E704728
S1131CF008B5FEF7EFFBBDE808400021FEF72EBE55
S1131D000029CCBF01210021FEF728BE02214FF497
S1131D102070FEF74FBF10B5FEF7CAFB0446FEF76E
S1131D207FFCC0F102012046FFF7EAFF01210020F9
S1131D30FFF742F8FEF7D0FFBDE81040FEF72ABFD8
S1131D40EFF3108072B6704700B962B670477047FF
S1131D50704770B5054614460E46FFF7F1FF2B6831
S1131D605C4034405C402C60BDE87040FFF7ECBF41
S1131D70704770B50C46154610B9FFF7A7F938B18E
S1131D8043682BB12A462146BDE8704000681847D5
S1131D90232070BDF7B50D4616461C4648B103B95D
S1131DA001AC87685FB12346324629460068B847CC
S1131DB006E0FFF78BF904B901AC0028F1D1232028
S1131DC003B0F0BDF8B50C461546064658B9FFF702
S1131DD07DF920462946FFF717FB0446002CD4BFA3
S1131DE037200020F8BDFFF771F986420746F0D08E
S1131DF03046FFF75FF929462046FFF705FB044606
S1131E003846FFF757F9E9E70EB403B503AA52F8C9
S1131E10041B0192FFF7D6FF02B05DF804EB03B098
S1131E20704700207047FEE74FF4005300204B60DA
S1131E307047012070470020704707B5002001ABB0
S1131E400190FFF7A7FF0198002808BF4FF0FF306B
S1131E5003B05DF804FB38B50C468D18AC4201D1D3
S1131E60002006E0002014F8011BFEF7B7FB002851
S1131E70F4D038BD08B5FEF749FAFFF707FFFFF7BE
S1131E8007FFFFF70CFFBDE80840FFF709BF08B5DF
S1131E90FFF708FFFFF707FFFFF706FFBDE808405D
S1131EA0FFF703BF2DE9F84307468846144600268A
S1131EB0D4E90195B9F1010905D52468002CF7D1BD
S1131EC03046BDE8F883AB89012B07D9B5F90E304C
S1131ED0013303D029463846C04706436835E9E74D
S1131EE010B50C46B1F90E10FFF7BAFA0028ABBFD3
S1131EF0636DA3891B1823F48053ACBF6365A3816E
S1131F0010BD2DE9F0411F468B8905460C46DB05C3
S1131F10164605D502230022B1F90E10FFF78EFAFA
S1131F20A3893246B4F90E10284623F48053A381C2
S1131F303B46BDE8F041FFF7A5BA10B50C46B1F930
S1131F400E10FFF77BFA431CA38915BF606523F4C9
S1131F50805343F48053A38118BFA38110BDB1F90A
S1131F600E10FFF75BBA02440346934200D1704758
S1131F7003F8011BF9E77047704770479368013B0A
S1131F80002B936010B408DA9469A34201DB0A2998
S1131F9003D15DF8044B00F098B91368581C106025
S1131FA0084619705DF8044B7047F8B506460F46AD
S1131FB01446D518AC4201D1002007E03A4614F883
S1131FC0011B3046FFF7DAFF431CF3D1F8BD2DE9BE
S1131FD0F047164698468A6807460B690C46DDF8B2
S1131FE020909342B8BF1346336091F843200AB15E
S1131FF0013333602368990642BF33680233336088
S1132000256815F0060506D104F1190AE36832685B
S11320109B1AAB422BDC94F843302268003B18BF78
S11320200123920630D404F1430241463846C8479E
S1132030013023D023681A3454F80A2C03F0060321
S1132040042B0ABF54F80E5C002533684FF00006D9
S113205008BFED1A54F8123C08BF25EAE57593420F
S1132060C4BF9B1AED18B5421AD1002008E0012321
S1132070524641463846C847013003D14FF0FF303D
S1132080BDE8F0870135C1E7E1185A1C302002335E
S1132090224481F8430094F8451082F84310C2E7C3
S11320A00123224641463846C8470130E6D001366E
S11320B0D9E7B1F90C202DE9F041170705460C4684
S11320C056D44B68002B02DC0B6C002B3DDDE66A1A
S11320D0002E3AD0002312F480522F68216A2B601C
S11320E025D0626DA389580705D56368D21A636B3E
S11320F00BB1236CD21A216A0023E66A2846B04742
S1132100411C24D00023636023692360A389DA047B
S113211000D56065616B2F60B9B104F14403994245
S113212002D02846FFF7E4F9002363630DE001239E
S11321302846B047461C0246D4D12B68002BD1D088
S11321401D2B01D0162B2AD12F6000202EE02A68E7
S1132150B4F90C3042B11D2A01D0162A21D1002332
S1132160636023692360D5E7626022692260CEE759
S11321700F69002FE9D093070E680F600CBF4B69FD
S11321800023A6EB07088B60B8F1000FDDDD4346A2
S11321903A46216A2846A66AB047002808DCB4F902
S11321A00C3043F040034FF0FF30A381BDE8F081D1
S11321B00744A8EB0008E7E738B50B6905460C4669
S11321C013B90025284638BD18B1036A0BB9FFF7C7
S11321D04FF8B4F90C30002BF3D0626ED00704D45E
S11321E0990502D4A06DFFF7C7FE28462146FFF7E4
S11321F060FF636E0546DA07E4D4A3899B05E1D446
S1132200A06DFFF7BAFEDDE770B50C46B1F90E100C
S113221096B0154600291E460CDAA389002113F056
S1132220800F14BF40234FF48063002031602B6083
S113223016B070BD6A46FFF7EDFC0028EDDB01998E
S113224001F47041A1F50053594259414FF48063A0
S1132250EBE78B89F7B59D0706460C4607D504F1D5
S11322604703236023610123636103B0F0BD01AB25
S11322706A46FFF7C9FF009F054630463946FFF717
S1132280ABF948B9B4F90C309A05EED423F0030342
S113229043F00203A381E2E7A389206043F08003B3
S11322A0A381019BC4E904075BB1B4F90E10304665
S11322B0FFF7C2FC28B1A38923F0030343F0010311
S11322C0A381A3891D43A581CFE7F8B50E46144623
S11322D0054618B1036A0BB9FEF7CAFFA369A360E8
S11322E0A3891A0701D5236943B921462846FFF774
S11322F03BFC18B14FF0FF373846F8BD2368F6B2FF
S113230022693746981A6369834205DC21462846C8
S1132310FFF752FF0028EDD1A368013BA3602368B7
S11323205A1C22601E70431C62699A4204D0A3891D
S1132330DB07E1D50A2EDFD121462846FFF73CFF13
S11323400028D9D0D6E7C9B20346024410B5934257
S1132350184601D1002003E0047801338C42F6D101
S113236010BD00000000000000000000000000009C
S11323700000000000000000000000000000000059
S1132380F8B500BFF8BC08BC9E467047F8B500BF5E
S1132390F8BC08BC9E467047000000000000000026
S11323A00000000000000000000000000000000029
S11323B00000000000000000000000000000000019
S11323C054657374696E6700416868686800433ACD
S11323D02F55736572732F4A6F656C2F53696D7037
S11323E06C696369747953747564696F2F53444BD2
S11323F0732F6765636B6F5F73646B5F342E342E6A
S1132400302F706C6174666F726D2F656D6C6962CC
S11324102F7372632F656D5F636D752E6300433A8E
S11324202F55736572732F4A6F656C2F53696D70E6
S11324306C696369747953747564696F2F53444B81
S1132440732F6765636B6F5F73646B5F342E342E19
S1132450302F706C6174666F726D2F656D6C69627C
S11324602F7372632F656D5F656D752E6300633A1C
S11324705C75736572735C6A6F656C5C73696D70AF
S11324806C696369747973747564696F5C73646B84
S1132490735C6765636B6F5F73646B5F342E342E9C
S11324A0305C706C6174666F726D5C656D6C6962D2
S11324B05C696E635C656D5F6770696F2E6800436D
S11324C03A2F55736572732F4A6F656C2F53696D7C
S11324D0706C696369747953747564696F2F5344BC
S11324E04B732F6765636B6F5F73646B5F342E345C
S11324F02E302F706C6174666F726D2F656D6C6910
S1132500622F7372632F656D5F6770696F2E63004E
S1132510FF011F00FF000F00010304010101090373
S1132520433A2F55736572732F4A6F656C2F536945
S11325306D706C696369747953747564696F2F5332
S1132540444B732F6765636B6F5F73646B5F342EEB
S1132550342E302F706C6174666F726D2F736572D8
S1132560766963652F696F73747265616D2F737219
S1132570632F736C5F696F73747265616D5F7265ED
S11325807461726765745F737464696F2E6300238A
S11325902D302B2000686C4C00656667454647006B
S11325A03031323334353637383941424344454685
S11325B0003031323334353637383961626364651B
S10725C066000000AD
S10B25C40CDCFF7F01000000A4
S10F25CCD82500000010002022000000B0
S11325D8C0EA2101C0EA21010080000000F049029C
S11325E8F811002000000000571E00000000000041
S11325F80000000003000000A81000203010002094
S113260800000000A81000201011002078110020FC
S113261800000000000000000000000000000000AE
S1132628000000000000000000000000000000009E
S1132638000000000000000000000000000000008E
S11326480000000000000000000000001F0401005A
S10B2658AD0100008501000042
S90303A950
