S00F000046617265466172652E733337E9
S21400000000100020D11300000BDA01000BDA01000B
S2140000100BDA01000BDA01000BDA01000BDA010043
S2140000200BDA01000BDA01000BDA01000BDA010033
S2140000300BDA01000BDA010079D801000BDA0100B7
S2140000400BDA01000BDA01000BDA01000BDA010013
S2140000500BDA01000BDA01000BDA01000BDA010003
S2140000600BDA01000BDA01000BDA01000BDA0100F3
S214000070D54F00000BDA01000BDA01000BDA0100A5
S2140000800BDA01000BDA01000BDA01000BDA0100D3
S2140000900BDA01000BDA01000BDA01000BDA0100C3
S2140000A00BDA01000BDA01000BDA01000BDA0100B3
S2140000B00BDA010091B301000BDA0100D1BD01009B
S2140000C0E1720200DD720200C1B50100ED720200AD
S2140000D0E5720200A9BD0100E972020011BE01002E
S2140000E0E5960100A998010081BE01000BDA010027
S2140000F00BDA01000BDA01000BDA01000BDA010063
S2140001000BDA01000BDA01000BDA01000BDA010052
S2140001100BDA01000BDA01000BDA01000BDA010042
S2140001200BDA01000BDA01000BDA01000BDA010032
S2140001300BDA01000BDA01000BDA01000BDA010022
S214000140002370B5404C05468AB0E36318B10088BA
S21400015023600DF065FE3D4826F07FFB3C4E3D4B90
S214000160304633603C4B736023F0C1F800213046C4
S21400017014F0EEFE32A3D3E90023A062C4E90623FE
S21400018023F0C0F8D4E9062319431043C4E9060156
S214000190CDE900014FF0FF334FF0FF32A06A26F0A2
S2140001A0DCFB02224FF0FF31A06A26F0DBFB0120C9
S2140001B00DF0FAFA4FF4007300222849A06A26F0E0
S2140001C026FCB0F5007F38D100239422CDE9073312
S2140001D009933C23CDE9033205939623A06A03A92D
S2140001E0069314F0D3FF35B3287C0EF0DDF80546F1
S2140001F0F0B9A06A26F0EDFC0EF084F80DF0B0FA27
S21400020020B14FF48070002108F076FD0DF0B8FAAA
S21400021020B14FF40060002108F06EFD23F0EAF9EB
S214000220012014F0E9FE0E4A0E49A06A23F05DF89C
S21400023028460AB070BDFF20D7E70725F8E700BFBD
S2140002400DD5015520000000A8140020690345ECD8
S2140002505826002021D600006826002058240020BA
S21400026093320200D33202000348044B834202D08A
S214000270034B03B118477047381400203814002089
S21400028000000000064B0749C91A891048BF013113
S214000290491003D0044B0BB101481847704700BF04
S2140002A038140020381400200000000010B5064C5A
S2140002B0237843B9FFF7D8FF044B13B10448AFF3D4
S2140002C000800123237010BD0C2E002000000000CB
S2140002D004DC020008B5054B1BB105490548AFF321
S2140002E00080BDE80840FFF7CDBF00BF000000005B
S2140002F00817002004DC0200A3F5803A704700BF10
S214000300174B002B08BF134B9D46FFF7F5FF002148
S2140003108B460F461348144A121A27F09CF80E4BC9
S214000320002B00D098470D4B002B00D0984700209C
S214000330002104000D000D48002802D00C48AFF341
S21400034000801CF039FA200029001DF089FA1BF005
S214000350B3FF00BF0000080000000000000000001F
S21400036000100020381400202C3000200000000070
S2140003700000000010B5032000F0B6FF60B1094C85
S214000380094920681DF0CCFF1DF03DFB1DF03CFB2D
S214000390064920681DF0C4FF05F048FABDE8104085
S2140003A000F056BCB0170020A0820200A582020012
S2140003B008B504F041FE18B12A2106481DF039FBA5
S2140003C010F0DAF928B1BDE80840302101481DF0E8
S2140003D030BB08BDE085020010B5234C01F03CFDA3
S2140003E001F096FF236F23F0070343F00303236710
S2140003F01DF072FB1D4B00209B6A9B075EBF01220F
S2140004001B4B9A62D4F8203123F0030343F0020317
S214000410C4F82031D4F8243123F0070343F0020354
S214000420C4F82431D4F8403123F0030343F0010329
S214000430C4F84031D4F8603123F0030343F00103DD
S214000440C4F86031D4F8403223F0030343F00103CC
S214000450C4F84032D4F8003223F0070343F0010317
S214000460C4F8003210BD00BF0080005000C000502D
S21400047000E0005008B502F067FA01280ED1104BD4
S21400048004205A6E4FF480230E49520358BF0E4A7A
S2140004904B6601F51041086258BF536603F0A0FC96
S2140004A003F044FC03F064FC1DF0E9FEFFF794FF44
S2140004B003F04CFC01F0E8F8BDE8084003F0C0BDCE
S2140004C0008000500090005000A0005037B5026831
S2140004D0674922F47F4323F007038B42044660D02B
S2140004E036D8644A934200F0B78014D802F17F42AF
S2140004F0934250D009D8A2F5A022934245D002F5E7
S214000500802293420FD103B030BD5B4A9342FAD0AB
S21400051002F57C02F5E7594A934248D002F57C0280
S214000520934200F09F80032000F0DEFE0028EAD011
S214000530534D544928681DF0F3FE1DF064FA1DF073
S21400054063FA2268504922F47F4222F0070247E00D
S2140005504E498B427AD00CD84D4A93425DD002F574
S21400056080329342DFD1043003B0BDE8304000F063
S2140005703DBA48498B4220D095BF474B474B134066
S214000580134094BF464A474ABBE7043003B0BDE871
S214000590304000F083BA043003B0BDE8304000F0CD
S2140005A0D1B9043003B0BDE830401DF0DFB90430E7
S2140005B003B0BDE8304000F0F9B9B0F805300320CC
S2140005C0A3B900F091FE00289DD02D4D2D49286836
S2140005D01DF0A6FE1DF017FA1DF016FA2279324914
S2140005E0286803B0BDE830401DF09ABE00F07CFEDF
S2140005F0002888D0224D234928681DF091FE1DF062
S21400060002FA1DF001FA2379B4F805202749286874
S21400061003B0BDE830401DF083BE032000F064FE4A
S21400062000283FF470AF164D164928681DF078FE76
S2140006301DF0E9F91DF0E8F9E3791D490093B4F8D7
S2140006400530227928681DF06BFE5CE7043003B0A5
S214000650BDE830401DF097B9043003B0BDE8304027
S21400066000F090B9043003B0BDE830401DF073B917
S214000670A0000602A0000601A0000900A0000901D3
S214000680B0170020A0820200D9860200A0000A034C
S214000690A0000902A0000906F800FFFDF800FFFE12
S2140006A0A0000604A0000608FA8502003A860200AA
S2140006B07D86020073B5284810F03EFA044688B1DD
S2140006C0032000F011FE68B1244D254928681DF06E
S2140006D027FE1DF098F91DF097F922462149286853
S2140006E01DF01EFE1C4D0221287810F071FA0446FB
S2140006F088B1032000F0F8FD68B1184E184930683C
S2140007001DF00EFE1DF07FF91DF07EF922461649FB
S21400071030681DF005FE0023A022009311462878BD
S21400072010F022FA0446A0B1032000F0DDFD80B1EF
S2140007300A4D0B4928681DF0F3FD1DF064F91DF005
S21400074063F922460949286802B0BDE870401DF0EA
S214000750E7BD02B070BD00BFF2110020B017002048
S214000760A0820200F58602001D870200488702006C
S21400077070B5C207044615D500F0B2FC054688B130
S214000780032000F0B1FD68B1154E164930681DF023
S214000790C7FD1DF038F91DF037F92A4612493068B2
S2140007A01DF0BEFDA3071AD5104B0221187810F0D5
S2140007B023FA044698B1032000F096FD78B1084D60
S2140007C0084928681DF0ACFD1DF01DF91DF01CF948
S2140007D0224628680449BDE870401DF0A1BD70BDE2
S2140007E0B0170020A082020073870200F2110020DA
S2140007F070B5C207044617D5194B187810F0D6F90D
S214000800054688B1032000F06FFD68B1154E164905
S21400081030681DF085FD1DF0F6F81DF0F5F82A4647
S214000820124930681DF07CFDA30717D500F050FD77
S214000830044698B1032000F057FD78B1094D0A49E7
S21400084028681DF06DFD1DF0DEF81DF0DDF822466F
S21400085028680749BDE870401DF062BD70BD00BF46
S214000860F2110020B0170020A0820200918702003B
S214000870AF87020038B50221012010F0E5FA0446E1
S21400088098B1032000F030FD78B1084D084928687B
S2140008901DF046FD1DF0B7F81DF0B6F82246286894
S2140008A00449BDE838401DF03BBD38BDB0170020F8
S2140008B0A0820200CA87020038B510F0B9FA0446D2
S2140008C098B1032000F010FD78B1084D084928685B
S2140008D01DF026FD1DF097F81DF096F822462868B4
S2140008E00449BDE838401DF01BBD38BDB0170020D8
S2140008F0A082020002880200431EDAB2032A9ABFD0
S214000900024800EB03100020704700BF20170020AD
S21400091000231946054A1370054A0433102B11604C
S2140009209180D18002F11002F7D170470D2E002081
S21400093020170020082303EB0013014818447047D3
S2140009402017002010B50D4A044613780133DBB299
S214000950032B137002D80220FFF70AFF0723217A21
S214000960621E03EB0113064905340B4412F8011FFF
S214000970A24203F8011FF9D110BD00BF0D2E0020C2
S2140009802017002010B58078FFF7B6FF0023064C2E
S214000990C0E900332378032B02D90220FFF7E8FED4
S2140009A02378013B237010BD0D2E002070B5034642
S2140009B00446002213F8055F0B49D0B285420BD8D7
S2140009C0D4F80110207810F0D9F92078FFF794FFBA
S2140009D0D4F80130036006E011F8010B13F8016F3C
S2140009E001328642E9D070BD9E88020070B504468A
S2140009F0E3780078122B18D10022B4F8011010F01A
S214000A00E9F9054688B1032000F06EFC68B10F4E88
S214000A100F4930681DF084FC1CF0F5FF1CF0F4FF55
S214000A202A460C4930681DF07BFC25782846FFF7DF
S214000A3063FFC38823B96378A27843EA0223C3809E
S214000A402846A11DBDE8704000F0AEB9B0170020E2
S214000A50A08202003988020070B5054610F024F91D
S214000A600446A0B1032000F03FFC80B1084E0949BF
S214000A7030681DF055FC1CF0C6FF1CF0C5FF234671
S214000A802A4630680449BDE870401DF049BC70BD78
S214000A90B0170020A08202006188020030B58DB039
S214000AA00446032000F020FC90B15B4D5B492868AB
S214000AB01DF036FC1CF0A7FF1CF0A6FFE388584983
S214000AC00193A38800936388228828681DF028FC79
S214000AD00DF11F0108A810F0CBF9044610B34E4DD7
S214000AE0504928681DF01CFC4F4928681DF018FC6A
S214000AF01CF089FF1CF088FF4C4B4D4A00934D4973
S214000B001E2328681DF00CFC4B4923464B4A2868D8
S214000B101DF006FC204600F02DFC494928681DF013
S214000B20FFFBFEE7BDF8243001465BBAADF828307F
S214000B309DF8233008228DF82A30FF238DF82B30BD
S214000B40FE238DF82C309DF8223012208DF82D30A3
S214000B50BDF820305BBAADF82E300AAB10F024F9A1
S214000B60054610B32C4C2F4920681DF0D9FB2E49A2
S214000B7020681DF0D5FB1CF046FF1CF045FF2B4BF4
S214000B802B4A00932B492E2320681DF0C9FB2A49C7
S214000B902B462A4A20681DF0C3FB284600F0EAFBD5
S214000BA0274920681DF0BCFBFEE7032000F09CFBF5
S214000BB020B3194C194920681DF0B2FB1CF023FF26
S214000BC01CF022FF9DF820309DF81F0004939DF82E
S214000BD021301C4903939DF822301B4A02939DF84E
S214000BE02330002818BF0A4601939DF82430174981
S214000BF0009320689DF825301DF092FBFFF75AFD04
S214000C000120FFF7F5FDFFF783FE0121084604F0FB
S214000C1055FE0DB030BD00BFB0170020A082020008
S214000C20CA88020015940200F28802008D8902002C
S214000C30F78802001D890200318902002989020016
S214000C4046890200AE880200BC880200578902006E
S214000C5000230649064A013311F8010BDBB2102BBC
S214000C6002F8010BF7D100F06BB900BF718A0200E1
S214000C700E2E0020F8B5037E04460BB10020F8BD0A
S214000C80013000F011F902460028F7D12346044649
S214000C9013F81A6F0B4FE1B28E42EFD913F8015FCB
S214000CA048B1511CBA5CC9B2AA42E7D10D29E6D8B0
S214000CB00A460134EFE7A5F10901484248411146CA
S214000CC0F6E700BF9C89020070B586B00B79044633
S214000CD0012B16D0022B3ED0032000F005FB002887
S214000CE037D02B4C2B4920681DF01AFB1CF08BFECE
S214000CF01CF08AFE2849206806B0BDE870401DF04A
S214000D000FBB4FF480330193102324490DF10702E3
S214000D1011F8010B013B13F0FF0302F8010FF7D1A6
S214000D20204601A91CF04BFE054690B1032000F0BA
S214000D30DBFA70B1164E174930681DF0F1FA1CF058
S214000D4062FE1CF061FE2B462246154930681DF0F7
S214000D50E7FA06B070BD032000F0C6FA60B10C4D8D
S214000D600C4928681DF0DCFA1CF04DFE1CF04CFE09
S214000D700C4928681DF0D4FA2046FFF76DFE204681
S214000D80FFF7D8FD06B0BDE8704000F053B800BFCE
S214000D90B0170020A0820200FA8902000E2E002062
S214000DA0AB890200E289020070B50B780546032B7A
S214000DB00C4612D8032000F097FA70B1194E1A4963
S214000DC030681DF0ADFA1CF01EFE1CF01DFE04235C
S214000DD02278164930681DF0A3FAD4F80130B3F52E
S214000DE0805F17D0B3F5803F1AD0032000F07CFA5E
S214000DF0B0B10C4D0C4928681DF092FA1CF003FEA9
S214000E001CF002FED4F8012028680949BDE87040AD
S214000E101DF086BA2846611CBDE87040FFF754BF37
S214000E2070BD00BFB0170020A0820200108A02002A
S214000E30528A020070B500240C251A4B05FB04F2FA
S214000E40995861B1B42199500332411E1A440530B5
S214000E5011F8013F814202F8013FF9D170BD01341B
S214000E60042CEBD1B4220C460C2606FB01F55D598A
S214000E70954238BFCCB201F1010138BF2A46042999
S214000E80F3D10C21B42501FB04F29D5001FB043381
S214000E90421E0333053012F8011F824203F8011F79
S214000EA0F9D1DBE760170020F0B500220B4B451D9B
S214000EB053F8031C59B11C46411E14F8017F11F863
S214000EC0016FB74203D1A942F7D10120F0BD03322A
S214000ED00C2A03F10C03EBD10020F7E76317002080
S214000EE013B547F2305003F0D9FE14220023014612
S214000EF0CDE900230D480E4A1DF07AFA98B103207A
S214000F0000F0F2F978B10B4C0B4920681DF008FA96
S214000F101CF079FD1CF078FD0849206802B0BDE899
S214000F2010401DF0FDB902B010BD00BF90170020A4
S214000F30550F0000B0170020A0820200818A020030
S214000F400022034B1A60DA609A615A62FFF7C8BF44
S214000F506017002008B5FFF7C3FF0023054951F8C6
S214000F60232012B1013A41F8232003330C2BF6D18B
S214000F7008BD00BF6017002013B50368174A23F4A6
S214000F807F4323F00703934226D1B0F805301E2B8B
S214000F9022D1827A0479012A1BD1C37ADB0714D5C1
S214000FA0002311468DF80430204601AB0FF08EFE6C
S214000FB041F2FC13002818BF1846C2B21E21204674
S214000FC002B0BDE810400FF005BF20460FF094FEBB
S214000FD0EEE741F20D10F0E702B010BDA0000A02E5
S214000FE037B50368384A23F47F4323F00703934258
S214000FF007D002F1027202F58032934206D003B0A7
S21400100030BD03B0BDE8304000F0AEB8B0F80540E3
S2140010100579A4F12003827A082BF0D801A151F8B3
S21400102023F000BF49100000FF0F00005B10000017
S214001030FF0F000099100000FF0F00006B1000006B
S214001040FF0F0000B3100000012A39D1C37A9A1EA0
S214001050122A24D81D4A13701BE0012A30D1C37A05
S2140010605A1E0E2A1BD81A4AF5E7531E012B27D8FC
S214001070002300F10B010DF10600ADF8063026F056
S214001080F5F9144ABDF8063012889A4207D8124A73
S214001090138000F025F820B141F2FC1001E041F287
S2140010A0FF10C2B22146284603B0BDE830400FF01C
S2140010B091BE012A04D1C37A012BF0D8074ACAE7A9
S2140010C041F20D10EDE700BFA0000100202E002029
S2140010D01F2E0020188B0200B42D00201E2E00208C
S2140010E01FB51B4B1B4C1B78207853B91A4B1A881C
S2140010F000230093114620780FF036FD30B104B07F
S21400110010BD0FF053FD0028F0D0F8E7134B012177
S2140011101B782078012B14BF012202220FF080FDDD
S2140011200028ECD10146022220780FF0A5FD002809
S214001130E5D103AB0193012309490093094B02460D
S2140011408DF80C001B78097820780FF0E7FDD6E7BD
S214001150212E0020F3110020B42D00201E2E00208A
S214001160202E00201F2E0020F0B585B01421484BFD
S21400117001261A889B78ADF80C20464A8DF80E306A
S214001180117020210023444A444F1670444A454CAF
S2140011901180454A3846237013700FF0CDFC054683
S2140011A010B3424C424920681DF0BAF84149206805
S2140011B01DF0B6F81CF027FC1CF026FC3E4B3F4A00
S2140011C000933F49402320681DF0AAF83D492B466E
S2140011D03D4A20681DF0A4F8284600F0CBF83B49AD
S2140011E020681DF09DF8FEE70321387803AA0FF06B
S2140011F02DFD054610B32D4C2D4920681DF090F8A6
S2140012002C4920681DF08CF81CF0FDFB1CF0FCFB44
S214001210294B2A4A00932A49462320681DF080F865
S21400122028492B46284A20681DF07AF8284600F000
S214001230A1F8264920681DF073F8FEE7FFF750FF77
S214001240054610B3194C1A4920681DF069F819496B
S21400125020681DF065F81CF0D6FB1CF0D5FB164B7D
S214001260164A009316494A2320681DF059F8154976
S2140012702B46154A20681DF053F8284600F07AF8E9
S214001280124920681DF04CF8FEE7267005B0F0BD48
S214001290068B0200202E00201F2E0020F3110020B7
S2140012A0B42D0020212E00201E2E0020B017002076
S2140012B015940200F28802000A8B0200A98A020036
S2140012C01D89020031890200038B02004689020054
S2140012D0034B187818B1034B18780FF067BC7047AB
S2140012E0212E0020F31100200B4B02461B7883B101
S2140012F00A4B1B78834234BF00200120084B1B7822
S21400130033B1084B1B78134113F0010F08BF0020C0
S21400131070470120F2E700BFF6110020F51100200B
S214001320222E0020F411002008B50122074B1A7067
S2140013300022074B1A700422064B1A701F22064B17
S2140013401A7002F077FD054B186008BDF6110020F4
S214001350222E0020F5110020F4110020B0170020E6
S214001360024B034918681CF0DBBF00BFB017002013
S2140013701A8B020070B50C4C0C49064620681CF00F
S214001380CFFF02F057FD0546206802F047FD3046C5
S214001390FFF7E6FF284602F041FD20680449BDE855
S2140013A070401CF0BDBF00BFB01700201C8B0200B1
S2140013B01E8B02000348044A0449121A92101CF0BD
S2140013C025BB00BF50E0020050E002002C30002099
S2140013D008B500F02FF8FFF7EDFF124B12498B42CD
S2140013E012D30020114B12498B4218D3FEF788FF08
S2140013F0186850F82240586840F822400132986831
S2140014008242F5D30C33EAE70022F8E71C6844F87A
S214001410220001325C68A242F8D30833E4E70022D7
S214001420F8E700BF0CDC020018DC020018DC020043
S21400143018DC020010B54FF400414FF0FF30124B9D
S214001440124A9A60D3F8882042F47002C3F88820C3
S2140014500F4A916601F1884101F5005210664FF679
S214001460DF7050660220C3F8D000BFF34F8FBFF383
S2140014706F8F08244FF440330648C0F88041D3608D
S21400148004600B6110BD00BF00ED00E0000000002E
S2140014900090005000E100E0014B1868704700BF64
S2140014A004100020084B1B6F03F00703022B04D028
S2140014B0032B05D0012B05D0FEE7044B18687047B8
S2140014C0034BFBE7034870470080005004100020E1
S2140014D00C100020002D310108B5FFF7E3FF054B87
S2140014E01B6FC3F303330133B0FBF3F0024B1860FA
S2140014F008BD00BF00800050001000200048704764
S21400150000B4C404014B1868704700BF0C100020DC
S214001510054B1860054B1B6F03F00703032B01D127
S214001520FFF7DABF704700BF0C10002000800050A5
S21400153000487047002D3101014B1868704700BF06
S2140015400810002038B504460D4601B118B93721F9
S21400155003481CF06EFA23682B60256038BD00BF78
S214001560218B02000346054A0549106803448B4256
S2140015708CBF4FF0FF301360704700BF1010002084
S2140015800080002008B501213A2000F0ABFA0321C4
S21400159001230422002001F0E3F800201CF0D9FA11
S2140015A00122214B4FF46070C3F8442400F0C4FAC3
S2140015B01E4B00F5D520D3F8F02000F2FC4042F098
S2140015C00102C3F8F020D3F8FC2042F08072C3F882
S2140015D0FC20174AA3F55D431A60164B0222B0FBA7
S2140015E0F3F0154B01381861C3F8F0204FF4807201
S2140015F0C3F804234FF06043104A0020C3F8B02F0E
S2140016000F4AC3F8802ED3F8002E42F48072C3F837
S214001610002EFF2283F82020D3F8002E22F48072BA
S214001620C3F8002E08BD00BF00D0035000ED00E058
S214001630FF030040F8590D00000004E055CEACC58D
S2140016400900010030B54FF06043D3F8802ED20772
S21400165015D501240B4D8440D5F8FC2042F080724D
S214001660C5F8FC20D3F8002E2243C3F8002E53F80A
S2140016702020002AF0D003F82010002030BD1120D2
S214001680FCE700BF00ED00E0024B1968024B18684B
S21400169013F070B8141000203410002070B59400B9
S2140016A0224605460E4626F0D7FD431C0AD058B9FA
S2140016B022463146284625F0A4FE0028034808BFE7
S2140016C0002070BD0248FCE70248FAE710E000F090
S2140016D021E000F024E000F010B5044626F0C0FD3E
S2140016E0431C10D088B901F037F9234620F00300D8
S2140016F02044984201D1002010BD53F8042B01323B
S214001700F7D00348F8E70348F6E70348F4E700BFD6
S2140017100EE000F021E000F024E000F008B51CF038
S214001720F0F9014B186008BDA41E0020014B186894
S2140017301CF0EBB9A41E0020044BD3F88420D2067C
S214001740FBD4D3F88400C0F38110704700400050EB
S21400175038B5104B0546D3F820310C4603F003038A
S214001760022B0BD0032B0DD0012B0FD1FFF794FECD
S214001770052305B1286004B1236038BDFFF7C2FE1B
S2140017800323F6E7FFF7D4FE0223F2E70123002047
S214001790EFE700BF00800050F7B50027114B019718
S2140017A0D3F88041064604F00304012C0D4608D009
S2140017B0022C12D041F2B1310B481CF03AF93C46EB
S2140017C004E0394601A8FFF7C3FF0F240EB1019BC2
S2140017D0336005B12C6003B0F0BDFFF7A9FE0190A1
S2140017E0F4E700BF00800050958B020038B51A4B16
S2140017F00546D3F824010C4600F00700062821D839
S214001800DFE800F0280410181C0C1400FFF744FE54
S214001810052305B1286004B1236038BDFFF73CFE00
S2140018200623F6E7FFF76EFE0323F2E7FFF76AFEEE
S2140018300423EEE7FFF77CFE0223EAE71CF0F1F84C
S2140018400723E6E7054840F6A8711CF0F2F80023E7
S2140018501846DEE70123DCE700800050958B020087
S21400186038B5104B0546D3F840310C4603F0030359
S214001870022B0BD0032B0DD0012B0FD11CF0D3F86D
S214001880092305B1286004B1236038BDFFF754FE74
S2140018900823F6E71CF0CAF80B23F2E70123002022
S2140018A0EFE700BF0080005038B5164B0546D3F86A
S2140018B000020C4600F00700042819D8DFE800F004
S2140018C020030B0F13001CF0AEF8092305B12860A7
S2140018D004B1236038BDFFF72FFE0823F6E71CF09F
S2140018E0A5F80B23F2E7FFF7F7FD0E23800AEDE7D6
S2140018F0054841F26F411CF09CF800231846E5E7C6
S2140019000123E3E700800050958B020038B5124BA8
S2140019100546D3F840320C4603F00303022B0BD0E7
S214001920032B0DD0012B0FD11CF07DF8092305B138
S214001930286004B1236038BDFFF7FEFD0823F6E7F4
S2140019401CF074F80B23F2E7044841F2FA311CF05D
S21400195070F800231846EAE700800050958B0200D6
S21400196038B5104B0546D3F860310C4603F0030338
S214001970022B0BD0032B0DD0012B0FD11CF053F8EC
S214001980092305B1286004B1236038BDFFF7D4FDF4
S2140019900823F6E71CF04AF80B23F2E701230020A1
S2140019A0EFE700BF0080005010B40F4C0B46D4F891
S2140019B0204204F00304012C0ED0022C10D008B1F3
S2140019C0002101600BB100221A6040F6D271074870
S2140019D05DF8044B1CF02DB85DF8044BFFF7B8BE5D
S2140019E05DF8044BFFF73CBF00800050958B02006B
S2140019F038B50C4605461CF084F8054B9A6A5440E8
S214001A002C4054409C62BDE838401CF07EB800BFB5
S214001A1000C0005010B5B0F5207F34D009D8B0F51E
S214001A20007F2AD003D898B1B0F5C07F10D000242C
S214001A3021E0B0F5607FFAD1154BD3F88030C3F3C0
S214001A4001149B0617D5032C15D040F295210FE004
S214001A500F4B1C6F230B13F00E0FC4F303340AD086
S214001A60072C08D00F2C06D0032C04D040F285217A
S214001A7008481BF0DEFF601C10BD054BD3F89040F5
S214001A80C4F30464F7E7024B1C6FC4F38024F2E748
S214001A9000800050958B020010B54FF400320E4BBC
S214001AA004469A660020FFF7B5FF604341F67132A0
S214001AB00A4C0B4BA04294BF00200120D969DA6380
S214001AC09A6822F4401242EA00529A60CA0344BF5F
S214001AD00022DA6310BD00BF00900050005A620278
S214001AE00000035070B5460904460D460ED140F27C
S214001AF02F310D481BF09DFF334604F01F047DB1C7
S214001B0003F580530122A2401A6070BD012E05D055
S214001B10064B074A022E18BF1346EEE7054BECE7C6
S214001B2003F50053EEE700BF958B02006880005077
S214001B30608200506480005030B585B00023802855
S214001B400446019374D02AD8002877D0A0F1200448
S214001B50412C32D8412C30D8DFE804F07073707313
S214001B60888888887373923FA8653F7373732F2F96
S214001B702F2F2F2F8D57737373B2AD732F2F2F2FD9
S214001B802F2F2F2F2F2F2F2F2F702F707070882F03
S214001B902F2F2F2F2F2F2F2F2F2F2F2F7070B0F587
S214001BA0806F63D024D8B0F5007F55D00BD8B0F541
S214001BB0807F6AD0B0F5C07F40D040F29441434861
S214001BC01BF037FF37E0B0F5607F45D0F5D8B0F5AD
S214001BD0207F36D0B0F5407FEFD1FFF77DFC04467E
S214001BE04FF42070FFF716FFB4FBF0F4640831E002
S214001BF0B0F5C06F5AD00DD8B0F5A06F3BD0B0F599
S214001C00B06F3DD0B0F5906FD7D1002101A8FFF797
S214001C10EDFD10E0B0F5E06F4DD0B0F5F06F4FD0B1
S214001C20B0F5D06FC9D1002101A8FFF73DFE02E054
S214001C30FFF738FC0190019805B030BDFFF74CFC6B
S214001C40F8E7FFF749FC04464FF42070FFF7E2FE82
S214001C50B4FBF0F40194EEE7FFF724FC05462046BB
S214001C60FFF7D8FEB5FBF0F50195E4E7002101A8E3
S214001C70FFF76EFDDFE7002101A8FFF795FEDAE724
S214001C80002101A8FFF788FDD5E702934FF0E02377
S214001C901B695B0705D5FFF71FFC0290029B0193AB
S214001CA0C9E703A902A8FFF7DBFDF7E7002101A8B3
S214001CB0FFF7D6FDBFE7002101A8FFF727FEBAE72A
S214001CC0002101A8FFF74CFEB5E700BF958B020088
S214001CD008B58020FFF730FF034B98429EBF4FF4B5
S214001CE08032024B1A6708BD005A620200A00050FC
S214001CF01FB50023B0F5807F01937FD027D8382802
S214001D0000F09C800BD82438092810D809280ED853
S214001D10DFE800F06F6F6F6F0D0D670D3685522888
S214001D2067D007D83D283AD03E2800F08C8040F295
S214001D30795152E08028FAD1454B1B6F03F0070318
S214001D40013B032B47D8DFE803F044413F75B0F56D
S214001D50D06F64D019D8B0F5A06F6FD00AD8B0F5A0
S214001D60806F46D0B0F5906FE1D1002001A9FFF753
S214001D703DFD3AE0B0F5B06F33D0B0F5C06FD6D1C8
S214001D80002001A9FFF76CFD2FE0B0F5006FECD046
S214001D900AD8B0F5E06F56D0B0F5F06FC7D1002086
S214001DA001A9FFF7DDFD20E0B0F5086FBFD1284B95
S214001DB0D3F8003103F00303022B35D0032B37D0C2
S214001DC0012B39D1FFF79EFB032300E00523019387
S214001DD00BE00223FBE740F2C6411E481BF029FE3B
S214001DE003E0002001A9FFF7D7FC019805B05DF8D5
S214001DF004FB002001A9FFF7ABFCF6E702934FF0C7
S214001E00E0231B695B0705D5FFF766FB0C230393EE
S214001E10039BDCE703A902A8FFF722FDF8E70020F2
S214001E2001A9FFF741FDE0E7FFF786FB0823CEE7B1
S214001E301BF0F7FD0723CAE70123C8E7002001A926
S214001E40FFF7B2FDD1E7002001A9FFF75FFDCCE761
S214001E5000800050958B02004FF40022034B5A6618
S214001E60012203F580439A62704700BF009000503D
S214001E7008B5FFF73DFF082811D00938012802D918
S214001E804FF6FF7008BD4FF40012064B5A6603F576
S214001E90D8335B6ADB07F3D54FF4FA70F2E7024BF0
S214001EA01888EFE700900050E0110020F8B50368AE
S214001EB004460F2B04D940F66D316C481BF0B9FD73
S214001EC063680F2B04D94FF4376168481BF0B1FDE7
S214001ED0A3680F2B04D940F6733164481BF0A9FDA4
S214001EE0237B0F2B04D940F6763160481BF0A1FD0A
S214001EF0637B0F2B04D940F679315C481BF099FDC3
S214001F00A37B3F2B04D940F67C3158481BF091FD4B
S214001F10E37B3F2B04D940F67F3154481BF089FD04
S214001F202369032B04D940F6823150481BF081FD0B
S214001F306369032B04D940F685314C481BF079FDC4
S214001F40E369012B04D940F6883148481BF071FD3F
S214001F508020FFF7CDFE032800F087804FF4002294
S214001F60434B02215A6645F60E03424AC2F88030B9
S214001F70414B9962012103F580539962936DD90311
S214001F80FCD4D4E900131B0543EA0163E17B94F813
S214001F9020500B43217BE77E43EA0143617B6D01C2
S214001FA043EA0133A17B43EA811313619169D4E9C3
S214001FB004031B0643EA806301F000410B43A17E45
S214001FC094F823000B43217E43EA0143617E43EAF3
S214001FD001239361136AE66923F00D0394F8221037
S214001FE043EA8703002E2DD11362966A94F82130B7
S214001FF045EA031326F033052B4343F001039362AF
S2140020001E4D1C4B9A6D35EA0202FBD102221A4D78
S214002010AA621A659A6D5200FCD41A69A56822F461
S214002020700242EA05521A614FF00042124B9A6162
S21400203019B9022203F580539A6278B90122104B2F
S2140020409A620BE0334343F008031362936A23F06B
S214002050330303432B4343EA4103936294F824304B
S2140020601BB1044B074AC3F88020F8BD958B0200CD
S2140020700090005000C0005000D000500300014007
S21400208000E00050F1A7FFFF70B51E4BFF289E6AC8
S21400209035D89A6D12F4803F18BF01211A4A18BF2E
S2140020A09162022191629B6DDC0303D5154A936D04
S2140020B09907FCD50222144B124D1A65AC6D14F02C
S2140020C08044FBD1114AAB6992F9002023F47F03C8
S2140020D0024423F47F4382F3080243EA002343EAE0
S2140020E00243AB6131460220FFF782FCAB6DDB0397
S2140020F003D531460120FFF77BFC204670BD212426
S214002100FBE700BF00C0005000D00050232E002088
S214002110014B93F900007047232E0020012215483A
S214002120154B816A9A62826D02F00302032AFAD185
S21400213002229A621A650F4A936D5B00FCD40F4820
S214002140936D30EA0303FBD101220B4B1A65A3F50E
S21400215080539A6D9007FCD49A6D9207FCD50222A4
S214002160054B1A65034A936D9B07FCD50320FFF7C2
S2140021703FBC00BF00C0005000D00050030001006C
S214002180014B1880704700BFDE11002008B54FF4E1
S2140021900012184B5A660223174A5360936813F4CA
S2140021A08033FBD1012822D1FFF7ACF9134B9842BC
S2140021B015D003F5122303F5F863984213D0104B9D
S2140021C000EB8002400AB3FBF0F3520A0A49CA62E7
S2140021D00B6301234B620022074B5A6008BD45F68D
S2140021E07A13084AF2E745F61A03074AEEE75362FF
S2140021F0F1E700BF009000500040025000F0490296
S21400220064666666D8B80500BBCF050010B5B0F5A5
S214002210207F65D00ED8B0F5007F4FD003D800B32E
S214002220B0F5C07F1DD040F21231BDE810403448F2
S2140022301BF0FFBBB0F5607FF5D14C1E012C06D914
S214002240042904D04FF43D712D481BF0F2FB2D4AB3
S214002250D2F8803023F0300343EA0413C2F880300B
S21400226010BD4C1E012C0AD9102903D8264BCB4092
S214002270DB0704D440F2C72121481BF0DAFB1BF031
S21400228018FC1BF024FC4FF48031204B1D4A1967C4
S214002290136F23F4704343EA04331367FFF71CF904
S2140022A00446FFF749FAC0F1020120461BF009FC7C
S2140022B000F03EF8BDE81040FFF70ABD4C1E1F2C8C
S2140022C004D940F206310E481BF0B3FB0D4AD2F893
S2140022D0903023F0F85343EA0463C2F89030BFE727
S2140022E04C1E012C04D94FF4437105481BF0A1FB8A
S2140022F0044A136F23F4806343EA84231367AFE72B
S214002300958B0200008000501001010000900050E4
S21400231008B50121022000F0D7F81BF0CAFB1BF01D
S214002320D6FB4FF48032014B1A6708BD0090005070
S21400233008B54FF4C070FFF7FFFBBDE8084004493E
S214002340884294BF012102214FF42070FFF75EBF40
S21400235080F0FA02034B5868C0F30800003818BF34
S2140023600120704700ED00E010B5224B70B94FF425
S2140023700031214A1860516602F598325268012AE7
S21400238003D11E4AD2F800211A6010BD1B68002B2C
S214002390FBD01B4A5268012AF7D0184A8020C2F8A0
S2140023A00031FFF7A5FC05281FD14FF4C070FFF7DA
S2140023B031FB0128044604D102214FF4C070FFF718
S2140023C025FF07220F4B1A610122A3F580535A609E
S2140023D00B4A1369DB07FCD5012CD6D12146BDE894
S2140023E010404FF4C070FFF711BF0122064B5A6031
S2140023F0CBE700BFA81E00200090005000800050D1
S21400240000C0015000E0015000D00150044A41785D
S214002410536F23F4407343EA01235367704700BFAA
S2140024200040005010B5044610B10020FFF79CFF96
S2140024300E4A136943F00403136102F063F91BF0BC
S21400244070FB1BF05EFB25F00FFF1BF05EFB1BF026
S21400245069FB02F07FF91CB9BDE81040FFF73CB8F5
S2140024600120BDE81040FFF77FBF00BF00ED00E091
S21400247010B5044610B10020FFF776FF0C4A13692A
S21400248043F00403136102F03DF91BF03AFB25F01C
S214002490EBFE1BF03AFB02F05DF91CB9BDE81040FC
S2140024A0FFF71AB80120BDE81040FFF75DBF00BF78
S2140024B000ED00E0034A0179D36E23F030030B43AE
S2140024C0D366704700400050F8B50446244BD3F856
S2140024D08420D006FBD4D3F88430C3F381139C4207
S2140024E03CD0FEF7DFFF012C05460BD11D4B984272
S2140024F004D940F281711C481BF09BFA0121284642
S2140025001BF0DFFA1BF0FDFA4FF00072174B074680
S2140025105A6620461BF00DFB4FF48063104E621E79
S21400252093403367736E9A0103D4D6F884309B06C3
S2140025300AD538461BF0E9FA022C0FD12846BDE82A
S214002540F84000211BF0BDBAD6F884309906E9D5CC
S21400255040F28F7104481BF06CFAE3E7F8BD00BF49
S21400256000400050005A6202E58B020000600050F6
S21400257010B50C4608B9FEF795FF074B21461B78A9
S2140025803BB1064B984204D80120BDE81040FFF747
S2140025909BBF0220F9E700BF242E0020005A6202EB
S2140025A0034B0278012100201A70FFF7E1BF00BF3D
S2140025B0242E002038B54FF00042264B26495A6696
S2140025C001224A604AF6CD3103F50B235D6C19648F
S2140025D0154030BB9968C9070BD4002401221F4B55
S2140025E05A6015B11E4B1F4A1A6424F0CEF92046D5
S2140025F038BD1A498A601C4AD96ACC0705D490426D
S21400260001D10724EAE70130F6E79042E5D1F8E782
S2140026100132DC6A14F0080406D08A42F8D1072496
S214002620DFE700221049F4E78A42F8D020220B4B5D
S2140026300B495A620122A3F580539A6023460A4A40
S214002640486A800603D49342E9D00133F8E7934200
S214002650C7D1E4E7009000500050095000600950D0
S214002660004009503254FFFF40420F0038B54FF08B
S2140026700042174B174C5A66012203F50C235A608A
S2140026804AF6CD33656C2364437893401343124A6D
S214002690D363C3788178A2689B0043EA011322F0D3
S2140026A074021343A3600279837943EA0223236109
S2140026B04279C37943EA022363610078FFF77AFF21
S2140026C0EB0744BF054B236424F05FF9012038BDB7
S2140026D00090005000400950004000503254FFFF68
S2140026E038B5032804460D4605D80B4B33F8103092
S2140026F0CB40DB0704D440F22D4108481BF099F983
S21400270030220123544341F2100204F1A044AB40AE
S21400271004F57034A35038BDD88C0200358C020006
S21400272038B5032804460D4605D80B4B33F8103051
S214002730CB40DB0704D440F2FE3108481BF079F9A1
S21400274030220123544342F2100204F1A044AB406D
S21400275004F57034A35038BDD88C0200358C0200C6
S214002760F8B5032804460D4616461F4605D81C4BEA
S21400277033F81030CB40DB0704D44FF4B07119485F
S2140027801BF057F926B129462046CFB1FFF7A8FF20
S21400279004EB4403072D4FF00F014FEA031312D842
S2140027A0A80006FA00F281400F4818441BF0C2F950
S2140027B0AEB92946204677B1BDE8F840FFF790BF8E
S2140027C0FFF7AEFFE4E7A5F10800800006FA00F286
S2140027D081400648E9E7BDE8F840FFF7A1BFF8BD2D
S2140027E0D88C0200868C020004C003500CC0035034
S2140027F04FF40032054B9A6641F6713203F51C33EE
S214002800DA63012203F50053DA6070470090005047
S21400281041F671320121064BDA6303F50052D160AE
S2140028200022DA634FF40032A3F518339A66704735
S2140028300000035038B5022805460C4603D94C2143
S2140028400C481BF0F6F8E378627821785B0143EADF
S214002850820322790B4343EA02130C226A4302F1F5
S214002860B0421363012902BFA278034B43F8252028
S21400287038BD00BF308D0200E880035008B54FF029
S214002880B0435A686AB958B15B680BB11BF062F97D
S21400289001210D4B59601BF05DF94FF0B043D96034
S2140028A008BD5B680BB11BF055F90028F0D11BF092
S2140028B051F94FF0B0430222DA601BF04BF90122C7
S2140028C0024B5A60ECE700BF00100058002000588A
S2140028D010B54FF0B0414B680BB11BF03BF901222D
S2140028E00B4BC4785A608378934043EA8403447859
S2140028F02343047943EA0413447943EAC4038B6010
S214002900044B5A600378C3F10203CB6010BD00BFCE
S21400291000200058001000584FF48032064B5A66CC
S21400292003F5E6235B69C3F38512827003F03F026A
S2140029301B0B42700370704700900050014B986C60
S214002940D96C70470080E00F024B1868C0F3074050
S214002950704700BF0080E00F0120034B9B680A33DE
S21400296003F01F03984070470080E00F38B5044618
S214002970054D24F02EF80FCC0FC594E8030085E82B
S2140029800300002038BD00BFAC1E0020F0B547F69F
S214002990FF739A426FD002296FD8394B5B5C012BCC
S2140029A06BD8384DDF0005EBC30415F83330A1783B
S2140029B0012B13D10025E078401AA84202D808441B
S2140029C0C0B2F0BD431B6668A0EB530336F9136034
S2140029D09642D4BF1D4603F1FF30EEE7606800283C
S2140029E0EFD0B0F90040944204DBB0F902409442C4
S2140029F0B8BF144683883D44FF2B19BFC8224FF04A
S214002A00280CB0F90620B0F908C0A2EB04030CBFEE
S214002A100126002693FBFCF333446E781BB29E42DD
S214002A2001DD002B01DA731E1BB24FF47A7C0133F2
S214002A309BB2071D5D1E2DB24FEAC50E00EBC50505
S214002A40EA88AD689E4214FB025222EAE27202F164
S214002A505C02B2FBFCF204DD37F8335001339542DA
S214002A60E8D200EB0E039888904228BF10468842B2
S214002A7038BF0846A4E7FF20A3E70020A1E700BF71
S214002A80818D0200AC1E0020F0B5022955D82C4BD3
S214002A90585C012851D82B4C04EBC00114F83000C8
S214002AA04B6801280FD1C8788C78904294BFC4EB4D
S214002AB00001C4EB0201001BCAB28242C8BF00225A
S214002AC033F91200F0BD002B37D08878904202D33D
S214002AD0B3F90200F6E7CC78B3F900009442F1D9D6
S214002AE04C789988013CA1F1FF06714203F1040578
S214002AF0E4B2714103F10C07CEB2B44216D805EB2E
S214002B00C1014FF47A756A43B1F902404968521A16
S214002B1004EBD47102EB610292FBF4F29042D1DB3B
S214002B20B3F902009042CDDC10B2CBE737F831C0E3
S214002B304E1C9445E3D33146DEE70348C2E700BFA8
S214002B40818D0200AC1E00200080FFFF08B50448FF
S214002B50FFF70CFFBDE80840012023F040BF00BF90
S214002B60848D020000487047E21100201B0603F027
S214002B70706300F00F000902034301F47061120451
S214002B8002F470220B431343014A1360704700BFE0
S214002B900020025C60B5054619B10139B1F5806FB9
S214002BA00FD2094EF06810F48030FBD143EA0123BF
S214002BB012072B4302F08052134343F00043736026
S214002BC060BD0120FCE700BF0020025C0122054B2F
S214002BD09A60DA68D203FCD4D86820F00F000004AC
S214002BE0000C70470020025C014B1868704700BF5D
S214002BF00040025C014B5868704700BF0010025C42
S214002C00014B186B704700BF0010025C014B186840
S214002C10704700BF0010025C014B9860704700BF11
S214002C200010025C014B1864704700BF0010025C85
S214002C30014B5864704700BF0010025C014B58639C
S214002C40704700BF0010025C0022014B1A607047FC
S214002C500010025C024A136843F0010313607047D9
S214002C600010025C024A136823F0010313607047E9
S214002C700010025C43F20402014B1A60704700BF6A
S214002C800010025C024A136843F03003136070477A
S214002C900010025C044B1A6842F480721A601A68CC
S214002CA022F480721A6070470010025C024A1368B1
S214002CB043F48063136070470010025C034A136895
S214002CC023F4702343EA0043136070470010025C4D
S214002CD0044B1A6902605A6942609A698260DB692D
S214002CE0C36070470010025C044B02681A614268B9
S214002CF05A6182689A61C268DA6170470010025CA5
S214002D00024B1A6BD207FCD4186270470010025CA4
S214002D100322024B186019615A6370470000025C78
S214002D2082B01FB507930A9B04AC8B4228BF0B46A4
S214002D3004E907001048D100079948BF0333016033
S214002D40099948BF23F0030323F0704301F0E041E4
S214002D50194341F000518160002102F0E042019CDD
S214002D601A4342F00052C16004618261416304B0BC
S214002D70BDE8104002B070470000025C3F22034BE3
S214002D801A631022DA6103229A6370470000025C1D
S214002D90024AD36B9B07FCD4704700BF0000025C5E
S214002DA0044B9B6A13F0240F14BF01200020800000
S214002DB0704700BF0000025C08B5FFF7F1FF064B46
S214002DC0DB6B23F47F4323F0EF0303431EBF012294
S214002DD0024BC3F8FC2F08BD0000025C00F0FF3F6A
S214002DE04368182B0AD0202B1DD0102B2BD1174B45
S214002DF0D3F80434DB010AD401207047134BD3F810
S214002E0004349A01F8D50B6843F008030B60036896
S214002E100F4A934210D10B6843F040030B60002327
S214002E20436000207047094BD3F804345B01E3D5B8
S214002E300B6843F00403E9E7064A9342F1D10B68B6
S214002E4043F08003EAE70720704700BF0000025CFB
S214002E50262E0020252E002013B5084CD4F8044456
S214002E60E40508D5009313460A460146002000F004
S214002E701BF802B010BD0120FBE700BF0000025C9B
S214002E8013B5084CD4F80444E40508D5009313465B
S214002E900A460146002000F02BF802B010BD0120C3
S214002EA0FBE700BF0000025CF0B58DB016465A681E
S214002EB00D46102A129F15D17A68102A12D10A4A96
S214002EC009AC07CA84E8070022462946CDE905472B
S214002ED0CDE90344CDE90144044800961AF03AFFD0
S214002EE00DB0F0BD0720FBE7088E020030000100A1
S214002EF0F0B58DB016465A680D46102A129F15D1A9
S214002F007A68102A12D10A4A09AC07CA84E8070070
S214002F1022462946CDE90574CDE90344CDE90144AE
S214002F20044800961AF016FF0DB0F0BD0720FBE728
S214002F30088E02001000010070B598B0002843D03B
S214002F402C4C08AD0FCC0FC50FCC0FC50FCC0FC542
S214002F5094E80F0085E80F006D4604AE04F11003F8
S214002F6020340FCB85E80F0094E80F0086E80F00AA
S214002F70FFF790FE0420FFF7A1FEFFF77BFE30462A
S214002F80FFF7B2FE002408AE56F8040B0134FFF734
S214002F90B7FE102CF8D1FFF72DFE0328FBD900242E
S214002FA0FFF752FE2646FFF71FFE55F8043B013694
S214002FB05840042E44EA0004F5D12CB10122062024
S214002FC00D4B1A7018B070BDFFF764FE0820FFF7AF
S214002FD023FE0020FFF726FE0720FFF729FE4FF40A
S214002FE00070FFF72BFE0820FFF768FEFFF732FEA3
S214002FF00020E7E7E88E0200282E002008B5FFF73D
S21400300049FE0122014B1A7008BD00BF272E002082
S2140030101FB51AF0FCFF044630B1012206240D4B02
S2140030201A70204604B010BDFFF7DEFD0090FFF7D3
S214003030DBFD0190FFF7D8FD0290FFF7D5FD03906A
S2140030406846FFF751FEFFF7D9FFFFF71BFEFFF7B5
S2140030502DFEE6E7282E002008B51AF085FD28B1DB
S214003060BDE808405A2102481AF0E3BC08BD00BF7C
S214003070488F020006289ABF014B185C0020704754
S214003080BF8F020030B587B0144B0D460293144B29
S2140030900390049346F61103059300F077F914287D
S2140030A0044616D168461BF057F84FF0A843032293
S2140030B002A95A6319601D619A63DA6B9207FCD104
S2140030C0142C02D168461BF055F800F0A1F904460E
S2140030D001E00028E9D0204607B030BDC41E00201D
S2140030E0040000202DE9F04FB1B005468C469E4600
S2140030F0E8466F4EDDF8EC90409C06F1100A474615
S21400310030687168083603C75645B846F7D13E9B07
S21400311003EB0208C8F1000A0AF00F0AB9F1000F23
S21400312000F09D80C9F1000707F00F070121DDF8C8
S214003130FCB044F00050C4F11006CDF810B0059174
S2140031400690300200F4F85040F021000790B9F1E4
S214003150000F40F08680CDF820D047F00050002DBC
S21400316000F08480099121210A9041EA07210B9101
S21400317042F00050CDF830C03D9B08A94FEA0A2C1B
S2140031800D910E904CF041000F901093002A75D1CF
S2140031903E9B119143F0005312933C9B1390149363
S2140031A010AB1593434B444A169340F611031793FE
S2140031B0424B0021002D08BF1346189314AB1993F9
S2140031C03F4B10221A9311231B931CAB184624F076
S2140031D042F901221D92002246F0804603461E96C2
S2140031E0239205B9EB46102CCDF880B024AE4BD117
S2140031F001232246002130462193229424F02BF905
S21400320020AB002125938F4218BF334647F08042FB
S21400321026923A9A2CA828922993B2FA82F35B094E
S21400322049EA837310222B912A9324F014F9B9F1FA
S214003230000F00D028AED04448F080432CA918A830
S2140032402D962E93FFF71EFF30B92DB90346A342E5
S21400325025D1002818BF2C2031B0BDE8F08F1027EC
S21400326064E7CDF820E049F0005078E7002C3FF402
S21400327079AF04A9099101210A9076E73E9B0CAA32
S21400328011924120129388E71022002130462193A4
S214003290229424F0E0F8002CB2D10123B1E703F128
S2140032A0C0026A4412F8C02C01331043CFE700BFB7
S2140032B0C68F020010000020DC8F0200E08F0200A4
S2140032C004000020F0B59FB0C029DDE9244557D0A2
S2140032D0B1F5807F04D0802948D029201FB0F0BDEA
S2140032E001265CB140F234470294102403960494FD
S2140032F0212401970594069502AC0AE040F2144793
S2140033000294102403960494212405940124019722
S2140033100695079401251024089409950A922122FF
S2140033200B950C940D92174A0AAD0E92164A0F95FD
S214003330109242F61102119212931395149415925C
S21400334001AA1692D3B112AB179304231893112334
S214003350199316AB1A901B9340F61103C9081C91DB
S2140033601AA806A91D93FFF78DFEB7E7012614B924
S2140033704FF48267C4E74FF48667B5E70EABE3E722
S2140033800F20ABE7D88F02001000001038B51C4B9A
S2140033905A6E42F004025A66D3F8802242F00102C6
S2140033A0C3F88022174B5B68C3F308037BB14FF06A
S2140033B0A842D36B13F0430FFBD1134B1B681BB90A
S2140033C0642112481AF035FB1424204638BD4FF00D
S2140033D0A843DC6B14F04304FBD10B4D2B6843B9B8
S2140033E00421284602F03CF818B1462107481AF096
S2140033F020FB2B68013343F000432B60E5E700BF5A
S2140034000080005000ED00E0C41E0020E48F0200A3
S214003410014B00205B68704700ED00E04FF400525F
S214003420034B00209A660322C3F86022704700BF51
S214003430009000504FF40052034B00209A6603227F
S214003440C3F86022704700BF00A00050012300F0C0
S2140034501F02A0F506200949A0F5506040099340D8
S21400346051F820201A4341F82020054951F8202021
S21400347022EA030241F82020704700BFDC1E00202D
S214003480C81E00200121A0F506230E4AA3F55063AE
S2140034905B0900F01F00814052F82300014342F808
S2140034A023100949D1E90030034488680344C868FA
S2140034B0096903445B1802BFC2E90033C2E902335C
S2140034C013617047C81E0020DC1E00202DE9F04F57
S2140034D0A9B003921D4604460822339ECDE9040196
S2140034E0414021FA02F34B40980702F1080218BF48
S2140034F09B00202A1C44F4D18123B4FBF3F303EB96
S214003500C313E41A734B04F506241B7804F55064C1
S214003510002B3ED1FEF7B8F8074620B16FF09100B9
S21400352029B0BDE8F08F0146402208A823F093FF9B
S2140035304022394618A823F08EFFDFF8B481DFF862
S214003540B491C3460BF10F0ACDF800A0102208A9CB
S2140035505B46D9F8000022F0C6FF0022014608F1BB
S214003560100808AF914246D1CDF800A05B46102265
S214003570D9F8000018A922F0BFFF4FF0000A8346D2
S21400358018AFD34541D1544B9845DAD10122514B5F
S2140035901A704FF0810A4FF00008DFF85CB1A4F50E
S2140035A00627A7F550635B095BF8232004F01F018C
S2140035B0CA40D2073DD4494A52F82330CB40DB07F5
S2140035C02AD5B8F1000F08BFA0468123A7F6FF470B
S2140035D0B7FBF3F303EBC313FF1A07F50624BAF1A0
S2140035E0010A04F55064DAD1039BBBB1B8F1000FB1
S2140035F014D0444619E057F8040BCDE90612FFF73D
S21400360025FF079A06990132ACE757F8040BFFF737
S21400361039FF0AF1010AB4E7039B13B96FF08B0078
S2140036207EE7B8F1000F18BF4446349B00201C60AC
S21400363076E7329B13B10023329A13600EB1002353
S21400364033601023DFF8AC9000932A46002321460F
S214003650D9F8000011F000FA60BB32992A68204BB6
S214003660C9B99A4206D02146D9F8000011F08CFA62
S2140036700028D3D1D5E90223DDE90410834208BF30
S2140036808A42A2D1039B002BCFD06B68012BCCD1F2
S2140036906FF0840044E7102032999A420860E2D125
S2140036A0002EE7D033462146D9F8000018AA11F0BC
S2140036B027FA48B10B4B9842D5D00B4B9842D2D044
S2140036C00A4B9842D6D029E7329A336812689B1A7A
S2140036D03360CFE7292E002000710800C81E0020A6
S2140036E0105D175EFFDF00F011E000F0FEDF00F077
S2140036F0006D080034100020DC1E00202DE9F04F7D
S21400370087B08246894698461646DDF840B02AB10C
S214003710002B4FD040F26C739A424ED8BBF1010F8B
S2140037204ED8002406F110073946012005941AF0F9
S214003730F9FE0546002846D021463A4623F08BFE81
S21400374005ABCDE9014300942B460122504649467D
S214003750FFF7BCFE044680B110F18C0F08BF6FF077
S2140037608D043A460021284623F075FE28461AF0B6
S214003770E9FE204607B0BDE8F08F144BC5E902A964
S2140037802B60C5F804B02EB13246414605F1100054
S21400379023F06CFE059E0E483B462A4631460068DE
S2140037A011F0C2F818B93046FFF750FED9E76FF0AF
S2140037B09104D6E76FF08604DBE76FF09104D8E754
S2140037C06FF08504D5E76FF08C04D2E7105D175EC6
S2140037D0341000202DE9F0438DB08146DDE91478E1
S2140037E00E4615461C469BB1B8F1000F05D16FF08A
S2140037F0860630460DB0BDE8F083002FF7D0B7F14F
S214003800005FF4D3C3F1005303F500439F42EED8A4
S2140038101022002108A823F01EFE002207AB029308
S21400382005AB019306AB31460093484608ABCDE99D
S2140038300522FFF74BFE06460028DAD1059BA4B109
S214003840AB4215D853EA0504D1D1069B0B48C8F8FD
S214003850004000943A46079900682B4411F0FCF8A3
S214003860002818BF6FF09106C3E7AB42EDD2BEE763
S2140038705B1B9C4228BF1C46E7E700BF34100020B5
S21400388030B58DB010220C460546002108A823F05E
S214003890E2FD002207AB029305AB019306AB21467F
S2140038A00093284608ABCDE90522FFF70FFE044635
S2140038B0D8B9099B012B1BD0079D104B29461868C9
S2140038C011F062F9B8B90122A5F506230C49A3F553
S2140038D050635B0905F01F00824051F82300424008
S2140038E0284641F82320FFF7CDFD20460DB030BD19
S2140038F06FF08404F9E76FF09104F6E734100020C7
S214003900DC1E00202DE9F04F89B007460E46FFF773
S2140039107DF9C00715D4042401201AF085FB002881
S21400392039D1FFF76DF910F00E03FAD0022BF8D05C
S214003930410530D40A2B19D190212B481AF079F87A
S21400394014E0102200210DEB020023F084FD04A8F1
S214003950FFF7BEF9049B002BDDD0059B002BDAD0C9
S214003960069B002BD7D0079B002BD4D00025DFF872
S2140039707C8008F10409B54214D34FF48A74FFF72B
S2140039803FF900F00E03062B28D1C30501D5FFF73B
S21400399069F9002003E0013CBED16FF0920009B047
S2140039A0BDE8F08FFFF726F9A6EB050A840054451C
S2140039B028BF544699E8030000238DE80300CDE9AC
S2140039C0054307EB050BCDF810B0029404AAD8F80F
S2140039D0003007CA1AF094FA2544CCE724FA03F319
S2140039E0DA07DAD5CBE700BF68900200EC90020059
S2140039F02DE9F04389B00E4615461F46DDF848808F
S214003A0020B96FF0860009B0BDE8F0830029F8D031
S214003A10002AF6D0B8F1000FF3D0038803F44F4223
S214003A20B2F5824F02D06FF08500ECE7DAB2122AC8
S214003A3001D0172AF7D123F0FF03B3F5E24F41D1A7
S214003A404488C8F8004044B9EB00B3F5807FC8F856
S214003A500030E8D1122A0DD108E0E31DB5EBD30FF4
S214003A60CFD1B4F5807FDED1122A29D1354B1C6820
S214003A701B691C440023194670192C4414F801CD08
S214003A8010F8012D1143B2EB0C020CBF4FF0FF3CB7
S214003A904FF0000C86420CEA030343EA0203EDD122
S214003AA00029AED0002BACDA109B9D4246D82A46A1
S214003AB03146384623F0DAFC119B00201D60A2E751
S214003AC00024D7E73378042B9BD16B1EDB005B0802
S214003AD0B3F5807FC8F80030A5D1122A06F101039D
S214003AE018BF4FF000094FF0400205934FF0000357
S214003AF00ABF144C4C46D4F80C90CDE90623FFF7C9
S214003B008DFC00287FF47FAFCDF80C90D8F80030FD
S214003B100733DB08029308AB13E903008DE80300C4
S214003B20059B94E807001AF03CFA0446FFF782FC6F
S214003B3000287FF468AF002CB6D062E76FF08900EB
S214003B4061E700BF148E02000388B3F5105F0ED144
S214003B504388DB08103B102B0CD8084A22FA03F3E4
S214003B6013F0010F14BF00206FF0860070476FF04F
S214003B70850070476FF08600704700BF01010100A6
S214003B802DE9F0410C4616460546069F10B309B3CC
S214003B9002B9FBB96288B3EBD20F4FEAD20819D349
S214003BA04C220021284623F056FC0D4B27F47E12AB
S214003BB09A4212D12046FFF7C7FF044638B942465C
S214003BC03146281D23F052FCC5F824802F6020467D
S214003BD0BDE8F0816FF08604F9E76FF08504F6E73C
S214003BE00002C0032DE9F0410E46144605460028A3
S214003BF040D000293ED092B10368214823F47E13BA
S214003C0083423AD1AF6BF7B1C7F1100807F128002D
S214003C104245284406D2274423F028FCAF63002000
S214003C20BDE8F081424623F021FC1022103C3C19EE
S214003C30AA63F4D0284605F128011AF0E3FA002812
S214003C40EED14644A863102C0CD9671E27F00F0748
S214003C503A46314628461AF0D5FA0028E0D1E41B49
S214003C60DDD03E442246314605F1280023F0FEFB17
S214003C70AC63D4E76FF08600D2E76FF08800CFE73A
S214003C800002C0032DE9F0438BB088461F46054668
S214003C9070B169B163B10368234923F47E1088428A
S214003CA03ED113F47C1FC3F3054604D0102E03D96F
S214003CB06FF086042AE0102696422BD8FFF7AEFB5C
S214003CC0044618BBAB6B05F12802CDE901236B6AED
S214003CD02A1DCDE904231023CDE9083007AB1A4688
S214003CE00390069005F13C0901A904A8CDF81C90A4
S214003CF0FFF7C6F80546FFF79DFB04466DB928B9E1
S214003D0032464946404623F0B1FB3E6020460BB0A3
S214003D10BDE8F0836FF08904F8E76FF09204F5E7EA
S214003D206FF08504F2E700BF0002C00307B56B46DC
S214003D30054A1068516803C36846FEF797FC0020E2
S214003D4003B05DF804FB00BFF890020013B5002432
S214003D50064A6846536F43F00103536700948DF894
S214003D600440FEF7A7FB204602B010BD00400050FE
S214003D7030B58BB06C46174D0FCD0FC40FCD0FC4AA
S214003D8095E8030084E80300134BD3F84C21120394
S214003D901CD5A3F5FE431C884FF6FF739C4208BF54
S214003DA08C248DF81940FEF7B3F9204480F3080000
S214003DB08DF818000948FDF7ABFB6846FEF776F865
S214003DC03220FEF7DDF900200BB030BDD3F85041AD
S214003DD0E4B2E6E7009102000080E00F00F049023E
S214003DE010B56FF0040350210A480B4C13F0800FF7
S214003DF003F1010207D12344402A83F80013134637
S214003E00F4D1002010BD03F00F03043B03441976E1
S214003E101346EBE700ED00E000E100E010B50446D5
S214003E2019F06FFE024B1C6019F06FFE002010BDEB
S214003E30F01E002010B519F064FE034B1C6819F044
S214003E4064FE204610BD00BFF01E002010B5002006
S214003E5014461AF01AFA022804D018B1C3210248F0
S214003E6019F0E7FD204610BD28910200034B022200
S214003E70186800238068194618F08ABB4411002091
S214003E8008B520B14FF48471044819F0D2FD4FF004
S214003E906042D2F8803E1B02FBD408BD9791020018
S214003EA010B5002019F0C9FD044630B90448FFF7E4
S214003EB0B5FF0449044800F0D5F9204610BD00BF00
S214003EC04010002038100020F41E0020054B1A7801
S214003ED02AB95B78002B0CBF032002207047012014
S214003EE0704700BF342E0020F8B5032905460E465D
S214003EF007D8174B5C5C032D19D8DFE805F0090FCF
S214003F0012154FF45171134819F093FD0024F2E78F
S214003F1044F00204104B1F687FB9F8BD44F0080453
S214003F20F8E744F02004F5E744F08004F2E740F2B6
S214003F305931084819F07DFDECE77B681A68144291
S214003F4003D0314628465B6898473F68E4E700BFE1
S214003F5065920200FB910200281F002038B5104D24
S214003F602B78ABB10F4C23781BB100F031FC00234B
S214003F70237000201AF016FA0B4C50B100F07AFCB1
S214003F800023012120782B70FFF7AEFF012323705A
S214003F9038BD0122054B1A702278054B1A70F7E7D8
S214003FA02F2E00202D2E0020362E0020302E002012
S214003FB0312E002010B519F0A4FD064B04461B78E0
S214003FC01BB1BDE8104019F0A0BDFFF7C7FF2046A3
S214003FD0F7E700BF2C2E002010B5154C2378FF2BDA
S214003FE014D1E0B14FF47671124819F022FD23780F
S214003FF0D3B901232370104B1B78012B11D90F4B1B
S2140040001B7873B9BDE81040FFF7A8BF53B9002866
S214004010EFD140F2DA31074819F00BFD2378013B67
S214004020237010BD0028FAD00133DBB2E2E700BFF0
S214004030342E0020FB910200362E0020302E002069
S21400404070B519F05EFD124E054633789BB900F048
S21400405053FD044620B1284619F057FD204670BD92
S2140040600C4819F0E7FC00F0CFFF0B4B1C6000F08B
S2140040700FFE0A4B186000F083FA1AF095F9084B09
S2140040800024186001232846337019F03EFDE5E74A
S214004090372E0020281F0020FC1E0020241F002092
S2140040A0001F00202DE9F843441EE3B2012B0E4604
S2140040B004D940F29B11354819F0BBFC344D2B5DFA
S2140040C0FF2B4AD1002E50D04FF4CF712F4819F055
S2140040D0B0FC2B5D002B4CD02E4F013339782B557E
S2140040E0012944D9FFF7F2FE0128044646D819F004
S2140040F008FDDFF8AC80054698F8003013B3264E6E
S21400410033781BB901223270244A1370DFF894907A
S21400411099F8003023B100F05BFB002389F80030EB
S214004120284619F0F2FC01201AF03CF919F0E9FCD7
S214004130337805461BB100F09DFB00233370002347
S21400414088F80030284619F0E0FC3878A0420ED0F7
S2140041502146FFF7C9FE3C7009E063B94EB94FF43B
S214004160D0710A4819F065FC2B5D013B2B55BDE864
S214004170F8832B5DB0E7002EF7D0ADE70329E4D136
S2140041800228E2D11AF014F9DFE700BFFB91020023
S214004190342E0020362E00202C2E0020302E00201C
S2140041A02F2E00202D2E002070B5044619F0A9FCF5
S2140041B01B4D06462B78FF2B1AD174B9FF232A789D
S2140041C030461344DBB22B70B3FA83F3BDE870407D
S2140041D0144A5B09137019F098BC40F2CF111248CC
S2140041E019F027FC114B1B78022B10D80123E6E7A9
S2140041F03BB9002CF6D140F2D1110B4819F019FC4E
S214004200DCE70A4B1B78022B07D9002CD6D04FF4DC
S214004210EA71054819F00DFCE8E7002CCED0E5E77A
S214004220332E0020322E0020FB910200362E002076
S21400423038B519F066FC094B05461B78012B04D8E7
S21400424019F063FC0024204638BD054B1C6800F0BE
S21400425061FB0444284619F058FCF4E7362E00208B
S214004260FC1E002038B54160044619F04AFC05469D
S21400427021460448FDF766F92846BDE8384019F09F
S21400428044BC00BF281F0020054B1B685843054B45
S21400429000F5742000F23F20B0FBF3F0704700BF3B
S2140042A0241F002040420F002DE9F04F85B0EFF3A9
S2140042B0108772B6AFF3008019F026FB00287CD07A
S2140042C0854EDFF83482337823B10020FFF784FE72
S2140042D000233370FFF7FAFD012811D009D9023800
S2140042E0C0B2012870D940F2C131404619F0A1FB96
S2140042F006E0337823B10020FFF76EFE002333700C
S214004300FFF7E4FD01280546744CDFF8009200F242
S21400431089802078854240F0C380207800F0DEFA5D
S21400432099F8003013B16E4B1B782370AFF3008002
S21400433007B962B6EFF3108772B66A4B1A7852B1B5
S21400434000221A70664B20781B78984203D1012110
S2140043502170FFF7C9FD644800F008FC19F0DEFA8A
S21400436005460028AFD1614BDFF89481187098F8A5
S2140043700030ABB189F80000DFF88C9199F8003076
S2140043801BB100F025FA89F8005000201AF00AF850
S214004390002800F0988000F06DFA002388F80030BE
S2140043A0337823B10020FFF717FE00233370002177
S2140043B02078FFF799FD00232370AFF3008007B93C
S2140043C062B605B0BDE8F08F002003A900F01CFC23
S2140043D0002895D1464B039A1B689A4204D80120C0
S2140043E0FFF7FAFD01238AE7424B1C6800F092FAB9
S2140043F0241804D540F2AA313F4819F01AFB039B53
S2140044009C42ECD200F09EFA830043F002039BB27B
S214004410019300230399394A0093091B324819F087
S214004420C8FF6DE7364BDFF8C4A093F800B0BBF1C9
S214004430000F25D100F050F92078854230D19AF847
S21400444000307BB92E4D2B78002B7FF466AF2D4BBA
S2140044501B7823B900F0B6F901222B4B1A70012302
S2140044602B705AE7022DEDD18AF800B015E02378BC
S214004470022B25D100238AF8003022F0F3FB1FE040
S214004480207885420CD19AF80030002B3FF445AFD7
S214004490022DD7D100238AF8003022F0E3FBD1E7C3
S2140044A00023DFF848A08AF8003099F8003013B9E6
S2140044B02946FFF719FD9AF800302570002BD6D153
S2140044C0012DBFD829E7012000F008FA07B962B627
S2140044D0EFF3108772B658E72E2E0020362E0020F7
S2140044E0312E00202A2E0020041F0020322E00200D
S2140044F0001F0020FC1E0020FB910200B53F0000BC
S2140045002F2E0020332E00202D2E0020302E0020AF
S21400451010B519F0F6FA0022044B1C781A7019F040
S214004520F4FA00F0B5FC2043C0B210BD2B2E0020DC
S21400453073B5114E0446337883420FD04FF40073A0
S2140045400E4DADF8043058B101A8FDF75FFF4020CE
S214004550FFF79AFE2B68181A2860347002B070BDF8
S2140045608DF8050001A8FDF751FF4020FFF78CFEEF
S2140045702B681844F0E700BFF7110020601F0020EA
S21400458073B5002401A88DF80440FEF709F820460C
S214004590FFF7CEFF434A4449136F444803F007032E
S2140045A00B60D2F80011424D01F0030101604FF498
S2140045B000204049032B48664FF40030486601F55A
S2140045C098318969C1F34001297057D0D2F820315B
S2140045D003F00303981E43424341D2F82421364C8D
S2140045E002F00702022A08BF43F001034FF4C87026
S2140045F02370FFF749FE0022304B31491860314ED8
S2140046000B680132D2B20A2A46F8040BF9D10344E9
S21400461000EBC00003440B602B782B4D002B39D0E9
S2140046202378204A3BB9D2F8003103F00303591E21
S2140046304B424B412370D2F8003103F00303022BA8
S2140046401ED0032B1FD0012B20D1FCF75BFF0246A8
S21400465000B31E4B1E4EDC6800231946C4F30B0441
S214004660013404EB84040138E4FB060117F08CFCEB
S214004670FFF70AFE2B6803442B600BE00123ACE730
S214004680FCF75AFFE3E719F0CCF9E0E7F32111480D
S21400469019F0CFF91F20FFF7F7FD2B6803442B60B6
S2140046A002B070BD00800050641F0020681F00200C
S2140046B03B2E0020009000503C2E00202C1F002097
S2140046C0301F0020341F0020601F002000C0015053
S2140046D040420F0069920200074A0849D2F820318A
S2140046E003F003030B60D2F82431054A03F00703F6
S2140046F0136019F018BA00BF00800050701F002029
S2140047006C1F002008B5104B1A78C2B100221A7030
S2140047100E4B1A6F22F0070242F001021A67D3F816
S214004720202142F00302C3F82021D3F8242122F0EE
S214004730070242F00302C3F82421FCF7CDFE012253
S214004740034B5A6708BD00BF3A2E00200080005079
S21400475000E0005010B50122144B154C5A67154B5B
S2140047601B7813B3022019F08AFEF0B100F07CFA31
S214004770D8B1A36DD90302D5E36D9A0715D40C4BB7
S2140047809B6DDB0711D401220B4B1A7019F054FEF7
S214004790BDE81040094B0A4A1860136F23F0070360
S2140047A043F003031367FCF797BE10BD00D000501C
S2140047B000C000503C2E0020392E00205C1F002038
S2140047C0008000500122014B1A7070473A2E0020DC
S2140047D0F8B51F4B1B78002B39D01E4C2378B3B985
S2140047E01D4B9A6DD10302D5DA6D92072FD49B6DBF
S2140047F0DB072CD419F020FE184B194A1860136FEB
S21400480023F0070343F003031367FCF765FE19F074
S21400481013FE124B134D1B68134EC01A2B78134F02
S21400482056F8232046F82300111A3A681048521A00
S2140048300A213A600932B2FBF1F20133DBB20260C0
S214004840B3FBF1F201FB12332B7000232370F8BD8B
S2140048503C2E0020392E002000C000505C1F002097
S21400486000800050382E0020341F0020301F00200B
S2140048702C1F002008B519F059F9124B12491A6F6F
S214004880096822F007020A431A671049D3F8202164
S214004890096822F003020A43C3F820210C49D3F822
S2140048A02421096822F007020A43C3F82421094B91
S2140048B01B7813B10122084B9A62BDE80840FCF74A
S2140048C00BBE00BF00800050641F0020701F002039
S2140048D06C1F00203C2E002000E0005002280AD06A
S2140048E003280BD001280CD1084A136923F00403CF
S2140048F0136130BF70470020FDF794BD0020FDF720
S214004900B7BD40F24B21024819F093B800ED00E025
S21400491069920200054B187818B1054B186800EB31
S214004920D000044B1B681844704700BF3C2E002084
S2140049302C1F0020601F00200122014B1A707047B8
S2140049403C2E0020014B1878704700BF3C2E0020FC
S21400495038B519F081FD0025084B094C1A68236804
S214004960C31A2AB123B15169994203D3C91A5161B6
S214004970206038BD55615B1A9268F2E77C1F002004
S214004980781F002070B5C38804460D463BB9FFF774
S2140049904FFC8542064602D219F0F8FC35460E4911
S2140049A065610B688BB90C60A3600DE0AD1A9A6860
S2140049B0184665616AB113465A69AA42F6D930B1FB
S2140049C08460521BA3605A6170BD0020F4E70C603F
S2140049D0F7E79C60A260F7E77C1F002038B5134D10
S2140049E02B685B6993B1124A022014681C4419F0C4
S2140049F03AFD204600F09CFA00230E492A680B7008
S214004A00D088800709D501230B7038BD022019F025
S214004A102AFD022000F0D6FAEEE79268002AF4D0CB
S214004A2050690344012BEBD9EFE700BF7C1F002041
S214004A30781F00203E2E002070B516469DF81420E4
S214004A40C0E903360271049ABDF8183002600022ED
S214004A5004460D468260C380EEB919F0FDFC28447A
S214004A60A0619DB12E4619F04CF80546FFF770FF81
S214004A7031462046FFF786FF104B1B68A34201D144
S214004A80FFF7ACFF284619F040F802E0E3686561DE
S214004A907BB9002070BD19F0DFFC3044A061002D0A
S214004AA0E0D1E3686561002BDDD020462168984799
S214004AB0D9E7204621689847EBE700BF7C1F002017
S214004AC000220C490B687BB183420AD183687AB115
S214004AD0936083681BB15A6941690A445A61002091
S214004AE070471A469B68EEE70028EFD00220704712
S214004AF00B60EEE77C1F002070B519F009F8144E25
S214004B0005463478FCB9134B1C60134B1C60134BE2
S214004B101C8000F0C9F9012019F0A5FC19F0BEFCB4
S214004B200F4B0246186020B9284618F0F7FF2320DE
S214004B3070BD234640F2E7310A4817F025FA0A4BC3
S214004B40186001233370284618F0E8FF0020EFE7CE
S214004B503F2E00207C1F0020781F0020B62D00204E
S214004B60801F002018FCFFFF741F002070B504464D
S214004B7040B318F0C6FF144E0546FFF7E9FE30684E
S214004B80A04209D02046FFF79BFF0446B0B1284656
S214004B9018F0BBFF204670BDFFF792FF04460028C2
S214004BA0F5D133683BB9022000F0F4F9284618F036
S214004BB0ACFF0024EEE7FFF711FFF7E73368002BA2
S214004BC0F4D1F0E72224E5E77C1F002038B50C4638
S214004BD00546A8B1A1B100230B7018F099FF01217A
S214004BE0084B1B6833B918F099FF002038BD9D426A
S214004BF004D121702278002AF9D0F4E79B68F1E707
S214004C002220F3E77C1F0020F8B506460F4618F072
S214004C107FFF00250446124B1B6823B9204618F078
S214004C207DFF1B2011E05A691544DA88B2420DD187
S214004C3019F012FC0B4E3368C01AA8420AD30023A0
S214004C4020463B6018F06AFF0020F8BDFF2EEFD02C
S214004C509B68E2E719F000FC33682B441B1AEFE769
S214004C607C1F0020781F002008B5074B187848B135
S214004C7019F0E2FB054B1B689B69C01A02288CBF23
S214004C800020012008BD00BF3E2E00207C1F002013
S214004C90014B1868704700BF801F002038B5002100
S214004CA0044640F2E730054B4FF47A721D68002345
S214004CB0E5FB040117F068F938BD00BF801F00202F
S214004CC0F8B50C4B05461B680E4683420FD30024EE
S214004CD040F2E7302146084B4FF47A721F680023F3
S214004CE0E5FB070117F050F930602046F8BD21209B
S214004CF0FCE700BF741F0020801F002010B50F4B7C
S214004D001A689AB14FF47A71531E1342A0FB010140
S214004D100ED1B2FA82F2C2F11F04531CD243E04015
S214004D2001FA03F3184321FA02F20243104610BDBB
S214004D30002317F029F90246F8E700BF801F00207D
S214004D402DE9F047C20704460BD54D4A13880133B8
S214004D509BB21380FFF7FCFD4A4B1B680BB1FFF7B5
S214004D603DFEA30740F18A8018F0D2FE4FF00009FE
S214004D7005464E46FFF7ECFDC846424F3C680CB170
S214004D8063698BB10022404B012E1A7003D119F0D3
S214004D90020F18BF1E70002C6CD0FFF71FFE2846AF
S214004DA0BDE8F04718F0BABE23465A693AB91A79F0
S214004DB02179914288BF1C469B68002BF5D1284676
S214004DC018F0ACFE2569DDB119F046FBA269A0EB30
S214004DD002094FEAE9734D4578EB030311DA2369BC
S214004DE01344A361E368B4F80690013613B1204675
S214004DF02168984718F08CFE0546FFF7A9FDBDE729
S214004E00A94618F085FE82462046FFF759FE504612
S214004E1018F084FE2369002BE4D0B5EB09054FEAB1
S214004E20E97363EB4303002B04DA40F22B51174877
S214004E3018F0FFFDA38B33B1E28B13449BB2B3F59E
S214004E407A7F0FD2E38318F063FE81462946204618
S214004E50FFF798FDA369226948461344A36118F03A
S214004E605DFEBFE7A3F57A73E383A369013D013BCB
S214004E70A361E8E7022000F08DF890E7BDE8F08730
S214004E80B62D00207C1F00203D2E0020DA92020066
S214004E9010B518F03DFE034B1C7818F03FFE204678
S214004EA010BD00BF3D2E00201FB500241D4B012164
S214004EB018689A880290D3F806009B7A00903E20E5
S214004EC0ADF80C208DF80430FCF70CFE8DF8084089
S214004ED019F0C0FA8DF80C0002A8FDF7F9FC694637
S214004EE001208DF80040FDF7A5FC4FF0B04240F2DF
S214004EF0FF31936923F47F7323F0030393610A4B16
S214004F005961936A13F00803FBD113620120FDF781
S214004F10B5FC4FF48052054BC3F880211A6004B0EC
S214004F2010BD00BF3E9302000020005800E100E0E4
S214004F3010B5044618F0E5FD4FF0B042936A190725
S214004F40FCD4136A116C5269520604D4CA1A032A96
S214004F5001D88B420ED1E21A022A98BFDC1CB4F1AB
S214004F60FF3F38BF013C4FF0B0431C649A6942F0E3
S214004F7040029A6118F0C9FD054A13783BB14FF01C
S214004F80B041CB6B43F00203CB630023137010BD1C
S214004F90F8110020820700F001030AD50121084A13
S214004FA043F0400311704FF0B041CA6B22F0030289
S214004FB0CA634FF0B0418A6922EA03038B617047E7
S214004FC0F8110020830742BF4022014B5A61704708
S214004FD00010005810B518F09BFD4FF0B043044683
S214004FE05B695A06074A03F0010003F0510348BF05
S214004FF040F002005361FFF7A3FE2046BDE81040D4
S21400500018F08CBD0020005810B50A4BD3F840327B
S21400501003F00303013B012B0BD818F072FD044686
S21400502001210220FFF73EF82046BDE8104018F0A8
S2140050306CBD10BD00800050024A0349034809F0C9
S21400504097BF00BF4C93020070930200B893020013
S21400505010B504460A4619B1024B00211B68984752
S21400506010BD00BF4C1000200E4B0340B3F1607F14
S21400507006D1B1F5885F14BF6FF086000020704738
S214005080B3F1707F0BD101F4E043B3F5005F06D1B6
S21400509011F4E06F0CBF6FF08600002070476FF0D1
S2140050A0860070470000C07FF8B58A4206460C4668
S2140050B000F0DB806F4922F4FF7323F001038B427C
S2140050C00ED06D4B22F0FF01994209D06B4822F4B6
S2140050D07F7323F00303834202D0694B994228D1A1
S2140050E0684B24F0FF0199420FD114F0FF000BD05B
S2140050F0654B40F00070984240F0B98082EA0400A8
S214005100FF288CBF00200120F8BD5B4B9942ECD0F5
S214005110A3F588539942E8D024F4FF7323F00103E3
S214005120B3F1062FE1D056488142DED053498B4278
S214005130DBD004F0FE43B3F1A06F14D102F0FE43BF
S214005140B3F1A06F40F0938082EA040333F47E1339
S21400515040F08D8014F40040D6D0C4F30540C2F36E
S21400516005429042CDE7B3F1407F6AD102F0FE439C
S214005170B3F1407F7BD182EA040535F47E1576D103
S21400518031462046FFF770FF002870D13F4B12F4DF
S2140051907C1703EA02031BD0B3F1607FC2F3054716
S2140051A03FD13B49D3B243F000738B423DD003F16D
S2140051B07E43043B0F2B01D83649CD5C14F47C1F8C
S2140051C0C4F3054333D1BD4214BF002001209BE742
S2140051D0B3F1607F0DD12E49D3B243F000738B42FA
S2140051E01DD003F17E43043B0F2BDAD82A49CF5C4F
S2140051F0D7E7B3F1707FE1D106F4E043B3F5005F83
S21400520003D10127C6F302239F4006F4E043B3F51B
S214005210005FD3D10125C6F302218D40CEE71027CB
S214005220BFE7B3F1707FC9D1EFE71025C6E712F4E8
S2140052307C1F01D1AB4218D022047FF565AFBB427C
S2140052405FE7B3F1106F12D124F01F6020F47020D6
S21400525068B902F0FE43B3F1106F7FF455AF0F4804
S214005260104040F01060A042AEE701204CE700205E
S2140052704AE700BF0002000600130006000400060E
S2140052800009000600030006FF0000020000C07FC1
S21400529003000002E6930200E69302000000FFF619
S2140052A02DE9F8431746002288461C4600F0ACF964
S2140052B0054688BBD8F80060B6F8009009F4E043CD
S2140052C0B3F5804FF36808BF27F0010737EA0303FA
S2140052D01AD10CB3254B24F0FF029A421FD114F0CA
S2140052E0FF0304D0224A43F00073934232D0224692
S2140052F048463169FFF7D8FE074668B92246484651
S2140053007169FFF7D1FE70BB6FF08405002330464D
S214005310C8F8003019F090FC2846BDE8F883154B15
S2140053209A42DCD0A3F588539A42D8D024F4FF736F
S21400533023F00103B3F1062FD1D00F498A42CED015
S2140053400E4A9342CBD004F0FE43B3F1407F04D123
S2140053502304CCD56FF08605D8E7B3F1A06FF7D05D
S214005360034B9C42C2E73D46D6E700BF000300065B
S214005370FF000002001300060009000600040006F5
S21400538038B500F0FE43B3F1407F04460D4602D028
S2140053906FF0860038BDFFF767FE0028FAD114F4D8
S2140053A07C1F12D0C4F30543032B137022D9284A5E
S2140053B02240B2F1607F3DD1264AE4B244F0007448
S2140053C094422BD1102BE5D9E2E7214B2340B3F1D1
S2140053D0607F15D11F49E3B243F000738B4202D1C0
S2140053E010231370D6E703F17E43043B0F2B04D93A
S2140053F0002313706FF08500CCE71749CB5CD3E72A
S214005400B3F1707FF4D101F4E043B3F5005FEFD160
S2140054100123C1F302218B40DBB2C5E704F17E44D1
S214005420043C0F2CB4D80D4A125D9342B0D8142B0E
S214005430B0D9DFE7B2F1707FAAD105F4E042B2F549
S214005440005FA5D10122C5F30225AA40EDE700BF03
S2140054500000C07F03000002E6930200E69302000D
S21400546037B50B4D0C462B787BB100230A460193CB
S214005470014601AB281D18F0F6FE20B9019BA34299
S21400548018BF6FF0930003B030BD6FF08800FAE7E6
S214005490841F002008B500F065F80748437823B15C
S2140054A008220021043021F0D6FFBDE808400C2178
S2140054B00148FFF7CDBD00BF841F002070B50D4D1D
S2140054C02B788BB918F0CDFE044680B9012601462C
S2140054D00822281DAE7021F0BEFF02236B7000F07C
S2140054E039F8044618B92E700024204670BDFFF720
S2140054F0D1FFFAE7841F002038B500F100420732DA
S214005500062A04460D4609D82C21114B01FB02330E
S2140055109A68824215D06FF08B0038BD012119F0D1
S2140055203DFB88B10A48002203468168A14205D0A7
S2140055300132072A00F12C00F7D1ECE72C2101FB01
S214005540023300202B60E8E76FF08700E5E700BF36
S214005550901F00200122024B002083F83421704760
S214005560901F002070B5094C0025264604212046D1
S21400557019F025FB0135204619F05DF9072D04F1D9
S2140055802C04F3D1002386F8343170BD901F002020
S214005590F8B51B4C064694F834310F464BB300253D
S2140055A02346294693F820001A46B8B125B91A7939
S2140055B012B1022808BF1D460131072903F12C034A
S2140055C0F0D115B96FF08C0015E00421284619F0CB
S2140055D0F6FA68B9284619F02EF92A460020094B33
S2140055E0141BA4105C4304F10044073C34603A608A
S2140055F0F8BD6FF0880000233B603360F8E700BF1B
S214005600901F0020A38B2EBA2DE9FF4100230B60CC
S214005610394B804693F834310D461646002B68D039
S214005620FFF76AFF0446A0B92EB9286804B0BDE8A3
S214005630F04119F0EEBA012E04D00024204604B042
S214005640BDE8F0810521286804B0BDE8F04119F0F6
S214005650B6BA10F18C0FF1D1294601A8FFF798FFD2
S21400566004460028EAD101232F68CDE90200C7F8D6
S214005670088038467B6003AA02A919F088FB044616
S21400568088B1DDE9020119F080FB2D680421284667
S21400569019F095FA284619F0CEF814F18C0F08BFC9
S2140056A06FF08704CAE7DDE90212384619F04EF8B3
S2140056B00446DDE9020119F068FB002CE5D1022161
S2140056C0384619F07CFA04460028DED12868C368FC
S2140056D0D90444BF43F48063C360C3689A0444BFDC
S2140056E043F40063C360002EA0D0012EA5D105218F
S2140056F0AAE76FF08804A1E7901F0020F8B51C46C3
S21400570015460E46074608221846194921F0AEFEF1
S21400571004F10800002118F044FF696804F10C0049
S21400572018F03FFF298804F1100018F024FF69885C
S21400573004F1120018F01FFFE96804F1140018F0D5
S21400574030FF296904F1180018F02BFF696904F18D
S2140057501C0018F026FF314604F1200018F021FF47
S2140057603246394604F12400BDE8F84021F07EBEFA
S214005770F69302002DE9F843232904460F46914686
S2140057809846089E04D86FF098052846BDE8F8832A
S2140057900822254921F035FE05460028F3D104F1FC
S2140057A0080018F0F3FE0028EDD104F1200018F0F0
S2140057B0EDFE243FB8420146C8F80000E3D8B0F535
S2140057C0005FE0D200BBC9F8005004F10C0018F0EE
S2140057D0DDFE706004F1100018F0C1FE308004F1A8
S2140057E0120018F0BCFE708004F1140018F0CEFE13
S2140057F0F06004F1180018F0C9FE306104F11C00D6
S21400580018F0C4FE7061C0E7012018F08BFEC9F8DE
S214005810000030B1D8F8002004F1240121F026FE63
S214005820D3E76FF08C05B0E7F69302000023034A37
S2140058301370034A1370034A13707047422E0020F9
S214005840412E0020402E002070B5194E194D347898
S2140058502B789C4219D0032B12D8DFE803F0020AFB
S2140058601F24012C0CD100F061F82C7000F07CF89D
S21400587006E0022C0AD100F09FF82C7000F00CF91C
S21400588000222B7833700C4B1A7070BD032CF7D1A6
S21400589000F092F82C7000F0B1F8F1E7012CEFD18F
S2140058A000F020F9E1E7012CEAD100F0D1F8DCE7BE
S2140058B0412E0020422E0020402E0020044B09B925
S2140058C01A781AB901221A70024B1870704700BF76
