S00E000046617265466F622E73333751
S214012000C00A002029350100EB250300EB2503005B
S214012010792D0300EB250300EB250300EB250300D8
S214012020EB250300EB250300EB250300EB2503005E
S214012030EB2503000CEF0300F5230300EB2503005B
S214012040EB250300EB250300EB250300EB2503003E
S214012050EB250300EB250300EB250300EB2503002E
S214012060EB250300EB250300EB250300EB2503001E
S21401207095630100EB250300EB250300B124010065
S214012080F1240300EB250300EB250300EB250300F9
S214012090EB250300EB250300EB250300EB250300EE
S2140120A0EB250300EB250300EB250300EB250300DE
S2140120B0EB250300ED090300EB250300B91303002C
S2140120C08DDF030089DF0300BD0B030099DF0300EA
S2140120D091DF03009113030095DF03001914030039
S2140120E039EF0200EDF00200F9130300EB250300BF
S2140120F069290300EB250300EB250300EB2503000C
S214012100EB250300EB250300EB250300EB2503007D
S214012110EB250300EB250300EB250300EB2503006D
S214012120EB250300EB250300EB250300EB2503005D
S214012130EB250300EB250300EB250300EB2503004D
S214012140013800D0FCE7704770B505463E4C8AB0B2
S21401215020B10023008823600DF060FD3B482BF082
S2140121600CFA3B4E3B4B304633603B4B736026F0DC
S21401217052F80021304618F041FE31A3D3E900237E
S214012180A062C4E9062326F04EF8D4E906231943D3
S21401219010434FF0FF33C4E90601CDE900014FF0CB
S2140121A0FF32A06A2BF02EFA02224FF0FF31A06A0E
S2140121B02BF02DFA01200DF0ADFA4FF4007300223A
S2140121C02649A06A2BF077FAB0F5007F34D10023B8
S2140121D09422CDE9073309933C23CDE903320593D5
S2140121E09623A06A03A9069318F02EFF15B3287C40
S2140121F00EF010F80546D0B9A06A2BF032FB0DF0B0
S21401220037FA20B14FF4807000210AF0F7F80DF08C
S2140122103FFA20B14FF4006000210AF0EFF80120E8
S21401222018F040FE0E4A0F49A06A25F0F2FF284634
S2140122300AB070BDFF20DBE70725F8E7AFF30080A3
S21401224009D5015520000000100F002017C712F312
S214012250AC21002069FE0100A0210020A01F002063
S214012260BB810300FB8103000348044B834202D079
S214012270034B03B118477047940E0020940E0020BC
S21401228000000000064B0749C91A891048BF0131F2
S214012290491003D0044B0BB101481847704700BFE3
S2140122A0940E0020940E00200000000010B5064C8D
S2140122B0237843B9FFF7D8FF044B13B10448AFF3B3
S2140122C000800123237010BD0C28002000000000B0
S2140122D0943C040008B5054B1BB105490548AFF30E
S2140122E00080BDE80840FFF7CDBF00BF000000003A
S2140122F068110020943C0400A3F5803A704700BFA3
S214012300174B002B08BF134B9D46FFF7F5FF002127
S2140123108B460F461348144A121A2BF0F3FE0E4B47
S214012320002B00D098470D4B002B00D0984700207B
S214012330002104000D000D48002802D00C48AFF320
S21401234000801FF01DFD2000290020F047F81FF037
S21401235097FA00BF0000080000000000000000001F
S214012360C00A0020940E0020302A00200000000041
S2140123700000000010B5054C204620F058F9204614
S21401238020F05BF9BDE8104006F0AEB854E9030052
S21401239008B5184B1B68C3F30743012B0ED1164B28
S2140123A004205A6E4FF480231449520358BF144A2E
S2140123B04B6601F51041086258BF536602F0F2FC05
S2140123C020F00FF902F080FC20F0CCFA02F09EFC1F
S2140123D020F0C2FA02F0D0FC20F040F802F084FCB3
S2140123E020F0F4F801F058F901F0BEF9BDE8084014
S2140123F003F0FEB80080E00F00800050009000500F
S21401240000A0005070B5124E92B035460BAC0FCD01
S2140124100FC495E80700032384E8070006F11C05AE
S21401242006AC8DF845300FCD0FC42B68236002AC87
S21401243006F130030FCB84E80F00064B21460093CC
S2140124400BAA06AB044802F0ADFE12B070BD00BF89
S21401245014E9030080110020C4110020831E012B03
S2140124600AD8012913D80422094B1B69C3F3401368
S2140124700521002002F016B90239012907D80128E2
S21401248005D8034B00221B69C3F34013F0E77047DE
S21401249000C0035008B50449044803F06FF9BDE8CD
S2140124A00840FFF7AFBF00BFC00A0020E8110020B8
S2140124B0014B186820F039BCC4110020014B1A6A80
S2140124C018681047C4110020014820F0B0B800BFBA
S2140124D054E9030037B50268664922F47F4323F0C6
S2140124E007038B4204465DD036D8634A934200F018
S2140124F0B48014D802F17F4293424DD009D8A2F598
S214012500A022934242D002F5802293420FD103B01B
S21401251030BD5A4A9342FAD002F57C02F5E7584A92
S214012520934245D002F57C02934200F09C80032042
S21401253000F002FF0028EAD0524D5349286820F0E7
S2140125403EFA20F021F820F020F822684F4922F4C4
S2140125507F4222F0070244E04D498B4277D00CD8E7
S2140125604C4A93425AD002F580329342DFD104306E
S21401257003B0BDE8304000F06BBB47498B421DD02D
S21401258097BF464B464A1340464ABEE7043003B05F
S214012590BDE8304000F090BB043003B0BDE83040E9
S2140125A000F030BA043003B0BDE8304000F0C6BADF
S2140125B0043003B0BDE8304000F00EBBB0F8053083
S2140125C00320A3B900F0B8FE0028A0D02D4D2E4957
S2140125D0286820F0F4F91FF0D7FF1FF0D6FF227904
S2140125E03149286803B0BDE8304020F0E8B900F072
S2140125F0A3FE00288BD0234D2349286820F0DFF95D
S2140126001FF0C2FF1FF0C1FF2379B4F80520274948
S214012610286803B0BDE8304020F0D1B9032000F0AF
S2140126208BFE00283FF473AF164D1749286820F03B
S214012630C6F91FF0A9FF1FF0A8FFE3791C49009314
S214012640B4F805302279286820F0B9F95FE704303C
S21401265003B0BDE830401FF08CBF043003B0BDE8C6
S214012660304000F02BBA043003B0BDE830401FF014
S21401267075BF00BFA0000602A0000601A000090069
S214012680A0000901101200206CE9030050EA0300C3
S214012690A0000A03A0000902A0000906F800FFFD39
S2140126A0A0000608A000060471E90300B1E90300D2
S2140126B0F4E90300F0B5027E03463AB91446104623
S2140126C013F81A6F0C4FE1B2B14201D3002009E0B2
S2140126D013F8015F38B1511CBA5CC9B2AA42F5D1F0
S2140126E00D2905D9F0BDA5F1090148424841114619
S2140126F00A460134E7E700BF6BEA030073B5464EAE
S214012700304613F009FF054630B3444C444920686F
S21401271020F055F94349206820F051F91FF034FFA5
S2140127201FF033FF404B414A009341493B23206849
S21401273020F045F92B463F4A3F49206820F03FF9F3
S214012740284600F03FFE3D49206820F038F934491C
S214012750206820F034F9FEE70221307813F028FFD4
S214012760044630B32D4D2E49286820F028F92D490E
S214012770286820F024F91FF007FF1FF006FF2A4BF8
S2140127802A4A00932A494023286820F018F923464C
S214012790284A2949286820F012F9204600F012FE3E
S2140127A02649286820F00BF91D49286820F007F90A
S2140127B0FEE7A022009003461146307813F0C4FECF
S2140127C0054630B3154C1649206820F0F8F815492F
S2140127D0206820F0F4F81FF0D7FE1FF0D6FE124B4B
S2140127E0124A009312494723206820F0E8F82B4646
S2140127F0104A1149206820F0E2F8284600F0E2FD70
S2140128000E49206820F0DBF80549206820F0D7F84B
S214012810FEE702B070BD00BF970C0020101200202A
S2140128203CEC03007AEA0300A5EB03007FEA030011
S214012830A4EA0300B0EA0300B8EA0300CDEA030005
S214012840C20770B5044615D500F0DAFB054688B117
S214012850032000F071FD68B1154E1649306820F06E
S214012860AEF81FF091FE1FF090FE2A46124930681E
S21401287020F0A5F8A3071AD5104B0221187813F0FB
S214012880ABFE044698B1032000F056FD78B1084D22
S2140128900849286820F093F81FF076FE1FF075FEB1
S2140128A0224628680449BDE8704020F088B870BD0B
S2140128B0101200206CE90300DEEA0300970C0020EA
S2140128C0C20770B5044617D5194B187813F05EFE8B
S2140128D0054688B1032000F02FFD68B1154E164954
S2140128E0306820F06CF81FF04FFE1FF04EFE2A46AF
S2140128F01249306820F063F8A30717D500F080FC72
S214012900044698B1032000F017FD78B1094D0A4935
S214012910286820F054F81FF037FE1FF036FE2246D6
S21401292028680749BDE8704020F049B870BD00BF6F
S214012930970C0020101200206CE90300FDEA03004A
S2140129401CEB030038B50221012013F06DFF04468D
S21401295098B1032000F0F0FC78B1084D08492868CA
S21401296020F02DF81FF010FE1FF00FFE22462868FB
S2140129700449BDE8384020F022B838BD10120020C6
S2140129806CE9030038EB030038B513F041FF044649
S21401299098B1032000F0D0FC78B1084D08492868AA
S2140129A020F00DF81FF0F0FD1FF0EFFD224628681D
S2140129B00449BDE8384020F002B838BD10120020A6
S2140129C06CE903006FEB0300431EDAB2032A9ABFD9
S2140129D0024800EBC3000020704700BFF011002042
S2140129E000231946054A1370054A0133042B11606A
S2140129F09180D18002F10802F7D170472D2800207E
S214012A00F011002030B5044685B0032000F094FC98
S214012A1068B1244D244928681FF0D1FF1FF0B4FD8A
S214012A201FF0B3FD227A214928681FF0C8FF032052
S214012A3000F082FCB0B11B4D1B4928681FF0BFFF98
S214012A401FF0A2FD1FF0A1FD2378194903936378B7
S214012A500293A3780193E378009323796279286837
S214012A601FF0ADFF134A13780133DBB2032B13704B
S214012A7016D80220FFF7E4FE032000F05DFC78B1D3
S214012A80084C094920681FF09AFF1FF07DFD1FF0D2
S214012A907CFD0949206805B0BDE830401FF08FBFB6
S214012AA005B030BD101200206CE90300B2EB030044
S214012AB0CAEB03002D280020FAEB030038B50446C4
S214012AC0032000F039FC68B1174D184928681FF03B
S214012AD076FF1FF059FD1FF058FDA27814492868AB
S214012AE01FF06DFFA078FFF76FFF0023114CC0E9C0
S214012AF000332378032B13D90220FFF7A1FE03200E
S214012B0000F01AFC60B1084D084928681FF057FF0D
S214012B101FF03AFD1FF039FD074928681FF04FFFE7
S214012B202378013B237038BD101200206CE90300A6
S214012B3011EC03002D28002029EC030038B50446CB
S214012B40032000F0F9FB68B11E4D1F4928681FF0ED
S214012B5036FF1FF019FD1FF018FD22781B49286863
S214012B601FF02DFF2078FFF72FFF03684BBB0320D4
S214012B7000F0E2FB60B1134D134928681FF01FFFF8
S214012B801FF002FD1FF001FD114928681FF017FF15
S214012B90207813F0D1FD044698B1032000F0CCFB59
S214012BA078B1084D084928681FF009FF1FF0ECFCB2
S214012BB01FF0EBFC224628680649BDE838401FF0A6
S214012BC0FEBE38BD101200206CE903003EEC030087
S214012BD06EEC03008CEC0300034670B5002204463D
S214012BE013F8055F1649D0B2854221D8D4F80110F2
S214012BF0207813F0B3FD054698B1052D11D00320BA
S214012C0000F09AFB68B10F4E0F4930681FF0D7FEEF
S214012C101FF0BAFC1FF0B9FC2A460C4930681FF0B9
S214012C20CEFE2078FFF7D0FED4F80130036006E030
S214012C3011F8010B13F8016F01328642D3D070BD33
S214012C40E5EC0300101200206CE903008CEC030095
S214012C5037B5047801462046FFF7B6FEC38823B988
S214012C604B788A7843EA0223C3804BF6EF63818868
S214012C70ADF80630204602220DF1060313F0B2FD30
S214012C80044688B1032000F057FB68B1074D084998
S214012C9028681FF094FE1FF077FC1FF076FC224692
S214012CA0044928681FF08BFE03B030BD10120020C7
S214012CB06CE90300BCEC030030B504468DB003207C
S214012CC000F03AFB90B1674D674928681FF077FE20
S214012CD01FF05AFC1FF059FCE38864490193A3884E
S214012CE000936388228828681FF069FE0DF11F0192
S214012CF008A813F0ADFD044630B35A4D5C49286868
S214012D001FF05DFE5B4928681FF059FE1FF03CFC72
S214012D101FF03BFC584B594A009359491E2328681B
S214012D201FF04DFE2346574A574928681FF047FEB5
S214012D30204600F047FB554928681FF040FE4C49E5
S214012D4028681FF03CFEFEE7BDF8243001465BBA5A
S214012D50ADF828309DF8233008228DF82A30FF235D
S214012D608DF82B30FE238DF82C309DF82230122062
S214012D708DF82D30BDF820305BBAADF82E300AAB99
S214012D8013F002FD054630B3364C394920681FF072
S214012D9016FE384920681FF012FE1FF0F5FB1FF0E3
S214012DA0F4FB354B354A009335492E2320681FF036
S214012DB006FE2B46334A344920681FF000FE28469B
S214012DC000F000FB314920681FF0F9FD2849206812
S214012DD01FF0F5FDFEE7032000F0AEFA20B3214C0C
S214012DE0214920681FF0EBFD1FF0CEFB1FF0CDFB45
S214012DF09DF820309DF81F0004939DF8213024494A
S214012E0003939DF82230234A02939DF8233000282D
S214012E1018BF0A4601939DF824301F490093206885
S214012E209DF825301FF0CBFDFFF768FC0120FFF76A
S214012E3047FDFFF7D5FD032000F07EFA60B1094C8F
S214012E40094920681FF0BBFD1FF09EFB1FF09DFB8C
S214012E50124920681FF0B3FD0121032005F08AFB0B
S214012E600DB030BD101200206CE9030011ED030017
S214012E703CEC03007AEA0300DCED030039ED0300C5
S214012E80A4EA0300B0EA0300B8EA0300CDEA0300AF
S214012E90F5EC030003ED03005FED030095ED030081
S214012EA00368164A23F47F4323F00703934210B5C1
S214012EB022D1B0F805301E2B1ED1817A0479012962
S214012EC017D1C37ADB0710D5002320461A4613F024
S214012ED0EDFB41F2FC13002818BF1846C2B21E21B2
S214012EE02046BDE8104013F065BC204613F0F4FB05
S214012EF0EFE741F20D10F1E710BD00BFA0000A0296
S214012F00036837B523F47F43374A23F00703934218
S214012F1007D002F1027202F58032934206D003B066
S214012F2030BD03B0BDE8304000F0AAB8B0F80540A7
S214012F300579A4F12003827A082BF0D801A151F873
S214012F4023F000BF692F01001F2F01007B2F010016
S214012F501F2F0100B92F01001F2F01008B2F010029
S214012F601F2F0100D32F0100012A39D1C37A9A1EDF
S214012F70122A24D81D4A13701BE0012A30D1C37AC5
S214012F805A1E0E2A1BD81A4AF5E7531E012B27D8BC
S214012F90002300F10B010DF10600ADF806302BF011
S214012FA0C6F8144ABDF8063012889A4207D8124A63
S214012FB0138000F025F820B141F2FC1001E041F247
S214012FC0FF10C2B22146284603B0BDE8304013F0D8
S214012FD0F1BB012A04D1C37A012BF0D8074ACAE70C
S214012FE041F20D10EDE700BFA000010030280020DF
S214012FF02F2800205AEE0300C02700202E2800208C
S21401300013B5194B194C1B78207853B9184B1A88ED
S214013010002300931146207813F096FA30B102B0DF
S21401302010BD13F0B3FA0028F0D0F8E7114B0121D8
S2140130301B782078012B14BF0122022213F0E0FA3C
S2140130400028ECD101460222207813F005FB002867
S214013050E5D1CDE90000084B084902461B780978FE
S214013060207813F04BFBDAE731280020980C00207B
S214013070C02700202E2800202F28002030280020DE
S2140130801421F0B54E4B85B01A880126ADF80C20F8
S2140130904C4A9B78117020218DF80E3000234A4A45
S2140130A04A4F16704A4A4B4C11804B4A3846237099
S2140130B0137013F031FA054630B3484C484920687E
S2140130C01FF07DFC474920681FF079FC1FF05CFA71
S2140130D01FF05BFA444B454A00934549402320685C
S2140130E01FF06DFC2B46434A434920681FF067FCDE
S2140130F0284600F067F9414920681FF060FC38490E
S21401310020681FF05CFCFEE70321387803AA13F061
S2140131108DFA054630B3314C314920681FF04FFC1B
S214013120304920681FF04BFC1FF02EFA1FF02DFAD5
S2140131302D4B2E4A00932E49462320681FF03FFC54
S2140131402B462C4A2C4920681FF039FC284600F0F3
S21401315039F92A4920681FF032FC214920681FF0FE
S2140131602EFCFEE7FFF74CFF054630B31B4C1C490F
S21401317020681FF024FC1B4920681FF020FC1FF06C
S21401318003FA1FF002FA184B184A009318494A230B
S21401319020681FF014FC2B46164A174920681FF0BA
S2140131A00EFC284600F00EF9144920681FF007FCB3
S2140131B00B4920681FF003FCFEE7267005B0F0BD42
S2140131C048EE0300302800202F280020980C00200D
S2140131D0C0270020312800202E28002010120020B1
S2140131E03CEC03007AEA03004CEE0300EBED03002F
S2140131F0A4EA030045EE0300B8EA0300CDEA0300A3
S214013200034B187818B1034B187813F0BFB9704701
S21401321031280020980C0020036837B523F47F433B
S2140132203A4A23F007039342044664D002F18272BD
S214013230934268D1B0F805102B2964D10122344B92
S21401324000791A70002213F0B5FA054630B3314CF6
S214013250314920681FF0B3FB304920681FF0AFFBEF
S2140132601FF092F91FF091F92D4B2E4A00932E492B
S2140132703F2320681FF0A3FB2B462C4A2C492068CD
S2140132801FF09DFB284600F09DF82A4920681FF094
S21401329096FB214920681FF092FBFEE7207913F088
S2140132A0F3F9054600282ED01A4C1B4920681FF05A
S2140132B086FB1A4920681FF082FB1FF065F91FF094
S2140132C064F9174B174A00931749432320681FF0E8
S2140132D076FB2B46154A164920681FF070FB2846D8
S2140132E000F070F8134920681FF069FB0A4920684E
S2140132F01FF065FBFEE7064B1B7823B103B0BDE864
S21401330030401FF0D5BD03B030BD00BFA0000601A0
S21401331032280020101200203CEC03007AEA030059
S214013320C9EE03005CEE0300A4EA030045EE0300C9
S214013330B8EA0300CDEA03000B4B02461B7883B1C3
S2140133400A4B1B78834234BF00200120084B1B78B0
S21401335033B1084B1B78134113F0010F08BF00204F
S21401336070470120F2E700BF9B0C00209A0C00205A
S21401337033280020990C0020012208B5074B1A704B
S2140133800022074B1A700422064B1A701F22064BA6
S2140133901A7001F0F1FD054B186008BD9B0C00206A
S2140133A0332800209A0C0020990C002010120020CF
S2140133B0024B034918681FF002BB00BF1012002021
S2140133C0E9EE030070B50C4C0C49064620681FF068
S2140133D0F6FA01F0D1FD0546206801F0C1FD304640
S2140133E0FFF7E6FF284601F0BBFD20680449BDE86B
S2140133F070401FF0E4BA00BF10120020EBEE03008D
S214013400EDEE03002DE9F047434D88B001AC0FCD3A
S2140134100FC495E80700012584E8070001213A203A
S21401342000F0A2FBDFF8FC800121282000F09CFBC5
S2140134303A4B404601A903938DF8125001F0E8FA81
S2140134402B4604220021022001F02CF92A462946A7
S2140134500023022001F026F902212B460846042209
S21401346001F020F9042203212B46022001F01AF96B
S2140134704FF002132A4C0226C4F83036A3F58033E7
S214013480C4F82C361C230827C4F8346604F5005A01
S214013490C4F81C364FF4487002F096FF04F58059C4
S2140134A01420CAF8707002F08FFF2320C9F87070DC
S2140134B002F08AFFB9214046CAF870701FF03DFA43
S2140134C0002330461A461946C9F8707001F0EAF82A
S2140134D0002329461A46304601F0E4F82B463146C9
S2140134E03046002201F0DEF82B460022032130464A
S2140134F001F0D8F8404601F0E1F900212820C4F88F
S2140135003016C4F82C16C4F83416C4F81C1600F08D
S2140135102BFB08B0BDE8F087F0EE030000127A003E
S21401352000C0035000C0055008B500F02DF8124B3E
S21401353012498B4212D30020114B12498B4218D3E9
S214013540FEF7DEFE186850F82240586840F8224020
S214013550013298688242F5D30C33EAE70022F8E795
S2140135601C6844F8220001325C68A242F8D3083392
S214013570E4E70022F8E700BF9C3C0400A83C0400F6
S214013580A83C0400A83C04004FF400414FF0FF3073
S214013590124B134A10B59A60D3F8882042F4700291
S2140135A0C3F888200F4A916601F1884101F500525F
S2140135B010664FF6DF7050660220C3F8D000BFF3E6
S2140135C04F8FBFF36F8F08244FF440330648C0F87F
S2140135D08041D36004600B6110BD00BF00ED00E0C8
S2140135E0002001000090005000E100E0014B186847
S2140135F0704700BFCC0A0020084B1B6F03F007037F
S214013600022B04D0032B05D0012B05D0FEE7044B7B
S21401361018687047034BFBE703487047008000506B
S214013620CC0A0020D40A0020002D310108B5FFF78E
S214013630E3FF054B1B6FC3F303330133B0FBF3F01A
S214013640024B186008BD00BF00800050C80A002069
S2140136500048704700B4C404014B1868704700BFA7
S214013660D40A0020054B1860054B1B6F03F00703B7
S214013670032B01D1FFF7DABF704700BFD40A002041
S2140136800080005000487047002D3101014B18683A
S214013690704700BFD00A002000239B6A10B5B3F51F
S2140136A0903F0BD2074C227812F0FD0F04D1DB6954
S2140136B0984710B901232370002010BD4FF4817084
S2140136C0FBE700BF342800204FF00053074A1A607A
S2140136D0BFF34F8F0649074BCA6802F4E0621343F3
S2140136E0CB60BFF34F8F00BFFDE700BF02020FF0B4
S2140136F000ED00E00400FA050346054A0549106896
S21401370003448B428CBF4FF0FF301360704700BFFD
S214013710D80A00200080002010B5012243780178E5
S214013720847830209A40054B00FB01331CB942F2E5
S21401373010015A5010BD41F21001FAE700C00350C3
S21401374010B5012243780178847830209A40054BE1
S21401375000FB01331CB941F210015A5010BD42F270
S2140137601001FAE700C00350024B1968024B1868B3
S21401377016F05EBFDC0A0020FC0A002070B594003B
S214013780224605460E462AF0EBFE431C0AD058B9DF
S2140137902246314628462AF08BFC0028034808BFFB
S2140137A0002070BD0248FCE70248FAE710E000F08E
S2140137B021E000F024E000F013B5044601A801F072
S2140137C03BF89DF80630012223804FF480730020D9
S2140137D06380054B9B680A3303F01F0302FA03F369
S2140137E0636002B010BD00BF0080E00F10B5044654
S2140137F02AF0BAFE431C15D0B0B90C4B20469A6885
S21401380001230A3202F01F02934023F003032344EC
S214013810984201D1002010BD50F8042B0132F7D098
S2140138200348F8E70348F6E70348F4E70080E00FAB
S2140138300EE000F021E000F024E000F008B51FF0F3
S21401384027F8014B186008BD04190020014B1868C1
S2140138501FF022B804190020044BD3F88420D206A6
S214013860FBD4D3F88400C0F38110704700400050A9
S21401387038B5104B0546D3F820310C4603F0030348
S214013880022B0BD0032B0DD0012B0FD1FFF7AEFE71
S214013890052305B1286004B1236038BDFFF7DCFEBF
S2140138A00323F6E7FFF7EEFE0223F2E700231846AE
S2140138B0EFE700BF0080005073B50D4600210E4BA8
S2140138C00191D3F88041064604F00304012C09D087
S2140138D0022C0CD00C460EB1019B336005B12C6056
S2140138E002B070BD01A8FFF7C3FF0F24F3E7FFF78F
S2140138F0C9FE0190EFE700BF0080005038B5174BB6
S2140139000546D3F824310C4603F00703013B052B8B
S21401391020D8DFE803F0030F171B0B13FFF766FE33
S214013920052305B1286004B1236038BDFFF75EFEAC
S2140139300623F6E7FFF790FE0323F2E7FFF78CFE78
S2140139400423EEE7FFF79EFE0223EAE71EF04EFE93
S2140139500723E6E700231846E3E700BF0080005090
S21401396038B5104B0546D3F840310C4603F0030337
S214013970022B0BD0032B0DD0012B0FD11EF038FEDE
S214013980092305B1286004B1236038BDFFF77EFE28
S2140139900823F6E71EF02FFE0B23F2E70023184656
S2140139A0EFE700BF0080005038B5134B0546D3F84B
S2140139B000320C4603F00703013B032B18D8DFE85F
S2140139C003F0020A0E121EF013FE092305B1286049
S2140139D004B1236038BDFFF759FE0823F6E71EF051
S2140139E00AFE0B23F2E7FFF721FE0E23800AEDE71E
S2140139F000231846EAE700BF0080005038B5104B98
S214013A000546D3F840320C4603F00303022B0BD0D5
S214013A10032B0DD0012B0FD11EF0EAFD092305B1B2
S214013A20286004B1236038BDFFF730FE0823F6E7AF
S214013A301EF0E1FD0B23F2E700231846EFE700BF77
S214013A400080005038B5104B0546D3F860310C465F
S214013A5003F00303022B0BD0032B0DD0012B0FD148
S214013A601EF0C6FD092305B1286004B1236038BDE8
S214013A70FFF70CFE0823F6E71EF0BDFD0B23F2E769
S214013A8000231846EFE700BF0080005010B40D4C2D
S214013A900B46D4F8204204F00304012C0AD0022C71
S214013AA00CD008B1002101600BB100221A605DF84C
S214013AB0044B70475DF8044BFFF7DABE5DF8044B24
S214013AC0FFF74EBF00800050B0F5207F1FD009D809
S214013AD0B0F5007F15D003D868B1B0F5C07F0AD025
S214013AE000200CE0B0F5607FFAD10B4BD3F88000D4
S214013AF0C0F3011003E0084B186FC0F30330013028
S214013B007047054BD3F89000C0F30460F7E7024B0B
S214013B10186FC0F38020F2E7008000504FF40032A7
S214013B200E4B014610B500209A66FFF7CDFF4843BD
S214013B3041F671320A490B4B884294BF002001209E
S214013B40DC69DA639A6822F4401242EA00529A600B
S214013B50E20344BF0022DA6310BD00BF00900050AC
S214013B60005A620200000350420910B50FD0012A24
S214013B700FD00A4B0A4C022A18BF234600F01F003A
S214013B8049B103F58053012282401A6010BD1346E5
S214013B90F4E7044BF2E703F50053F4E768800050BE
S214013BA0608200506480005008B580201EF0A7FD9A
S214013BB0034B98429EBF4FF48032024B1A6708BDF2
S214013BC0005A620200A000501FB50023B0F5807FA6
S214013BD0019377D028D8382800F094800BD8243861
S214013BE0092810D809280ED8DFE800F0676767674C
S214013BF00D0D620D377D52285FD008D83D283BD089
S214013C003E2800F08480019805B05DF804FB80280A
S214013C10F9D1414B1B6F03F00703013B032BF2D88D
S214013C20DFE803F044413F6CB0F5D06F5BD019D8A4
S214013C30B0F5A06F66D00AD8B0F5806F3DD0B0F56C
S214013C40906FE0D1002001A9FFF758FEDBE7B0F541
S214013C50B06F2DD0B0F5C06FD5D1002001A9FFF708
S214013C607FFED0E7B0F5006FECD00AD8B0F5E06F74
S214013C704DD0B0F5F06FC6D1002001A9FFF7E2FEE6
S214013C80C1E7B0F5086FBED1234BD3F8003103F07E
S214013C900303022B2CD0032B2ED0012B30D1FFF7A0
S214013CA0DBFC032300E005230193ACE70223FBE7DB
S214013CB0002001A9FFF700FEA5E7002001A9FFF7F4
S214013CC0D7FDA0E702934FF0E0231B695B0705D5FC
S214013CD0FFF7ACFC0C230393039BE5E703A902A8BB
S214013CE0FFF73EFEF8E7002001A9FFF75DFE8AE731
S214013CF0FFF7CCFC0823D7E71EF078FC0723D3E7B1
S214013D000123D1E7002001A9FFF7C0FE7BE70020D1
S214013D1001A9FFF773FE76E70080005008B5FFF7AC
S214013D2053FF082811D00938012802D94FF6FF7031
S214013D3008BD4FF40012064B5A6603F5D8335B6A8A
S214013D40DB07F3D54FF4FA70F2E7024B1888EFE77A
S214013D5000900050800C0020F8B504468020FFF744
S214013D6033FF032800F087804FF40022424B0221E4
S214013D705A6645F60E03414AC2F88030404B9962B6
S214013D80012103F580539962936DD903FCD4D4E9DC
S214013D9000131B0543EA0163E17B94F820500B43B3
S214013DA0217BE77E43EA0143617B6D0143EA0133F0
S214013DB0A17B43EA811313619169D4E904031B06CD
S214013DC043EA806301F000410B43A17E94F823008F
S214013DD00B43217E43EA0143617E43EA012393615B
S214013DE0136AE66923F00D0394F8221043EA870369
S214013DF0002E2DD11362966A94F8213045EA0313FA
S214013E0026F033052B4343F0010393621D4D1B4BF4
S214013E109A6D35EA0202FBD10222194DAA621A6591
S214013E209A6D5200FCD41A69A56822F4700242EA1F
S214013E3005521A614FF00042114B9A6119B90222DC
S214013E4003F580539A6278B901220F4B9A620BE010
S214013E50334343F008031362936A23F033030343A7
S214013E602B4343EA4103936294F824301BB1034B7E
S214013E70064AC3F88020F8BD0090005000C00050EC
S214013E8000D000500300014000E00050F1A7FFFF02
S214013E90014B93F90000704735280020F0B5D0E9B2
S214013EA001434FF480061A4A4178057856664FF466
S214013EB0D156022702F5B8325662164E4F29776060
S214013EC04FF0010728BF4F2106F580567760166927
S214013ED0F603FCD441EA052151611B01417B43EA0B
S214013EE004230B43017B43EA41039360C37B817B3D
S214013EF01B0143EA4113417C0B43017C43EA410326
S214013F005360837C13B16FF4D1535362F0BD00BF8D
S214013F100090005000100250014B1880704700BFFF
S214013F20800C00204FF4001208B5184B5A66022385
S214013F30174A5360936813F48033FBD1012822D1CA
S214013F40FFF78AFB134B984215D003F5122303F5AE
S214013F50F863984213D0104B00EB8002400AB3FB83
S214013F60F0F3520A0A49CA620B6301234B6200222C
S214013F70074B5A6008BD45F67A13084AF2E745F63C
S214013F801A03074AEEE75362F1E700BF00900050BC
S214013F900040025000F0490264666666D8B8050023
S214013FA0BBCF0500B0F5207F10B50C4642D008D82F
S214013FB0B0F5007F33D003D888B1B0F5C07F0ED0FE
S214013FC010BDB0F5607FFBD11F4A4C1ED2F8803081
S214013FD023F0300343EA0413C2F88030F0E71EF002
S214013FE086FB1EF050FC4FF48031184B164A1967B9
S214013FF0136F013C23F4704343EA04331367FFF75E
S21401400015FB0446FFF728FCC0F1020120461EF00E
S21401401034FC00F01DF8BDE81040FFF7C5BD0A4AA4
S2140140204C1ED2F8903023F0F85343EA0463C2F8EA
S2140140309030C5E7044A4C1E136F23F4806343EAAD
S21401404084231367BCE700BF008000500090005037
S21401405008B54FF4C0701EF052FBBDE80840044995
S214014060884294BF012102214FF42070FFF79ABFC6
S21401407080F0FA02B0F5807F70B50C4600F0F8804B
S21401408029D8382800F04B8110D82438092816D8AA
S214014090092814D8DFE810F0DC00DC00DC00DC00C6
S2140140A013001300CD00130047003301522800F01F
S2140140B0CF8005D83D2851D03E2800F0428170BD02
S2140140C08028FCD18B1E052B00F2B080DFE803F0C0
S2140140D0AB99AE69AEA8B0F5D06F00F0108132D8BA
S2140140E0B0F5A06F00F01B8116D8B0F5806F00F018
S2140140F0AF80B0F5906FE2D1023C052C8CBF002159
S214014100984B994A98BF195DD2F8243123F00703DA
S2140141100B43C2F82431D2E7B0F5B06F00F08980C6
S214014120B0F5C06FCBD1083C032C8CBF00218F4B60
S2140141308D4A98BF195DD2F8403123F003030B4333
S214014140C2F84031BBE7B0F5006FD5D016D8B0F550
S214014150E06F00F0F680B0F5F06FB0D1083C032CAC
S2140141608CBF0021824B804A98BF195DD2F860311E
S21401417023F003030B43C2F86031A0E7B0F5086FE4
S2140141809DD1CC1E052C8CBF00217A4B764A98BF58
S214014190195DD2F8003123F003030B43C2F8003156
S2140141A08DE7002502260121022000F0A3F91EF06A
S2140141B09EFA1EF068FB4FF480316F4B6A4A19670E
S2140141C0136F23F0070333431367FFF72FFA0646EF
S2140141D0FFF742FBC0F1020130461EF04EFB012103
S2140141E0002000F0C7F9FFF733FFFFF7DDFC002DD5
S2140141F07FF465AF032C7FF462AF01225F4B9A62B6
S2140142005DE74FF400225C4B0E465A66012203F529
S21401421040539D6A03F58053C5F340059A62C2E791
S21401422000250426BFE700250126BCE700252E460B
S214014230B9E7022C03D0A4F10F056C426C414A4A3F
S214014240D2F8803123F003032343C2F8803136E7E6
S214014250023C032C8CBF0021494B434A98BF195D91
S214014260D2F8203123F003030B43C2F8203126E7AE
S214014270A1F10804082C3FF622AF01A353F824F05D
S214014280A5420100A5420100BF400100A542010070
S214014290D3420100BF400100BF400100BF40010002
S2140142A0A54201004FF480322F4B3649586E03F574
S2140142B080535A660B6AC00343F001030B625CBF6E
S2140142C0314B5A664FF0E022136923F00403136161
S2140142D0F5E64FF48032244B2A49586E03F5805395
S2140142E05A660B6A23F001030B62C1035CBF264BBF
S2140142F05A664FF0E022136943F00403E7E7083CEF
S214014300062C8CBF0021214B174A98BF195DD2F8A5
S214014310003223F007030B43C2F80032CFE60F2C1E
S2140143200DD0A4F110035C425C4164000E4AD2F841
S214014330203223F003032343C2F82032BFE60124D0
S214014340F4E7083C032C8CBF0021114B064A98BFAA
S214014350195DD2F8403223F003030B43C2F8403212
S214014360ADE600BF8AEF03000080005090EF030027
S21401437090EF03007DEF03000090005000E0005036
S21401438094EF030000C0075000A0005083EF030025
S21401439090EF030010B5224B70B94FF40031214A5B
S2140143A01860516602F598325268012A03D11E4AF6
S2140143B0D2F800211A6010BD1B68002BFBD01B4AE7
S2140143C05268012AF7D0184A8020C2F80031FFF758
S2140143D0FBFB05281FD14FF4C070FFF775FB0128C2
S2140143E0044604D102214FF4C070FFF7DBFD07221B
S2140143F00F4B1A610122A3F580535A600B4A1369C9
S214014400DB07FCD5012CD6D12146BDE810404FF480
S214014410C070FFF7C7BD0122064B5A60CBE700BF4D
S21401442008190020009000500080005000C0015084
S21401443000E0015000D00150044A4178536F23F444
S214014440407343EA01235367704700BF00400050A2
S21401445010B5044610B10020FFF79CFF0E4A136901
S21401446043F00403136101F0E7FB1EF021FA1EF08E
S2140144700FFA2AF071F81EF00FFA1EF01AFA01F080
S214014480EFFB1CB9BDE81040FFF7D0B80120BDE82E
S2140144901040FFF77FBF00BF00ED00E010B50446F7
S2140144A010B10020FFF776FF0C4A136943F00403AE
S2140144B0136101F0C1FB1EF0EBF92AF04DF81EF076
S2140144C0EBF901F0CDFB1CB9BDE81040FFF7AEB823
S2140144D00120BDE81040FFF75DBF00BF00ED00E022
S2140144E0034A0179D36E23F030030B43D36670473A
S2140144F000400050F8B504461C4BD3F88420D10682
S214014500FBD4D3F88430C3F381139C422CD0FFF73D
S21401451073F8012C064602D121461EF0AEF91EF0B4
S214014520B7F94FF00072124B07465A6620461EF046
S214014530C7F94FF480630D4D621E93402B676B6E77
S2140145409A0103D4D5F884309B060AD538461EF066
S214014550A3F9022C08D13046BDE8F84000211EF030
S2140145608CB9D5F88430EAE7F8BD00BF00400050AA
S2140145700060005010B50C4608B9FFF73DF8074B30
S21401458021461B783BB1064B984204D80120BDE872
S2140145901040FFF7AFBF0220F9E700BF3628002022
S2140145A0005A62020278034B012100201A70FFF7BD
S2140145B0E1BF00BF362800204FF0004210B50124AD
S2140145C04AF6CD31154B5A66154A03F50B2354604E
S2140145D05A6C1964224088B9996811F0010F114983
S2140145E003D08C60D86AC007FCD501234B6012B19A
S2140145F00D4B0E4A1A6429F01FF810BDD96A090737
S214014600FCD42021074B59620121A3F58053996000
S21401461005494B6A9B06FCD5E9E700BF00900050B0
S2140146200050095000600950004009503254FFFF05
S2140146304FF0004238B5174B174C5A66012203F566
S2140146400C235A604AF6CD33656C23644378934055
S2140146501343124AD363C3788178A2689B0043EA66
S214014660011322F074021343A3600279837943EAAB
S214014670022323614279C37943EA02236361007806
S214014680FFF79AFFEB0744BF054B236428F0D4FFDE
S214014690012038BD009000500040095000400050F5
S2140146A03254FFFFF8B504460D461F4616464AB17A
S2140146B001238B403021184A01FB0022F7B141F259
S2140146C01001535004EB4403072D4FF00F014FEA3E
S2140146D0031316D8A80006FA00F281400F481844C2
S2140146E01EF0EFF84EB9012330210B4AAB4001FB17
S2140146F0042277B141F210015350F8BD42F2100185
S214014700DFE7A5F10800800006FA00F281400448C0
S214014710E5E742F21001EFE700C0035004C0035082
S2140147200CC003504FF40032054B9A6641F67132C5
S21401473003F51C33DA63012203F50053DA60704790
S2140147400090005041F671320121064BDA6303F501
S2140147500052D1600022DA634FF40032A3F5183319
S2140147609A66704700000350CB784A7810B55B0113
S2140147700C7843EA82030A79234343EA02130C22A4
S214014780424302F1B0421363012C02BF8A78024B06
S21401479043F8202010BD00BFE880035008B54FF055
S2140147A0B0435A686AB958B15B680BB11EF098F805
S2140147B001210D4B59601EF093F84FF0B043D960BC
S2140147C008BD5B680BB11EF08BF80028F0D11EF017
S2140147D087F84FF0B0430222DA601EF081F801221A
S2140147E0024B5A60ECE700BF00100058002000584A
S2140147F04FF0B0414B6810B50BB11EF071F80122B5
S2140148000B4BC4785A608378934043EA8403447818
S2140148102343047943EA0413447943EAC4038B60CF
S214014820044B5A600378C3F10203CB6010BD00BF8E
S21401483000200058001000584FF48032064B5A668C
S21401484003F5E6235B69C3F38512827003F03F022A
S2140148501B0B4270037070470090005070B5054600
S21401486016461C4621B94FF420701DF048FF01463C
S214014870402C1BD003D8DCB1202C1BD070BD602C83
S214014880FCD1042303FB06F2530803EB4113B3FBED
S214014890F2F3094A203B02EAC303AA6822F0600247
S2140148A0AA60AA681443AC60EB61E7E70623E9E770
S2140148B01023E7E70823E5E7F8FF7F00012200F56C
S2140148C080535A6040F6AA6341F205024361002311
S2140148D00B498360C365C26000F500520361C36182
S2140148E0C364916407498365884203D10365002345
S2140148F0436502E004498842F8D0012353607047BB
S214014900FFFF010000C005500000065070B50D46BF
S214014910FFF7D4FF012300F580567360AB7C044695
S2140149201BB1836843F080438360EB7C5BB1354AFF
S2140149302B7D944245D1A2F51032C2F88C31E36D3D
S21401494043F08003E3652A8A6B7B20461343EA899A
S2140149501343E3602B7BD5E90112FFF77FFF6B7DE5
S2140149601BB1A36843F48033A360AB7D1BB1A3687E
S21401497043F40043A360EB7D2A7E1B07120502F475
S214014980E00203F0E0431343A365697E1D4A8B1ED4
S214014990012B1D4B1FD894421BD002F58042944236
S2140149A00CBF01224FF0FF3203EB4213022041F20B
S2140149B01C620329985020D10423F3652B78636188
S2140149C070BD124A944204BFA2F52032C2F89C314F
S2140149D0B5E70022E8E794420DD00C4A94420CBF9A
S2140149E001224FF0FF3203EB4213022042F21C6217
S2140149F001299850DFE70022F5E7042204F5005369
S214014A00DA65DBE700C0055000C003500000065021
S214014A1038B50D46FFF752FF012200F580535A6064
S214014A202B8A826843F001031343AA7B044643EAB8
S214014A308223836083682A7D43EA42738360AB7C6A
S214014A405BB11D4AEB7C90422DD1A2F51032C2F823
S214014A508C31E36D43F08003E3652B7B2046D5E97B
S214014A60011243F48053E3601DF042FF6B7B0BB1F0
S214014A70102363616B7D1BB1A36843F48033A3608D
S214014A80AB7D1BB1A36843F40043A360EB7D2A7E94
S214014A901B07120503F0E04302F4E0021343A3658B
S214014AA02B78636138BD054A904204BFA2F52032D7
S214014AB0C2F89C31CDE700BF00C00550000006508B
S214014AC038B50446054D28F0DDFD0FCC0FC594E83A
S214014AD0030085E80300002038BD00BF0C19002044
S214014AE047F6FF739A42F0B563D0022963D8334B79
S214014AF0CE0003EBC10513F83110AC78012913D1B0
S214014B000021E878001B814202D32044C0B2F0BDE8
S214014B10431A6E68A0EB530336F913609642D4BF6E
S214014B20194603F1FF30EEE768680028EFD0B0F9C8
S214014B300010914204DBB0F902109142B8BF114651
S214014B4082883344FF2A19BFC8222827B0F90620D5
S214014B50B0F908705E78A2EB01030CBF01250025B1
S214014B6093FBF7F3721E2B44934228BF13464FF470
S214014B707A7E00EBC305AF68EA88AC4611FB027289
S214014B801F4622EAE272013302F5FA729E42B2FB36
S214014B90FEF204D9BCF80CC008359445EBD200EB04
S214014BA0C7039888904228BF1046A04238BF2046C7
S214014BB0ACE7FF20ABE70020A9E700BF0C190020F7
S214014BC00229F0B551D82A4800EBC10410F831107B
S214014BD0636801290FD1E078A478904294BFC4EBB2
S214014BE00001C4EB0201001BCAB28242C8BF002208
S214014BF033F91200F0BD002B37D0A178914202D3D1
S214014C00B3F90200F6E7E178B3F900009142F1D971
S214014C1099886478A1F1FF06013C714203F104050D
S214014C20E4B2714103F10C07CEB2B44216D805EBDB
S214014C30C1014FF47A756A43B1F902404968521AC4
S214014C4004EBD47102EB610292FBF4F29042D1DBE9
S214014C50B3F902009042CDDC10B2CBE737F831C091
S214014C604E1C9445E3D33146DEE70248C2E700BF57
S214014C700C1900200080FFFF08B50448FFF720FF4D
S214014C80BDE80840012028F0FFBC00BF98EF0300F4
S214014C9000487047820C00207FB50222084B094964
S214014CA0CDE901234FF00073CDE90313052301A9D4
S214014CB04FF0FF30059328F01BFD07B05DF804FBAD
S214014CC0006A18000002040007B56B46054A106822
S214014CD0516803C36846FFF7ABFC002003B05DF8DC
S214014CE004FB00BF1CF0030013B50024064A684607
S214014CF0536F43F00103536700948DF80440FFF7A8
S214014D00EFFB204602B010BD0040005030B58BB01E
S214014D106C46164D0FCD0FC40FCD0FC495E803009A
S214014D2084E80300124BD3F84C21120319D5A3F5DE
S214014D30FE431C884FF6FF739C4208BF78248DF80B
S214014D401940FFF7A5F8204480F308008DF81800F5
S214014D500848FEF787FC6846FEF7FEFF00200BB00A
S214014D6030BDD3F85041E4B2E9E700BF24F00300B8
S214014D700080E00F00F0490230B5094D87B001AC64
S214014D800FCD0FC42B6801A8236025238DF80530AD
S214014D90FFF784F86420FFF7BFF8002007B030BDA6
S214014DA04CF003006FF00403502110B50A480B4C79
S214014DB013F0800F03F1010207D12344402A83F840
S214014DC000131346F4D1002010BD03F00F03043B7B
S214014DD0034419761346EBE700ED00E000E100E03E
S214014DE038B501F0A3F80446E0B901F05BF94FF4D9
S214014DF0167343430C4A03F5742303F23F23B3FBB4
S214014E00F2F30A21094A0A4813600A4D0268013979
S214014E1011F0FF0145F8043BF9D11A4403EBC30333
S214014E2013440360204638BD40420F005819002045
S214014E30281900202C190020012208B5034B1A70EE
S214014E401DF0EDFF024B186008BD00BF372800209B
S214014E5024190020F8B5144C237823B31DF0DFFF86
S214014E60124B134D1B68134EC01A012838BF012080
S214014E70114B124F18602B7856F8232046F8230062
S214014E80111A3A680E48521A0A213A600932B2FBE0
S214014E90F1F20133DBB20260B3FBF1F201FB123334
S214014EA02B7000232370F8BD37280020241900201A
S214014EB0382800202C190020541900202819002019
S214014EC058190020014B1868704700BF5819002078
S214014ED020234FF400220A4981F82C33094B5A66E5
S214014EE0094A03F5405303F50050426702674FF441
S214014EF08050C1F88401486003445A67704700BF78
S214014F0000E100E000900050010000A0044B9A6D03
S214014F10D20702D40028FAD170470120704700BF9B
S214014F2000C000500C4B10B51C6FE20707D50122DC
S214014F3003F500531A67FFF78DFF00F077FD14F0B5
S214014F4000521CBF054B1A67002CBEBF4FF0004233
S214014F50024B1A6710BD00BF00C0005000E00050B1
S214014F6010B504461DF094FC024B1C601DF094FC29
S214014F70002010BD5C19002010B51DF089FC034B04
S214014F801C681DF089FC204610BD00BF5C1900207E
S214014F90034B022218680023806819461CF0DCBD0A
S214014FA0EC0B002038B504461DF072FC05460121C5
S214014FB0204600F04FFB20460121044A00F066FD22
S214014FC02846BDE838401DF067BC00BF60F003000E
S214014FD038B504461DF05CFC05460021204600F06D
S214014FE039FB20460021044A00F050FD2846BDE862
S214014FF038401DF051BC00BF60F00300002807DBFD
S21401500001234109034A00F01F00834042F8213082
S214015010704700BF00E100E0002808DB01224309D9
S214015020034900F01F008240603341F82320704797
S21401503000E100E070B504460668FFF79DFF844274
S21401504002D10020FFF78CFF96F928502846FFF77B
S214015050E3FF002D0CDB012215496B0905F01F0546
S214015060AA40203341F82320BFF34F8FBFF36F8F41
S21401507096F929502846FFF7CFFF002D0CDB0122B9
S2140150800B496B0905F01F05AA40203341F8232080
S214015090BFF34F8FBFF36F8F00233046C4E9003351
S2140150A0C4E90433A360F368BDE87040184700BF45
S2140150B000E100E0F8B51F46536806460C46154663
S2140150C0002B5BD09368002B5AD03022002120465B
S2140150D029F018F86B682B4AE361AB682046236217
S2140150E02B7B84F82430AB7B276084F8253040F294
S2140150F00113E384069B00276360079BA360089B5C
S214015100E3602B7884F828306B7884F829301E4BBE
S214015110346073601D4BB3601D4B33611D4B73616F
S2140151201D4BF3601D4B3362012384F82E30B261B0
S2140151301B4AF2619DF8282084F82D209DF8242032
S21401514084F82A3084F82C20697B84F82B701DF0B3
S21401515097FC95F901402046FFF75EFF2046FFF7D2
S2140151604DFF95F900402046FFF756FF2046FFF712
S21401517045FF3046FFF7F4FE3846F8BD2220FCE72F
S2140151802120FAE7812A0300B72B03003B2B0300FB
S2140151906F2A0300752A030035500100532A0300C5
S2140151A07B2A03002DE9F04101271C46584B86B0A7
S2140151B00293584B0C9D0193574B904600930A4619
S2140151C0CDE903772946554BFFF774FF06460028BD
S2140151D040F09580236839462B6363683A206B63F9
S2140151E0637A85F83930237A85F83830E37A85F89A
S2140151F03B30A37A85F83A30637B85F83D30237BD4
S21401520085F83C30E37B85F83F30A37B85F83E305C
S214015210FEF7AAFC3B460422617A207AFFF742FA9F
S2140152203B460222E17AA07AFFF73CFA39466068EB
S214015230FEF79AFC88F8006041462068FFF766FB97
S2140152401422237C5B0103F1A04303F57033C3F8FA
S2140152501C26617A227A42EA0142C3F83426E17AB0
S214015260A27A42EA0142C3F82C2685F8406098F8F3
S2140152701930032B49D8DFE803F03446021C022319
S21401528085F8403000230422E17BA07BFFF70AFA71
S214015290022741F21C61227C214B03EB421047504E
S2140152A0E07BA17BB13241EA004103EB42139960F6
S2140152B017E0012785F8403002220023617B207B1E
S2140152C0FFF7F0F9637B227B217C42EA0342154B10
S2140152D049015A500422236803F58053DA65002FEA
S2140152E0D0D1237A052185F83830637A85F83930AC
S2140152F02068C36C43F00403C3641DF009FB304609
S21401530006B0BDE8F0810027D4E72326F7E700BF03
S214015310912C0300852C03000D2D0300012D0300A5
S21401532000C0035024D60350BFF35F8F074B5A6A61
S21401533022F480325A62D3F8942022F00102C3F894
S2140153409420BFF34F8FBFF36F8F704700ED00E0DF
S21401535070B52948294CFFF7E7FF8442284D2949B3
S21401536019D1D5F8C03023F0FF0343F0A003C5F8E8
S214015370C0304FF080430A68214D234EC5F898206F
S21401538043F0010301328442C5F89C60C5F8A030A1
S2140153900A601ED00DE0D5F8C02020F01F03203B88
S2140153A022F0FF0242F0A002B3F1005FC5F8C02070
S2140153B0E1D2164B0A68124823F01F0343F0030399
S2140153C0C0F89820C0F89C30114B0132C0F8A030CC
S2140153D00A60BFF35F8F0522094BC3F894205A6A0F
S2140153E042F480325A62BFF34F8FBFF36F8FBFF321
S2140153F04F8FBFF36F8F70BDB40C00208C0E002052
S21401540000ED00E06019002003000020AB0E002034
S214015410E1FFFF3F10B51446FFF786FF1F2C24D986
S2140154201C4A1D4CD2F8C03023F47F4343F48073EA
S214015430C2F8C030C2061CBF20F01F002030CB06C9
S214015440144A236818BF21F01F0120F01F0021F025
S2140154501F01C2F8983040F0030041F00301013308
S214015460C2F89C00C2F8A0102360BFF35F8F05222C
S214015470084BC3F894205A6A42F480325A62BFF34A
S2140154804F8FBFF36F8FBFF34F8FBFF36F8F002028
S21401549010BD00BF00ED00E060190020BFF34F8F84
S2140154A00549064BCA6802F4E0621343CB60BFF3BA
S2140154B04F8F00BFFDE700BF00ED00E00400FA05D6
S2140154C0034B1B78002B0CBF02200120704700BF46
S2140154D0432800200329F8B598BF124B05460E460F
S2140154E08CBF00245C5C032805D8DFE800F00208C6
S2140154F00B0E44F002040C4B1F684FB9F8BD44F084
S2140155000804F8E744F02004F5E744F08004F2E7E5
S2140155107B681A68144203D0314628465B68984770
S2140155203F68EAE78AF003008C19002038B5104D71
S2140155302B78ABB10F4C23781BB100F0BDFB0023D9
S2140155402370002000F0DAFB0B4C50B100F0E0FBBA
S2140155500023012120782B70FFF7BCFF0123237065
S21401556038BD0122054B1A702278054B1A70F7E7F1
S2140155703E2800203C280020452800203F28002007
S2140155804028002010B51DF083F9064B04461B7811
S2140155901BB1BDE810401DF07FB9FFF7C7FF2046DD
S2140155A0F7E700BF3B28002010B5044601460C4A29
S2140155B0012000F06BFA0B4A137834B101331370F3
S2140155C0094B1B78012B03D810BD013B1370FBE779
S2140155D0064B1B78002BF7D1BDE81040FFF7A6BF9E
S2140155E06EF0030043280020452800203F280020B5
S2140155F070B51DF04DF9124E054633789BB900F093
S21401560095FC044620B128461DF046F9204670BD9B
S21401561000F02AFA0B481CF0F1FF0B4B1C6000F05F
S21401562041FD0A4B186000F089FA1DF0B6FB084BE5
S214015630002418600123284633701DF02DF9E5E794
S214015640462800208C1900206419002088190020A3
S214015650681900202DE9F843284A0138135C39B14E
S214015660274F013313543A78012A04D8BDE8F8834A
S214015670013B1354FAE7FFF723FF0128044635D808
S2140156801DF006F9DFF88480054698F8003013B35C
S2140156901C4E33781BB9012232701B4A1370DFF897
S2140156A0709099F8003023B100F006FB002389F8CA
S2140156B0003028461DF0F0F8012000F01FFB1DF019
S2140156C0E7F8337805461BB100F022FB0023337060
S2140156D0002388F8003028461DF0DEF83878A0420E
S2140156E0C4D02146FFF7F6FE3C70BFE7032AF5D18A
S2140156F00228F3D11DF055FBF0E700BF4328002038
S214015700452800203B2800203F2800203E28002076
S2140157103C28002010B504461DF0BAF8002C0CBF3A
S214015720FF210121064A13780B44DBB21370B3FA4A
S21401573083F3BDE81040034A5B0913701DF0ACB853
S214015740422800204128002038B51DF0A1F8094B59
S21401575005461B78012B04D81DF09EF80024204630
S21401576038BD054B1C6800F007FB044428461DF0B5
S21401577093F8F4E7452800206419002038B5416005
S21401578004461DF085F80546214604481CF039FFFD
S2140157902846BDE838401DF07FB800BF8C190020B0
S2140157A0054B1B685843054B00F5742000F23F205B
S2140157B0B0FBF3F0704700BF8819002040420F008D
S2140157C02DE9F04F85B01DF063F80446AFF3008075
S2140157D01CF094FE002870D07F4FDFF828823B78BB
S2140157E023B10020FFF7E0FE00233B70FFF768FEC1
S2140157F00546002869D0851EEDB2012D6CD9FFF74C
S2140158005FFE01280646754DDFF8FC9100F28880A0
S2140158102878864240F0C280287800F097FA99F8F6
S214015820003013B16E4B1B782B70AFF3008020460F
S2140158301DF032F81DF02CF86A4B04461A7852B166
S21401584000221A70664B28781B78984203D10121F2
S2140158502970FFF73FFE644800F0A2FB1CF058FEDB
S21401586006460028BBD1614BDFF88C81187098F88A
S2140158700030ABB189F80000DFF8849199F8003068
S2140158801BB100F019FA89F80060002000F036FA22
S214015890002800F0968000F03BFA002388F80030DC
S2140158A03B7823B10020FFF77FFE00233B700021E9
S2140158B02878FFF70FFE00232B70AFF300802046F9
S2140158C005B0BDE8F04F1CF0E7BF3B78002B96D043
S2140158D0FFF76AFE3D7092E7002003A900F0AEFBD9
S2140158E0054600288BD1D8F80030039A9A4205D88D
S2140158F00120FFF759FE01233B7080E73C4B1E68F1
S21401590000F03AFA039930448842F1D20223091A88
S214015910CDE90053374A2B4633481DF043FA6EE76C
S214015920354BDFF8C8A093F800B0BBF1000F25D1C6
S2140159301DF031FA2878864230D19AF800307BB9CA
S2140159402D4E3378002B7FF467AF2C4B1B7823B991
S21401595000F0ACF901222A4B1A70012333705BE781
S214015960022EEDD18AF800B015E02B78022B25D156
S21401597000238AF8003027F0C1FF1FE0287886420E
S2140159800CD19AF80030002B3FF446AF022ED7D147
S21401599000238AF8003027F0B1FFD1E70023DFF8B3
S2140159A04CA08AF8003099F8003013B93146FFF759
S2140159B091FD9AF800302E70002BD6D1012EBFD85B
S2140159C02AE7012000F0C2F920461CF065FF1CF012
S2140159D05FFF044659E700BF3D2800204528002008
S2140159E040280020392800206C190020412800207A
S2140159F064190020855501003E2800204228002019
S214015A003C280020681900203F28002010B51CF013
S214015A103FFF0022044B1C781A701CF03DFF00F07B
S214015A2019FC2043C0B210BD3A28002010B5094B1E
S214015A301B786BB1084C237853B100F069F9002349
S214015A40064A237013700123054A1370054A137022
S214015A5010BD00BF452800203F2800203E2800201A
S214015A603A2800203928002070B50024054D064E3E
S214015A702946304601341CF0C4FD0A2C05F1080500
S214015A80F6D170BD941900209019002070B5154606
S214015A9060B1134B013803EB800671B111481CF05D
S214015AA0B4FD014618B901220F4B1A7070BD45604E
S214015AB03046BDE870401CF0A4BD53F82040002CD1
S214015AC0F4D02946606828F028FB08B12468F6E778
S214015AD0214630461CF0A1FD21460248E9E700BFF9
S214015AE0E4190020901900204728002073B5114EB4
S214015AF00446337883420FD04FF400730E4DADF851
S214015B00043058B101A8FEF797FC4020FFF748FE85
S214015B102B68181A2860347002B070BD8DF8050025
S214015B2001A8FEF789FC4020FFF73AFE2B681844CF
S214015B30F0E700BF9C0C0020EC19002073B5002490
S214015B404FF4002501A88DF80440FEF72BFD2046F2
S214015B50FFF7CCFF314B324A186F324900F007008D
S214015B601060D3F82041D3F824214D664FF4003558
S214015B704D6601F59831896903282B4D2B4801F0B4
S214015B80020103D004F00304022C2DD1012303707B
S214015B9011B3224BD3F8003103F00303022B36D0A6
S214015BA0032B37D0012B17D1FDF756FD024698B1CE
S214015BB01F4B204EDC6800231946C4F30B04013446
S214015BC004EB84040138E4FB06011BF0C1FCFFF77B
S214015BD0E7FD2B6803442B606420FFF7E1FD2B688B
S214015BE003442B6002B070BD02F00702961E744299
S214015BF0744104700029EFD0022ACAD0D3F80031CC
S214015C0003F003035A1E534253410370C1E7FDF7E5
S214015C103DFDCBE71CF0EAFCC8E700BF0080005062
S214015C20F019002000900050EC1900204A280020AE
S214015C3000C0015040420F00074B1A7852B10022B3
S214015C401A70064A136F23F0070343F00103136724
S214015C50FDF7ECBC704700BF4928002000800050CB
S214015C600E4B10B51B7883B102201DF0F7F860B11A
S214015C7000F012FA48B10A4B9A6DD20306D5DB6DD5
S214015C809B0703D50122074B9A6210BD0124064BE0
S214015C901C70FFF7D1F8034B9C62F6E74A280020F8
S214015CA000C0005000D00050482800200122014BBF
S214015CB01A7070474928002038B50C4B1B786BB119
S214015CC00B4C23787BB90B4B0B4D9A6D12F4803F2E
S214015CD005D0DB6D9B0702D50123AB6238BDFFF70C
S214015CE0ABF80123AB6200232370F7E74A280020B4
S214015CF04828002000C0005000D00050034B1B78FD
S214015D000BB1FFF703B90120704700BF4A280020F6
S214015D1008B51CF0D2FD094A0949136F096823F03A
S214015D2007030B431367074B1B7813B10122064B7E
S214015D309A62BDE80840FDF779BC00BF00800050BC
S214015D40F01900204A28002000E0005002280AD05E
S214015D5003280BD001280CD1064A136923F004034B
S214015D60136130BF70470020FEF772BB0020FEF7BC
S214015D7095BB704700ED00E008B5054B187818B1E3
S214015D80FFF7A0F800EBD000024B1B68184408BDD3
S214015D904A280020EC1900200122014B1A70704796
S214015DA04A28002038B51DF046F80025084B094C56
S214015DB01A682368C31A2AB123B15169994203D3D9
S214015DC0C91A5161206038BD55615B1A9268F2E7C5
S214015DD0FC190020F8190020C38870B504460D464A
S214015DE03BB9FFF7B1FC8542064602D21CF0C8FF5C
S214015DF035460E4965610B688BB90C60A3600DE0F2
S214015E00AD1A9A68184665616AB113465A69AA427C
S214015E10F6D930B18460521BA3605A6170BD002070
S214015E20F4E70C60F7E79C60A260F7E7FC19002036
S214015E3038B5134D2B685B6993B1124A022014687A
S214015E401C441CF0FFFF204600F052FA00230E49C6
S214015E502A680B70D088800709D501230B7038BDDE
S214015E6002201CF0EFFF022000F08CFAEEE79268A9
S214015E70002AF4D050690344012BEBD9EFE700BFA9
S214015E80FC190020F81900204C28002070B5164691
S214015E909DF81420C0E903360271049ABDF8183043
S214015EA002600022C380826004460D461CF0C3FFD8
S214015EB03044A0613DB9E368656113B120462168AD
S214015EC0984796B135461CF0E3FC0646FFF76AFF95
S214015ED029462046FFF780FF054B1B68A34201D1E8
S214015EE0FFF7A6FF30461CF0D7FC002070BD00BFB0
S214015EF0FC19002000220C490B687BB183420AD1B1
S214015F0083687AB1936083681BB15A6941690A4410
S214015F105A61002070471A469B68EEE70028EFD0CA
S214015F20022070470B60EEE7FC19002070B51CF0EC
S214015F30B6FC144E05463478FCB9134B1C60134B63
S214015F401C60134B1C8000F091F901201CF07AFFB5
S214015F501CF093FF0F4B0246186020B928461CF030
S214015F60A4FC232070BD234640F2E7310A481BF00B
S214015F70EFFA0A4B18600123337028461CF095FC93
S214015F800020EFE74D280020FC190020F81900201A
S214015F90C2270020001A002018FCFFFFF419002079
S214015FA070B5044640B31CF073FC144E0546FFF76B
S214015FB0F9FE3068A04209D02046FFF79BFF044651
S214015FC0B0B128461CF068FC204670BDFFF792FF72
S214015FD004460028F5D133683BB9022000F0BAF92F
S214015FE028461CF059FC0024EEE7FFF721FFF7E7EF
S214015FF03368002BF4D1F0E72224E5E7FC190020F2
S21401600038B50C460546A8B1A1B100230B701CF0AB
S21401601046FC0121084B1B6833B91CF046FC0020E6
S21401602038BD9D4204D121702278002AF9D0F4E7C8
S2140160309B68F1E72220F3E7FC190020F8B5064635
S2140160400F461CF02CFC00250446114B1B6823B997
S21401605020461CF02AFC1B2015E05A691544DA88F4
S214016060B24213D11CF0E7FE0A4E3368C01AA842AA
S2140160700AD21CF0E0FE33682B441B1A20463B6014
S2140160801CF013FC0020F8BD0023F7E79B68DEE751
S214016090FC190020F8190020014B1878704700BF42
S2140160A04C280020014B1868704700BF001A0020DA
S2140160B0044B1B6858434FF47A7300F2E730B0FB89
S2140160C0F3F07047001A0020F8B50C4B05461B6824
S2140160D00E4683420FD3002440F2E7302146084B98
S2140160E04FF47A721F680023E5FB07011BF030FAB4
S2140160F030602046F8BD2120FCE700BFF4190020DF
S214016100001A00200F4B10B51A689AB14FF47A7135
S214016110531E1342A0FB01010ED1B2FA82F2C2F164
S2140161201F04531CD243E04001FA03F3184321FA3B
S21401613002F20243104610BD00231BF009FA024684
S214016140F8E700BF001A0020C2072DE9F047044611
S2140161500BD53D4A138801339BB21380FFF722FE0D
S2140161603A4B1B680BB1FFF763FEA30769D51CF01A
S21401617096FB002605463746FFF714FEB146DFF8C4
S214016180CC80D8F800400CB1636983B10022304B53
S214016190012F1A7002D1022E08BF1F70002C4CD09E
S2140161A0FFF746FE2846BDE8F0471CF07EBB2346B7
S2140161B05A693AB91A792179914288BF1C469B6877
S2140161C0002BF5D128461CF070FB2569C5B11CF0E3
S2140161D032FEA269861AF317B54279EB030310DA89
S2140161E023691344A361E368E688013713B12046A7
S2140161F0216898471CF053FB0546FFF7D3FDC0E71F
S2140162002E461CF04CFB82462046FFF773FE504696
S2140162101CF04BFB2369002BE5D0AD1B1CF03FFBAC
S214016220064629462046FFF7D7FDA3692269304670
S2140162301344A3611CF039FBD5E7022000F08AF86D
S214016240B0E7BDE8F08700BFC2270020FC19002098
S2140162504B28002010B51CF022FB034B1C781CF0C9
S21401626024FB204610BD00BF4B2800201FB500248C
S2140162701C4B012118689A880290D3F806009B7A75
S21401628000903E20ADF80C208DF80430FDF76CFC34
S21401629002A88DF808408DF80C40FEF7A9FA694669
S2140162A001208DF80040FEF75FFA4FF0B04240F251
S2140162B0FF31936923F47F7323F0030393610A4B41
S2140162C05961936A13F00803FBD113620120FEF7AC
S2140162D065FA4FF48052054BC3F880211A6004B06A
S2140162E010BD00BF8EF003000020005800E100E062
S2140162F010B504461CF0CCFA4FF0B042936A190769
S214016300FCD4136A116C5269520604D4CA1A032AC1
S21401631001D899420ED1E21A022A98BFDC1CB4F1C8
S214016320FF3F38BF013C4FF0B0431C649A6942F00E
S21401633040029A611CF0B0FA054A13783BB14FF05F
S214016340B041CB6B43F00203CB630023137010BD47
S2140163509D0C0020820700F001030AD50121084A9E
S21401636043F0400311704FF0B041CA6B22F00302B4
S214016370CA634FF0B0418A6922EA03038B61704712
S2140163809D0C0020830742BF4022014B5A61704793
S2140163900010005810B51CF082FA4FF0B0430446C6
S2140163A05B695A06074A03F0010003F0510348BF30
S2140163B040F002005361FFF7C7FE2046BDE81040DB
S2140163C01CF073BA0020005810B50446FDF72EF9EC
S2140163D00C4BA0F57A729A4212D84FF47A73B0FB3E
S2140163E0F3F05C43084BB3FBF0F3B4FBF3F0022885
S2140163F006D9BDE810400323B0FBF3F0FBF7A0BEBF
S21401640010BD00BFFFC99A3B40420F00024A034934
S214016410034802F0B7B900BF9CF00300C8F00300C0
S21401642028F103000A4619B1024B00211B681847E0
S214016430704700BF000B00200E4B0340B3F1607F96
S21401644006D1B1F5885F14BF6FF086000020704753
S214016450B3F1707F0BD101F4E043B3F5005F06D1D1
S21401646011F4E06F0CBF6FF08600002070476FF0EC
S214016470860070470000C07F8A42F8B506460C4683
S21401648000F0DB806F4922F4FF7323F001038B4297
S2140164900ED06D4B22F0FF01994209D06B4822F4D1
S2140164A07F7323F00303834202D0694B994228D1BC
S2140164B0684B24F0FF0199420FD114F0FF000BD076
S2140164C0654B40F00070984240F0B98082EA0400C3
S2140164D0FF288CBF00200120F8BD5B4B9942ECD011
S2140164E0A3F588539942E8D024F4FF7323F00103FF
S2140164F0B3F1062FE1D056488142DED053498B4294
S214016500DBD004F0FE43B3F1A06F14D102F0FE43DA
S214016510B3F1A06F40F0938082EA040333F47E1354
S21401652040F08D8014F40040D6D0C4F30540C2F389
S21401653005429042CDE7B3F1407F6AD102F0FE43B7
S214016540B3F1407F7BD182EA040535F47E1576D11E
S21401655031462046FFF770FF002870D13F4B12F4FA
S2140165607C1703EA02031BD0B3F1607FC2F3054731
S2140165703FD13B49D3B243F000738B423DD003F188
S2140165807E43043B0F2B01D83649CD5C14F47C1FA7
S214016590C4F3054333D1BD4214BF002001209BE75D
S2140165A0B3F1607F0DD12E49D3B243F000738B4215
S2140165B01DD003F17E43043B0F2BDAD82A49CF5C6A
S2140165C0D7E7B3F1707FE1D106F4E043B3F5005F9E
S2140165D003D10127C6F302239F4006F4E043B3F537
S2140165E0005FD3D10125C6F302218D40CEE71027E7
S2140165F0BFE7B3F1707FC9D1EFE71025C6E712F404
S2140166007C1F01D1AB4218D022047FF565AFBB4297
S2140166105FE7B3F1106F12D124F01F6020F47020F1
S21401662068B902F0FE43B3F1106F7FF455AF0F481F
S214016630104040F01060A042AEE701204CE7002079
S2140166404AE700BF00020006001300060004000629
S2140166500009000600030006FF0000020000C07FDC
S2140166600300000252F1030052F103000000FFF69E
S2140166702DE9F843884617461C4600F063FA05469E
S21401668088BBD8F80060B6F8009009F4E043B3F58B
S214016690804FF36808BF27F0010737EA03031AD1D2
S2140166A00CB3254B24F0FF029A421FD114F0FF03CE
S2140166B004D0224A43F00073934232D02246484621
S2140166C03169FFF7D9FE074668B92246484671691F
S2140166D0FFF7D2FE70BB6FF0840500233046C8F882
S2140166E000301DF083FA2846BDE8F883144B9A4221
S2140166F0DCD0A3F588539A42D8D024F4FF7323F054
S2140167000103B3F1062FD1D00E498A42CED00E4AEC
S2140167109342CBD004F0FE43B3F1407F04D123046F
S214016720CCD56FF08605D8E7B3F1A06FF7D0034B51
S2140167309C42C2E73D46D6E700030006FF00000282
S21401674000130006000900060004000638B500F034
S214016750FE43B3F1407F04460D4602D06FF086003B
S21401676038BDFFF769FE0028FAD114F47C1F05D066
S214016770C4F30543032B13700DD828E0254B2340A3
S214016780B3F1607F29D12449E3B243F000738B4211
S21401679016D1102313701F4A2240B2F1607F2AD10E
S2140167A01D4AE4B244F00074944231D004F17E44B0
S2140167B0043C0F2CD2D8194A125D9342D0D9CDE7AA
S2140167C003F17E43043B0F2B04D9002313706FF0B3
S2140167D08500C5E71249CB5CCCE7B3F1707FF4D1F5
S2140167E001F4E043B3F5005FEFD10123C1F30221C9
S2140167F08B40DBB2BEE7B2F1707FAFD105F4E04269
S214016800B2F5005FAAD10122C5F30225AA40D4E75A
S2140168101022D2E70000C07F0300000252F10300FD
S21401682052F1030037B50C4D0C462B78DB070FD51C
S21401683000230A460193014601AB281D1DF037FFD0
S21401684020B9019BA34218BF6FF0930003B030BD7F
S2140168506FF08800FAE700BF041A00202DE9F04F18
S2140168609A460023914601F0FE4297B0B2F1806F3E
S2140168700E46DDE920B7DDF88880089370D10B4617
S2140168804FF4807208A9FFF7F3FE0446002841D1B1
S214016890DDF820C00DAC6546CDE914000FCD0FC460
S2140168A095E80700BCF8003084E8070003F4E042EE
S2140168B0B2F5005F1BD113F4E06FC3F3022116D0CB
S2140168C0334826F4807282420AD000F50070864270
S2140168D006D03048864203D0A0F53F40824206D11A
S2140168E001258D40102D0DD96FF0830412E042F280
S2140168F00402934202D1284B9E420FD0274B9E4260
S2140169000ED10D25AF4228D3294609A8FFF78AFFE5
S214016910044630B108981DF069F91CE00C25F1E732
S21401692000250BEB0503CDE903A3CDE901597F1B38
S2140169300597089909AFCDF8188000973346D1E935
S21401694008120DA81DF09FF8064608981DF04EF98E
S21401695004465EB13446002513E06FF08904D9E79A
S21401696018461DF043F96FF08604F4E70028F2D1CB
S21401697025B12A463946584627F0D9FBD8F80030C3
S2140169801D442046C8F8005017B0BDE8F08F00BF80
S2140169900010C00400FF4004000180040013C0047E
S2140169A008B500F073F8084B0C211A78064812F067
S2140169B0060F1CBF0022C3E90122FFF733FDBDE825
S2140169C008401CF08BBF00BF041A002038B50E4DDE
S2140169D02B7813F0010211D1C5E90122022262F3DC
S2140169E042032B7000F046F8044650B91CF074FFC1
S2140169F0044630B92B7843F001032B70002420465F
S214016A0038BDFFF7CDFFFAE7041A002000F1004277
S214016A100332022A38B504460D4609D82821144BFC
S214016A2001FB02339A68824211D06FF08B0015E0A9
S214016A3001211DF0CAF8A0B10D4B9A68944206D008
S214016A401A6B94420BD09A6D9442EED15033DA69A8
S214016A50511C09D000200132DA612B6038BD283381
S214016A60F5E76FF08700F9E76FF09600F6E700BFED
S214016A70101A0020044A002092F8783043F00103EF
S214016A8082F87830704700BF101A002038B501250B
S214016A900A4C2046E5611CF0ABFB04F12800656456
S214016AA01CF0A6FB04F15000E5661CF0A1FB94F86F
S214016AB078306FF3000384F8783038BD101A002060
S214016AC0F8B51E4C064694F878300F46D8072BD5F5
S214016AD000252346294618881A46A8B12DB91A79E1
S214016AE01AB1DA69002A08BF1D460131032903F1EC
S214016AF02803F0D115B96FF08C0017E00123284662
S214016B00EB611CF075FB2A46D369591C12D0002094
S214016B100133D361141B0A4BE4105C4304F10044B7
S214016B20033C34603A60F8BD6FF0880000233B6098
S214016B303360F8E76FF09600F8E700BF101A002000
S214016B40CDCCCCCC0023F0B50B60264B074693F892
S214016B5078300D46DC0785B041D5FFF757FF10F1B9
S214016B608C0F04461ED1294601A8FFF7A9FF04464B
S214016B70C0B901232E68CDE90200B76030467360C4
S214016B8003AA02A91DF0C4F8044670B1DDE90201AA
S214016B901DF0B4F828681CF02BFB14F18C0F08BF0D
S214016BA06FF08704204605B0F0BDDDE902123046DD
S214016BB01CF0CFFA0446DDE902011DF09FF8002C17
S214016BC0E8D12B68DA68D00444BF42F48062DA6008
S214016BD0DA689104E6D542F40062DA60E2E76FF023
S214016BE08804DFE7101A002030B4224D2C681C60A0
S214016BF06C685C6000241C725C729C72DC72546867
S214016C00250A1C735D73250C240E9D73DC73148892
S214016C101C74240A5C7454889C74240ADC74D4683A
S214016C20250A1C755D75250C240E9D75DC75146989
S214016C30250A1C765D76250C240E9D76DC76526937
S214016C40140A1A775C77140C120EDA770A0A83F89C
S214016C5021200A0C83F822200A0E9C7783F8201044
S214016C6083F8232030BC0A46014603F1240027F0AE
S214016C705EBA00BF62F103002DE9F84323290446FA
S214016C800F4691469846089E04D86FF09805284608
S214016C90BDE8F8830822194927F00AFA05460028B4
S214016CA0F3D1A368002BF0D1216A243FB942C8F87A
S214016CB00010EAD8B1F5005FE7D271B9C9F8000053
S214016CC0E3687360238A3380638A73806369F36041
S214016CD0A3693361E3697361D9E701201CF009F9FF
S214016CE0C9F8000030B1D8F8002004F1240127F0DB
S214016CF01EFAE5E76FF08C05C9E700BF62F10300F5
S214016D001B0603F0706300F00F000902034301F451
S214016D107061120402F470220B431343014A13609C
S214016D20704700BF0020025C60B5054619B1013905
S214016D30B1F5806F0FD2094EF06810F48030FBD1A8
S214016D4043EA012312072B4302F08052134343F018
S214016D500043736060BD0120FCE700BF0020025CB9
S214016D600122054B9A60DA68D203FCD4D86820F079
S214016D700F000004000C70470020025C014B1868ED
S214016D80704700BF0040025C014B5868704700BF67
S214016D900010025C014B186B704700BF0010025CCC
S214016DA0014B1868704700BF0010025C014B9860E9
S214016DB0704700BF0010025C014B1864704700BFAB
S214016DC00010025C014B5864704700BF0010025C63
S214016DD0014B5863704700BF0010025C0022014B54
S214016DE01A6070470010025C024A136843F0010300
S214016DF0136070470010025C43F20402014B1A60F4
S214016E00704700BF0010025C024A136843F030036B
S214016E10136070470010025C044B1A6842F48072DB
S214016E201A601A6822F480721A6070470010025CB9
S214016E30024A136843F48063136070470010025CD3
S214016E40034A136823F4702343EA00431360704730
S214016E500010025C044B1A6902605A6942609A6922
S214016E608260DB69C36070470010025C0268044BF5
S214016E701A6142685A6182689A61C268DA6170472B
S214016E800010025C024B1A6BD207FCD418627047E2
S214016E900010025C0322024B186019615A637047A6
S214016EA00000025C82B01FB507930A9B04AC8B42BC
S214016EB028BF0B4604E907001048D100079948BFD0
S214016EC003330160099948BF23F0030323F070439D
S214016ED001F0E041194341F000518160002102F0C8
S214016EE0E042019C1A4342F00052C1600461826193
S214016EF0416304B0BDE8104002B070470000025C78
S214016F003F22034B1A631022DA6103229A63704709
S214016F100000025C024AD36B9B07FCD4704700BF9B
S214016F200000025C044B9B6A13F0240F14BF01207F
S214016F3000208000704700BF0000025C08B5FFF724
S214016F40F1FF064BDB6B23F47F4323F0EF03034390
S214016F501EBF0122024BC3F8FC2F08BD0000025CD5
S214016F6000F0FF3F4368182B0AD0202B1DD0102BB2
S214016F702BD1174BD3F80434DB010AD40120704718
S214016F80134BD3F804349A01F8D50B6843F0080381
S214016F900B6003680F4A934210D10B6843F040031D
S214016FA00B600023436000207047094BD3F804347C
S214016FB05B01E3D50B6843F00403E9E7064A934215
S214016FC0F1D10B6843F08003EAE70720704700BF62
S214016FD00000025C4F2800204E2800200B4607B513
S214016FE00749D1F80414C90708D5002100920246C2
S214016FF0084600F05BF803B05DF804FB0120FAE7F1
S2140170000000025C1346064AD2F80424D20504D5D1
S2140170100A46014600201DF0CCB80120704700BF8B
S2140170200000025C13B5084CD4F80444E40508D506
S214017030009313460A460146002000F061F802B0AC
S21401704010BD0120FBE700BF0000025C13B5084C31
S214017050D4F80444E40508D5009313460A460146CD
S214017060002000F071F802B010BD0120FBE700BF60
S2140170700000025C70B504460D4616468CB00A4AFE
S21401708009AB07CA83E807001A462146CDE905631E
S214017090CDE90333CDE9013300954FF480301CF080
S2140170A0B4FF0CB070BD00BF6CF10300F0B51C4618
S2140170B05B6815468DB01A07129E1AD1CBB172685D
S2140170C0934216D10C4B0D4A53F8217009AB07CAEF
S2140170D083E807001A462946CDE90533CDE903338F
S2140170E0CDE90163009447F480701CF08EFF0DB06B
S2140170F0F0BD0720FBE700BF78F103006CF1030049
S214017100F0B516465A688DB0102A0D46129F15D155
S2140171107A68102A12D10A4A09AC07CA84E807001D
S21401712022462946CDE90547CDE90344CDE9014488
S214017130044800961CF069FF0DB0F0BD0720FBE780
S2140171406CF1030030000100F0B516465A688DB0A8
S214017150102A0D46129F15D17A68102A12D10A4AB2
S21401716009AC07CA84E8070022462946CDE905741A
S214017170CDE90344CDE90144044800961CF045FFDF
S2140171800DB0F0BD0720FBE76CF103001000010015
S21401719082B070B586B0149D03AE202D86E8070038
S2140171A00B9359D805EB85038B4203D006236B431B
S2140171B08B4253D10C9BAB4250D10F9BB3EB450F87
S2140171C04CD1129A934249D1012229462220159B7D
S2140171D0FFF7AAFD044630BB034606220E210C200B
S2140171E0FFF78EFD0123CDE900332B4696E8070015
S2140171F01CF09EFE0E230BAA009307CA2B461CF01A
S214017200E2FD0C23164C00930EAA2B4607CA1CF06F
S2140172100AFE636823F07F0343F026036360FFF7EB
S2140172209FFD30B10624204606B0BDE8704002B08E
S2140172307047636823F07F0343F022036360FFF720
S2140172408FFD04460028EDD1062311AA009307CA34
S2140172502B461CF01BFEE6E70124E4E70724E2E7E1
S2140172600020025C70B598B0002843D02C4C08ADC5
S2140172700FCC0FC50FCC0FC50FCC0FC594E80F0070
S21401728085E80F006D4604AE04F1100320340FCBE1
S21401729085E80F0094E80F0086E80F00FFF7BCFDB5
S2140172A00420FFF7CDFDFFF7A7FD3046FFF7DEFD13
S2140172B0002408AE56F8040B0134FFF7E3FD102C4A
S2140172C0F8D1FFF761FD0328FBD90024FFF786FDFF
S2140172D02646FFF753FD55F8043B01365840042E69
S2140172E044EA0004F5D12CB1012206200D4B1A7098
S2140172F018B070BDFFF790FD0820FFF757FD00207E
S214017300FFF75AFD0720FFF75DFD4FF40070FFF70A
S2140173105FFD0820FFF794FDFFF766FD0020E7E715
S21401732060F203005128002008B5FFF775FD012221
S214017330014B1A7008BD00BF5028002030B589B037
S21401734005AC84E80700FFF725FDC30501D5FFF767
S214017350EBFF0A4D2B781BB11DF0AAF800232B700A
S214017360074B069AD3E901018DE8030002921B68D8
S21401737094E807001CF0A2FF09B030BD5028002099
S21401738054F203001FB51DF093F8044630B10122F4
S21401739006240D4B1A70204604B010BDFFF7EEFC14
S2140173A00090FFF7EBFC0190FFF7E8FC0290FFF777
S2140173B0E5FC03906846FFF759FDFFF7B5FFFFF7B9
S2140173C023FDFFF735FDE6E75128002030B5154BC4
S2140173D087B00293144B0390049346F611030D46AF
S2140173E0059300F077F91428044616D168461DF077
S2140173F011F94FF0A843032202A95A6319601D61CF
S2140174009A63DA6B9207FCD1142C02D168461DF000
S2140174100FF900F093F9044601E00028E9D0204670
S21401742007B030BD8C1A0020040000202DE9F04F73
S214017430B1B005468C469E46E8466F4EDDF8EC90A8
S214017440409C06F1100A474630687168083603C743
S2140174505645B846F7D13E9B03EB0208C8F1000A31
S2140174600AF00F0AB9F1000F00F09D80C9F100077C
S21401747007F00F070121DDF8FCB044F00050C4F11D
S2140174801006CDF810B005910690300200F4F850C1
S21401749040F021000790B9F1000F40F08680CDF84A
S2140174A020D047F00050002D00F084800991212162
S2140174B00A9041EA07210B9142F00050CDF830C006
S2140174C03D9B08A94FEA0A2C0D910E904CF0410005
S2140174D00F901093002A75D13E9B119143F00053F3
S2140174E012933C9B1390149310AB1593434B444A51
S2140174F0169340F611031793424B0021002D08BF47
S2140175001346189314AB19933F4B10221A93112369
S2140175101B931CAB184626F0F5FD01221D92002296
S21401752046F0804603461E96239205B9EB46102C7C
S214017530CDF880B024AE4BD101232246002130463F
S2140175402193229426F0DEFD20AB002125938F4265
S21401755018BF334647F0804226923A9A2CA82892C2
S2140175602993B2FA82F35B0949EA837310222B91BD
S2140175702A9326F0C7FDB9F1000F00D028AED044FB
S21401758048F080432CA918A82D962E93FFF71EFFCE
S21401759030B92DB90346A34225D1002818BF2C20A7
S2140175A031B0BDE8F08F102764E7CDF820E049F050
S2140175B0005078E7002C3FF479AF04A90991012126
S2140175C00A9076E73E9B0CAA11924120129388E717
S2140175D01022002130462193229426F093FD002CA0
S2140175E0B2D10123B1E703F1C0026A4412F8C02CFC
S2140175F001331043CFE700BFC0F2030010000020A4
S214017600D8F20300DCF2030004000020F0B5C02924
S2140176109FB0DDE9244557D0B1F5807F04D080299D
S21401762048D029201FB0F0BD01265CB140F2344796
S2140176300294102403960494212401970594069538
S21401764002AC0AE040F21447029410240396049414
S21401765021240594012401970695079401251024F9
S214017660089409950A9221220B950C940D92174ABB
S2140176700AAD0E92164A0F95109242F61102119219
S214017680129313951494159201AA1692D3B112ABC4
S2140176901793042318931123199316AB1A901B936F
S2140176A040F61103C9081C911AA806A91D93FFF7F5
S2140176B08DFEB7E7012614B94FF48267C4E74FF48D
S2140176C08667B5E70EABE3E70F20ABE7D4F203001E
S2140176D01000001038B5164B5A6E42F004025A6676
S2140176E0D3F8802242F00102C3F88022114B5B6876
S2140176F0C3F3080343B14FF0A842D36B13F0430F13
S214017700FBD11424204638BD4FF0A843DC6B14F09F
S2140177104304FBD1084D2B681BB904212846FFF70B
S21401772081F82B68013343F000432B60EAE700BF82
S2140177300080005000ED00E08C1A0020014B002074
S2140177405B68704700ED00E04FF40052034B0020E9
S2140177509A660322C3F86022704700BF009000506B
S2140177604FF40052034B00209A660322C3F86022AE
S214017770704700BF00A000501FB54FF40052164BD3
S2140177809A660322C3F86022FFF70AFBC3070ED4EA
S21401779001201CF09AFED8B900204FF400520F4B7E
S2140177A09A660322C3F8602205B05DF804FB102236
S2140177B00021684626F0A6FC6846FFF74BFBDDE98C
S2140177C000321343029A1343039A1343E4D1DFE7CB
S2140177D06FF09200E1E700BF0090005000A000505B
S2140177E00123A0F50320064AA0F58070410900F0A8
S2140177F01F00834052F82100034342F821307047AE
S214017800901A00202DE9F04780460F461E46154681
S21401781088B00AB1002313600EB1002333604FF025
S214017820100ADFF8B090CDF800A000233A46414692
S214017830D9F8000013F064F80446F8B93B68214A09
S21401784093422ED14FF0180A0146524602A826F05E
S21401785059FCCDF800A023464146D9F8000002AAFB
S21401786013F04EF8044648B9069B7B60DDE9042315
S214017870C7E90223144B3B6025B9144C204608B0D7
S214017880BDE8F087114CC5F800A0002EF6D03346AF
S2140178904146D9F8000002AA13F086F860B1044602
S2140178A0ECE7094A1DB99342E8D0094CE6E7934252
S2140178B0C5F800A0E9D0F8E733682A689B1A336058
S2140178C0DCE700BFD175E105105D175EFEDF00F055
