S00E000046617265466F622E73333751
S214012000C00A002095740100499303004993030018
S214012010E19A03004993030049930300499303009F
S214012020499303004993030049930300499303002E
S2140120304993030014580400E990030049930300F0
S214012040499303004993030049930300499303000E
S21401205049930300499303004993030049930300FE
S21401206049930300499303004993030049930300EE
S21401207001A301004993030049930300C9600100CD
S214012080E591030049930300499303004993030034
S21401209049930300499303004993030049930300BE
S2140120A049930300499303004993030049930300AE
S2140120B049930300B1490300499303007D5303008C
S2140120C0FD4C0400F94C0400814B0300094D04004B
S2140120D0014D040055530300054D0400DD53030074
S2140120E0FD2E0300B1300300BD53030049930300E6
S2140120F0C7960300499303004993030049930300DD
S214012100499303004993030049930300499303004D
S214012110499303004993030049930300499303003D
S214012120499303004993030049930300499303002D
S214012130499303004993030049930300499303001D
S214012140013800D0FCE7704770B505463E4C8AB0B2
S21401215020B100230088236011F042FD3B4832F095
S214012160C4F83B4E3B4B304633603B4B73602CF020
S2140121700AFF002130461CF023FE31A3D3E90023D9
S214012180A062C4E906232CF006FFD4E9062319430E
S21401219010434FF0FF33C4E90601CDE900014FF0CB
S2140121A0FF32A06A32F0E6F802224FF0FF31A06A51
S2140121B032F0E5F8012011F08FFA4FF40073002297
S2140121C02649A06A32F02FF9B0F5007F34D10023FA
S2140121D09422CDE9073309933C23CDE903320593D5
S2140121E09623A06A03A906931CF010FF15B3287C5A
S2140121F011F0F2FF0546D0B9A06A32F0EAF911F003
S21401220019FA20B14FF4807000210EF0D9F811F0C0
S21401221021FA20B14FF4006000210EF0D1F8012020
S2140122201CF022FE0E4A0F49A06A2CF0AAFE284690
S2140122300AB070BDFF20DBE70725F8E7AFF30080A3
S21401224009D50155200000006815002017C712F3B4
S214012250842B00202D3E0200782B002078290020B8
S2140122602BEF03006BEF03002DE9F04FDBB01C46AC
S214012270834604910DF1A809069225F0CDFB03686B
S2140122800A941846159323F0B7FF082214900021EC
S214012290484602F057FFBBF1000F04D0DBF834309C
S2140122A0002B01F0C280049A536EDD0740F1458190
S2140122B0B2F90C20910407D4049942F400524B6EF3
S2140122C08A8123F400534B66130740F1C080049BB8
S2140122D01B69002B00F0BB8002F01A030A2B00F0EA
S2140122E0C58000239FED9C7B9E46CDE92F3331AB05
S2140122F0CDF84CE0CDF81CE02E930393CDF83CE0EE
S214012300CDE916EECDE918EE8DED107B069E944BC9
S214012310D3F8E44025F07AFB3246034626A9584610
S214012320CDF80090A0470028034600F0BE80C0F21A
S214012330B480269A252A01D01E44E8E7069B054666
S214012340F71A40F0B6800023741C4FF0FF3A1A4685
S2140123508DF88F300893737802920134A3F120022E
S2140123605A2A00F2FF80DFE812F06B00FD00FD0044
S214012370B702FD00FD00FD009702FD00FD005002C2
S2140123807302FD005B027E02FD0078025B005B00CB
S2140123905B005B005B005B005B005B005B00FD00BD
S2140123A0FD00FD00FD00FD00FD00FD007B01FD00C0
S2140123B0D70127037B017B017B01FD00FD00FD00AA
S2140123C0FD002103FD00FD00C302FD00FD00FD0030
S2140123D0EE01FD000D03FD00FD008A07FD00FD0076
S2140123E0FD00FD00FD00FD00FD00FD007B01FD0080
S2140123F0D70125027B017B017B016A022502D101FF
S214012400FD006102FD005303B1074003D101FD0049
S214012410EE0170008507FD00FD00B507FD007000A8
S214012420A3F130020023194601EB810114F8013BA8
S21401243002EB4101A3F13002092AF5D908918DE793
S2140124409DF88F30002B00F04186237885E7049DA8
S2140124505846294625F0D8F9002841F01E84B5F9DA
S2140124600C2002F01A030A2B7FF43BAF0499B1F952
S2140124700E30002BFFF635AF4B6EDD0702D490050C
S21401248041F116822346069A0499584623F0E2FE45
S214012490079007985BB0BDE8F08F082200214846F8
S2140124A002F050FE01231E4431E7069B0546F71A4B
S2140124B013D0069B039AC2E90037309B3B44309306
S2140124C02F9B0133072B2F9311DC08320392079BB6
S2140124D03B440793002D7FF436AF309B002B41F031
S2140124E0DD810022049B2F92B3F90C3019E02EAA4D
S2140124F00499584623F02AFF80B931AB0393E6E7E7
S2140125002EAA0499584623F021FF002800F09D804A
S214012510099B1BB10999584602F0B8FF049BB3F911
S2140125200C30049A526ED40740F1E680590601F148
S214012530C08307985BB0BDE8F08F049BB3F90C200D
S21401254090053FF5B7AE1D46986D02F0CFFEB5F982
S2140125500C20AFE6AFF30080000000000000000092
S214012560241100200C930694002BB6D000220127DC
S2140125708DF8043141AB8DF88F2005970B93924669
S21401258009921292CDE90D22029B13F0020302D0AA
S214012590059902310591029911F0840405D1089933
S2140125A005980E1A002E00F3D183309D7AB1039858
S2140125B0012201350DF18F0142602F9A30950132CB
S2140125C00160072A2F9200F302840830039073B14A
S2140125D02F9B24AA0399023501330A600222072B96
S2140125E030952F934A6000F3018408310391802CC3
S2140125F000F08282AAEB0706002E00F3C382029B3C
S214012600DE0500F11D82039A3D440B9B5760136063
S2140126102F9B30950133072B2F9300F33F8308320E
S2140126200392029B5E0705D5089B059A9E1A002E0B
S21401263000F3FB830599DDE907328A42ACBF9B189C
S2140126405B180793002D7FF45BAF00232F93099B44
S2140126501BB10999584602F019FF31AB039355E6B1
S2140126600C934FF0FF320A9B0694073323F00703BF
S214012670B3EC027B8DED107BDDE910450A9325F066
S21401268000431C941D93974BDDE91C673046394681
S21401269026F0DCFC002840F03B854FF0FF32914BE2
S2140126A03046394626F0B4FC002840F03185002239
S2140126B000232046294626F0A1FC002841F020816F
S2140126C09DF88F20029B0020874923F08003099004
S2140126D00293864B0C9C032782461290472CC8BF58
S2140126E0194605970B91CDE90D00002A3FF44CAF32
S2140126F0059B0133059347E798053FF517AF049C03
S214012700A06D02F0F5FDB4F90C300FE7029B43F023
S21401271020030293237820E6432B0C93069400F0C3
S2140127202E86029BDA0600F12A860A9B012741AD16
S21401273053F8042B05978DF804210A9300220B9574
S2140127408DF88F201BE70A9E0C93002306948DF8C4
S2140127508F3056F8043B0B93002B00F000860C9B41
S214012760532B00F08386029B13F010030D9340F069
S2140127707D86BAF1FF3F01F07B8052460D990B989A
S21401278025F076F90990002801F01383099B0B9A2E
S214012790DDF834A09F1A0A969DF88F2027EAE77382
S2140127A0CDF848A0CDF838A005937323CDF824A022
S2140127B00C939AE70C93029B06949D0640F10681C2
S2140127C00A9B073323F007031A46596852F8083B59
S2140127D00A920A460029C0F28884BAF1FF3F00F047
S2140127E06383029921F080010291BAF1000F40F053
S2140127F05B8353EA020114BF0121002140F0548398
S2140128005AAB8A460F460B93AEE00A9B53F8042B4D
S214012810002A089280F24884089A0A935242089243
S214012820029B43F004030293237896E523786C2BEE
S21401283000F08085029A42F0100202928DE523781C
S214012840682B00F06F85029A42F04002029284E5FE
S2140128502B238DF88F3023787FE5029B43F080038E
S2140128600293237879E5214611F8013B2A2B01F0E2
S2140128701C83A3F130020C464FF0000A092A3FF6EA
S2140128806DAD0AEB8A0A14F8013B02EB4A0AA3F182
S2140128903002092AF5D961E5584625F0BDF84368A6
S2140128A01846199323F0A8FC18900546584625F0BB
S2140128B0B3F883681393002D3FF4C7AD002B3FF4A4
S2140128C0C4AD139B1B78002B3FF4BFAD029B43F4B2
S2140128D080630293237840E5029B43F00103029351
S2140128E023783AE5FFFFEF7FA4A50400A8A504001E
S2140128F00C93029B069443F010030293029B13F081
S214012900200200F02C830A9B073323F007031946A5
S2140129105A6851F8083B0A91029921F48064002113
S2140129200020BAF1FF3F8DF88F0000F0638124F09C
S2140129308000029053EA020040F05B81BAF1000089
S21401294018BF0120BAF1000F40F05381002940F072
S214012950A68214F001078A4600F0B58230238DF86E
S21401296067310DF267130B93BA454FF000035146DA
S2140129709DF88F20B8BF3946099312930591CDE98A
S2140129800D33B2E60C93029B069443F0100414F048
S214012990200200F0F5820A9B0121073323F007038A
S2140129A018465A6850F8083B0A90B9E7029B43F06C
S2140129B0080302932378D0E40C93029B069443F019
S2140129C010030293029B9D063FF5FAAE029BDC06BE
S2140129D000F18283029B580640F140860A9A32F93A
S2140129E0043B0A92DA171146F4E6029B78200A9A0B
S2140129F0069443F0020447F63003AE490C90ADF856
S214012A00903052F8043B169102210A92002287E781
S214012A10029B06949C0600F17183029BD80600F186
S214012A20E385029B590600F11B87029B9A0540F13C
S214012A30DB850A9B079953F8042B11700A9365E40A
S214012A400C9B652B40F33C8100220023DDE910013D
S214012A5026F0CAFA002800F0ED802F9B0135964A31
S214012A600133039930950A60072B4FF001022F932B
S214012A704A6000F3DF8408310391259B0F9A934245
S214012A8080F20D83149B039A15991D44C2E9001325
S214012A902F9B30950133072B2F9300F35384083275
S214012AA003920F9B5E1E002E7FF7BBAD102E2F9B51
S214012AB0DFF8088240F32D8544461027039ADDF897
S214012AC0108003E0103E102E40F3218501331035AF
S214012AD0072BC2E90047CDE92F3502F10802F1DDE7
S214012AE02EAA4146584623F031FC00287FF410AD4B
S214012AF031AADDE92F35E5E7089B059A9E1A002ED7
S214012B007FF778AD102E2F9BDFF8B08128DD1A46AF
S214012B1043462946B8461024039D1F4602E0103E50
S214012B20102E17DD01321031072AC5E90074CDE9F0
S214012B302F2105F10805F2DD2EAA0499584631AD7C
S214012B4023F004FC00287FF4E3AC103E102EDDE9F0
S214012B502F21E7DC13463A46039547460D46904635
S214012B600133039A3544072BC2F800805660CDE93D
S214012B702F3500F3B483AAEB07060832002E039222
S214012B807FF73DAD102E2F9BDFF8308123DD2A46DF
S214012B904FF0100A039C049D02E0103E102E18DD33
S214012BA0013310324549072BC4E9001ACDE92F320B
S214012BB004F10804F1DD2EAA2946584631AC23F06B
S214012BC0C5FB00287FF4A4AC103E102EDDE92F32A1
S214012BD0E6DC154603940133039A3544072BC2F805
S214012BE000805660CDE92F3500F3AC8108320392A0
S214012BF005E5029C012900F0588102295AA900F036
S214012C0002810D4603F00701DB08284643EA4273BA
S214012C103031D20805F8011D53EA0206F2D13029F7
S214012C200B9502D0E70700F11A835AAB0B9A029470
S214012C309F1A99E6259A002A00F3B2812F9B013547
S214012C401D490133039830950160072B4FF00101B0
S214012C502F93416000F31F87083003900F9B1343A7
S214012C6000F07887149B039915981D44C1E9000369
S214012C702F9B30950133072B2F9300F35D87083187
S214012C800C46002AC0F2E9870B9A01332260072B13
S214012C900F9A15446260CDE92F3553DD2EAA0499AB
S214012CA0584623F053FB00287FF432AC31AB309DFD
S214012CB00393B6E4B4A50400E4A50400E8A5040063
S214012CC00F9B012B40F302812F9E0135039A0B9B2C
S214012CD0013630951360072E4FF001032F9653608F
S214012CE000F37A8308321446149B0136159A1D4464
S214012CF0072EC4E90023CDE92F6500F3618308346C
S214012D0000220023DDE9100126F06EF9002840F0CC
S214012D10F2800B9B01360133072E2F9623600F9B03
S214012D2003F1FF331D446360309500F3EF820834EE
S214012D30179B01361D446360072E28ABCDE92F652E
S214012D402360ABDC04F1080303936AE4102EDFF87A
S214012D501487DDE92F2128DD1025CDE91A344346F5
S214012D60039CB8461F4602E0103E102E17DD0132C6
S214012D701031072AC4E90075CDE92F2104F10804B2
S214012D80F2DD2EAA0499584631AC23F0DFFA00286A
S214012D907FF4BEAB103E102EDDE92F21E7DC38466E
S214012DA0039447461A9B1B9C80460132039875186C
S214012DB0072A0146C0F800804660CDE92F2500F3BA
S214012DC0178308319DF88F200391FFF7EFBB2EAADA
S214012DD0049958461A9323F0B9FA00287FF498AB61
S214012DE031AB309D03931A9BFFF7F1BB2EAA0499D2
S214012DF0584623F0ABFA00287FF48AAB31AB309DFE
S214012E000393FFF7F4BB169D03F00F001B09285C24
S214012E1043EA0273120901F8010D53EA0200F3D1E5
S214012E205AAB0B9102945F1A9EE5102E2F9BDFF88A
S214012E3034861FDD1027DDE9034A02E0103E102E1E
S214012E4017DD01331035072BC4E90087CDE92F358F
S214012E5004F10804F2DD2EAA5146584631AC23F09F
S214012E6075FA00287FF454AB103E102EDDE92F359D
S214012E70E7DC03940133039A3544072BC2E9008645
S214012E80CDE92F357FF7D6AB2EAA0499584623F005
S214012E905DFA00287FF43CAB309DFFF7CBBB5AAB05
S214012EA0824607460B935FE5029C0A2B72F10001EE
S214012EB080F03C833033012702948DF867310DF2A0
S214012EC067130B9350E55AAB0B934DE5029BDF0757
S214012ED03FF5FAAE2F9E0135039A0B9B01363095CE
S214012EE01360072E4FF001032F96536000F30E82F6
S214012EF0083214461CE70F9B5F1E002F7FF718AFA2
S214012F00102FDFF8648540F3F7814FF0100A03E0D5
S214012F10103F102F40F3F08101361035072EC4E91B
S214012F20008ACDE92F6504F10804F1DD2EAA049983
S214012F30584623F00BFA00287FF4EAAA31ACDDE903
S214012F402F65E5E72EAA0499584623F0FFF90028D5
S214012F507FF4DEAA31AB309D0393FFF750BB029B93
S214012F6013F0100340F0AD80029A12F0400000F01A
S214012F7082830A991A4651F8043B9BB20A91CBE424
S214012F8014F010030A9840F0978014F0400100F006
S214012F908F801A4650F8043B01219BB20A90BFE489
S214012FA00D9C0F9B0B9A9C42A8BF1C46D318002C65
S214012FB00C930DDD039B25441A601A465C602F9B1B
S214012FC030950133072B2F9300F39C85083203922B
S214012FD00D9E002CA8BF361B002E00F30D830D9A04
S214012FE00B9B1344029A510500F18F84259E0F9A7C
S214012FF0964203DB029AD20740F11484149A03998D
S21401300015981544C1E900022F9A30950132072A16
S2140130102F9200F3C485083103910F9A961B0C9AE0
S214013020D71AB742A8BF3746002F0CDD039A3D4496
S21401303013602F9B576001333095072B2F9300F3B6
S214013040BE8508320392002FA8BFF61B002E7FF71D
S214013050E8AA102E2F9BDFF8108440F35A824446CC
S2140130601027039ADDF8108003E0103E102E40F37F
S2140130704E8201331035072BC2E90047CDE92F35C3
S21401308002F10802F1DD2EAA4146584623F05EF908
S21401309000287FF43DAA31AADDE92F35E5E7029B3A
S2140130A0DC077FF5BEAAEDE40A932378FFF755B94E
S2140130B014F4007240F0C88350F8043B01210A90D2
S2140130C02EE40A9951F8043B0A9125E420238DF851
S2140130D08F302378FFF741B90A9A52F8043B0A92D7
S2140130E0DA1711460029BFF678AB5B42029C4FF017
S2140130F02D004FF0010162EB420212E40A9B079891
S21401310053F8041BC2170A93C1E90002FFF7FEB881
S214013110DDE9100102460B4625F098FF002840F035
S21401312038860C9B23F02006412E40F0B182612B9D
S2140131304FF030038DF890300CBF78235823BAF146
S214013140630F8DF8913000F3C88341AB09900B9360
S214013150DDE91012002A80F24285DDE9101202F143
S2140131600043209121932D231A9325A89DED200B32
S21401317024F0CAFC00224FF07F5351EC100B25F0CF
S214013180CBFC002200230746884625F02DFF08B118
S21401319001232593AE4A0AF1FF3AAE4B0C990B9EDA
S2140131A0612918BF1A46CDF838B03446059205E0B5
S2140131B00022002325F018FFF8B9DA460022A64BB4
S2140131C0384641460D9425F0A7FC0F46064625F0E5
S2140131D053FF054625F036FC0B4602463946304677
S2140131E00AF1FF3B25F0E0FA059BBAF1FF3F0746DF
S2140131F05B5D884604F8013BDAD10022974B3846DE
S21401320041462646DDF838B025F016FF002840F086
S2140132108D85384641460022904B25F0E5FE10B1DB
S214013220EA0700F18385BAF1000FC0F299850AF129
S21401323001033022334406F8012BB342FBD10B9A2B
S2140132409B1A0F93029B01210C9A43F002030F3243
S2140132500293259BD2B20D93013B259373E2302353
S2140132600B9A0238029402F8013C5AAB0B901F1AD3
S214013270FFF77ABB06940C93029CFFF788BB0C936E
S214013280744B06941693029B13F0200200F08F8075
S2140132900A9B073323F0070319465A6851F8083B7F
S2140132A00A9153EA02010BD00299C80708D541F0EA
S2140132B0020102910C998DF8911030218DF8901031
S2140132C0029921F480640221FFF72ABB0C9306942D
S2140132D0FFF714BB0C935E4B06941693D3E72EAA06
S2140132E00499584623F032F800287FF411A931AB2F
S2140132F0309D0393FFF77EB901363D44C4F8008044
S214013300072E6760CDE92F657FF711AD2EAA0499C8
S214013310584623F01BF800287FF4FAA831ACDDE903
S2140133202F6505E5029B013443F40073029323786D
S214013330FFF713B8029B013443F02003029323786E
S214013340FFF70BB82EAA0499584622F0FFFF002873
S2140133507FF4DEA831AB309D0393FFF7A2BB57463F
S2140133601A469A460993062F12930A9628BF0627ED
S214013370CDE90D333A4B05970B93FFF7B6B90A9E85
S21401338041AD082200212CA801F0DCFE2CAB56F83A
S214013390042B2946584625F06DF8431C074600F0D5
S2140133A0A88420EAE0730A960593FFF7C7B9029B43
S2140133B013F010032DD00A9951F8043B0A9170E7D7
S2140133C02EAA0499584622F0C1FF00287FF4A0A82F
S2140133D031ACDDE92F6593E42EAA0499584622F014
S2140133E0B5FF00287FF494A831ACDDE92F657BE4B6
S2140133F02EAA049958461A9322F0A8FF00287FF4B3
S21401340087A831AB9DF88F20309D03931A9BFFF759
S214013410CDB8029A12F0400000F014810A991A46BB
S21401342051F8043B9BB20A913BE7584601F0F4FD84
S214013430FEF739BF2EAA0499584622F087FF0028C6
S2140134407FF466A831AB309D0393FFF716BB00BF30
S214013450B4A50400C8A50400000030400000E03F09
S214013460DCA50400F8A50400E8A504002CAC0B9B21
S214013470082200212046279301F064FEBAF1FF3F9F
S21401348000F0F88200252F460CE041A9584624F0AA
S214013490F1FF431C384400F02C84504508DC00F052
S2140134A069840746279A234652590435002AECD1E7
S2140134B0002F00F0AC81632F40F39783791C5846A8
S2140134C002F0E6F80B90002800F013840B9B09939A
S2140134D008220021204601F035FE3B4627AA0B991B
S2140134E05846009424F0ECFF874240F0EF84002316
S2140134F00B9A0A969A46D35527EAE7739DF88F20CA
S214013500CDF848A00593CDE90DAAFFF7EEB8A04681
S21401351003920133039A3544072BC2F800805660A4
S214013520CDE92F357FF77BA8FFF7B8BB04F4806899
S21401353000219E46CDF824B043460DF5B47CC04E1E
S2140135408846DDF84CB00294CDF814A007E0BEF131
S2140135500A0F72F100023AD3AE462246BC461EEB73
S21401356002004FF0050A08F101080CF1FF3740F19F
S2140135700000A6FB001424F0030101EB94014FF0B8
S214013580CC34401ABEEB000162F1000504FB01F4E5
S21401359006FB0544A1FB06510C4405F001016D082C
S2140135A0A1FB0A1A45EAC4750918640830310CF8FB
S2140135B0011C002BCBD09BF800104145C7D1FF2939
S2140135C0C5D0BEF10A0F72F1000280F0D7825AAB65
S2140135D0CDF84CB00B97DDF814A0DF1BDDF824B056
S2140135E0CDF83C80FFF7C0B90A9B079953F8042B26
S2140135F011600A93FEF78ABE102E2F9BDFF84482D5
S21401360040F3F78047461024039ADDF8108003E064
S214013610103E102E40F3EB8001331035072BC2E924
S2140136200074CDE92F3502F10802F1DD2EAA4146DC
S214013630584622F08BFE00287EF46AAF31AADDE9F7
S2140136402F35E5E7029B0A9913F4007200F0048116
S21401365051F8043B0246DBB20A9122E6029B0A9A23
S21401366099054CBF12F9043B52F8043B0A92DA174B
S2140136701146FFF7AFB8029B0A9913F4007200F0E7
S214013680D98051F8043B0246DBB20A91FFF744B9F0
S214013690BAF1FF3F00F01E81472E04D1BAF1000FA8
S2140136A008BF4FF0010A029ADDE9100142F4807466
S2140136B00029C0F265830023CDE91E011A93462E28
S2140136C000F0F781452E40F095822CAB0AF10102FD
S2140136D002215846019327AB15460F92009325AB5E
S2140136E0DDE91E7848EC107B00F002FC002245194B
S2140136F00B9000233846414625F076FC002840F022
S214013700A5832C9BAB4206D230215A1C2C921970F1
S2140137102C9B9D42F9D80B9A472EA3EB02030F93DD
S21401372040F09183259B53450D9302DC033380F2D1
S21401373083810C9B023B0C930D9B013B00219DF862
S214013740302025930991002B8DF8A020C0F2E98244
S2140137502B22092B8DF8A12040F3BD820DF1B70471
S214013760DFF8DCC02546ACFB03211E462846013D9A
S214013770C908632E01EB8102A3EB42020B4602F15C
S214013780300200F8012CEEDC303305F8013C831ED4
S214013790A34280F094830DF1A10213F8011BA3420A
S2140137A002F8011FF9D15AAB181AA0F1AD0317930D
S2140137B00F9B179A012B03EB020740F3D682149B4B
S2140137C01F44029B27EAE77223F48063059243F4C1
S2140137D08073029300231293CDE90D331A9B002BBD
S2140137E040F087809A469DF88F20FEF77EBFB84648
S2140137F003920133039A3544072BC2F800805660C2
S214013800CDE92F3559DC08320392FFF7E8BB9DF866
S2140138108F20BA460A96059712970997CDE90D7734
S214013820FEF763BF0C9AD71A0F9B9E1BB742A8BF21
S214013830374608E451F8043B0A91FFF76DB800BF1C
S214013840CDCCCCCCE8A5040050F8043B0A460121B7
S214013850DBB20A90FFF764B851F8043B0A9120E501
S2140138600A9B079953F8042B11800A93FEF74EBD65
S2140138700B980A9622F0C0FC7323DDF834A00746A5
S2140138809DF88F200C9320EAE073CDF848A00593AD
S214013890CDF838A0CDF824A0FEF727BF2EAA0499AC
S2140138A0584622F053FD00283EF41BAEFEF736BE06
S2140138B0886D01F01DFDFEF7E5BD2EAA0499584658
S2140138C022F044FD00287EF423AE31AB309D0393F5
S2140138D0FFF785BB4FF0060AE5E60AF101015846F7
S2140138E001F0D6FE0B90002800F003820B9B099393
S2140138F02EE42D224FF0000A8DF88F20FEF7F8BE39
S2140139002D228DF88F20FEF7DDBE129A002A02DCEA
S2140139100E9A002A3CDD2946DFF8D0851024DDF812
S21401392048A0039A1D46BAF1000F37D00AF1FF3AB4
S214013930189B19981944C2E900032F983091013059
S21401394007282F9052DC0832139B0C9E1878771BA1
S2140139508742A8BF0746002F0ADD2F983944013059
S214013960309107282F90C2E9005758DC08321878A2
S214013970002FACBFC61B0646002E16DC0E9B054468
S214013980002BD0DCBAF1000FCDDC2B460D4603929E
S2140139900C9A934228BF1346FFF728BB139B013BA3
S2140139A013930E9B013B0E93C2E7102E2F9840F304
S2140139B0518203954746049D02E0103E102E20DDFD
S2140139C0013010310728C2E90084CDE92F0102F148
S2140139D00802F2DD2EAA2946584622F0B7FC002836
S2140139E07EF496AD31AADDE92F01E6E72EAA049909
S2140139F0584622F0ABFC00287EF48AAD309931AAF5
S214013A00A2E7039D01303144176007285660CDE9CF
S214013A102F0100F38480139B08321878AEE72EAA94
S214013A200499584622F092FC00287EF471AD139B4F
S214013A3031AA309918789BE70D9B0F9A9342C0F2F2
S214013A40F680029BDE0740F1C4810D9B149A9F18F5
S214013A50029B5D0503D50D9B002B00F3C38127EA6E
S214013A60E773059367230C9300230294099312933B
S214013A700E93B3E6002327AA58460094194624F06D
S214013A801FFD451C074600F034810B9B2793002F32
S214013A903FF4BDAE0FE52EAA0499584622F056FC17
S214013AA000287EF435AD31AB259A309D0393FFF7A0
S214013AB0D5B82CAB524603215846019327ABDDE916
S214013AC01E78009325AB48EC107B00F011FA0378C2
S214013AD00B90302B08D1002200233846414625F0B2
S214013AE083FA002800F0EE81259D0022002355442C
S214013AF0DDE91E0125F078FA002840F002810B9BD3
S214013B001D44FEE52EAA0499584622F01FFC002803
S214013B107EF4FEAC31AB309D0393FFF759BA2EAA63
S214013B200499584622F012FC00287EF4F1AC139B4F
S214013B3031AA3099187821E72EAA0499584622F01E
S214013B4005FC00287EF4E4AC259A31ACDDE92F357E
S214013B50FFF797B8029BD8077EF563AD149B039ACF
S214013B6015991D44C2E900132F9B30950133072B8D
S214013B702F93E1DC08321446FFF786B80B93189BA7
S214013B801999FF1A1A46384623F00CFF9BF80120B4
S214013B900B9B0AB10BF1010B4FF00008DCE42EAAD7
S214013BA0049958460B9322F0D1FB00287EF4B0AC62
S214013BB031AB259E309D03930B9BFFF72EBA2EAAA1
S214013BC00499584622F0C2FB00287EF4A1AC0F9B54
S214013BD0259E309D9E1B31AB0393FFF734BA00231D
S214013BE0CDE920121A93FFF7C0BA0023099341AB1F
S214013BF00B936DE42CAB524602215846019327AB3A
S214013C009DED1E0B009325AB00F072F9029B0B9005
S214013C10DB071DD500220023DDE91E0125F0E4F9AE
S214013C20002840F02A810B9B03EB0A0569E50F9BF0
S214013C30149A9F180D9B002B40F3FC8067230C936E
S214013C40029B5A0500F1D08027EAE77305930BE73C
S214013C502C9B0B9A9B1A0F9364E556421032DFF8A1
S214013C608C822BDA102702E0103E102E26DD01335F
S214013C701035072BC4E90087CDE92F3504F1080478
S214013C80F2DD2EAA0499584622F060FB00287EF445
S214013C903FAC31ACDDE92F35E6E7049B5B6EDF0711
S214013CA007D4049B9B899E0503D4049B986D01F061
S214013CB01FFB4FF0FF330793FEF73BBC0133354440
S214013CC0C4F80080072B6660CDE92F3500F3C88065
S214013CD00834FEF7D9BF002978D130228DF8A2200A
S214013CE00DF1A302303302F8013B28ABD31A179328
S214013CF05EE5049AB2F90C3043F040039381FEF777
S214013D0010BC0F95259A029B002A0D9203F0010321
S214013D1040F3B68053EA0A035DD166230D9F0C93E8
S214013D208EE70D9B2D22C3F1010312E50D9B2C930B
S214013D30059B16F8012CD97B3346914209D13020D8
S214013D4003F8010C2C9B5A1E2C9213F8012C91425D
S214013D50F6D0392A00F0A6800132D2B203F8012C3F
S214013D600B9BF31A0F93FFF76DBA029BDB077FF5E8
S214013D7028AD24E55746002F3FF449ADFFF79BBB1E
S214013D80DDE9101202F100431E911F932D231A93B1
S214013D9095E4119B002B5FDB9DF88F20029B514918
S214013DA023F0800302930023184609934E4BFEF737
S214013DB091BC73235746CDF814A082469DF88F20F8
S214013DC00A960C9312900E90FEF78FBC0DF1A2028C
S214013DD088E70D9F3CE6149BD31803EB0A0766237E
S214013DE00C932DE767230C9313990B78FF2B74D054
S214013DF000250D9A284603E001300131FF2B08D03B
S214013E00934206DAD21A4B78002BF5D10B7801359E
S214013E10F4E70E900D92CDE91251129A0E9B029480
S214013E201344189A02FB03770023099327EAE773E2
S214013E300593D3E4C3F101031F4467230C9327EAD8
S214013E40E773059310E6462E3FF45CAF259B0D9372
S214013E50013B73E4254FD5E52D228DF88F209DE794
S214013E602EAA0499584622F071FA00287EF450AB27
S214013E7031ACDDE92F35FEF707BFCDF83CA051E4A4
S214013E8053EA0A0304D10127662305970C93EBE551
S214013E90149B013303EB0A0766230C9327EAE773A7
S214013EA00593E1E5059A927A58E70A9A63780C46F3
S214013EB052F8041B41EAE17A0A92FEF74EBA02234F
S214013EC0179375E4CAF1010525950EE6049A9389C0
S214013ED043F040039381FEF71BBB002312930E931E
S214013EE09BE700BFACA50400B0A50400E8A504004C
S214013EF02DE9F04F9DB0CDE90001816B269D099219
S214013F00079359EC108B8DED020B49B1C26B01235F
S214013F10044693404A608B6023F004FF0023A363AA
S214013F20B9F10007C0F2AC8000232B60764BBB438F
S214013F3000F0AF80002200239DED027B51EC170BB1
S214013F408DED047B25F050F8064668B10123079AEB
S214013F501360279B13B16D4B279A1360DFF8B4816A
S214013F6040461DB0BDE8F08FDDE904AB1AAA1BA9D7
S214013F7000984BEC10AB24F005FA0A903D0D40F08A
S214013F809F80DDE91A65354405F23243202B40F364
S214013F903B82C3F140039F4005F2124328FA03F027
S214013FA0384324F03FFD013D0123A1F1F87115933B
S214013FB00022574B24F0F8FB4DA3D3E9002324F04D
S214013FC0ABFD4DA3D3E9002324F0F0FB80468946E0
S214013FD0284624F037FD4AA3D3E9002324F09CFDAC
S214013FE002460B464046494624F0E0FB8046894699
S214013FF025F042F80022834600234046494624F035
S214014000FDFF002840F0F381BBF1160F00F29D8101
S214014010DFF8048108EBCB08DDE90401D8E90023C9
S21401402024F0ECFF00287DD0761B00230BF1FF3B2C
S214014030B6F1010A149300F18F8100230B93BBF1B3
S214014040000F76DA0B9BA3EB0B030B93CBF100036C
S214014050CDE90EB3019B4FF0000B092B71D8052B50
S21401406040F3D781043B00260193019B023B032BBF
S21401407000F26C86DFE813F00E040B040204E7037B
S214014080012327F000472B601F4B0397BB437FF4A8
S21401409051AFC7F3130742F20F73079A57EA08079F
S2140140A0136019D0279BDFF87480002B3FF458AFBC
S2140140B008F10303279A404613601DB0BDE8F08F50
S2140140C0CBF313031596A5F2FF351A9E43F07F51E5
S2140140D0504641F440116BE7279BDFF84480002BE4
S2140140E03FF43EAF08F10803E4E700BFAFF30080FA
S2140140F061436F63A787D23FB3C8608B288AC63FE8
S214014100FB799F501344D33F0000F07FE5A50400E0
S2140141100000F83FE4A5040080A704007CA6040084
S21401412070A60400761BB6F1010A00F1F78414901C
S2140141300B900023DA44CDF838B00F93019B092B7E
S2140141408DD9002301264FF0FF32019308920C9679
S2140141500993009B0021D963089B1893009823F0CC
S214014160BBFD0690002800F0FA85089B069A0E2BE8
S2140141708CBF002606F00106009B9A63002E00F015
S21401418018810E9A002A40F34681DFF8048302F074
S2140141900F03D10508EBC3034FEA2218D3E90067E2
S2140141A040F13183B44B08F00F080325D3E9082307
S2140141B0DDE9040124F0DAFDCDE91001B8F1000FC4
S2140141C012D0DFF8B49218F0010F08D03046394605
S2140141D00135D9E9002324F09FFC06460F465FEA25
S2140141E0680809F10809EED132463B46DDE91001BF
S2140141F024F0BCFDCDE91201149B53B100229F4B64
S214014200DDE912673046394624F0F8FE002840F012
S2140142105884284624F016FCDDE9122324F07CFCA1
S214014220974B002224F0C2FA089B0646A1F150776C
S214014230002B00F0A5800E9B1093089B1C460C9B40
S214014240002B00F02781DFF8488200208D4908EB1B
S214014250C408069D58E9022324F088FD32463B46F1
S21401426024F0A2FADDE91289CDE916014946404655
S21401427024F002FF074624F0E5FB024630370B46E2
S2140142804046494624F090FA05F8017B06460F465B
S21401429002460B46DDE9160124F0CEFE002840F06A
S2140142A0D084CDF848B04FF00008CDF864A0A14600
S2140142B0DDE916AB2BE008F10108C84580F2DB8486
S2140142C0504659460022704B24F026FC00226E4BC5
S2140142D082468B463046394624F01EFC0F4606467B
S2140142E024F0CAFE044624F0ADFB02460B463034E9
S2140142F03046394624F058FA52465B4605F8014BDB
S21401430006460F4624F07AFE002840F09A8432468C
S2140143103B460020594924F047FA52465B4624F0B2
S2140143206DFE0028C7D0069902E0A94200F07E84FF
S2140143302A4615F8013D392BF7D001330691DBB239
S2140143402B70DDF8188006927DE1761B0123B6F10D
S214014350010A14937FF571AEC6F101034FF0000A0E
S2140143600B936CE6284624F06DFBDDE9122324F05E
S214014370D3FB0022424B24F019FA0646A1F15077EE
S2140143800022424BDDE9120124F00EFA32463B468A
S21401439004460D4624F050FE002840F0D383204604
S2140143A02946324607F1004324F028FE002840F053
S2140143B0E9810E9A1B9B0E2A02DC002B80F2C28139
S2140143C00C9A002A00F0CF80019A012A40F3AD83AF
S2140143D0089B0F9A5F1EBA42C0F2DE82002BA2EB48
S2140143E0070780F277840B9B089A9D1ADFE25846EE
S2140143F024F028FB42464B4624F0F6FD00287FF4C5
S21401440003AE0BF1FF3BFFE5C3F1200308FA03F00F
S214014410C7E5012629E600F0B9820E9BDFF8708019
S2140144205F4207F00F0308EBC303DDE90401D3E99C
S214014430002324F071FB3F11CDE9100100F07884D0
S214014440DFF8348000230225CDE91201FA0705D5ED
S2140144500135D8E9002324F05FFB33467F1008F1CD
S2140144600808F3D1CDE91201002B7FF4C5AE9DED0E
S214014470107B8DED127BBFE658A704000000F03FCD
S21401448000001C400000E03F0000244000001440F3
S21401449080A70400DFF8008332463B46DDF818901B
S2140144A008EBC40151E9020124F036FBDDE912678D
S2140144B0CDE90C013946304624F0DEFD054624F0F0
S2140144C0C1FA02460B4630463946303524F06CF9BF
S2140144D0012C06460F4609F8015B00F00F842546BD
S2140144E0069BCDF848801D44A8460022A74B3046BF
S2140144F0394624F011FB0D46044624F0BDFD07465F
S21401450024F0A0FA02460B4630372046294624F00E
S2140145104BF909F8017BC84506460F46E5D14546E5
S214014520DDF8488000229A4BDDE90C0124F03EF9C3
S21401453032463B4624F062FD00287FF4F4AE0020AC
S2140145409349DDE90C2324F02FF932463B4624F04B
S21401455073FD002840F0BD811B9B002B03DB0E9BE7
S2140145600E2B40F3F18000230F9F0B9D1E460C93EC
S214014570002D0CDDBAF1000F09DD55452B460B9ACF
S214014580A8BF5346D21AED1AAAEB030A0B920F9B49
S21401459053B10C9B13B1002F40F01C820A990F9A5D
S2140145A0009823F04FFD0A900121009823F06AFC41
S2140145B00746BBF1000F40F01181019B012B40F330
S2140145C028810123534413F01F0308D0C3F12002AE
S2140145D0042A00F3628108D0C3F13C0300E01C23E7
S2140145E00B9A1D449A441A440B920B9B002B05DD33
S2140145F00A991A46009823F07FFD0A90BAF1000F37
S21401460005DD39465246009823F076FD0746149B91
S214014610002B40F0C380089B002B28DC019B022B5B
S21401462025DD089B002B00F03B81099BDDF81880F7
S214014630DB4310933946009823F074FB1EB13146D4
S214014640009823F06FFB0A99009823F06BFB002279
S214014650109B069901330A70079A1360279B002B5B
S2140146603FF47EAC404619601DB0BDE8F08F0C9B50
S214014670002B00F03681002D00F3C781BBF1000F3F
S21401468040F0E382B246069D089C05F1FF3B029B83
S2140146905C4403F00103DDF800B009940A9C0B9317
S2140146A03946204623F066FA31468146204623F0F5
S2140146B097FD524639468046584623F0B3FDC268F8
S2140146C0014609F13003002A40F0A68104902046F5
S2140146D0089323F085FD04990490584623F022FBA5
S2140146E0019B049A52EA0301089B40F0C6810B9A8B
S2140146F0002A00F0FA82B8F1000FC0F2F382099A9C
S214014700A846AA4208F8013B00F0D78221460023BA
S2140147100A22584623F010FB5645044631464FF010
S21401472000034FF00A02584600F0A18123F004FB73
S2140147305146064600230A22584623F0FDFA45460E
S2140147408246ADE7DFF850800E9B08EBC308099B55
S214014750002BD8E900AB80F2FA81089B002B00F30E
S214014760F681089B73B900220A4B5046594624F03D
S214014770D3F902460B46DDE9040124F049FC002882
S21401478000F0E08100273E464FE700BF00002440CE
S2140147900000E03F0000144080A7040039460A9854
S2140147A023F01EFD0028BFF636AF0E9B0A220A999B
S2140147B0013B00980E93002323F0BEFA0C9B0A904F
S2140147C0002B40F09D82019B022B40F38880189BB2
S2140147D0002B00F38480189B089322E701465A4673
S2140147E0009823F02FFC019B0746012B40F3E58040
S2140147F04FF0000B3B6907EB8303186923F0EEFAD1
S214014800C0F12003DEE69DED047B02258DED107BD5
S214014810D4E4029B002B7FF4D4AEDDE90212C2F38E
S2140148201303002B7FF4CDAEB94B13402BB10B9B7A
S2140148300AF1010A01330B930123BBF1000F40F08B
S2140148404F829B46BDE601230C93099B0E9A1344A7
S21401485018930133012B1D460893B8BF0125172D68
S21401486040F38482012204235B001146013203F1E6
S2140148701400A842F8D9009BD9636FE401230C9376
S214014880099D002D40F3188118950895E7E7002348
S2140148900C93DAE700230C93F2E7C3F11C039FE6BF
S2140148A039460522009823F047FA07460A98394602
S2140148B023F096FC00287FF7B8AEDDF81880069B3B
S2140148C0013306930E9B01331093312388F8003091
S2140148D0B0E62A4615F8013D302BFAD031E5189B93
S2140148E00893DDF818800125DDF820900A9CDDF894
S2140148F000A007E0214600230A22504623F01CFAB6
S214014900013504463946204623F034F94D4500F179
S214014910300B08F801BBEDDB089B00250A94002B41
S214014920CCBF98464FF00108069B98440A9901228D
S214014930009823F0E1FB39460A9023F051FC002849
S21401494040F35E81069A02E0424500F0688118F85D
S214014950013CC14608F1FF38392BF5D0013388F800
S21401496000300E9B10933946009823F0DBF9002E99
S21401497000F041812DB1B54203D02946009823F0BD
S214014980D1F9DDF81880CDF8189058E69DED047B36
S21401499002258DED127B2FE40F9B0B9AFB1A0F97C6
S2140149A0154600279B44089B1A449A440B92012102
S2140149B0009823F067FA0646DAE5029B002B7FF49F
S2140149C017AFDDE90201C1F313030A46002B3FF4DA
S2140149D02BAF0DE7009C31463A46204623F032FBCA
S2140149E0DDF82880064620464246314623F078FA0E
S2140149F041468046204623F095F90F9BCDF8288046
S214014A00DB1B0F933FF4D0ADC8E531462A4600982C
S214014A1023F072FB064631E600989B460A9423F083
S214014A2081F9B8F1000F08DB029B03F00102019B3C
S214014A3048EA030852EA080230D10A99012200988E
S214014A4023F05AFB39460A9023F0CAFB002840F3AC
S214014A506881BBF1390F00F0358109F1310BA946A8
S214014A600E9B3546564609F801BB10937BE723F0AB
S214014A7063F945460646824612E6B8F1000FC0F2D3
S214014A807A81019948EA01080B9951EA080800F071
S214014A907281002A7FF733AE9B460A94BBF1390F29
S214014AA000F01081A9460BF101033546564609F878
S214014AB0013B0E9B109356E70123CDE90833FFF720
S214014AC048BB089B002B3FF44DAC189B002B7FF78F
S214014AD070AC0E9A304639461C46013A0D4B109280
S214014AE0002224F019F806460F46681CCDE9126725
S214014AF023F0A8FF32463B4624F00EF80022064B70
S214014B0023F054FE0646A1F15077FFF798BB00BF8D
S214014B100000F07F0000244000001C40C6F10103A5
S214014B20824614900B93FFF704BB159A002A00F0F7
S214014B30848003F233430B9A9A440F9F15461A4416
S214014B400B9234E70027DDF818803E46B7E6DDE92C
S214014B50046752465B463046394624F007F9069DFF
S214014B6024F08AFA804623F06DFF52465B4623F016
S214014B70D3FF0B4602463946304623F015FE08F1B0
S214014B80300305F8013B089B012B7BD04FF0010950
S214014B90089F2E461CE052465B462046294624F0D6
S214014BA0E5F809F1010924F067FA804623F04AFF87
S214014BB052465B4623F0B0FF0B4602462946204686
S214014BC023F0F2FD08F13003B94506F8013B58D051
S214014BD00022724B23F0A0FF0022002304460D465C
S214014BE024F002FA0028D6D035460E9BDDF8188050
S214014BF01093069527E5DDF81880CDF8189022E584
S214014C0003D11BF0010F7FF49DAE18F8013CC1469D
S214014C1008F1FF38302BF8D00E9B1093A3E60E9BBD
S214014C20069A01331093312313709CE6109B06916C
S214014C30013310933123FFF783BB1A9BC3F136036D
S214014C4079E7DDF818800695FDE47168009823F091
S214014C5043F80546002872D0336906F10C010C3082
S214014C6002339A0021F052FA29460122009823F0D5
S214014C7043FA824607E5DDF848B0DDF864A0FFF7A1
S214014C8098BB354602460B4623F090FD52465B46DE
S214014C9006460F4624F0D0F950B952465B463046D8
S214014CA0394624F0A1F900289FD018F0010F9CD0B6
S214014CB00E9B06991093FFF73BBB35469B4656461F
S214014CC00A9433E6A84639233546069A564608F826
S214014CD0013B3CE60B9A9A4415461A440B9266E64B
S214014CE09B4687E59B460A94B9E6392B9B460A9470
S214014CF0E8D0B8F1000F3FF7B0AEB0E64D4611E48C
S214014D00314600230A22009823F016F8189B06461F
S214014D10002B03DC019B022B3FF75DAD189B08932C
S214014D20A9E47FF49CAE1BF0010F7FF492AE96E6E9
S214014D309DED107B02258DED127BFFF75DBA0246D5
S214014D40174B40F2EF21174823F01CFC009B00256F
S214014D5018462946DD6322F0BFFF069088B9104B3E
S214014D60002240F2AF110F4823F00CFC0021009BFB
S214014D70D963FFF7F3B9002A9B460A947FF76FAE13
S214014D805BE6009B069A09959A634FF0FF33012272
S214014D9018930C920893FFF70CBB00BF0000244049
S214014DA080A6040094A604000348044B834202D064
S214014DB0034B03B118477047EC140020EC14002095
S214014DC000000000064B0749C91A891048BF013187
S214014DD0491003D0044B0BB101481847704700BF78
S214014DE0EC140020EC1400200000000010B5064C66
S214014DF0237843B9FFF7D8FF044B13B10448AFF348
S214014E0000800123237010BD9C30002000000000AC
S214014E108CA9040008B5054B1BB105490548AFF33D
S214014E200080BDE80840FFF7CDBF00BF00000000CE
S214014E30C01700208CA90400A3F5803A704700BF74
S214014E40174B002B08BF134B9D46FFF7F5FF0021BC
S214014E508B460F461348144A121A00F073F90E4B8C
S214014E60002B00D098470D4B002B00D09847002010
S214014E70002104000D000D48002802D00C4800F067
S214014E80A3FA00F007FA2000290024F021F900F027
S214014E9011F800BF0000080000000000000000003C
S214014EA0C00A0020EC140020CC320020C9530100B7
S214014EB0915E010008B50021044600F025FA034B77
S214014EC01B6803B19847204624F053FC10190020B4
S214014ED0024A0349034800F0C9B800BFE80F0020A2
S214014EE01D5C0100C00A00200C4B4168994210B5B8
S214014EF0044601D000F092FEA168094B994202D007
S214014F00204600F08BFEE168064B994204D020460D
S214014F10BDE8104000F082BE10BD00BFD8170020CB
S214014F2040180020A81800202DE9F843314A002532
S214014F30314C04233149DFF8D89004F15C00DFF8E6
S214014F40D4802F4F2F4E11602946082225606566B2
S214014F50C4E90335C4E90155C4E9055500F0F2F882
S214014F6004F15800E662C4E90749C4E9098700F07C
S214014F70B9F9254B2946082204F1C4006367256761
S214014F80C4F8CC50C4F88050C4E91A55C4E91E557B
S214014F9000F0D8F804F1680304F1C000C4F88430C6
S214014FA0C4E92298C4E9247600F09CF9174B2946F7
S214014FB004F596700822C4F8DC30C4F8D850C4F85A
S214014FC03451C4F8E850C4E93455C4E9385500F002
S214014FD0B9F804F1D00304F59470C4F8F090C4F85D
S214014FE0FC60C4F8EC30C4E93D87BDE8F84300F046
S214014FF079B900BF10190020D8170020D14E010042
S214015000155101003D510100090001001200020086
S214015010B1500100D550010010B504460A4800F011
S21401502065F9636B23B9094B094A1B68626323B1AF
S2140150300548BDE8104000F05BB9FFF775FF024870
S214015040BDE8104000F054B92019002010190020C6
S214015050E94E0100014800F049B900BF20190020BF
S214015060014800F045B900BF201900202DE9F8439A
S2140150704FF00009074688461646D6E90154013D19
S21401508010D4A389013D012B08D9B4F90E3021466D
S2140150903846013302D0C04749EA00096B1C04F1C7
S2140150A06804EED13668002EE7D14846BDE8F8839D
S2140150B010B50C46B1F90E1000F0C0F8002803DB5D
S2140150C0236D0344236510BDA38923F48053A38174
S2140150D010BD00BF2DE9F0410C46B1F90C101F467A
S2140150E00546CB0516460BD421F480513B46324685
S2140150F02846A181B4F90E10BDE8F04100F0B4B81D
S214015100B4F90E100223002200F082F8B4F90C1054
S214015110EAE700BF10B50C46B1F90E1000F078F8BA
S214015120421CB4F90C3004D043F480532065A381AB
S21401513010BD23F48053A38110BD00BFB1F90E103A
S21401514000F054B870B586074AD0541E002A41D0E4
S214015150CAB2034601E0013C3CD303F8012B9D078C
S214015160F9D1032C2FD9CDB20F2C05EB052505EB74
S214015170054538D9A4F1100C03F1100E1A462CF08F
S2140151800F064FEA1C1CB6441560103242F80C5C40
S21401519042F8085C42F8045C7245F5D10CF1010254
S2140151A014F00C0F04F00F0C03EB021213D0ACF149
S2140151B0040323F003030433134442F8045B9A42C6
S2140151C0FBD10CF003042CB1C9B21C4403F8011B3B
S2140151D09C42FBD170BD64461346002CF4D1F9E71E
S2140151E003461446BDE71A46A446E0E738B5002252
S2140151F0064D044608462A6024F0B9FA431C00D03E
S21401520038BD2B68002BFBD0236038BD1419002055
S21401521038B50C4684461146074D1A4600232046EB
S21401522064462B6024F0B2FA431C00D038BD2B68CC
S214015230002BFBD0236038BD1419002038B50C466E
S21401524084461146074D1A460023204664462B60C5
S21401525024F09EFA431C00D038BD2B68002BFBD0EF
S214015260236038BD1419002038B50C468446114613
S214015270074D1A460023204664462B6024F096FA12
S214015280431C00D038BD2B68002BFBD0236038BDF3
S214015290141900200F4B70B50F4DAB42A3EB05065A
S2140152A007D0B6100024013455F8043B9847A642AF
S2140152B0F9D80A4D2FF044FD094B5E1BAB424FEA6D
S2140152C0A60606D00024013455F8043B9847A642AA
S2140152D0F9D870BDE0140020E0140020E01400208E
S2140152E0E8140020704700BF704700BF704700BF3A
S2140152F0704700BF024B13B1024800F065B8704713
S21401530000000000915E01002D4B2DE9F04F834611
S21401531083B0DFF8B0800F461868CDF804B0FFF709
S214015320E5FFD8F8006096B14FF001094FF0000A8A
S2140153307468651E0BD4013406EB840477B1D4F887
S2140153400031BB420AD0013D043C6B1CF6D11C4B1C
S214015350186803B0BDE8F04FFFF7CABF736822684C
S214015360013BAB420CBF7560C4F800A0002AEAD02E
S21401537009FA05F3D6F88811D6F804B00B420BD11A
S214015380904773685B4512D1D8F80030B342DAD043
S2140153901E46002ECCD1DAE7D6F88C110B420BD183
S2140153A0D4F880100198904773685B45ECD0D8F824
S2140153B00060002EBCD1CAE7D4F880009047E0E731
S2140153C0F80F002024190020002301461A4618462B
S2140153D000F080BD2DE9F8430646DFF8AC800820D2
S2140153E0894600F069FD0546304600F00BFCD8F80A
S2140153F008305F6827F00307A7F11104A4EB09043E
S2140154002C44B4FBF5F4013C05FB04F4A54208DC8E
S2140154100021304600F02AFDD8F808303B44984277
S21401542005D0304600F0F4FB0020BDE8F883614269
S214015430304600F01BFD01300FD03F1B104AD8F854
S2140154400830304647F001075F6013681B1B136086
S21401545000F0DEFB0120BDE8F8830021304600F0B5
S21401546005FDD8F80820831A0F2BDADD43F0010377
S21401547003495360034B1B68C01A0860D1E700BF9D
S21401548028190020FC0F0020E00B002000297DD009
S214015490F8B50C46064600F0B5FB7A4F54F8042CD6
S2140154A0A4F10805B86822F0010105EB010CDCF84F
S2140154B00430604523F0030300F08880D207CCF85F
S2140154C0043032D454F8082C07F10800AD1A114400
S2140154D0AA6882426BD00CEB0304D4F804E0EC68B3
S2140154E01EF0010FD460A26000F0898041F0010334
S2140154F06B60CCF80010B1F5007F24D2CB080122F6
S214015500490901338A4079680A4357F833107A60AB
S21401551007EBC302083AC5E9021247F83350CD60DB
S2140155203046BDE8F84000F073BB0CEB030252684E
S214015530D2072CD541F00103B1F5007F44F8043CB5
S214015540CCF80010DAD3B1F5206F4FEA512358D2C8
S2140155508B0903F1390003F13802C300F818FB5830
S2140155600838984203D166E09B68984204D05A688E
S21401557022F003028A42F7D8D868C5E9023085606E
S2140155803046DD60BDE8F84000F042BB7047194484
S21401559007F10800DCF80830834243D0DCF80C2021
S2140155A0DA60936041F001036B606950A3E70CEB8E
S2140155B003025268D0075FD40B44DCE90212CA60CA
S2140155C0916043F001026A60EB50A9E70B44D107F2
S2140155D007D454F8082CAD1A1344D5E90212CA6050
S2140155E0916043F001026A60274ABD6012689A42E0
S2140155F096D8264B30461968FFF7ECFE90E719441B
S214015600C8E7142B08D9542B1DD80B0B03F16F00D8
S21401561003F16E02C300A1E703F15C0003F15B0234
S214015620C3009BE741F001033D617D61A860E8602E
S2140156306B60695074E70121921001FA02F27968F1
S2140156400A437A6099E7B3F5AA7F06D8CB0B03F134
S214015650780003F17702C30080E740F25452934288
S21401566006D88B0C03F17D0003F17C02C30075E7BD
S2140156704FF47E737E2271E741F001036B60CCF834
S21401568000104DE7E00B0020001000205819002004
S21401569001F10B03162B2DE9F04F074685B023D8F1
S2140156A0102900F2BA8000F0ADFA10251823022165
S2140156B0BE4E33445C68A3F10802944200F0368182
S2140156C06368384623F00303D4E9021223440834FE
S2140156D0CA6091605A6842F001025A6000F098FA76
S2140156E0204605B0BDE8F08F002B23F00705C0F279
S2140156F09480A94200F2918000F084FAB5F5FC7F0F
S214015700C0F072816B0A00F08C80042B00F23981A4
S214015710AB0903F1390103F1380CCB00A34E334436
S214015720A3F108005C68A04206D10CE0002A80F2D2
S214015730EC80E468A04206D0636823F003035A1B9A
S2140157400F2AF3DD6146DFF878E23469744500F02C
S214015750C980626822F00302531B0F2B00F35281AB
S214015760002BC6E904EE80F24381B2F5007F80F09B
S214015770E38053094FEAD20C01220CF1010C9A4046
S214015780736856F83C001A4306EBCC03083B72607C
S214015790C4E9020346F83C40C4608B1001209840DF
S2140157A0904244D8104205D121F003014000043153
S2140157B01042FBD006EBC10988464C46D4F80CC013
S2140157C0644508D1E9E0002B80F2FE80DCF80CC0CD
S2140157D0644500F0E280DCF8042022F00302531B4B
S2140157E00F2BF0DD0CEB0501384645F00105DCE931
S2140157F00274CCF80450FC60A76043F00104C6E9CB
S21401580004114C600CF10804C1F808E0C1F80CE082
S2140158104CF8023000F0FCF962E70C233B600024F0
S2140158205EE74FF4007340214FF03F0C76E7B46813
S214015830636823F00309A9EB05030F2B01DDA945D6
S21401584052D25B4B0820DFF87CB11B6803F11008CD
S21401585000F032FBDBF8003004EB0902A8440190AB
S214015860013305D008F1FF384342804403EA0808B3
S21401587041463846029200F0F9FAB0F1FF3F8246FF
S214015880029A00F0DA80824200F2D580494B0199F3
S214015890186801F1FF3140448446186040F0F880F2
S2140158A01AEA010F40F0F480C844D6F808A048F080
S2140158B00102CAF80420404B54461968814238BF99
S2140158C018603E4B1968814238BF186022F0030801
S2140158D0A8EB05030F2B01DDA84505D2384600F0DD
S2140158E097F99CE7726858E7621945F0010543F09D
S2140158F00103083444F8045C3846B260536000F093
S21401590087F9204605B0BDE8F08FD4E9021223449A
S2140159100834CA60384691605A6842F001025A60FB
S21401592000F076F9204605B0BDE8F08FDC68A342AA
S2140159307FF4C6AE023106E7B2F5206F4FEA522376
S21401594073D3142B00F2058103F15C005B33C000B6
S21401595006EB000C3058ACF1080C844503D1E0E0AE
S2140159608068844504D0436823F003039342F7D844
S214015970D0F80CC07268C4E9020CCCF80840C460C8
S2140159800BE7142B5CD9542B00F2EB802B0B03F1A5
S2140159906F0103F16E0CCB00C0E608F10108083474
S2140159A018F0030F7FF40AAF55E000BFE00B0020AC
S2140159B058190020281900205419002050190020D9
S2140159C0E80B0020FC0F002062446446DCF80C1053
S2140159D03846536843F00103536054F8083FD960D2
S2140159E08B6000F015F97BE6E90805F108035FE630
S2140159F0224438460834536843F00103536000F0EC
S214015A0007F96DE6611945F001053846656043F012
S214015A100105C6E90411C1F808E0C1F80CE04D60C3
S214015A20A350083400F0F4F85AE6930903F139005C
S214015A303833C0008CE7B44222D0B468626845E7C8
S214015A4003F15C0103F15B0CCB0067E659F80839FA
S214015A504B4540F0D28011F0030F01F1FF31F5D133
S214015A60736823EA000373604000421E9A4203D320
S214015A70DDE6400008F104081842FAD0414699E6EE
S214015A805F4B01991868013908EB000CC3F800C098
S214015A90DBF8000001306ED0AAEB020262441A6005
S214015AA01AF00702CDE9022342D0C2F10802019B97
S214015AB0384692441344D04408EA010CA3EB0C0286
S214015AC002EA010B594600F0D1F9421C039B6DD046
S214015AD0A0EB0A0000EB0B08186848F00102B4427C
S214015AE0C6F808A05844CAF8042018603FF4E3AE8C
S214015AF0B9F10F0F42D96168A9F10C024FF0050CFC
S214015B0022F0070201F0010111430F2A616004EB44
S214015B100201C1F804C0C1F808C04FD8DAF8042061
S214015B20C9E69B1001229A4073681A43726022E705
S214015B300AEB0802019B38460A409A1A02EA010B50
S214015B40594600F093F9431C039BC1D1DDF808B018
S214015B50C2E7542B16D8130B03F16F006E33C00047
S214015B60F6E6B3F5AA7F16D8EB0B03F1780103F13D
S214015B70770CCB00D2E5CBF800A091E70123CAF859
S214015B800430ABE6B3F5AA7F23D8D30B03F1780034
S214015B907733C000DCE640F25452934223D8AB0C74
S214015BA003F17D0103F17C0CCB00B7E5029A4FF0BF
S214015BB0000B083A9044A8EB0A088DE7384604F132
S214015BC008010193FFF762FC019BD6F808A018684C
S214015BD0A4E740F2545083420BD8930C03F17D00A6
S214015BE07C33C000B4E64FF47E737F214FF07E0C09
S214015BF094E54FF47E707E23AAE6736834E700BF0F
S214015C00281900200148FFF771BB00BF18190020B2
S214015C100148FFF76DBB00BF1819002070B50029B9
S214015C2040D006460C4610B1436B002B3DD0636E48
S214015C30DD0733D4A38998053AD52146304600F0CE
S214015C404FF8E36A054633B1E169304698470028C4
S214015C50B8BF4FF0FF35A3891A063BD4216B41B17B
S214015C6004F14003994202D03046FFF70FFC0023AF
S214015C702363616C21B13046FFF708FC002363649F
S214015C80FFF7E8F9636E0022DB07A2811ED5A06D3F
S214015C90FFF72AFBFFF7E4F9284670BDB4F90C308C
S214015CA0002BCAD10025284670BDFFF7B5F9BEE71F
S214015CB0A06DFFF71BFBB4F90C30002BBDD1636E52
S214015CC0D907EFD4A06DFFF713FBEBE7A06DFFF745
S214015CD00FFBDCE721693046FFF7D8FBBEE700BFC4
S214015CE0B1F90C202DE9F0410C46110780464BD442
S214015CF0616842F400630029A38160DDA56A002D76
S214015D003FD0002112F48052D8F80060C8F8001085
S214015D1062D10123E1694046A847431C02466AD086
S214015D20B4F90C30A56A5F0705D56368D21A236BF0
S214015D300BB1E36BD21A0023E1694046A847451C24
S214015D404CD1D8F800201D2A3DD8324B134113F010
S214015D50010338D121696360B4F90C30216023F462
S214015D600061DB04A18151D4216BC8F8006041B108
S214015D7004F14003994202D04046FFF787FB002317
S214015D8023630020BDE8F0812669002EF9D0910733
S214015D90256826600CBF63690023AD1BA3600BE07A
S214015DA02B463246E1694046676AB847B0F1000CB7
S214015DB0A5EB0C05664406DD002DF1DCE1E7E16BA1
S214015DC000299BDCDDE7B4F90C304FF0FF3043F0DF
S214015DD04003A381BDE8F081226DA4E7B4F90C303D
S214015DE00022626023F40062A28122692260DA0442
S214015DF0BAD52065B8E7D8F80030002B90D01D2B17
S214015E0001D0162BDFD1C8F80060BAE7002AABD163
S214015E10EFE700BFFEFFBFDF38B505460C4608B109
S214015E20436B03B3B4F90C0088B1636EDB0701D48E
S214015E3081050FD528462146FFF752FF636E0546BA
S214015E40DA0702D4A3899B0508D5284638BD05463E
S214015E50284638BDA06DFFF749FAEBE7A06DFFF7BE
S214015E6047FA284638BDFFF7D7F8DBE738B50022F2
S214015E70064D044608462A6001F0F4FB431C00D098
S214015E8038BD2B68002BFBD0236038BD14190020C9
S214015E9038B5074D074C2C1BA41005D0013C55F80E
S214015EA0043D9847002CF9D1BDE838402EF04EBF8E
S214015EB0EC140020E8140020082802D14FF480508A
S214015EC0704708B500F04CF8162203464FF0FF3035
S214015ED01A6008BD2DE9F047DFF880A0064698460F
S214015EE00F46DAF800009146FFF700FA194B1C68D6
S214015EF034B365681F2D26DC5EB96B1C0235DAF8F3
S214015F000000636044F82570FFF7F2F90020BDE851
S214015F10F08704EB85010123022EC1F8889003FA6D
S214015F2005F3D4F8882142EA0302C4F88821C1F8AF
S214015F300881E2D1D4F88C211A43C4F88C21DCE71D
S214015F40054C1C60D5E7DAF80000FFF7D1F94FF0F1
S214015F50FF30DCE7241900205C190020F80F002030
S214015F60014B1868704700BFF40F002010B523F0EE
S214015F70BAF923F0B9F9094B094C0A49186823F014
S214015F80CDFB204623F002FA204623F005FA06F060
S214015F9061FABDE8104000F087BD00BFE81B002095
S214015FA05C510400A04D040008B5184B1B68C3F3F0
S214015FB00743012B0ED1164B04205A6E4FF4802353
S214015FC01449520358BF144A4B6601F51041086242
S214015FD058BF536602F09CFE23F0B2F902F02AFE87
S214015FE023F06FFB02F048FE23F065FB02F07AFE19
S214015FF023F0AEF802F02EFE23F097F901F002FB33
S21401600001F068FBBDE8084003F0A8BA0080E00F85
S214016010008000500090005000A0005070B5124E55
S21401602092B035460BAC0FCD0FC495E8070003239D
S21401603084E8070006F11C0506AC8DF845300FCD47
S2140160400FC42B68236002AC06F130030FCB84E843
S2140160500F00064B214600930BAA06AB044803F03B
S21401606057F812B070BD00BF1C510400EC1A002096
S214016070301B0020831E012B0AD8012913D80422C5
S214016080094B1B69C3F340130521002002F0C0BA77
S2140160900239012907D8012805D8034B00221B69BC
S2140160A0C3F34013F0E7704700C0035008B5044936
S2140160B0044803F019FBBDE80840FFF7AFBF00BF77
S2140160C004100020541B0020014B186823F0E1BC8B
S2140160D0301B0020014B1A6A18681047301B00203D
S2140160E0014823F053B900BF5C51040037B502687C
S2140160F0664922F47F4323F007038B4204465DD0B2
S21401610036D8634A934200F0B48014D802F17F4235
S21401611093424DD009D8A2F5A022934242D002F56F
S214016120802293420FD103B030BD5A4A9342FAD02F
S21401613002F57C02F5E7584A934245D002F57C0207
S214016140934200F09C80032001F0ACF80028EAD0CE
S214016150524D5349286823F0E1FA23F0C4F823F09E
S214016160C3F822684F4922F47F4222F0070244E036
S2140161704D498B4277D00CD84C4A93425AD002F5FF
S21401618080329342DFD1043003B0BDE8304000F0E6
S2140161905DBB47498B421DD097BF464B464A1340CD
S2140161A0464ABEE7043003B0BDE8304000F09ABB73
S2140161B0043003B0BDE8304000F014BA043003B038
S2140161C0BDE8304000F0B8BA043003B0BDE8304056
S2140161D000F000BBB0F805300320A3B901F062F867
S2140161E00028A0D02D4D2E49286823F097FA23F0D9
S2140161F07AF823F079F822793149286803B0BDE8A6
S214016200304023F08BBA01F04DF800288BD0234D97
S2140162102349286823F082FA23F065F823F064F80E
S2140162202379B4F805202749286803B0BDE8304033
S21401623023F074BA032001F035F800283FF473AF59
S214016240164D1749286823F069FA23F04CF823F015
S2140162504BF8E3791C490093B4F805302279286895
S21401626023F05CFA5FE7043003B0BDE8304022F06B
S214016270FABF043003B0BDE8304000F01DBA043068
S21401628003B0BDE8304022F0E3BF00BFA000060225
S214016290A0000601A0000900A0000901E81B0020DB
S2140162A07451040058520400A0000A03A000090219
S2140162B0A0000906F800FFFDA0000608A0000604DD
S2140162C079510400B9510400FC51040073B5464EDF
S2140162D0304614F003F9054630B3444C444920686F
S2140162E023F01CFA4349206823F018FA22F0FBFF3A
S2140162F022F0FAFF404B414A009341491823206897
S21401630023F00CFA2B463F4A3F49206823F006FA51
S214016310284601F00DF83D49206823F0FFF934497D
S214016320206823F0FBF9FEE70221307814F022F909
S214016330044630B32D4D2E49286823F0EFF92D4938
S214016340286823F0EBF922F0CEFF22F0CDFF2A4B8E
S2140163502A4A00932A491D23286823F0DFF9234699
S214016360284A2949286823F0D9F9204600F0E0FF99
S2140163702649286823F0D2F91D49286823F0CEF96A
S214016380FEE7A022009003461146307814F0BEF8CE
S214016390054630B3154C1649206823F0BFF9154958
S2140163A0206823F0BBF922F09EFF22F09DFF124BDE
S2140163B0124A009312492423206823F0AFF92B4692
S2140163C0104A1149206823F0A9F9284600F0B0FFC9
S2140163D00E49206823F0A2F90549206823F09EF9AA
S2140163E0FEE702B070BD00BFEB120020E81B0020E4
S2140163F035540400735204009E530400785204007E
S2140164009D520400A9520400B1520400C652040071
S214016410C20770B5044615D500F0A8FD054688B13B
S214016420032000F03FFF68B1154E1649306823F08F
S21401643075F922F058FF22F057FF2A4612493068B4
S21401644023F06CF9A3071AD5104B0221187814F023
S214016450A5F8044698B1032000F024FF78B1084D52
S2140164600849286823F05AF922F03DFF22F03CFF44
S214016470224628680449BDE8704023F04FB970BD34
S214016480E81B002074510400D7520400EB120020D0
S214016490C20770B5044617D5194B187814F058F88A
S2140164A0054688B1032000F0FDFE68B1154E164979
S2140164B0306823F033F922F016FF22F015FF2A4642
S2140164C01249306823F02AF9A30717D500F04EFECB
S2140164D0044698B1032000F0E5FE78B1094D0A495B
S2140164E0286823F01BF922F0FEFE22F0FDFE22466C
S2140164F028680749BDE8704023F010B970BD00BF99
S214016500EB120020E81B002074510400F652040030
S2140165101553040038B50221012014F067F904462A
S21401652098B1032000F0BEFE78B1084D08492868EE
S21401653023F0F4F822F0D7FE22F0D6FE2246286891
S2140165400449BDE8384023F0E9B838BDE81B00200F
S214016550745104003153040038B514F03BF9044675
S21401656098B1032000F09EFE78B1084D08492868CE
S21401657023F0D4F822F0B7FE22F0B6FE22462868B1
S2140165800449BDE8384023F0C9B838BDE81B0020EF
S2140165907451040068530400431EDAB2032A9ABFFA
S2140165A0024800EB03100020704700BF5C1B002070
S2140165B000231946054A1370054A0433102B11604F
S2140165C09180D18002F11002F7D17047BD300020D2
S2140165D05C1B0020082303EB001301481844704796
S2140165E05C1B002030B5044685B0032000F05AFE3F
S2140165F068B12A4D2A49286823F090F822F073FEE4
S21401660022F072FE227A2749286823F087F80320B1
S21401661000F048FEB0B1214D2149286823F07EF8EC
S21401662022F061FE22F060FE23781F49039363780F
S2140166300293A3780193E37800932379627928681B
S21401664023F06CF8194A13780133DBB2032B13706D
S21401665013D80220FFF7DCFE032000F023FE60B112
S2140166600E4D0F49286823F059F822F03CFE22F01F
S2140166703BFE0F49286823F051F80723217A621E52
S21401668003EB01130B4905340B4412F8011FA24218
S21401669003F8011FF9D105B030BD00BFE81B00208B
S2140166A074510400AB530400C3530400BD300020F2
S2140166B0F35304005C1B002038B50446032000F0A9
S2140166C0F1FD68B1174D1849286823F027F822F024
S2140166D00AFE22F009FEA2781449286823F01EF863
S2140166E0A078FFF759FF0023114CC0E90033237847
S2140166F0032B13D90220FFF78BFE032000F0D2FDF7
S21401670060B1084D0849286823F008F822F0EBFD2F
S21401671022F0EAFD0749286823F000F82378013BB8
S214016720237038BDE81B0020745104000A5404008D
S214016730BD3000202254040038B50446032000F082
S214016740B1FD68B11E4D1F49286822F0E7FF22F00F
S214016750CAFD22F0C9FD22781B49286822F0DEFF17
S2140167602078FFF719FF03684BBB032000F09AFD62
S21401677060B1134D1349286822F0D0FF22F0B3FD13
S21401678022F0B2FD1149286822F0C8FF207813F0E4
S214016790B5FF044698B1032000F084FD78B1084D9A
S2140167A00849286822F0BAFF22F09DFD22F09CFDE0
S2140167B0224628680649BDE8384022F0AFBF38BDFA
S2140167C0E81B002074510400375404006754040089
S2140167D085540400034670B50022044613F8055F8D
S2140167E01649D0B2854221D8D4F80110207813F08A
S2140167F097FF054698B1052D11D0032000F052FDF4
S21401680068B10F4E0F49306822F088FF22F06BFD09
S21401681022F06AFD2A460C49306822F07FFF207874
S214016820FFF7BAFED4F80130036006E011F8010B59
S21401683013F8016F01328642D3D070BD02550400B1
S214016840E81B0020745104008554040038B5044642
S214016850032000F027FD60B10E4D0F49286822F095
S2140168605DFF22F040FD22F03FFD0C49286822F032
S21401687055FF25782846FFF78FFEC38823B963782E
S214016880A27843EA0223C3802846A11DBDE838400A
S21401689000F0D6B9E81B002074510400B55404007A
S2140168A070B5054613F0D2FE0446A0B1032000F0F1
S2140168B0F9FC80B1084E0949306822F02FFF22F01A
S2140168C012FD22F011FD23462A4630680449BDE830
S2140168D0704022F023BF70BDE81B002074510400F5
S2140168E0C554040030B504468DB0032000F0DAFC30
S2140168F090B15F4D5F49286822F010FF22F0F3FC4B
S21401690022F0F2FCE3885C490193A3880093638834
S2140169102288286822F002FF0DF11F0108A813F053
S21401692079FF044630B3524D5449286822F0F6FEEA
S2140169305349286822F0F2FE22F0D5FC22F0D4FC5E
S214016940504B514A009351491E23286822F0E6FE17
S21401695023464F4A4F49286822F0E0FE204600F0C1
S214016960E7FC4D49286822F0D9FE4449286822F000
S214016970D5FEFEE7BDF8243001465BBAADF82830F7
S2140169809DF8233008228DF82A30FF238DF82B300E
S214016990FE238DF82C309DF8223012208DF82D30F4
S2140169A0BDF820305BBAADF82E300AAB13F0CEFE40
S2140169B0054630B32E4C3149206822F0AFFE3049EF
S2140169C0206822F0ABFE22F08EFC22F08DFC2D4BCF
S2140169D02D4A00932D492E23206822F09FFE2B4638
S2140169E02B4A2C49206822F099FE284600F0A0FC8C
S2140169F02949206822F092FE2049206822F08EFE66
S214016A00FEE7032000F04EFC20B3194C194920681C
S214016A1022F084FE22F067FC22F066FC9DF820300E
S214016A209DF81F0004939DF821301C4903939DF89F
S214016A3022301B4A02939DF82330002818BF0A46CD
S214016A4001939DF824301749009320689DF825305E
S214016A5022F064FEFFF73AFC0120FFF719FDFFF76D
S214016A60A7FD0121084605F03DFD0DB030BD00BF74
S214016A70E81B0020745104002E5504003554040010
S214016A8073520400B2550400565504009D5204008A
S214016A90A9520400B1520400C65204001255040063
S214016AA0205504007C550400054B064A03F11001ED
S214016AB053F8040B8B4242F8040BF9D100F08AB963
S214016AC0C1550400BE300020F8B5037E04460BB164
S214016AD00020F8BD013000F031F902460028F7D158
S214016AE02346044613F81A6F0B4FE1B28E42EFD9D4
S214016AF013F8015F48B1511CBA5CC9B2AA42E7D18A
S214016B000D29E6D80A460134EFE7A5F10901484206
S214016B1048411146F6E700BFD25504002DE9F0437F
S214016B200B790446012B87B016D0022B5AD00320CE
S214016B3000F0B8FB002852D0384C3949206822F0C2
S214016B40EDFD22F0D0FB22F0CFFB3649206807B0DE
S214016B50BDE8F04322F0E2BD4FF480332F4D0193A0
S214016B6022F0C1FB22F0C0FB2F49286822F0D6FD97
S214016B7010262E4FDFF8C4900DF1070822F0B3FB64
S214016B8022F0B2FB3A784946286822F0C7FD013E5A
S214016B9017F8013B16F0FF0608F8013FEED122F088
S214016BA0A2FB22F0A1FB2249286822F0B7FD20466D
S214016BB001A922F074FB064688B1032000F072FB9F
S214016BC068B11749286822F0A9FD22F08CFB22F053
S214016BD08BFB334622461749286822F09FFD07B0F3
S214016BE0BDE8F083032000F05DFB60B10B4D0C495E
S214016BF0286822F093FD22F076FB22F075FB0E4901
S214016C00286822F08BFD2046FFF74AFE2046FFF754
S214016C10E1FC07B0BDE8F04300F058B8E81B0020DF
S214016C20745104004B560400E1550400BE300020A8
S214016C30F0550400F955040033560400E8550400E5
S214016C4070B50B780546032B0C4612D8032000F0CE
S214016C5029FB70B1194E1A49306822F05FFD22F007
S214016C6042FB22F041FB042322781649306822F0C9
S214016C7055FDD4F80130B3F5805F17D0B3F5803FEA
S214016C801AD0032000F00EFBB0B10C4D0C49286859
S214016C9022F044FD22F027FB22F026FBD4F8012047
S214016CA028680949BDE8704022F038BD2846611CB5
S214016CB0BDE87040FFF732BF70BD00BFE81B002083
S214016CC0745104006A560400AC56040070B50346BD
S214016CD00C250020184C05FB00F1625862B1B42265
S214016CE0625003315A1E2144053312F8010F9A42AD
S214016CF001F8010FF9D170BD01300428EBD1B421A0
S214016D0010460C2606FB02F565598D4238BFD0B2F7
S214016D1002F1010238BF2946042AF3D10C21B42618
S214016D2001FB00F511FB002266511868A118A0505E
S214016D309B888B80DFE700BF9C1B002000220C4B4A
S214016D40F0B5451D53F8031C59B11C46411E14F8F5
S214016D50017F11F8016FB74203D1A942F7D1012093
S214016D60F0BD03320C2A03F10C03EBD10020F7E748
S214016D709F1B002013B547F2305003F04FF9142241
S214016D8000230146CDE900230D480E4A22F0D8FE25
S214016D9098B1032000F086FA78B10B4C0B492068B5
S214016DA022F0BCFC22F09FFA22F09EFA08492068E5
S214016DB002B0BDE8104022F0B1BC02B010BD00BF69
S214016DC0CC1B0020E96D0100E81B00207451040073
S214016DD0CB5604000022034B1A60DA609A615A62AD
S214016DE0FFF7C8BF9C1B002008B5FFF7C3FF0023B1
S214016DF0054951F8232012B1013A41F82320033303
S214016E000C2BF6D108BD00BF9C1B00200368164A58
S214016E1023F47F4323F00703934210B522D1B0F841
S214016E2005301E2B1ED1817A0479012917D1C37A28
S214016E30DB0710D5002320461A4613F019FC41F251
S214016E40FC13002818BF1846C2B21E212046BDE812
S214016E50104013F091BC204613F020FCEFE741F2FE
S214016E600D10F1E710BD00BFA0000A02036837B598
S214016E7023F47F43374A23F00703934207D002F1F6
S214016E80027202F58032934206D003B030BD03B0E1
S214016E90BDE8304000F0AAB8B0F805400579A4F185
S214016EA02003827A082BF0D801A151F823F000BF05
S214016EB0D56E01008B6E0100E76E01008B6E01003E
S214016EC0256F01008B6E0100F76E01008B6E0100CD
S214016ED03F6F0100012A39D1C37A9A1E122A24D89B
S214016EE01D4A13701BE0012A30D1C37A5A1E0E2A9E
S214016EF01BD81A4AF5E7531E012B27D8002300F1A9
S214016F000B010DF10600ADF806301FF0FFF8144A2C
S214016F10BDF8063012889A4207D8124A138000F04C
S214016F2025F820B141F2FC1001E041F2FF10C2B297
S214016F302146284603B0BDE8304013F01DBC012AA7
S214016F4004D1C37A012BF0D8074ACAE741F20D10E3
S214016F50EDE700BFA0000100D0300020CF300020B8
S214016F606257040050300020CE30002013B5194B74
S214016F70194C1B78207853B9184B1A8800230093B4
S214016F801146207813F0C2FA30B102B010BD13F0EA
S214016F90DFFA0028F0D0F8E7114B01211B782078A2
S214016FA0012B14BF0122022213F00CFB0028ECD1A6
S214016FB001460222207813F031FB0028E5D1CDE905
S214016FC00000084B084902461B780978207813F020
S214016FD077FBDAE7D1300020EC1200205030002099
S214016FE0CE300020CF300020D03000201421F0B564
S214016FF04E4B85B01A880126ADF80C204C4A9B787A
S214017000117020218DF80E3000234A4A4A4F16701F
S2140170104A4A4B4C11804B4A38462370137013F082
S2140170205DFA054630B3484C4849206822F076FBA5
S2140170304749206822F072FB22F055F922F054F9F4
S214017040444B454A009345494023206822F066FB9D
S2140170502B46434A4349206822F060FB284600F04D
S21401706067F94149206822F059FB3849206822F027
S21401707055FBFEE70321387803AA13F0B9FA054653
S21401708030B3314C3149206822F048FB3049206842
S21401709022F044FB22F027F922F026F92D4B2E4A46
S2140170A000932E494623206822F038FB2B462C4AB3
S2140170B02C49206822F032FB284600F039F92A498B
S2140170C0206822F02BFB2149206822F027FBFEE7EF
S2140170D0FFF74CFF054630B31B4C1C49206822F0D5
S2140170E01DFB1B49206822F019FB22F0FCF822F058
S2140170F0FBF8184B184A009318494A23206822F0D7
S2140171000DFB2B46164A1749206822F007FB284636
S21401711000F00EF91449206822F000FB0B492068A4
S21401712022F0FCFAFEE7267005B0F0BD50570400C9
S214017130D0300020CF300020EC120020503000204C
S214017140D1300020CE300020E81B0020355404004A
S2140171507352040054570400F35604009D52040071
S2140171604D570400B1520400C6520400034B187870
S21401717018B1034B187813F0EBB97047D1300020E3
S214017180EC120020036837B523F47F433A4A23F014
S21401719007039342044664D002F18272934268D197
S2140171A0B0F805102B2964D10122344B00791A70EE
S2140171B0002213F0E1FA054630B3314C314920681C
S2140171C022F0ACFA3049206822F0A8FA22F08BF8B7
S2140171D022F08AF82D4B2E4A00932E493F23206831
S2140171E022F09CFA2B462C4A2C49206822F096FA6B
S2140171F0284600F09DF82A49206822F08FFA214996
S214017200206822F08BFAFEE7207913F01FFA054674
S21401721000282ED01A4C1B49206822F07FFA1A4902
S214017220206822F07BFA22F05EF822F05DF8174B18
S214017230174A009317494323206822F06FFA2B461A
S214017240154A1649206822F069FA284600F070F8B7
S2140172501349206822F062FA0A49206822F05EFA91
S214017260FEE7064B1B7823B103B0BDE8304022F0A1
S214017270D3BC03B030BD00BFA0000601D230002051
S214017280E81B00203554040073520400D157040053
S214017290645704009D5204004D570400B152040087
S2140172A0C65204000B4B02461B7883B10A4B1B786F
S2140172B0834234BF00200120084B1B7833B1084BB2
S2140172C01B78134113F0010F08BF002070470120FF
S2140172D0F2E700BFEF120020EE120020D3300020AC
S2140172E0ED120020012208B5074B1A700022074B49
S2140172F01A700422064B1A701F22064B1A7001F0F0
S214017300F1FD054B186008BDEF120020D3300020B8
S214017310EE120020ED120020E81B0020024B03496C
S214017320186822F0FBB900BFE81B0020F1570400E3
S21401733070B50C4C0C490646206822F0EFF901F0B6
S214017340D1FD0546206801F0C1FD3046FFF7E6FF96
S214017350284601F0BBFD20680449BDE8704022F0D4
S214017360DDB900BFE81B0020F3570400F557040001
S2140173702DE9F047434D88B001AC0FCD0FC495E819
S2140173800700012584E8070001213A2000F0A2FB4E
S214017390DFF8FC800121282000F09CFB3A4B404698
S2140173A001A903938DF8125001F0E8FA2B46042246
S2140173B00021022001F02CF92A462946002302204A
S2140173C001F026F902212B460846042201F020F995
S2140173D0042203212B46022001F01AF94FF0021372
S2140173E02A4C0226C4F83036A3F58033C4F82C366E
S2140173F01C230827C4F8346604F5005AC4F81C3662
S2140174004FF4487002F096FF04F580591420CAF82C
S214017410707002F08FFF2320C9F8707002F08AFFA7
S214017420B9214046CAF8707022F036F9002330467A
S2140174301A461946C9F8707001F0EAF80023294681
S2140174401A46304601F0E4F82B4631463046002213
S21401745001F0DEF82B4600220321304601F0D8F871
S214017460404601F0E1F900212820C4F83016C4F89E
S2140174702C16C4F83416C4F81C1600F02BFB08B002
S214017480BDE8F087F857040000127A0000C00350E8
S21401749000C0055008B500F02DF8124B12498B427A
S2140174A012D30020114B12498B4218D3FDF7C8FCAA
S2140174B0186850F82240586840F82240013298680F
S2140174C08242F5D30C33EAE70022F8E71C6844F859
S2140174D0220001325C68A242F8D30833E4E70022B6
S2140174E0F8E700BF94A90400A0A90400A0A904001D
S2140174F0A0A904004FF400414FF0FF30124B134A8D
S21401750010B59A60D3F8882042F47002C3F8882038
S2140175100F4A916601F1884101F5005210664FF657
S214017520DF7050660220C3F8D000BFF34F8FBFF361
S2140175306F8F08244FF440330648C0F88041D3606B
S21401754004600B6110BD00BF00ED00E000200100EB
S2140175500090005000E100E0014B1868704700BF42
S21401756010100020084B1B6F03F00703022B04D0FA
S214017570032B05D0012B05D0FEE7044B1868704796
S214017580034BFBE7034870470080005010100020B3
S21401759018100020002D310108B5FFF7E3FF054B59
S2140175A01B6FC3F303330133B0FBF3F0024B1860D8
S2140175B008BD00BF008000500C1000200048704736
S2140175C000B4C404014B1868704700BF18100020AF
S2140175D0054B1860054B1B6F03F00703032B01D106
S2140175E0FFF7DABF704700BF181000200080005078
S2140175F000487047002D3101014B1868704700BFE5
S2140176001410002000239B6A10B5B3F5903F0BD2EF
S214017610074C227812F0FD0F04D1DB69984710B9A8
S21401762001232370002010BD4FF48170FBE700BFDB
S214017630D43000204FF00053074A1A60BFF34F8F33
S2140176400649074BCA6802F4E0621343CB60BFF3F6
S2140176504F8F00BFFDE700BF02020FF000ED00E014
S2140176600400FA050346054A0549106803448B429F
S2140176708CBF4FF0FF301360704700BF1C10002016
S2140176800080002010B501224378017884783020EC
S2140176909A40054B00FB01331CB942F210015A50C7
S2140176A010BD41F21001FAE700C0035010B50122E7
S2140176B043780178847830209A40054B00FB0133EB
S2140176C01CB941F210015A5010BD42F21001FAE7FE
S2140176D000C00350024B1968024B186816F08ABFA7
S2140176E0201000204010002070B594002246054668
S2140176F00E462DF031FB431C0AD058B922463146BE
S21401770028461EF075FB0028034808BF002070BD00
S2140177100248FCE70248FAE710E000F021E000F03A
S21401772024E000F013B5044601A801F03BF89DF8EB
S2140177300630012223804FF4807300206380054BBE
S2140177409B680A3303F01F0302FA03F3636002B077
S21401775010BD00BF0080E00F10B504462DF000FB01
S214017760431C15D0B0B90C4B20469A6801230A3247
S21401777002F01F02934023F003032344984201D1F1
S214017780002010BD50F8042B0132F7D00348F8E76B
S2140177900348F6E70348F4E70080E00F0EE000F048
S2140177A021E000F024E000F008B521F020FF014BB5
S2140177B0186008BDDC220020014B186821F01BBFB1
S2140177C0DC220020044BD3F88420D206FBD4D3F865
S2140177D08400C0F3811070470040005038B5104B4C
S2140177E00546D3F820310C4603F00303022B0BD0D9
S2140177F0032B0DD0012B0FD1FFF7AEFE052305B1EC
S214017800286004B1236038BDFFF7DCFE0323F6E7EA
S214017810FFF7EEFE0223F2E700231846EFE700BF6C
S2140178200080005073B50D4600210E4B0191D3F830
S2140178308041064604F00304012C09D0022C0CD02A
S2140178400C460EB1019B336005B12C6002B070BDD1
S21401785001A8FFF7C3FF0F24F3E7FFF7C9FE019066
S214017860EFE700BF0080005038B5174B0546D3F848
S21401787024310C4603F00703013B052B20D8DFE833
S21401788003F0030F171B0B13FFF766FE052305B165
S214017890286004B1236038BDFFF75EFE0623F6E7D5
S2140178A0FFF790FE0323F2E7FFF78CFE0423EEE7D3
S2140178B0FFF79EFE0223EAE721F047FD0723E6E7EE
S2140178C000231846E3E700BF0080005038B5104B90
