S00E000046617265466F622E73333751
S214012000C00A00202D380100D7290300D729030074
S21401201065310300D7290300D7290300D729030018
S214012020D7290300D7290300D7290300D72903009E
S214012030D7290300FCF3030051270300D729030027
S214012040D7290300D7290300D7290300D72903007E
S214012050D7290300D7290300D7290300D72903006E
S214012060D7290300D7290300D7290300D72903005E
S21401207099660100D7290300D7290300B52401007A
S2140120804D280300D7290300D7290300D7290300C9
S214012090D7290300D7290300D7290300D72903002E
S2140120A0D7290300D7290300D7290300D72903001E
S2140120B0D7290300490D0300D7290300151703008C
S2140120C081E303007DE30300190F03008DE30300A2
S2140120D085E30300ED16030089E30300751703008B
S2140120E095F2020049F4020055170300D7290300B0
S2140120F0552D0300D7290300D7290300D72903004C
S214012100D7290300D7290300D7290300D7290300BD
S214012110D7290300D7290300D7290300D7290300AD
S214012120D7290300D7290300D7290300D72903009D
S214012130D7290300D7290300D7290300D72903008D
S214012140013800D0FCE7704770B505463E4C8AB0B2
S21401215020B10023008823600DF00EFF3B482BF0D2
S21401216006FC3B4E3B4B304633603B4B736026F0E0
S2140121704CFA0021304618F0EFFF31A3D3E90023D3
S214012180A062C4E9062326F048FAD4E906231943D7
S21401219010434FF0FF33C4E90601CDE900014FF0CB
S2140121A0FF32A06A2BF028FC02224FF0FF31A06A12
S2140121B02BF027FC01200DF05BFC4FF4007300228E
S2140121C02649A06A2BF071FCB0F5007F34D10023BC
S2140121D09422CDE9073309933C23CDE903320593D5
S2140121E09623A06A03A9069319F0DCF815B3287C98
S2140121F00EF0BEF90546D0B9A06A2BF02CFD0DF005
S214012200E5FB20B14FF4807000210AF0A5FA0DF02D
S214012210EDFB20B14FF4006000210AF09DFA012089
S21401222018F0EEFF0E4A0F49A06A26F0ECF9284690
S2140122300AB070BDFF20DBE70725F8E7AFF30080A3
S21401224009D5015520000000100F002017C712F312
S21401225018220020C50102000C2200200C200020BC
S214012260AF850300EF8503000348044B834202D089
S214012270034B03B118477047940E0020940E0020BC
S21401228000000000064B0749C91A891048BF0131F2
S214012290491003D0044B0BB101481847704700BFE3
S2140122A0940E0020940E00200000000010B5064C8D
S2140122B0237843B9FFF7D8FF044B13B10448AFF3B3
S2140122C000800123237010BD782800200000000044
S2140122D0C041040008B5054B1BB105490548AFF3DD
S2140122E00080BDE80840FFF7CDBF00BF000000003A
S2140122F068110020C0410400A3F5803A704700BF72
S214012300174B002B08BF134B9D46FFF7F5FF002127
S2140123108B460F461348144A121A2CF0EDF80E4B52
S214012320002B00D098470D4B002B00D0984700207B
S214012330002104000D000D48002802D00C48AFF320
S21401234000801FF0CBFE2000290020F0F5F91FF0D9
S21401235045FC00BF0000080000000000000000006F
S214012360C00A0020940E0020AC2A002000000000C5
S2140123700000000010B5064C204620F04EFB20461B
S21401238020F051FB06F032FABDE8104000F058BDCF
S21401239054ED030008B5184B1B68C3F30743012B24
S2140123A00ED1164B04205A6E4FF480231449520363
S2140123B058BF144A4B6601F51041086258BF536670
S2140123C002F072FE20F003FB02F000FE20F0C0FCDB
S2140123D002F01EFE20F0B6FC02F050FE20F0ECF9F2
S2140123E002F004FE20F0E8FA01F0D8FA01F03EFB14
S2140123F0BDE8084003F07EBA0080E00F0080005080
S2140124000090005000A0005070B5124E92B03546B4
S2140124100BAC0FCD0FC495E80700032384E8070033
S21401242006F11C0506AC8DF845300FCD0FC42B68A0
S214012430236002AC06F130030FCB84E80F00064B95
S214012440214600930BAA06AB044803F02DF812B000
S21401245070BD00BF14ED030080110020C4110020E0
S214012460831E012B0AD8012913D80422094B1B69A4
S214012470C3F340130521002002F096BA0239012960
S21401248007D8012805D8034B00221B69C3F3401364
S214012490F0E7704700C0035008B50449044803F04C
S2140124A0EFFABDE80840FFF7AFBF00BFC00A002043
S2140124B0E8110020014B186820F02DBEC411002041
S2140124C0014B1A6A18681047C4110020014820F011
S2140124D0A4BA00BF54ED030037B50268664922F47A
S2140124E07F4323F007038B4204465DD036D8634A08
S2140124F0934200F0B48014D802F17F4293424DD04B
S21401250009D8A2F5A022934242D002F58022934236
S2140125100FD103B030BD5A4A9342FAD002F57C027D
S214012520F5E7584A934245D002F57C02934200F003
S2140125309C80032001F082F80028EAD0524D5349CE
S214012540286820F032FC20F015FA20F014FA2268F0
S2140125504F4922F47F4222F0070244E04D498B4264
S21401256077D00CD84C4A93425AD002F58032934227
S214012570DFD1043003B0BDE8304020F0C4B947498C
S2140125808B421DD097BF464B464A1340464ABEE78C
S214012590043003B0BDE8304000F070BB043003B037
S2140125A0BDE8304000F014BA043003B0BDE8304056
S2140125B000F0B8BA043003B0BDE8304000F000BB0C
S2140125C0B0F805300320A3B901F038F80028A0D0F0
S2140125D02D4D2E49286820F0E8FB20F0CBF920F09D
S2140125E0CAF922793149286803B0BDE8304020F0A5
S2140125F0DCBB01F023F800288BD0234D2349286843
S21401260020F0D3FB20F0B6F920F0B5F92379B4F821
S21401261005202749286803B0BDE8304020F0C5BB37
S214012620032001F00BF800283FF473AF164D17494D
S214012630286820F0BAFB20F09DF920F09CF9E37998
S2140126401C490093B4F805302279286820F0ADFBC8
S2140126505FE7043003B0BDE8304020F038B90430FD
S21401266003B0BDE8304000F01DBA043003B0BDE849
S214012670304020F021B900BFA0000602A0000601EC
S214012680A0000900A00009017C1200206CED0300E7
S21401269050EE0300A0000A03A0000902A0000906EC
S2140126A0F800FFFDA0000608A000060471ED030077
S2140126B0B1ED0300F4ED030073B5464E304614F059
S2140126C0D9F8054630B3444C4449206820F06DFBE8
S2140126D04349206820F069FB20F04CF920F04BF9C3
S2140126E0404B414A009341491823206820F05DFB86
S2140126F02B463F4A3F49206820F057FB284600F00A
S214012700E3FF3D49206820F050FB3449206820F063
S2140127104CFBFEE70221307814F0F8F8044630B39B
S2140127202D4D2E49286820F040FB2D49286820F0C1
S2140127303CFB20F01FF920F01EF92A4B2A4A009391
S2140127402A491D23286820F030FB2346284A2949B8
S214012750286820F02AFB204600F0B6FF26492868A4
S21401276020F023FB1D49286820F01FFBFEE7A0226E
S214012770009003461146307814F094F8054630B3BD
S214012780154C1649206820F010FB1549206820F0EA
S2140127900CFB20F0EFF820F0EEF8124B124A0093F3
S2140127A012492423206820F000FB2B46104A1149C9
S2140127B0206820F0FAFA284600F086FF0E492068C5
S2140127C020F0F3FA0549206820F0EFFAFEE702B0A0
S2140127D070BD00BF970C00207C1200202DF0030076
S2140127E06BEE030096EF030070EE030095EE030018
S2140127F0A1EE0300A9EE0300BEEE0300C20770B50A
S214012800044615D500F07EFD054688B1032000F08C
S21401281015FF68B1154E1649306820F0C6FA20F04B
S214012820A9F820F0A8F82A461249306820F0BDFA27
S214012830A3071AD5104B0221187814F07BF804462A
S21401284098B1032000F0FAFE78B1084D08492868CF
S21401285020F0ABFA20F08EF820F08DF8224628689A
S2140128600449BDE8704020F0A0BA70BD7C1200207B
S2140128706CED0300CFEE0300970C0020C20770B585
S214012880044617D5194B187814F02EF8054688B16A
S214012890032000F0D3FE68B1154E1649306820F0CB
S2140128A084FA20F067F820F066F82A461249306864
S2140128B020F07BFAA30717D500F024FE044698B152
S2140128C0032000F0BBFE78B1094D0A49286820F0C4
S2140128D06CFA20F04FF820F04EF822462868074997
S2140128E0BDE8704020F061BA70BD00BF970C0020B3
S2140128F07C1200206CED0300EEEE03000DEF0300EA
S21401290038B50221012014F03DF9044698B10320A0
S21401291000F094FE78B1084D0849286820F045FA81
S21401292020F028F820F027F8224628680449BDE858
S214012930384020F03ABA38BD7C1200206CED030016
S21401294029EF030038B514F011F9044698B10320B5
S21401295000F074FE78B1084D0849286820F025FA81
S21401296020F008F820F007F8224628680449BDE858
S214012970384020F01ABA38BD7C1200206CED0300F6
S21401298060EF0300431EDAB2032A9ABF024800EB47
S21401299003100020704700BFF011002000231946E5
S2140129A0054A1370054A0433102B11609180D180BB
S2140129B002F11002F7D1704799280020F01100208B
S2140129C0082303EB0013014818447047F011002058
S2140129D030B5044685B0032000F030FE68B12A4DBC
S2140129E02A49286820F0E1F91FF0C4FF1FF0C3FF51
S2140129F0227A2749286820F0D8F9032000F01EFE25
S214012A00B0B1214D2149286820F0CFF91FF0B2FF5F
S214012A101FF0B1FF23781F49039363780293A378CD
S214012A200193E378009323796279286820F0BDF951
S214012A30194A13780133DBB2032B137013D8022023
S214012A40FFF7DCFE032000F0F9FD60B10E4D0F49E3
S214012A50286820F0AAF91FF08DFF1FF08CFF0F49A0
S214012A60286820F0A2F90723217A621E03EB0113DE
S214012A700B4905340B4412F8011FA24203F8011F4B
S214012A80F9D105B030BD00BF7C1200206CED03000B
S214012A90A3EF0300BBEF030099280020EBEF030030
S214012AA0F011002038B50446032000F0C7FD68B1D8
S214012AB0174D1849286820F078F91FF05BFF1FF0C2
S214012AC05AFFA2781449286820F06FF9A078FFF71A
S214012AD059FF0023114CC0E900332378032B13D987
S214012AE00220FFF78BFE032000F0A8FD60B1084D21
S214012AF00849286820F059F91FF03CFF1FF03BFFFA
S214012B000749286820F051F92378013B237038BD26
S214012B107C1200206CED030002F0030099280020CF
S214012B201AF0030038B50446032000F087FD68B1AB
S214012B301E4D1F49286820F038F91FF01BFF1FF0B3
S214012B401AFF22781B49286820F02FF92078FFF712
S214012B5019FF03684BBB032000F070FD60B1134DF5
S214012B601349286820F021F91FF004FF1FF003FF26
S214012B701149286820F019F9207813F08BFF0446D4
S214012B8098B1032000F05AFD78B1084D084928682D
S214012B9020F00BF91FF0EEFE1FF0EDFE224628682E
S214012BA00649BDE8384020F000B938BD7C12002047
S214012BB06CED03002FF003005FF003007DF00300CF
S214012BC0034670B50022044613F8055F1649D0B2D5
S214012BD0854221D8D4F80110207813F06DFF054600
S214012BE098B1052D11D0032000F028FD68B10F4ED5
S214012BF00F49306820F0D9F81FF0BCFE1FF0BBFE6D
S214012C002A460C49306820F0D0F82078FFF7BAFE43
S214012C10D4F80130036006E011F8010B13F8016FD8
S214012C2001328642D3D070BDEAF003007C12002048
S214012C306CED03007DF0030070B5054613F0D2FE7F
S214012C400446A0B1032000F0F9FC80B1084E094902
S214012C50306820F0AAF81FF08DFE1FF08CFE234688
S214012C602A4630680449BDE8704020F09EB870BD21
S214012C707C1200206CED0300ADF0030030B5044675
S214012C808DB0032000F0DAFC90B15F4D5F492868F3
S214012C9020F08BF81FF06EFE1FF06DFEE3885C4996
S214012CA00193A388009363882288286820F07DF822
S214012CB00DF11F0108A813F079FF044630B3524DF9
S214012CC05449286820F071F85349286820F06DF8B7
S214012CD01FF050FE1FF04FFE504B514A00935149D2
S214012CE01E23286820F061F823464F4A4F4928687A
S214012CF020F05BF8204600F0E7FC4D49286820F0FC
S214012D0054F84449286820F050F8FEE7BDF824300E
S214012D1001465BBAADF828309DF8233008228DF8BD
S214012D202A30FF238DF82B30FE238DF82C309DF8AA
S214012D30223012208DF82D30BDF820305BBAADF868
S214012D402E300AAB13F0CEFE054630B32E4C314979
S214012D50206820F02AF83049206820F026F81FF075
S214012D6009FE1FF008FE2D4B2D4A00932D492E23F8
S214012D70206820F01AF82B462B4A2C49206820F0B0
S214012D8014F8284600F0A0FC2949206820F00DF828
S214012D902049206820F009F8FEE7032000F04EFCE9
S214012DA020B3194C194920681FF0FFFF1FF0E2FD00
S214012DB01FF0E1FD9DF820309DF81F0004939DF85B
S214012DC021301C4903939DF822301B4A02939DF83B
S214012DD02330002818BF0A4601939DF8243017496E
S214012DE0009320689DF825301FF0DFFFFFF764FC95
S214012DF00120FFF743FDFFF7D1FD0121084605F04D
S214012E003DFD0DB030BD00BF7C1200206CED03000F
S214012E1016F103002DF003006BEE03009AF1030098
S214012E203EF1030095EE0300A1EE0300A9EE0300B8
S214012E30BEEE0300FAF0030008F1030064F103009C
S214012E40054B064A03F1100153F8040B8B4242F876
S214012E50040BF9D100F08AB9A9F103009A280020E1
S214012E60F8B5037E04460BB10020F8BD013000F032
S214012E7031F902460028F7D12346044613F81A6FA3
S214012E800B4FE1B28E42EFD913F8015F48B1511CE6
S214012E90BA5CC9B2AA42E7D10D29E6D80A4601347E
S214012EA0EFE7A5F10901484248411146F6E700BFA0
S214012EB0BAF103002DE9F0430B790446012B87B0E4
S214012EC016D0022B5AD0032000F0B8FB002852D0AF
S214012ED0384C394920681FF068FF1FF04BFD1FF082
S214012EE04AFD3649206807B0BDE8F0431FF05DBFD4
S214012EF04FF480332F4D01931FF03CFD1FF03BFD37
S214012F002F4928681FF051FF10262E4FDFF8C49076
S214012F100DF107081FF02EFD1FF02DFD3A784946EA
S214012F2028681FF042FF013E17F8013B16F0FF0626
S214012F3008F8013FEED11FF01DFD1FF01CFD2249D0
S214012F4028681FF032FF204601A91FF0EFFC064655
S214012F5088B1032000F072FB68B1174928681FF09A
S214012F6024FF1FF007FD1FF006FD334622461749D2
S214012F7028681FF01AFF07B0BDE8F083032000F0B1
S214012F805DFB60B10B4D0C4928681FF00EFF1FF06A
S214012F90F1FC1FF0F0FC0E4928681FF006FF2046E2
S214012FA0FFF74AFE2046FFF70BFD07B0BDE8F043EA
S214012FB000F058B87C1200206CED030033F20300D9
S214012FC0C9F103009A280020D8F10300E1F10300BB
S214012FD01BF20300D0F1030070B50B780546032BF6
S214012FE00C4612D8032000F029FB70B1194E1A497D
S214012FF030681FF0DAFE1FF0BDFC1FF0BCFC042396
S2140130002278164930681FF0D0FED4F80130B3F5A7
S214013010805F17D0B3F5803F1AD0032000F00EFB77
S214013020B0B10C4D0C4928681FF0BFFE1FF0A2FC82
S2140130301FF0A1FCD4F8012028680949BDE87040BA
S2140130401FF0B3BE2846611CBDE87040FFF732BFD3
S21401305070BD00BF7C1200206CED030052F203002D
S21401306094F2030070B503460C250020184C05FBAE
S21401307000F1625862B1B422625003315A1E2144F3
S214013080053312F8010F9A4201F8010FF9D170BD0C
S21401309001300428EBD1B42110460C2606FB02F5BC
S2140130A065598D4238BFD0B202F1010238BF2946B8
S2140130B0042AF3D10C21B42601FB00F511FB0022F2
S2140130C066511868A118A0509B888B80DFE700BF67
S2140130D03012002000220C4BF0B5451D53F8031C9E
S2140130E059B11C46411E14F8017F11F8016FB74211
S2140130F003D1A942F7D10120F0BD03320C2A03F116
S2140131000C03EBD10020F7E73312002013B547F28A
S214013110305003F04FF9142200230146CDE9002375
S2140131200D480E4A20F04EF898B1032000F086FABA
S21401313078B10B4C0B4920681FF037FE1FF01AFCC4
S2140131401FF019FC0849206802B0BDE810401FF0C6
S2140131502CBE02B010BD00BF6012002081310100FC
S2140131607C1200206CED0300B3F203000022034B37
S2140131701A60DA609A615A62FFF7C8BF30120020FF
S21401318008B5FFF7C3FF0023054951F8232012B104
S214013190013A41F8232003330C2BF6D108BD00BFBA
S2140131A0301200200368164A23F47F4323F00703F6
S2140131B0934210B522D1B0F805301E2B1ED1817A6C
S2140131C00479012917D1C37ADB0710D500232046DD
S2140131D01A4613F019FC41F2FC13002818BF1846D2
S2140131E0C2B21E212046BDE8104013F091BC204615
S2140131F013F020FCEFE741F20D10F1E710BD00BF20
S214013200A0000A02036837B523F47F43374A23F048
S2140132100703934207D002F1027202F5803293420D
S21401322006D003B030BD03B0BDE8304000F0AAB808
S214013230B0F805400579A4F12003827A082BF0D86E
S21401324001A151F823F000BF6D32010023320100C5
S2140132507F32010023320100BD320100233201001A
S2140132608F32010023320100D7320100012A39D101
S214013270C37A9A1E122A24D81D4A13701BE0012A0B
S21401328030D1C37A5A1E0E2A1BD81A4AF5E7531EA6
S214013290012B27D8002300F10B010DF10600ADF834
S2140132A006302BF03EF9144ABDF8063012889A42D1
S2140132B007D8124A138000F025F820B141F2FC101D
S2140132C001E041F2FF10C2B22146284603B0BDE834
S2140132D0304013F01DBC012A04D1C37A012BF0D86B
S2140132E0074ACAE741F20D10EDE700BFA000010052
S2140132F0AC280020AB2800204AF303002C2800202D
S214013300AA28002013B5194B194C1B78207853B9FD
S214013310184B1A88002300931146207813F0C2FA3E
S21401332030B102B010BD13F0DFFA0028F0D0F8E794
S214013330114B01211B782078012B14BF0122022298
S21401334013F00CFB0028ECD101460222207813F082
S21401335031FB0028E5D1CDE90000084B08490246BB
S2140133601B780978207813F077FBDAE7AD28002080
S214013370980C00202C280020AA280020AB2800202A
S214013380AC2800201421F0B54E4B85B01A880126D2
S214013390ADF80C204C4A9B78117020218DF80E3028
S2140133A000234A4A4A4F16704A4A4B4C11804B4AF0
S2140133B038462370137013F05DFA054630B3484C57
S2140133C0484920681FF0F1FC474920681FF0EDFCD2
S2140133D01FF0D0FA1FF0CFFA444B454A00934549F7
S2140133E0402320681FF0E1FC2B46434A43492068EE
S2140133F01FF0DBFC284600F067F9414920681FF002
S214013400D4FC384920681FF0D0FCFEE70321387849
S21401341003AA13F0B9FA054630B3314C3149206896
S2140134201FF0C3FC304920681FF0BFFC1FF0A2FA52
S2140134301FF0A1FA2D4B2E4A00932E4946232068F1
S2140134401FF0B3FC2B462C4A2C4920681FF0ADFC1C
S214013450284600F039F92A4920681FF0A6FC2149C0
S21401346020681FF0A2FCFEE7FFF74CFF054630B3CD
S2140134701B4C1C4920681FF098FC1B4920681FF054
S21401348094FC1FF077FA1FF076FA184B184A00934F
S21401349018494A2320681FF088FC2B46164A17490C
S2140134A020681FF082FC284600F00EF914492068B7
S2140134B01FF07BFC0B4920681FF077FCFEE72670A7
S2140134C005B0F0BD38F30300AC280020AB2800207F
S2140134D0980C00202C280020AD280020AA280020C7
S2140134E07C1200202DF003006BEE03003CF303007A
S2140134F0DBF2030095EE030035F30300A9EE0300AB
S214013500BEEE0300034B187818B1034B187813F07E
S214013510EBB97047AD280020980C0020036837B53A
S21401352023F47F433A4A23F007039342044664D0C8
S21401353002F18272934268D1B0F805102B2964D14A
S2140135400122344B00791A70002213F0E1FA054685
S21401355030B3314C314920681FF027FC30492068D0
S2140135601FF023FC1FF006FA1FF005FA2D4B2E4A1A
S21401357000932E493F2320681FF017FC2B462C4A48
S2140135802C4920681FF011FC284600F09DF82A49B6
S21401359020681FF00AFC214920681FF006FCFEE7A0
S2140135A0207913F01FFA054600282ED01A4C1B4925
S2140135B020681FF0FAFB1A4920681FF0F6FB1FF07F
S2140135C0D9F91FF0D8F9174B174A00931749432327
S2140135D020681FF0EAFB2B46154A164920681FF0A3
S2140135E0E4FB284600F070F8134920681FF0DDFB65
S2140135F00A4920681FF0D9FBFEE7064B1B7823B16A
S21401360003B0BDE830401FF049BE03B030BD00BF77
S214013610A0000601AE2800207C1200202DF0030039
S2140136206BEE0300B9F303004CF3030095EE0300C1
S21401363035F30300A9EE0300BEEE03000B4B024672
S2140136401B7883B10A4B1B78834234BF00200120CC
S214013650084B1B7833B1084B1B78134113F0010F4D
S21401366008BF002070470120F2E700BF9B0C002036
S2140136709A0C0020AF280020990C0020012208B5E2
S214013680074B1A700022074B1A700422064B1A7059
S2140136901F22064B1A7001F0F1FD054B186008BD9C
S2140136A09B0C0020AF2800209A0C0020990C0020CB
S2140136B07C120020024B034918681FF076BB00BF3E
S2140136C07C120020D9F3030070B50C4C0C49064659
S2140136D020681FF06AFB01F0D1FD0546206801F065
S2140136E0C1FD3046FFF7E6FF284601F0BBFD206826
S2140136F00449BDE870401FF058BB00BF7C12002093
S214013700DBF30300DDF303002DE9F047434D88B0FA
S21401371001AC0FCD0FC495E80700012584E807002A
S21401372001213A2000F0A2FBDFF8FC8001212820CD
S21401373000F09CFB3A4B404601A903938DF81250CA
S21401374001F0E8FA2B4604220021022001F02CF9B0
S2140137502A4629460023022001F026F902212B469B
S2140137600846042201F020F9042203212B460220F8
S21401377001F01AF94FF002132A4C0226C4F830362B
S214013780A3F58033C4F82C361C230827C4F8346606
S21401379004F5005AC4F81C364FF4487002F096FF40
S2140137A004F580591420CAF8707002F08FFF2320A8
S2140137B0C9F8707002F08AFFB9214046CAF87070E5
S2140137C01FF0B1FA002330461A461946C9F8707040
S2140137D001F0EAF8002329461A46304601F0E4F8DB
S2140137E02B4631463046002201F0DEF82B460022F9
S2140137F00321304601F0D8F8404601F0E1F90021F6
S2140138002820C4F83016C4F82C16C4F83416C4F8A8
S2140138101C1600F02BFB08B0BDE8F087E0F30300B0
S21401382000127A0000C0035000C0055008B500F031
S2140138302DF8124B12498B4212D30020114B12491C
S2140138408B4218D3FEF75CFD186850F82240586882
S21401385040F82240013298688242F5D30C33EAE7F9
S2140138600022F8E71C6844F8220001325C68A24294
S214013870F8D30833E4E70022F8E700BFC8410400A4
S214013880D4410400D4410400D44104004FF4004163
S2140138904FF0FF30124B134A10B59A60D3F88820C8
S2140138A042F47002C3F888200F4A916601F18841FC
S2140138B001F5005210664FF6DF7050660220C3F81D
S2140138C0D000BFF34F8FBFF36F8F08244FF4403300
S2140138D00648C0F88041D36004600B6110BD00BF8C
S2140138E000ED00E0002001000090005000E100E043
S2140138F0014B1868704700BFCC0A0020084B1B6FAD
S21401390003F00703022B04D0032B05D0012B05D0AF
S214013910FEE7044B18687047034BFBE70348704704
S21401392000800050CC0A0020D40A0020002D31016E
S21401393008B5FFF7E3FF054B1B6FC3F303330133F2
S214013940B0FBF3F0024B186008BD00BF00800050CA
S214013950C80A00200048704700B4C404014B186828
S214013960704700BFD40A0020054B1860054B1B6F3B
S21401397003F00703032B01D1FFF7DABF704700BF3F
S214013980D40A00200080005000487047002D310105
S214013990014B1868704700BFD00A002000239B6ABD
S2140139A010B5B3F5903F0BD2074C227812F0FD0FFD
S2140139B004D1DB69984710B901232370002010BD9C
S2140139C04FF48170FBE700BFB02800204FF0005392
S2140139D0074A1A60BFF34F8F0649074BCA6802F4BD
S2140139E0E0621343CB60BFF34F8F00BFFDE700BF1C
S2140139F002020FF000ED00E00400FA050346054A56
S214013A000549106803448B428CBF4FF0FF301360AA
S214013A10704700BFD80A00200080002010B50122A0
S214013A2043780178847830209A40054B00FB0133B7
S214013A301CB942F210015A5010BD41F21001FAE7CA
S214013A4000C0035010B501224378017884783020F5
S214013A509A40054B00FB01331CB941F210015A5044
S214013A6010BD42F21001FAE700C00350024B19687C
S214013A70024B186816F08ABFDC0A0020FC0A0020F8
S214013A8070B59400224605460E462AF069FF431C8F
S214013A900AD058B92246314628462AF003FD0028A6
S214013AA0034808BF002070BD0248FCE70248FAE759
S214013AB010E000F021E000F024E000F013B5044629
S214013AC001A801F03BF89DF80630012223804FF44F
S214013AD0807300206380054B9B680A3303F01F0345
S214013AE002FA03F3636002B010BD00BF0080E00F6E
S214013AF010B504462AF030FF431C15D0B0B90C4B64
S214013B0020469A6801230A3202F01F02934023F0EE
S214013B1003032344984201D1002010BD50F8042B22
S214013B200132F7D00348F8E70348F6E70348F4E71D
S214013B300080E00F0EE000F021E000F024E000F04D
S214013B4008B51FF09BF8014B186008BD70190020DE
S214013B50014B18681FF096B870190020044BD3F873
S214013B608420D206FBD4D3F88400C0F381107047BA
S214013B700040005038B5104B0546D3F820310C46AE
S214013B8003F00303022B0BD0032B0DD0012B0FD117
S214013B90FFF7AEFE052305B1286004B1236038BDEA
S214013BA0FFF7DCFE0323F6E7FFF7EEFE0223F2E75C
S214013BB000231846EFE700BF0080005073B50D469E
S214013BC000210E4B0191D3F88041064604F0030410
S214013BD0012C09D0022C0CD00C460EB1019B33608F
S214013BE005B12C6002B070BD01A8FFF7C3FF0F241A
S214013BF0F3E7FFF7C9FE0190EFE700BF0080005032
S214013C0038B5174B0546D3F824310C4603F00703A5
S214013C10013B052B20D8DFE803F0030F171B0B131E
S214013C20FFF766FE052305B1286004B1236038BDA1
S214013C30FFF75EFE0623F6E7FFF790FE0323F2E7A3
S214013C40FFF78CFE0423EEE7FFF79EFE0223EAE76A
S214013C501EF0C2FE0723E6E700231846E3E700BF8F
S214013C600080005038B5104B0546D3F840310C465D
S214013C7003F00303022B0BD0032B0DD0012B0FD126
S214013C801EF0ACFE092305B1286004B1236038BDDF
S214013C90FFF77EFE0823F6E71EF0A3FE0B23F2E7EE
S214013CA000231846EFE700BF0080005038B5134BDD
S214013CB00546D3F800320C4603F00703013B032BFD
S214013CC018D8DFE803F0020A0E121EF087FE092359
S214013CD005B1286004B1236038BDFFF759FE0823FB
S214013CE0F6E71EF07EFE0B23F2E7FFF721FE0E231A
S214013CF0800AEDE700231846EAE700BF008000507F
S214013D0038B5104B0546D3F840320C4603F0030392
S214013D10022B0BD0032B0DD0012B0FD11EF05EFE14
S214013D20092305B1286004B1236038BDFFF730FED2
S214013D300823F6E71EF055FE0B23F2E7002318468C
S214013D40EFE700BF0080005038B5104B0546D3F8AA
S214013D5060310C4603F00303022B0BD0032B0DD06E
S214013D60012B0FD11EF03AFE092305B1286004B1DC
S214013D70236038BDFFF70CFE0823F6E71EF031FE80
S214013D800B23F2E700231846EFE700BF0080005040
S214013D9010B40D4C0B46D4F8204204F00304012C59
S214013DA00AD0022C0CD008B1002101600BB1002210
S214013DB01A605DF8044B70475DF8044BFFF7DABEF6
S214013DC05DF8044BFFF74EBF00800050B0F5207F32
S214013DD01FD009D8B0F5007F15D003D868B1B0F56B
S214013DE0C07F0AD000200CE0B0F5607FFAD10B4B03
S214013DF0D3F88000C0F3011003E0084B186FC0F33E
S214013E00033001307047054BD3F89000C0F30460CF
S214013E10F7E7024B186FC0F38020F2E700800050EE
S214013E204FF400320E4B014610B500209A66FFF79C
S214013E30CDFF484341F671320A490B4B884294BF85
S214013E4000200120DC69DA639A6822F4401242EA13
S214013E5000529A60E20344BF0022DA6310BD00BF3D
S214013E6000900050005A620200000350420910B54B
S214013E700FD0012A0FD00A4B0A4C022A18BF23463C
S214013E8000F01F0049B103F58053012282401A60F9
S214013E9010BD1346F4E7044BF2E703F50053F4E7CD
S214013EA068800050608200506480005008B5802011
S214013EB01EF01BFE034B98429EBF4FF48032024B0E
S214013EC01A6708BD005A620200A000501FB5002301
S214013ED0B0F5807F019377D028D8382800F09480F9
S214013EE00BD82438092810D809280ED8DFE800F0A6
S214013EF0676767670D0D620D377D52285FD008D85A
S214013F003D283BD03E2800F08480019805B05DF83E
S214013F1004FB8028F9D1414B1B6F03F00703013BDB
S214013F20032BF2D8DFE803F044413F6CB0F5D06FC5
S214013F305BD019D8B0F5A06F66D00AD8B0F5806FFF
S214013F403DD0B0F5906FE0D1002001A9FFF758FEF3
S214013F50DBE7B0F5B06F2DD0B0F5C06FD5D100203E
S214013F6001A9FFF77FFED0E7B0F5006FECD00AD8C5
S214013F70B0F5E06F4DD0B0F5F06FC6D1002001A9C5
S214013F80FFF7E2FEC1E7B0F5086FBED1234BD3F8C9
S214013F90003103F00303022B2CD0032B2ED0012B70
S214013FA030D1FFF7DBFC032300E005230193ACE7E8
S214013FB00223FBE7002001A9FFF700FEA5E700208A
S214013FC001A9FFF7D7FDA0E702934FF0E0231B6995
S214013FD05B0705D5FFF7ACFC0C230393039BE5E7D2
S214013FE003A902A8FFF73EFEF8E7002001A9FFF7A4
S214013FF05DFE8AE7FFF7CCFC0823D7E71EF0ECFC52
S2140140000723D3E70123D1E7002001A9FFF7C0FE6C
S2140140107BE7002001A9FFF773FE76E700800050DA
S21401402008B5FFF753FF082811D00938012802D92F
S2140140304FF6FF7008BD4FF40012064B5A6603F5A3
S214014040D8335B6ADB07F3D54FF4FA70F2E7024B1D
S2140140501888EFE700900050800C0020F8B5044661
S2140140608020FFF733FF032800F087804FF40022FB
S214014070424B02215A6645F60E03414AC2F8803089
S214014080404B9962012103F580539962936DD903E0
S214014090FCD4D4E900131B0543EA0163E17B94F8E1
S2140140A020500B43217BE77E43EA0143617B6D0190
S2140140B043EA0133A17B43EA811313619169D4E991
S2140140C004031B0643EA806301F000410B43A17E13
S2140140D094F823000B43217E43EA0143617E43EAC1
S2140140E001239361136AE66923F00D0394F8221005
S2140140F043EA8703002E2DD11362966A94F8213085
S21401410045EA031326F033052B4343F0010393627C
S2140141101D4D1B4B9A6D35EA0202FBD10222194D49
S214014120AA621A659A6D5200FCD41A69A56822F42F
S214014130700242EA05521A614FF00042114B9A6131
S21401414019B9022203F580539A6278B901220F4BFE
S2140141509A620BE0334343F008031362936A23F039
S214014160330303432B4343EA4103936294F8243019
S2140141701BB1034B064AC3F88020F8BD00900050DF
S21401418000C0005000D000500300014000E0005085
S214014190F1A7FFFF014B93F900007047B1280020FB
S2140141A0F0B5D0E901434FF480061A4A4178057804
S2140141B056664FF4D156022702F5B8325662164EAD
S2140141C04F2977604FF0010728BF4F2106F580562B
S2140141D077601669F603FCD441EA052151611B019B
S2140141E0417B43EA04230B43017B43EA410393608B
S2140141F0C37B817B1B0143EA4113417C0B43017C5A
S21401420043EA41035360837C13B16FF4D153536285
S214014210F0BD00BF0090005000100250014B188006
S214014220704700BF800C00204FF4001208B5184BF1
S2140142305A660223174A5360936813F48033FBD1FE
S214014240012822D1FFF78AFB134B984215D003F5BC
S214014250122303F5F863984213D0104B00EB80024B
S214014260400AB3FBF0F3520A0A49CA620B63012300
S2140142704B620022074B5A6008BD45F67A13084A7E
S214014280F2E745F61A03074AEEE75362F1E700BF85
S214014290009000500040025000F0490264666666D5
S2140142A0D8B80500BBCF0500B0F5207F10B50C4689
S2140142B042D008D8B0F5007F33D003D888B1B0F526
S2140142C0C07F0ED010BDB0F5607FFBD11F4A4C1EDB
S2140142D0D2F8803023F0300343EA0413C2F880306A
S2140142E0F0E71EF0FAFB1EF0C4FC4FF48031184BC9
S2140142F0164A1967136F013C23F4704343EA0433EB
S2140143001367FFF715FB0446FFF728FCC0F102010F
S21401431020461EF0A8FC00F01DF8BDE81040FFF78F
S214014320C5BD0A4A4C1ED2F8903023F0F85343EA32
S2140143300463C2F89030C5E7044A4C1E136F23F499
S214014340806343EA84231367BCE700BF0080005004
S2140143500090005008B54FF4C0701EF0C6FBBDE8D3
S21401436008400449884294BF012102214FF420707D
S214014370FFF79ABF80F0FA02B0F5807F70B50C4661
S21401438000F0F88029D8382800F04B8110D824385E
S214014390092816D8092814D8DFE810F0DC00DC005C
S2140143A0DC00DC0013001300CD00130047003301CE
S2140143B0522800F0CF8005D83D2851D03E2800F085
S2140143C0428170BD8028FCD18B1E052B00F2B08087
S2140143D0DFE803F0AB99AE69AEA8B0F5D06F00F098
S2140143E0108132D8B0F5A06F00F01B8116D8B0F559
S2140143F0806F00F0AF80B0F5906FE2D1023C052CE3
S2140144008CBF0021984B994A98BF195DD2F8243188
S21401441023F007030B43C2F82431D2E7B0F5B06F9F
S21401442000F08980B0F5C06FCBD1083C032C8CBF5F
S21401443000218F4B8D4A98BF195DD2F8403123F089
S21401444003030B43C2F84031BBE7B0F5006FD5D08C
S21401445016D8B0F5E06F00F0F680B0F5F06FB0D189
S214014460083C032C8CBF0021824B804A98BF195D03
S214014470D2F8603123F003030B43C2F86031A0E7A2
S214014480B0F5086F9DD1CC1E052C8CBF00217A4B50
S214014490764A98BF195DD2F8003123F003030B4327
S2140144A0C2F800318DE7002502260121022000F026
S2140144B0A3F91EF012FB1EF0DCFB4FF480316F4BAC
S2140144C06A4A1967136F23F0070333431367FFF72D
S2140144D02FFA0646FFF742FBC0F1020130461EF0F6
S2140144E0C2FB0121002000F0C7F9FFF733FFFFF7F9
S2140144F0DDFC002D7FF465AF032C7FF462AF012253
S2140145005F4B9A625DE74FF400225C4B0E465A669B
S214014510012203F540539D6A03F58053C5F3400518
S2140145209A62C2E700250426BFE700250126BCE7FC
S21401453000252E46B9E7022C03D0A4F10F056C42E4
S2140145406C414A4AD2F8803123F003032343C2F870
S214014550803136E7023C032C8CBF0021494B434A8D
S21401456098BF195DD2F8203123F003030B43C2F83C
S214014570203126E7A1F10804082C3FF622AF01A35B
S21401458053F824F0A9450100A9450100C3430100E1
S214014590A9450100D7450100C3430100C3430100FB
S2140145A0C3430100A94501004FF480322F4B364921
S2140145B0586E03F580535A660B6AC00343F0010335
S2140145C00B625CBF314B5A664FF0E022136923F051
S2140145D004031361F5E64FF48032244B2A49586EE2
S2140145E003F580535A660B6A23F001030B62C1037D
S2140145F05CBF264B5A664FF0E022136943F0040372
S214014600E7E7083C062C8CBF0021214B174A98BFD0
S214014610195DD2F8003223F007030B43C2F80032CB
S214014620CFE60F2C0DD0A4F110035C425C41640070
S2140146300E4AD2F8203223F003032343C2F8203275
S214014640BFE60124F4E7083C032C8CBF0021114B84
S214014650064A98BF195DD2F8403223F003030B4394
S214014660C2F84032ADE600BF7AF403000080005085
S21401467080F4030080F403006DF403000090005002
S21401468000E0005084F4030000C0075000A0005072
S21401469073F4030080F4030010B5224B70B94FF495
S2140146A00031214A1860516602F598325268012A93
S2140146B003D11E4AD2F800211A6010BD1B68002BD8
S2140146C0FBD01B4A5268012AF7D0184A8020C2F84C
S2140146D00031FFF7FBFB05281FD14FF4C070FFF731
S2140146E075FB0128044604D102214FF4C070FFF780
S2140146F0DBFD07220F4B1A610122A3F580535A6096
S2140147000B4A1369DB07FCD5012CD6D12146BDE83F
S21401471010404FF4C070FFF7C7BD0122064B5A6028
S214014720CBE700BF741900200090005000800050B5
S21401473000C0015000E0015000D00150044A417809
S214014740536F23F4407343EA01235367704700BF56
S2140147500040005010B5044610B10020FFF79CFF42
S2140147600E4A136943F00403136101F0E7FB1EF0E0
S21401477095FA1EF083FA2AF0F7F81EF083FA1EF077
S2140147808EFA01F0EFFB1CB9BDE81040FFF7D0B878
S2140147900120BDE81040FFF77FBF00BF00ED00E03D
S2140147A010B5044610B10020FFF776FF0C4A1369D6
S2140147B043F00403136101F0C1FB1EF05FFA2AF017
S2140147C0D3F81EF05FFA01F0CDFB1CB9BDE810402E
S2140147D0FFF7AEB80120BDE81040FFF75DBF00BF90
S2140147E000ED00E0034A0179D36E23F030030B435A
S2140147F0D366704700400050F8B504461C4BD3F80A
S2140148008420D106FBD4D3F88430C3F381139C42B1
S2140148102CD0FFF773F8012C064602D121461EF074
S21401482022FA1EF02BFA4FF00072124B07465A6618
S21401483020461EF03BFA4FF480630D4D621E9340F6
S2140148402B676B6E9A0103D4D5F884309B060AD584
S21401485038461EF017FA022C08D13046BDE8F8405B
S21401486000211EF000BAD5F88430EAE7F8BD00BF93
S214014870004000500060005010B50C4608B9FFF724
S2140148803DF8074B21461B783BB1064B984204D8AE
S2140148900120BDE81040FFF7AFBF0220F9E700BFD7
S2140148A0B2280020005A62020278034B0121002040
S2140148B01A70FFF7E1BF00BFB22800204FF0004298
S2140148C010B501244AF6CD31154B5A66154A03F543
S2140148D00B2354605A6C1964224088B9996811F008
S2140148E0010F114903D08C60D86AC007FCD501239B
S2140148F04B6012B10D4B0E4A1A6429F097F810BDA1
S214014900D96A0907FCD42021074B59620121A3F576
S2140149108053996005494B6A9B06FCD5E9E700BFC1
S21401492000900050005009500060095000400950A6
S2140149303254FFFF4FF0004238B5174B174C5A66FA
S214014940012203F50C235A604AF6CD33656C2364C5
S214014950437893401343124AD363C3788178A2689D
S2140149609B0043EA011322F074021343A360027909
S214014970837943EA022323614279C37943EA022316
S21401498063610078FFF79AFFEB0744BF054B23648A
S21401499029F04CF8012038BD009000500040095025
S2140149A0004000503254FFFFF8B504460D461F463E
S2140149B016464AB101238B403021184A01FB0022DA
S2140149C0F7B141F21001535004EB4403072D4FF0A9
S2140149D00F014FEA031316D8A80006FA00F2814029
S2140149E00F4818441EF063F94EB9012330210B4AD3
S2140149F0AB4001FB042277B141F210015350F8BDE0
S214014A0042F21001DFE7A5F10800800006FA00F285
S214014A1081400448E5E742F21001EFE700C0035089
S214014A2004C003500CC003504FF40032054B9A6685
S214014A3041F6713203F51C33DA63012203F50053A4
S214014A40DA6070470090005041F671320121064B42
S214014A50DA6303F50052D1600022DA634FF40032C4
S214014A60A3F518339A66704700000350CB784A784E
S214014A7010B55B010C7843EA82030A79234343EAC3
S214014A8002130C22424302F1B0421363012C02BF0F
S214014A908A78024B43F8202010BD00BFE8800350FF
S214014AA008B54FF0B0435A686AB958B15B680BB1A4
S214014AB01EF00CF901210D4B59601EF007F94FF05D
S214014AC0B043D96008BD5B680BB11EF0FFF8002843
S214014AD0F0D11EF0FBF84FF0B0430222DA601EF070
S214014AE0F5F80122024B5A60ECE700BF00100058AF
S214014AF0002000584FF0B0414B6810B50BB11EF0C6
S214014B00E5F801220B4BC4785A608378934043EA58
S214014B10840344782343047943EA0413447943EA3B
S214014B20C4038B60044B5A600378C3F10203CB6065
S214014B3010BD00BF00200058001000584FF480320E
S214014B40064B5A6603F5E6235B69C3F3851282704A
S214014B5003F03F021B0B4270037070470090005039
S214014B6070B5054616461C4621B94FF420701DF057
S214014B70BCFF0146402C1BD003D8DCB1202C1BD037
S214014B8070BD602CFCD1042303FB06F2530803EB33
S214014B904113B3FBF2F3094A203B02EAC303AA68B6
S214014BA022F06002AA60AA681443AC60EB61E7E7F2
S214014BB00623E9E71023E7E70823E5E7F8FF7F0088
S214014BC0012200F580535A6040F6AA6341F20502BD
S214014BD0436100230B498360C365C26000F5005240
S214014BE00361C361C364916407498365884203D145
S214014BF003650023436502E004498842F8D0012397
S214014C0053607047FFFF010000C0055000000650CA
S214014C1070B50D46FFF7D4FF012300F5805673608B
S214014C20AB7C04461BB1836843F080438360EB7C16
S214014C305BB1354A2B7D944245D1A2F51032C2F8BC
S214014C408C31E36D43F08003E3652A8A6B7B204653
S214014C501343EA891343E3602B7BD5E90112FFF77F
S214014C607FFF6B7D1BB1A36843F48033A360AB7DEC
S214014C701BB1A36843F40043A360EB7D2A7E1B07A8
S214014C80120502F4E00203F0E0431343A365697ED4
S214014C901D4A8B1E012B1D4B1FD894421BD002F5BB
S214014CA0804294420CBF01224FF0FF3203EB4213C5
S214014CB0022041F21C620329985020D10423F36597
S214014CC02B78636170BD124A944204BFA2F520326C
S214014CD0C2F89C31B5E70022E8E794420DD00C4AB1
S214014CE094420CBF01224FF0FF3203EB4213022025
S214014CF042F21C6201299850DFE70022F5E7042200
S214014D0004F50053DA65DBE700C0055000C0035028
S214014D100000065038B50D46FFF752FF012200F598
S214014D2080535A602B8A826843F001031343AA7B9F
S214014D30044643EA8223836083682A7D43EA4273FA
S214014D408360AB7C5BB11D4AEB7C90422DD1A2F512
S214014D501032C2F88C31E36D43F08003E3652B7BA0
S214014D602046D5E9011243F48053E3601DF0B6FFF7
S214014D706B7B0BB1102363616B7D1BB1A36843F49E
S214014D808033A360AB7D1BB1A36843F40043A360EB
S214014D90EB7D2A7E1B07120503F0E04302F4E002D6
S214014DA01343A3652B78636138BD054A904204BF5F
S214014DB0A2F52032C2F89C31CDE700BF00C00550F5
S214014DC00000065038B50446054D28F055FE0FCCB8
S214014DD00FC594E8030085E80300002038BD00BF36
S214014DE07819002047F6FF739A42F0B563D002297E
S214014DF063D8334BCE0003EBC10513F83110AC7802
S214014E00012913D10021E878001B814202D32044F6
S214014E10C0B2F0BD431A6E68A0EB530336F91360B7
S214014E209642D4BF194603F1FF30EEE768680028C2
S214014E30EFD0B0F90010914204DBB0F902109142B4
S214014E40B8BF114682883344FF2A19BFC8222827D3
S214014E50B0F90620B0F908705E78A2EB01030CBF2A
S214014E600125002593FBF7F3721E2B44934228BFBE
S214014E7013464FF47A7E00EBC305AF68EA88AC466A
S214014E8011FB02721F4622EAE272013302F5FA7240
S214014E909E42B2FBFEF204D9BCF80CC0083594451C
S214014EA0EBD200EBC7039888904228BF1046A04279
S214014EB038BF2046ACE7FF20ABE70020A9E700BFDC
S214014EC0781900200229F0B551D82A4800EBC10410
S214014ED010F83110636801290FD1E078A478904268
S214014EE094BFC4EB0001C4EB0201001BCAB28242AC
S214014EF0C8BF002233F91200F0BD002B37D0A178CD
S214014F00914202D3B3F90200F6E7E178B3F9000063
S214014F109142F1D999886478A1F1FF06013C71426A
S214014F2003F10405E4B2714103F10C07CEB2B442B9
S214014F3016D805EBC1014FF47A756A43B1F9024000
S214014F404968521A04EBD47102EB610292FBF4F247
S214014F509042D1DBB3F902009042CDDC10B2CBE730
S214014F6037F831C04E1C9445E3D33146DEE702489C
S214014F70C2E700BF781900200080FFFF08B504488B
S214014F80FFF720FFBDE80840012028F077BD00BFED
S214014F9088F4030000487047820C00207FB5022287
S214014FA0084B0949CDE901234FF00073CDE90313FE
S214014FB0052301A94FF0FF30059328F093FD07B0B4
S214014FC05DF804FB006A18000002040007B56B4692
S214014FD0054A1068516803C36846FFF7ABFC00201A
S214014FE003B05DF804FB00BF0CF5030013B5002405
S214014FF0064A6846536F43F00103536700948DF8E1
S2140150000440FFF7EFFB204602B010BD0040005001
S21401501030B58BB06C46164D0FCD0FC40FCD0FC4F7
S21401502095E8030084E80300124BD3F84C211203E1
S21401503019D5A3F5FE431C884FF6FF739C4208BFA3
S21401504078248DF81940FFF7A5F8204480F308006E
S2140150508DF818000848FEF787FC6846FEF7FEFF45
S21401506000200BB030BDD3F85041E4B2E9E700BFF1
S21401507014F503000080E00F00F0490230B5094D39
S21401508087B001AC0FCD0FC42B6801A82360252380
S2140150908DF80530FFF784F86420FFF7BFF800208D
S2140150A007B030BD3CF503006FF00403502110B586
S2140150B00A480B4C13F0800F03F1010207D1234479
S2140150C0402A83F800131346F4D1002010BD03F0E4
S2140150D00F03043B034419761346EBE700ED00E0AB
S2140150E000E100E038B501F0A3F80446E0B901F0AC
S2140150F05BF94FF4167343430C4A03F5742303F22A
S2140151003F23B3FBF2F30A21094A0A4813600A4D0A
S2140151100268013911F0FF0145F8043BF9D11A4440
S21401512003EBC30313440360204638BD40420F001F
S214015130C41900209419002098190020012208B5EE
S214015140034B1A701EF061F8024B186008BD00BFD1
S214015150B328002090190020F8B5144C237823B307
S2140151601EF053F8124B134D1B68134EC01A01283C
S21401517038BF0120114B124F18602B7856F82320A8
S21401518046F82300111A3A680E48521A0A213A6064
S2140151900932B2FBF1F20133DBB20260B3FBF1F28A
S2140151A001FB12332B7000232370F8BDB3280020B7
S2140151B090190020B428002098190020C01900205A
S2140151C094190020C4190020014B1868704700BFCD
S2140151D0C419002020234FF400220A4981F82C33F9
S2140151E0094B5A66094A03F5405303F500504267D6
S2140151F002674FF48050C1F88401486003445A673F
S214015200704700BF00E100E000900050010000A0E0
S214015210044B9A6DD20702D40028FAD170470120B8
S214015220704700BF00C000500C4B10B51C6FE20762
S21401523007D5012203F500531A67FFF78DFF00F02B
S21401524077FD14F000521CBF054B1A67002CBEBF39
S2140152504FF00042024B1A6710BD00BF00C000505D
S21401526000E0005010B504461DF008FD024B1C601E
S2140152701DF008FD002010BDC819002010B51DF056
S214015280FDFC034B1C681DF0FDFC204610BD00BF55
S214015290C8190020034B02221868002380681946AB
S2140152A01CF008BEEC0B002038B504461DF0E6FCE9
S2140152B005460121204600F04FFB20460121044A05
S2140152C000F066FD2846BDE838401DF0DBBC00BF97
S2140152D050F5030038B504461DF0D0FC0546002104
S2140152E0204600F039FB20460021044A00F050FD1C
S2140152F02846BDE838401DF0C5BC00BF50F5030088
S214015300002807DB01234109034A00F01F00834000
S21401531042F82130704700BF00E100E0002808DBBA
S21401532001224309034900F01F008240603341F81F
S2140153302320704700E100E070B504460668FFF7D9
S2140153409DFF844202D10020FFF78CFF96F928507A
S2140153502846FFF7E3FF002D0CDB012215496B09F8
S21401536005F01F05AA40203341F82320BFF34F8FD5
S214015370BFF36F8F96F929502846FFF7CFFF002D10
S2140153800CDB01220B496B0905F01F05AA402033EF
S21401539041F82320BFF34F8FBFF36F8F00233046B2
S2140153A0C4E90033C4E90433A360F368BDE8704080
S2140153B0184700BF00E100E0F8B51F4653680646EF
S2140153C00C461546002B5BD09368002B5AD0302232
S2140153D00021204629F090F86B682B4AE361AB6800
S2140153E0204623622B7B84F82430AB7B276084F82D
S2140153F0253040F20113E384069B00276360079B78
S214015400A360089BE3602B7884F828306B7884F8D7
S21401541029301E4B346073601D4BB3601D4B3361E6
S2140154201D4B73611D4BF3601D4B3362012384F8E2
S2140154302E30B2611B4AF2619DF8282084F82D2097
S2140154409DF8242084F82A3084F82C20697B84F87F
S2140154502B701DF00BFD95F901402046FFF75EFF0E
S2140154602046FFF74DFF95F900402046FFF756FF0F
S2140154702046FFF745FF3046FFF7F4FE3846F8BDF5
S2140154802220FCE72120FAE76D2E0300A32F03005C
S214015490272F03005B2E0300612E03003953010002
S2140154A03F2E0300672E03002DE9F04101271C461D
S2140154B0584B86B00293584B0C9D0193574B904620
S2140154C000930A46CDE903772946554BFFF774FF4B
S2140154D00646002840F09580236839462B636368AA
S2140154E03A206B63637A85F83930237A85F8383049
S2140154F0E37A85F83B30A37A85F83A30637B85F802
S2140155003D30237B85F83C30E37B85F83F30A37B39
S21401551085F83E30FEF7AAFC3B460422617A207AE3
S214015520FFF742FA3B460222E17AA07AFFF73CFAFD
S21401553039466068FEF79AFC88F8006041462068A4
S214015540FFF766FB1422237C5B0103F1A04303F5FE
S2140155507033C3F81C26617A227A42EA0142C3F804
S2140155603426E17AA27A42EA0142C3F82C2685F86B
S214015570406098F81930032B49D8DFE803F0344629
S214015580021C022385F8403000230422E17BA07B25
S214015590FFF70AFA022741F21C61227C214B03EB3A
S2140155A042104750E07BA17BB13241EA004103EB58
S2140155B04213996017E0012785F840300222002344
S2140155C0617B207BFFF7F0F9637B227B217C42EA3B
S2140155D00342154B49015A500422236803F58053B0
S2140155E0DA65002FD0D1237A052185F83830637A21
S2140155F085F839302068C36C43F00403C3641DF09A
S2140156007DFB304606B0BDE8F0810027D4E72326AF
S214015610F7E700BF7D30030071300300F930030067
S214015620ED30030000C0035024D60350BFF35F8F54
S214015630074B5A6A22F480325A62D3F8942022F039
S2140156400102C3F89420BFF34F8FBFF36F8F7047EB
S21401565000ED00E070B52948294CFFF7E7FF8442CA
S214015660284D294919D1D5F8C03023F0FF0343F05E
S214015670A003C5F8C0304FF080430A68214D234E81
S214015680C5F8982043F0010301328442C5F89C60B6
S214015690C5F8A0300A601ED00DE0D5F8C02020F075
S2140156A01F03203B22F0FF0242F0A002B3F1005F8D
S2140156B0C5F8C020E1D2164B0A68124823F01F0332
S2140156C043F00303C0F89820C0F89C30114B013218
S2140156D0C0F8A0300A60BFF35F8F0522094BC3F8FC
S2140156E094205A6A42F480325A62BFF34F8FBFF356
S2140156F06F8FBFF34F8FBFF36F8F70BDB40C002059
S2140157008C0E002000ED00E0CC19002003000020E4
S214015710AB0E0020E1FFFF3F10B51446FFF786FFF2
S2140157201F2C24D91C4A1D4CD2F8C03023F47F43C9
S21401573043F48073C2F8C030C2061CBF20F01F00BD
S2140157402030CB06144A236818BF21F01F0120F031
S2140157501F0021F01F01C2F8983040F0030041F00D
S21401576003010133C2F89C00C2F8A0102360BFF306
S2140157705F8F0522084BC3F894205A6A42F48032A0
S2140157805A62BFF34F8FBFF36F8FBFF34F8FBFF3D5
S2140157906F8F002010BD00BF00ED00E0CC19002087
S2140157A0BFF34F8F0549064BCA6802F4E062134304
S2140157B0CB60BFF34F8F00BFFDE700BF00ED00E0F9
S2140157C00400FA05034B1B78002B0CBF02200120B6
S2140157D0704700BFBF2800200329F8B598BF124BB9
S2140157E005460E468CBF00245C5C032805D8DFE81E
S2140157F000F002080B0E44F002040C4B1F684FB970
S214015800F8BD44F00804F8E744F02004F5E744F056
S2140158108004F2E77B681A68144203D031462846B2
S2140158205B6898473F68EAE77AF50300F8190020B5
S21401583038B5104D2B78ABB10F4C23781BB100F067
S214015840BDFB00232370002000F0DAFB0B4C50B1A7
S21401585000F0E0FB0023012120782B70FFF7BCFF4E
S2140158600123237038BD0122054B1A702278054B9F
S2140158701A70F7E7BA280020B8280020C1280020AF
S214015880BB280020BC28002010B51DF0F7F9064BF8
S21401589004461B781BB1BDE810401DF0F3B9FFF7B5
S2140158A0C7FF2046F7E700BFB728002010B504461B
S2140158B001460C4A012000F06BFA0B4A137834B10A
S2140158C001331370094B1B78012B03D810BD013B24
S2140158D01370FBE7064B1B78002BF7D1BDE8104091
S2140158E0FFF7A6BF5EF50300BF280020C1280020F1
S2140158F0BB28002070B51DF0C1F9124E054633785D
S2140159009BB900F095FC044620B128461DF0BAF973
S214015910204670BD00F02AFA0B481DF065F80B4BC7
S2140159201C6000F041FD0A4B186000F089FA1DF07A
S2140159302AFC084B002418600123284633701DF00A
S214015940A1F9E5E7C2280020F8190020D0190020A7
S214015950F4190020D41900202DE9F843284A01380B
S214015960135C39B1274F013313543A78012A04D80E
S214015970BDE8F883013B1354FAE7FFF723FF01283C
S214015980044635D81DF07AF9DFF88480054698F884
S214015990003013B31C4E33781BB9012232701B4AF8
S2140159A01370DFF8709099F8003023B100F006FB11
S2140159B0002389F8003028461DF064F9012000F024
S2140159C01FFB1DF05BF9337805461BB100F022FB87
S2140159D000233370002388F8003028461DF052F962
S2140159E03878A042C4D02146FFF7F6FE3C70BFE7E8
S2140159F0032AF5D10228F3D11DF0C9FBF0E700BF59
S214015A00BF280020C1280020B7280020BB2800207E
S214015A10BA280020B828002010B504461DF02EF93B
S214015A20002C0CBFFF210121064A13780B44DBB280
S214015A301370B3FA83F3BDE81040034A5B09137091
S214015A401DF020B9BE280020BD28002038B51DF065
S214015A5015F9094B05461B78012B04D81DF012F9E0
S214015A600024204638BD054B1C6800F007FB0444A3
S214015A7028461DF007F9F4E7C1280020D0190020B8
S214015A8038B5416004461DF0F9F80546214604483C
S214015A901CF0ADFF2846BDE838401DF0F3B800BF46
S214015AA0F8190020054B1B685843054B00F5742078
S214015AB000F23F20B0FBF3F0704700BFF41900205E
S214015AC040420F002DE9F04F85B01DF0D7F804468F
S214015AD0AFF300801CF0C0FE002870D07F4FDFF8C7
S214015AE028823B7823B10020FFF7E0FE00233B70BD
S214015AF0FFF768FE0546002869D0851EEDB2012D28
S214015B006CD9FFF75FFE01280646754DDFF8FC915C
S214015B1000F288802878864240F0C280287800F01B
S214015B2097FA99F8003013B16E4B1B782B70AFF3D0
S214015B30008020461DF0A6F81DF0A0F86A4B04462A
S214015B401A7852B100221A70664B28781B78984250
S214015B5003D101212970FFF73FFE644800F0A2FB44
S214015B601CF084FE06460028BBD1614BDFF88C8111
S214015B70187098F80030ABB189F80000DFF884910E
S214015B8099F800301BB100F019FA89F8006000207E
S214015B9000F036FA002800F0968000F03BFA002369
S214015BA088F800303B7823B10020FFF77FFE002302
S214015BB03B7000212878FFF70FFE00232B70AFF310
S214015BC00080204605B0BDE8F04F1DF05BB83B787D
S214015BD0002B96D0FFF76AFE3D7092E7002003A9DE
S214015BE000F0AEFB054600288BD1D8F80030039AAA
S214015BF09A4205D80120FFF759FE01233B7080E742
S214015C003C4B1E6800F03AFA039930448842F1D2C0
S214015C100223091ACDE90053374A2B4633481DF0B3
S214015C20B7FA6EE7354BDFF8C8A093F800B0BBF1C2
S214015C30000F25D11DF0A5FA2878864230D19AF8B2
S214015C4000307BB92D4E3378002B7FF467AF2C4B99
S214015C501B7823B900F0ACF901222A4B1A700123F4
S214015C6033705BE7022EEDD18AF800B015E02B7891
S214015C70022B25D100238AF8003028F039F81FE0DE
S214015C80287886420CD19AF80030002B3FF446AFB4
S214015C90022ED7D100238AF8003028F029F8D1E760
S214015CA00023DFF84CA08AF8003099F8003013B9C9
S214015CB03146FFF791FD9AF800302E70002BD6D1B1
S214015CC0012EBFD82AE7012000F0C2F920461CF0B9
S214015CD0D9FF1CF0D3FF044659E700BFB9280020BE
S214015CE0C1280020BC280020B5280020D819002093
S214015CF0BD280020D019002089580100BA280020AC
S214015D00BE280020B8280020D4190020BB28002077
S214015D1010B51CF0B3FF0022044B1C781A701CF05F
S214015D20B1FF00F019FC2043C0B210BDB628002018
S214015D3010B5094B1B786BB1084C237853B100F0B2
S214015D4069F90023064A237013700123054A13706C
S214015D50054A137010BD00BFC1280020BB280020D3
S214015D60BA280020B6280020B528002070B50024E7
S214015D70054D064E2946304601341CF038FE0A2CE5
S214015D8005F10805F6D170BD001A0020FC190020A7
S214015D9070B5154660B1134B013803EB800671B13F
S214015DA011481CF028FE014618B901220F4B1A7043
S214015DB070BD45603046BDE870401CF018BE53F813
S214015DC02040002CF4D02946606828F0A0FB08B1DA
S214015DD02468F6E7214630461CF015FE21460248A7
S214015DE0E9E700BF501A0020FC190020C328002054
S214015DF073B5114E0446337883420FD04FF40073C7
S214015E000E4DADF8043058B101A8FEF797FC4020BE
S214015E10FFF748FE2B68181A2860347002B070BD70
S214015E208DF8050001A8FEF789FC4020FFF73AFE31
S214015E302B681844F0E700BF9C0C0020581A00207D
S214015E4073B500244FF4002501A88DF80440FEF731
S214015E502BFD2046FFF7CCFF314B324A186F3249F3
S214015E6000F007001060D3F82041D3F824214D66D6
S214015E704FF400354D6601F59831896903282B4D9D
S214015E802B4801F0020103D004F00304022C2DD1AB
S214015E900123037011B3224BD3F8003103F003033F
S214015EA0022B36D0032B37D0012B17D1FDF756FD29
S214015EB0024698B11F4B204EDC6800231946C4F3F6
S214015EC00B04013404EB84040138E4FB06011BF0E7
S214015ED0EDFCFFF7E7FD2B6803442B606420FFF71A
S214015EE0E1FD2B6803442B6002B070BD02F007028F
S214015EF0961E7442744104700029EFD0022ACAD05B
S214015F00D3F8003103F003035A1E53425341037082
S214015F10C1E7FDF73DFDCBE71CF05EFDC8E700BF1E
S214015F20008000505C1A002000900050581A002093
S214015F30C628002000C0015040420F00074B1A78C7
S214015F4052B100221A70064A136F23F0070343F07A
S214015F5001031367FDF7ECBC704700BFC52800209E
S214015F60008000500E4B10B51B7883B102201DF047
S214015F706BF960B100F012FA48B10A4B9A6DD20380
S214015F8006D5DB6D9B0703D50122074B9A6210BD30
S214015F900124064B1C70FFF7D1F8034B9C62F6E711
S214015FA0C628002000C0005000D00050C4280020A1
S214015FB00122014B1A707047C528002038B50C4BDA
S214015FC01B786BB10B4C23787BB90B4B0B4D9A6D41
S214015FD012F4803F05D0DB6D9B0702D50123AB622F
S214015FE038BDFFF7ABF80123AB6200232370F7E758
S214015FF0C6280020C428002000C0005000D0005051
S214016000034B1B780BB1FFF703B90120704700BFA4
S214016010C628002008B51CF046FE094A0949136F38
S214016020096823F007030B431367074B1B7813B16B
S2140160300122064B9A62BDE80840FDF779BC00BF15
S214016040008000505C1A0020C628002000E00050A6
S21401605002280AD003280BD001280CD1064A13695E
S21401606023F00403136130BF70470020FEF772BBB4
S2140160700020FEF795BB704700ED00E008B5054B24
S214016080187818B1FFF7A0F800EBD000024B1B6898
S214016090184408BDC6280020581A00200122014BCA
S2140160A01A707047C628002038B51DF0BAF80025CA
S2140160B0084B094C1A682368C31A2AB123B15169DF
S2140160C0994203D3C91A5161206038BD55615B1AE4
S2140160D09268F2E7681A0020641A0020C38870B537
S2140160E004460D463BB9FFF7B1FC8542064602D28F
S2140160F01DF03CF835460E4965610B688BB90C609E
S214016100A3600DE0AD1A9A68184665616AB1134638
S2140161105A69AA42F6D930B18460521BA3605A610B
S21401612070BD0020F4E70C60F7E79C60A260F7E71B
S214016130681A002038B5134D2B685B6993B1124A73
S214016140022014681C441DF073F8204600F052FA31
S21401615000230E492A680B70D088800709D50123D1
S2140161600B7038BD02201DF063F8022000F08CFA97
S214016170EEE79268002AF4D050690344012BEBD96C
S214016180EFE700BF681A0020641A0020C828002024
S21401619070B516469DF81420C0E903360271049ABC
S2140161A0BDF8183002600022C380826004460D46A6
S2140161B01DF037F83044A0613DB9E368656113B15D
S2140161C020462168984796B135461CF057FD06468D
S2140161D0FFF76AFF29462046FFF780FF054B1B683D
S2140161E0A34201D1FFF7A6FF30461CF04BFD00206D
S2140161F070BD00BF681A002000220C490B687BB1F5
S21401620083420AD183687AB1936083681BB15A6965
S21401621041690A445A61002070471A469B68EEE7B6
S2140162200028EFD0022070470B60EEE7681A0020C6
S21401623070B51CF02AFD144E05463478FCB9134B94
S2140162401C60134B1C60134B1C8000F091F901205D
S2140162501CF0EEFF1DF007F80F4B0246186020B940
S21401626028461CF018FD232070BD234640F2E73176
S2140162700A481BF01BFB0A4B1860012333702846A3
S2140162801CF009FD0020EFE7C9280020681A00204D
S214016290641A00202E2800206C1A002018FCFFFF2C
S2140162A0601A002070B5044640B31CF0E7FC144E9B
S2140162B00546FFF7F9FE3068A04209D02046FFF7F1
S2140162C09BFF0446B0B128461CF0DCFC204670BD9E
S2140162D0FFF792FF04460028F5D133683BB9022048
S2140162E000F0BAF928461CF0CDFC0024EEE7FFF7D3
S2140162F021FFF7E73368002BF4D1F0E72224E5E726
S214016300681A002038B50C460546A8B1A1B100238D
S2140163100B701CF0BAFC0121084B1B6833B91CF04A
S214016320BAFC002038BD9D4204D121702278002A93
S214016330F9D0F4E79B68F1E72220F3E7681A00201A
S214016340F8B506460F461CF0A0FC00250446114B86
S2140163501B6823B920461CF09EFC1B2015E05A69D9
S2140163601544DA88B24213D11CF05BFF0A4E33683B
S214016370C01AA8420AD21CF054FF33682B441B1AD9
S21401638020463B601CF087FC0020F8BD0023F7E7A1
S2140163909B68DEE7681A0020641A0020014B187813
S2140163A0704700BFC8280020014B1868704700BF1F
S2140163B06C1A0020044B1B6858434FF47A7300F2A2
S2140163C0E730B0FBF3F070476C1A0020F8B50C4BC1
S2140163D005461B680E4683420FD3002440F2E73081
S2140163E02146084B4FF47A721F680023E5FB07012C
S2140163F01BF05CFA30602046F8BD2120FCE700BFA8
S214016400601A00206C1A00200F4B10B51A689AB15A
S2140164104FF47A71531E1342A0FB01010ED1B2FA5A
S21401642082F2C2F11F04531CD243E04001FA03F387
S214016430184321FA02F20243104610BD00231BF056
S21401644035FA0246F8E700BF6C1A0020C2072DE9AC
S214016450F04704460BD53D4A138801339BB213809F
S214016460FFF722FE3A4B1B680BB1FFF763FEA3074B
S21401647069D51CF00AFC002605463746FFF714FED0
S214016480B146DFF8CC80D8F800400CB1636983B11F
S2140164900022304B012F1A7002D1022E08BF1F7046
S2140164A0002C4CD0FFF746FE2846BDE8F0471CF00E
S2140164B0F2BB23465A693AB91A792179914288BFC3
S2140164C01C469B68002BF5D128461CF0E4FB256989
S2140164D0C5B11CF0A6FEA269861AF317B54279EB80
S2140164E0030310DA23691344A361E368E6880137DE
S2140164F013B12046216898471CF0C7FB0546FFF7F5
S214016500D3FDC0E72E461CF0C0FB82462046FFF7AF
S21401651073FE50461CF0BFFB2369002BE5D0AD1B74
S2140165201CF0B3FB064629462046FFF7D7FDA369B4
S214016530226930461344A3611CF0ADFBD5E7022067
S21401654000F08AF8B0E7BDE8F08700BF2E280020EB
S214016550681A0020C728002010B51CF096FB034BD4
S2140165601C781CF098FB204610BD00BFC7280020F1
S2140165701FB500241C4B012118689A880290D3F895
S21401658006009B7A00903E20ADF80C208DF8043072
S214016590FDF76CFC02A88DF808408DF80C40FEF75C
S2140165A0A9FA694601208DF80040FEF75FFA4FF020
S2140165B0B04240F2FF31936923F47F7323F0030363
S2140165C093610A4B5961936A13F00803FBD1136276
S2140165D00120FEF765FA4FF48052054BC3F880217F
S2140165E01A6004B010BD00BF7EF5030000200058FD
S2140165F000E100E010B504461CF040FB4FF0B0424D
S214016600936A1907FCD4136A116C5269520604D4B2
S214016610CA1A032A01D899420ED1E21A022A98BF51
S214016620DC1CB4F1FF3F38BF013C4FF0B0431C64A3
S2140166309A6942F040029A611CF024FB054A1378DD
S2140166403BB14FF0B041CB6B43F00203CB63002369
S214016650137010BD9D0C0020820700F001030AD5BF
S2140166600121084A43F0400311704FF0B041CA6B54
S21401667022F00302CA634FF0B0418A6922EA03039B
S2140166808B6170479D0C0020830742BF4022014B5F
S2140166905A6170470010005810B51CF0F6FA4FF01A
S2140166A0B04304465B695A06074A03F0010003F04B
S2140166B0510348BF40F002005361FFF7C7FE204672
S2140166C0BDE810401CF0E7BA0020005810B504469B
S2140166D0FDF72EF90C4BA0F57A729A4212D84FF4B8
S2140166E07A73B0FBF3F05C43084BB3FBF0F3B4FBF7
S2140166F0F3F0022806D9BDE810400323B0FBF3F0FF
S214016700FBF71EBD10BD00BFFFC99A3B40420F00FC
S214016710024A0349034802F0E3B900BF8CF50300BF
S214016720B8F5030018F603000A4619B1024B00211A
S2140167301B681847704700BF000B00200E4B034034
S214016740B3F1607F06D1B1F5885F14BF6FF08600A4
S21401675000207047B3F1707F0BD101F4E043B3F52D
S214016760005F06D111F4E06F0CBF6FF086000020C9
S21401677070476FF0860070470000C07F8A42F8B508
S21401678006460C4600F0DB806F4922F4FF7323F0C7
S21401679001038B420ED06D4B22F0FF01994209D0C6
S2140167A06B4822F47F7323F00303834202D0694BC4
S2140167B0994228D1684B24F0FF0199420FD114F079
S2140167C0FF000BD0654B40F00070984240F0B98056
S2140167D082EA0400FF288CBF00200120F8BD5B4B35
S2140167E09942ECD0A3F588539942E8D024F4FF737C
S2140167F023F00103B3F1062FE1D056488142DED0E3
S21401680053498B42DBD004F0FE43B3F1A06F14D1A1
S21401681002F0FE43B3F1A06F40F0938082EA0403D6
S21401682033F47E1340F08D8014F40040D6D0C4F3C8
S2140168300540C2F305429042CDE7B3F1407F6AD1ED
S21401684002F0FE43B3F1407F7BD182EA040535F4C2
S2140168507E1576D131462046FFF770FF002870D1AD
S2140168603F4B12F47C1703EA02031BD0B3F1607F9F
S214016870C2F305473FD13B49D3B243F000738B4285
S2140168803DD003F17E43043B0F2B01D83649CD5C46
S21401689014F47C1FC4F3054333D1BD4214BF00205A
S2140168A001209BE7B3F1607F0DD12E49D3B243F0AF
S2140168B000738B421DD003F17E43043B0F2BDAD8C5
S2140168C02A49CF5CD7E7B3F1707FE1D106F4E04304
S2140168D0B3F5005F03D10127C6F302239F4006F4F8
S2140168E0E043B3F5005FD3D10125C6F302218D4005
S2140168F0CEE71027BFE7B3F1707FC9D1EFE71025C8
S214016900C6E712F47C1F01D1AB4218D022047FF5F2
S21401691065AFBB425FE7B3F1106F12D124F01F6081
S21401692020F4702068B902F0FE43B3F1106F7FF4D3
S21401693055AF0F48104040F01060A042AEE701206E
S2140169404CE700204AE700BF0002000600130006DD
S214016950000400060009000600030006FF0000020E
S2140169600000C07F0300000242F6030042F6030067
S2140169700000FFF62DE9F843884617461C4600F04E
S21401698063FA054688BBD8F80060B6F8009009F4AB
S214016990E043B3F5804FF36808BF27F0010737EAF5
S2140169A003031AD10CB3254B24F0FF029A421FD1E0
S2140169B014F0FF0304D0224A43F00073934232D00E
S2140169C0224648463169FFF7D9FE074668B922468E
S2140169D048467169FFF7D2FE70BB6FF0840500234D
S2140169E03046C8F800301DF0F7FA2846BDE8F883AF
S2140169F0144B9A42DCD0A3F588539A42D8D024F49B
S214016A00FF7323F00103B3F1062FD1D00E498A425A
S214016A10CED00E4A9342CBD004F0FE43B3F1407F72
S214016A2004D12304CCD56FF08605D8E7B3F1A06F67
S214016A30F7D0034B9C42C2E73D46D6E7000300066B
S214016A40FF0000020013000600090006000400060D
S214016A5038B500F0FE43B3F1407F04460D4602D040
S214016A606FF0860038BDFFF769FE0028FAD114F4EE
S214016A707C1F05D0C4F30543032B13700DD828E003
S214016A80254B2340B3F1607F29D12449E3B243F07B
S214016A9000738B4216D1102313701F4A2240B2F1A5
S214016AA0607F2AD11D4AE4B244F00074944231D08A
S214016AB004F17E44043C0F2CD2D8194A125D93424D
S214016AC0D0D9CDE703F17E43043B0F2B04D9002335
S214016AD013706FF08500C5E71249CB5CCCE7B3F1C4
S214016AE0707FF4D101F4E043B3F5005FEFD10123E9
S214016AF0C1F302218B40DBB2BEE7B2F1707FAFD1AA
S214016B0005F4E042B2F5005FAAD10122C5F30225E1
S214016B10AA40D4E71022D2E70000C07F030000029B
S214016B2042F6030042F6030037B50C4D0C462B78AF
S214016B30DB070FD500230A460193014601AB281D4A
S214016B401DF0ABFF20B9019BA34218BF6FF0930065
S214016B5003B030BD6FF08800FAE700BF701A00205E
S214016B602DE9F04F9A460023914601F0FE4297B078
S214016B70B2F1806F0E46DDE920B7DDF88880089314
S214016B8070D10B464FF4807208A9FFF7F3FE044656
S214016B90002841D1DDF820C00DAC6546CDE91400D2
S214016BA00FCD0FC495E80700BCF8003084E8070055
S214016BB003F4E042B2F5005F1BD113F4E06FC3F3B8
S214016BC0022116D0334826F4807282420AD000F59C
S214016BD00070864206D03048864203D0A0F53F407A
S214016BE0824206D101258D40102D0DD96FF0830408
S214016BF012E042F20402934202D1284B9E420FD089
S214016C00274B9E420ED10D25AF4228D3294609A80F
S214016C10FFF78AFF044630B108981DF0DDF91CE045
S214016C200C25F1E700250BEB0503CDE903A3CDE920
S214016C3001597F1B0597089909AFCDF81880009771
S214016C403346D1E908120DA81DF013F90646089837
S214016C501DF0C2F904465EB13446002513E06FF01C
S214016C608904D9E718461DF0B7F96FF08604F4E7F2
S214016C700028F2D125B12A463946584627F051FC5C
S214016C80D8F800301D442046C8F8005017B0BDE8BB
S214016C90F08F00BF0010C00400FF40040001800414
S214016CA00013C00408B500F073F8084B0C211A78DD
S214016CB0064812F0060F1CBF0022C3E90122FFF7A7
S214016CC033FDBDE808401CF0FFBF00BF701A00206E
S214016CD038B50E4D2B7813F0010211D1C5E901220A
S214016CE0022262F342032B7000F046F8044650B9C4
S214016CF01CF0E8FF044630B92B7843F001032B70F3
S214016D000024204638BDFFF7CDFFFAE7701A0020B1
S214016D1000F100420332022A38B504460D4609D86E
S214016D202821144B01FB02339A68824211D06FF07E
S214016D308B0015E001211DF03EF9A0B10D4B9A68BC
S214016D40944206D01A6B94420BD09A6D9442EED1BF
S214016D505033DA69511C09D000200132DA612B6008
S214016D6038BD2833F5E76FF08700F9E76FF0960036
S214016D70F6E700BF7C1A0020044A002092F878301B
S214016D8043F0010382F87830704700BF7C1A002078
S214016D9038B501250A4C2046E5611CF01FFC04F1BC
S214016DA0280065641CF01AFC04F15000E5661CF02E
S214016DB015FC94F878306FF3000384F8783038BD0A
S214016DC07C1A0020F8B51E4C064694F878300F461B
S214016DD0D8072BD500252346294618881A46A8B178
S214016DE02DB91A791AB1DA69002A08BF1D46013190
S214016DF0032903F12803F0D115B96FF08C0017E0D1
S214016E0001232846EB611CF0E9FB2A46D369591C8D
S214016E1012D000200133D361141B0A4BE4105C43EB
S214016E2004F10044033C34603A60F8BD6FF088001A
S214016E3000233B603360F8E76FF09600F8E700BF89
S214016E407C1A0020CDCCCCCC0023F0B50B60264BB1
S214016E50074693F878300D46DC0785B041D5FFF735
S214016E6057FF10F18C0F04461ED1294601A8FFF7E3
S214016E70A9FF0446C0B901232E68CDE90200B76018
S214016E803046736003AA02A91DF038F9044670B1B2
S214016E90DDE902011DF028F928681CF09FFB14F1BA
S214016EA08C0F08BF6FF08704204605B0F0BDDDE902
S214016EB0021230461CF043FB0446DDE902011DF0D8
S214016EC013F9002CE8D12B68DA68D00444BF42F4E9
S214016ED08062DA60DA689104E6D542F40062DA602C
S214016EE0E2E76FF08804DFE77C1A002030B4224D19
S214016EF02C681C606C685C6000241C725C729C725E
S214016F00DC725468250A1C735D73250C240E9D7370
S214016F10DC7314881C74240A5C7454889C74240AD8
S214016F20DC74D468250A1C755D75250C240E9D75C8
S214016F30DC751469250A1C765D76250C240E9D7673
S214016F40DC765269140A1A775C77140C120EDA771B
S214016F500A0A83F821200A0C83F822200A0E9C775D
S214016F6083F8201083F8232030BC0A46014603F13B
S214016F70240027F0D6BA00BF52F603002DE9F843E5
S214016F80232904460F4691469846089E04D86FF07A
S214016F9098052846BDE8F8830822194927F082FAA1
S214016FA005460028F3D1A368002BF0D1216A243FBF
S214016FB0B942C8F80010EAD8B1F5005FE7D271B956
S214016FC0C9F80000E3687360238A3380638A73809C
S214016FD06369F360A3693361E3697361D9E70120EB
S214016FE01CF07DF9C9F8000030B1D8F8002004F192
S214016FF0240127F096FAE5E76FF08C05C9E700BF94
S21401700052F603001B0603F0706300F00F0009023E
S214017010034301F47061120402F470220B4313431C
S214017020014A1360704700BF0020025C60B5054648
S21401703019B10139B1F5806F0FD2094EF06810F41D
S2140170408030FBD143EA012312072B4302F0805222
S214017050134343F00043736060BD0120FCE700BFAB
S2140170600020025C0122054B9A60DA68D203FCD448
S214017070D86820F00F000004000C70470020025C66
S214017080014B1868704700BF0040025C014B58680E
S214017090704700BF0010025C014B186B704700BFC1
S2140170A00010025C014B1868704700BF0010025CBC
S2140170B0014B9860704700BF0010025C014B1864DA
S2140170C0704700BF0010025C014B5864704700BF58
S2140170D00010025C014B5863704700BF0010025C51
S2140170E00022014B1A6070470010025C024A1368C6
S2140170F043F00103136070470010025C43F2040280
S214017100014B1A60704700BF0010025C024A136808
S21401711043F03003136070470010025C044B1A689A
S21401712042F480721A601A6822F480721A607047FC
S2140171300010025C024A136843F4806313607047D0
S2140171400010025C034A136823F4702343EA0043E9
S214017150136070470010025C044B1A6902605A699A
S21401716042609A698260DB69C36070470010025C06
S2140171700268044B1A6142685A6182689A61C26861
S214017180DA6170470010025C024B1A6BD207FCD41E
S214017190186270470010025C0322024B18601961E6
S2140171A05A6370470000025C82B01FB507930A9BC2
S2140171B004AC8B4228BF0B4604E907001048D100F7
S2140171C0079948BF03330160099948BF23F00303B9
S2140171D023F0704301F0E041194341F00051816012
S2140171E0002102F0E042019C1A4342F00052C160C5
S2140171F004618261416304B0BDE8104002B070478B
S2140172000000025C3F22034B1A631022DA6103225C
S2140172109A6370470000025C024AD36B9B07FCD45A
S214017220704700BF0000025C044B9B6A13F0240FFA
S21401723014BF012000208000704700BF0000025CE0
S21401724008B5FFF7F1FF064BDB6B23F47F4323F012
S214017250EF0303431EBF0122024BC3F8FC2F08BDF8
S2140172600000025C00F0FF3F4368182B0AD0202B79
S2140172701DD0102B2BD1174BD3F80434DB010AD4C5
S21401728001207047134BD3F804349A01F8D50B68E4
S21401729043F008030B6003680F4A934210D10B6852
S2140172A043F040030B600023436000207047094B06
S2140172B0D3F804345B01E3D50B6843F00403E9E734
S2140172C0064A9342F1D10B6843F08003EAE70720B0
S2140172D0704700BF0000025CCB280020CA280020AF
S2140172E00B4607B50749D1F80414C90708D500218C
S2140172F000920246084600F05BF803B05DF804FB16
S2140173000120FAE70000025C1346064AD2F804247C
S214017310D20504D50A46014600201DF040B90120D9
S214017320704700BF0000025C13B5084CD4F8044453
S214017330E40508D5009313460A460146002000F0EE
S21401734061F802B010BD0120FBE700BF0000025C3F
S21401735013B5084CD4F80444E40508D50093134645
S2140173600A460146002000F071F802B010BD012067
S214017370FBE700BF0000025C70B504460D461646EA
S2140173808CB00A4A09AB07CA83E807001A462146A9
S214017390CDE90563CDE90333CDE9013300954FF41B
S2140173A080301DF028F80CB070BD00BF5CF60300FD
S2140173B0F0B51C465B6815468DB01A07129E1AD1A9
S2140173C0CBB17268934216D10C4B0D4A53F821701B
S2140173D009AB07CA83E807001A462946CDE90533F3
S2140173E0CDE90333CDE90163009447F480701DF0C5
S2140173F002F80DB0F0BD0720FBE700BF68F60300FA
S2140174005CF60300F0B516465A688DB0102A0D4694
S214017410129F15D17A68102A12D10A4A09AC07CAF6
S21401742084E8070022462946CDE90547CDE903440D
S214017430CDE90144044800961CF0DDFF0DB0F0BD17
S2140174400720FBE75CF6030030000100F0B51646A6
S2140174505A688DB0102A0D46129F15D17A68102AE7
S21401746012D10A4A09AC07CA84E80700224629460F
S214017470CDE90574CDE90344CDE9014404480096FD
S2140174801CF0B9FF0DB0F0BD0720FBE75CF603006A
S2140174901000010082B070B586B0149D03AE202D99
S2140174A086E807000B9359D805EB85038B4203D07A
S2140174B006236B438B4253D10C9BAB4250D10F9B9F
S2140174C0B3EB450F4CD1129A934249D1012229467A
S2140174D02220159BFFF7AAFD044630BB0346062271
S2140174E00E210C20FFF78EFD0123CDE900332B463C
S2140174F096E807001CF012FF0E230BAA009307CA9A
S2140175002B461CF056FE0C23164C00930EAA2B4657
S21401751007CA1CF07EFE636823F07F0343F0260350
S2140175206360FFF79FFD30B10624204606B0BDE834
S214017530704002B07047636823F07F0343F0220374
S2140175406360FFF78FFD04460028EDD1062311AADC
S214017550009307CA2B461CF08FFEE6E70124E4E7FA
S2140175600724E2E70020025C70B598B0002843D0FB
S2140175702C4C08AD0FCC0FC50FCC0FC50FCC0FC5CB
S21401758094E80F0085E80F006D4604AE04F1100381
S21401759020340FCB85E80F0094E80F0086E80F0033
S2140175A0FFF7BCFD0420FFF7CDFDFFF7A7FD304632
S2140175B0FFF7DEFD002408AE56F8040B0134FFF792
S2140175C0E3FD102CF8D1FFF761FD0328FBD9002459
S2140175D0FFF786FD2646FFF753FD55F8043B0136B7
S2140175E05840042E44EA0004F5D12CB101220620AD
S2140175F00D4B1A7018B070BDFFF790FD0820FFF70D
S21401760057FD0020FFF75AFD0720FFF75DFD4FF4F9
S2140176100070FFF75FFD0820FFF794FDFFF766FD9A
S2140176200020E7E750F70300CD28002008B5FFF754
S21401763075FD0122014B1A7008BD00BFCC28002041
S21401764030B589B005AC84E80700FFF725FDC30512
S21401765001D5FFF7EBFF0A4D2B781BB11DF01EF984
S21401766000232B70074B069AD3E901018DE803002E
S21401767002921B6894E807001DF016F809B030BDA9
S214017680CC28002044F703001FB51DF007F9044677
S21401769030B1012206240D4B1A70204604B010BDED
S2140176A0FFF7EEFC0090FFF7EBFC0190FFF7E8FC1C
S2140176B00290FFF7E5FC03906846FFF759FDFFF7D8
S2140176C0B5FFFFF723FDFFF735FDE6E7CD280020E0
S2140176D030B5154B87B00293144B0390049346F6CE
S2140176E011030D46059300F077F91428044616D1C8
S2140176F068461DF085F94FF0A843032202A95A6394
S21401770019601D619A63DA6B9207FCD1142C02D1C1
S21401771068461DF083F900F093F9044601E000285D
S214017720E9D0204607B030BDF81A0020040000203A
S2140177302DE9F04FB1B005468C469E46E8466F4EA1
S214017740DDF8EC90409C06F1100A474630687168F7
S214017750083603C75645B846F7D13E9B03EB0208E9
S214017760C8F1000A0AF00F0AB9F1000F00F09D8077
S214017770C9F1000707F00F070121DDF8FCB044F05E
S2140177800050C4F11006CDF810B0059106903002F5
S21401779000F4F85040F021000790B9F1000F40F0D6
S2140177A08680CDF820D047F00050002D00F0848070
S2140177B0099121210A9041EA07210B9142F00050DC
S2140177C0CDF830C03D9B08A94FEA0A2C0D910E90CA
S2140177D04CF041000F901093002A75D13E9B1191F9
S2140177E043F0005312933C9B1390149310AB1593E4
S2140177F0434B444A169340F611031793424B00211C
S214017800002D08BF1346189314AB19933F4B102253
S2140178101A9311231B931CAB184626F06DFE01220A
S2140178201D92002246F0804603461E96239205B915
S214017830EB46102CCDF880B024AE4BD10123224666
S214017840002130462193229426F056FE20AB0021DB
S21401785025938F4218BF334647F0804226923A9AC4
S2140178602CA828922993B2FA82F35B0949EA83731A
S21401787010222B912A9326F03FFEB9F1000F00D07B
S21401788028AED04448F080432CA918A82D962E93F4
S214017890FFF71EFF30B92DB90346A34225D10028B4
S2140178A018BF2C2031B0BDE8F08F102764E7CDF863
S2140178B020E049F0005078E7002C3FF479AF04A9A6
S2140178C0099101210A9076E73E9B0CAA119241206C
