S00E000046617265466F622E73333751
S214012000C00A002065320100F7200300F720030014
S214012010A7280300F7200300F7200300F72003009A
S214012020F7200300F7200300F7200300F720030042
S214012030F7200300C0E503002D1F0300F72003006F
S214012040F7200300F7200300F7200300F720030022
S214012050F7200300F7200300F7200300F720030012
S214012060F7200300F7200300F7200300F720030002
S214012070DD5F0100F7200300F7200300D12B0100EC
S21401208029200300F7200300F7200300F7200300B0
S214012090F7200300F7200300F7200300F7200300D2
S2140120A0F7200300F7200300F7200300F7200300C2
S2140120B0F720030029050300F7200300F50E0300AF
S2140120C0ABD90300A7D90300F9060300B7D903006B
S2140120D0AFD90300CD0E0300B3D90300550F03009B
S2140120E075EA020029EC0200350F0300F720030011
S2140120F051240300F7200300F7200300F720030014
S214012100F7200300F7200300F7200300F720030061
S214012110F7200300F7200300F7200300F720030051
S214012120F7200300F7200300F7200300F720030041
S214012130F7200300F7200300F7200300F720030031
S214012140013800D0FCE7704770B505463E4C8AB0B2
S21401215020B10023008823600DF072FB3B482AF073
S2140121601BFF3B4E3B4B304633603B4B736025F0C9
S214012170E3FD0021304618F0DFFB31A3D3E900234D
S214012180A062C4E9062325F0DFFDD4E9062319433E
S21401219010434FF0FF33C4E90601CDE900014FF0CB
S2140121A0FF32A06A2AF03DFF02224FF0FF31A06AFB
S2140121B02AF03CFF01200DF0BFF84FF40073002217
S2140121C02649A06A2AF086FFB0F5007F34D10023A5
S2140121D09422CDE9073309933C23CDE903320593D5
S2140121E09623A06A03A9069318F0CCFC15B3287CA5
S2140121F00DF022FE0546D0B9A06A2BF041F80DF08D
S21401220049F820B14FF48070002109F009FF0DF064
S21401221051F820B14FF40060002109F001FF0120C0
S21401222018F0DEFB0E4A0F49A06A25F083FD28460A
S2140122300AB070BDFF20DBE70725F8E7AFF30080A3
S21401224009D5015520000000100F002017C712F312
S214012250342100208DFA010028210020281F0020AB
S214012260DD7C03001D7D03000348044B834202D03E
S214012270034B03B118477047940E0020940E0020BC
S21401228000000000064B0749C91A891048BF0131F2
S214012290491003D0044B0BB101481847704700BFE3
S2140122A0940E0020940E00200000000010B5064C8D
S2140122B0237843B9FFF7D8FF044B13B10448AFF3B3
S2140122C000800123237010BD942700200000000029
S2140122D05033040008B5054B1BB105490548AFF35B
S2140122E00080BDE80840FFF7CDBF00BF000000003A
S2140122F06811002050330400A3F5803A704700BFF0
S214012300174B002B08BF134B9D46FFF7F5FF002127
S2140123108B460F461348144A121A2BF002FC0E4B3A
S214012320002B00D098470D4B002B00D0984700207B
S214012330002104000D000D48002802D00C48AFF320
S21401234000801FF0BBFA200029001FF0E3FD1FF0FC
S21401235035F800BF00000800000000000000000083
S214012360C00A0020940E0020B829002000000000BA
S2140123700000000010B5054C20461FF0CCFE20469C
S2140123801FF0CFFEBDE8104005F0DCBE70E4030090
S214012390F0B5027E03463AB91446104613F81A6F92
S2140123A00C4FE1B2B14201D3002009E013F8015FFE
S2140123B038B1511CBA5CC9B2AA42F5D10D2905D96A
S2140123C0F0BDA5F109014842484111460A460134CB
S2140123D0E7E700BFD4DF030070B50368B14A23F412
S2140123E07F4323F00703934204468CB000F0F58147
S2140123F028D802F17F42934200F0EF8102F5803245
S214012400934200F0EC81A2F5A022934239D003203A
S21401241000F030FE002800F0E081A34DA3492868B3
S21401242020F041F81FF036FE1FF035FE2268A04965
S214012430286822F47F4222F007020CB0BDE8704003
S21401244020F031B89B4A934200F06E8202F57F027B
S2140124509342DCD10430FFF79BFF002800F0BD81DA
S214012460032000F007FE002800F0B7818E4C8F494C
S214012470206820F018F81FF00DFE1FF00CFE8E49A4
S2140124804CE2032000F0F6FD90B1874D874928689D
S21401249020F009F81FF0FEFD1FF0FDFD6389874956
S2140124A0019323890093E388A28828681FF0FBFF25
S2140124B00DF11F0108A813F069FF044630B37A4DE9
S2140124C07F4928681FF0EFFF7E4928681FF0EBFF61
S2140124D01FF0E0FD1FF0DFFD7B4B7C4A00937C493B
S2140124E0A92328681FF0DFFF23467A4A7A4928681D
S2140124F01FF0D9FF204600F003FE784928681FF038
S214012500D2FF6F4928681FF0CEFFFEE7BDF82430E2
S21401251001465BBAADF828309DF8233008228DF8C5
S2140125202A30FF238DF82B30FE238DF82C309DF8B2
S214012530223012208DF82D30BDF820305BBAADF870
S2140125402E300AAB13F0D4FE054630B3564C5C4928
S21401255020681FF0A8FF5B4920681FF0A4FF1FF04A
S21401256099FD1FF098FD584B584A00935849B923D6
S21401257020681FF098FF2B46564A574920681FF0DF
S21401258092FF284600F0BCFD544920681FF08BFFDF
S2140125904B4920681FF087FFFEE7032000F06AFD25
S2140125A020B3414C414920681FF07DFF1FF072FDAA
S2140125B01FF071FD9DF820309DF81F0004939DF8D3
S2140125C02130474903939DF82230464A02939DF8ED
S2140125D02330002818BF0A4601939DF8243042494B
S2140125E0009320689DF825301FF05DFF3F4E304672
S2140125F013F06EFD054630B32B4C314920681FF0B1
S21401260052FF304920681FF04EFF1FF043FD1FF0B8
S21401261042FD2D4B2D4A00932D49C62320681FF0FD
S21401262042FF2B462B4A2C4920681FF03CFF2846C8
S21401263000F066FD294920681FF035FF2049206813
S2140126401FF031FFFEE70221307813F08DFD0446BE
S21401265000284DD0144D1A4928681FF024FF194947
S21401266028681FF020FF1FF015FD1FF014FD164B04
S214012670164A00931649CB2328681FF014FF2346F9
S214012680144A154928681FF00EFF204600F038FD51
S214012690124928681FF007FF094928681FF003FF41
S2140126A0FEE700BFA0000501F0110020A0DF030037
S2140126B05DE10300A000060142E10300FFDF030025
S2140126C040E1030027E0030078E103002CE003006B
S2140126D035E0030041E0030044E0030059E0030055
S2140126E0E3DF0300F1DF03006AE00300940C00203F
S2140126F0A022009003461146307813F001FD0546EE
S21401270030B3AA4CAA4920681FF0CDFEA94920681B
S2140127101FF0C9FE1FF0BEFC1FF0BDFCA64BA74A6A
S2140127200093A749D42320681FF0BDFE2B46A54A77
S214012730A54920681FF0B7FE284600F0E1FCA34932
S21401274020681FF0B0FE9A4920681FF0ACFEFEE735
S2140127500221307813F01CFD054630B3934C9449A2
S21401276020681FF0A0FE934920681FF09CFE1FF012
S21401277091FC1FF090FC904B904A00939049D8230F
S21401278020681FF090FE2B468E4A8F4920681FF066
S2140127908AFE284600F0B4FC8C4920681FF083FEB0
S2140127A0834920681FF07FFEFEE7032000F062FCED
S2140127B060B17E4C864920681FF075FE1FF06AFCEA
S2140127C01FF069FC834920681FF06DFE824805F002
S2140127D0CBFC0121084605F0CDFC0CB070BD0320F2
S2140127E000F048FC68B1714D794928681FF05BFE1E
S2140127F01FF050FC1FF04FFC227B784928681FF021
S21401280052FE032000F036FCB0B1684D70492868CE
S2140128101FF049FE1FF03EFC1FF03DFC2379704976
S214012820039363790293A3790193E3790093237A5F
S214012830627A28681FF037FE6A4A13780133DBB2E2
S214012840032B1370C9D8644C0221207813F08CFC3A
S214012850054630B3554C564920681FF024FE5549AD
S21401286020681FF020FE1FF015FC1FF014FC524BD1
S214012870524A00935249F12320681FF014FE2B465A
S214012880504A514920681FF00EFE284600F038FCD9
S2140128904E4920681FF007FE454920681FF003FED9
S2140128A0FEE70221207813F073FC054630B33F4C57
S2140128B03F4920681FF0F7FD3E4920681FF0F3FDF1
S2140128C01FF0E8FB1FF0E7FB3B4B3C4A00933C49FB
S2140128D0F52320681FF0E7FD2B463A4A3A4920685F
S2140128E01FF0E1FD284600F00BFC384920681FF078
S2140128F0DAFD2F4920681FF0D6FDFEE7032000F021
S214012900B9FB00283FF469AF284C314920681FF015
S214012910CAFD1FF0BFFB1FF0BEFB334920680CB099
S214012920BDE870401FF0BFBD032000F0A3FB68B1F7
S2140129301E4D274928681FF0B6FD1FF0ABFB1FF0A0
S214012940AAFBA279294928681FF0ADFD224E022173
S214012950307813F009FC0546002849D0134C144979
S21401296020681FF0A0FD134920681FF09CFD1FF092
S21401297091FB1FF090FB104B104A0093104940F258
S214012980031320681FF08FFD2B460E4A0E49206860
S2140129901FF089FD284600F0B3FB0C4920681FF0A4
S2140129A082FD034920681FF07EFDFEE7F01100203E
S2140129B040E1030027E0030078E103002CE0030078
S2140129C035E0030041E0030044E0030059E0030062
S2140129D0A0DF0300A0E00300940C0020B6E0030093
S2140129E0CEE0030095270020FEE0030015E103007A
S2140129F0234C2378032B3ED90221307813F0C8FBF1
S214012A00054638B31F4C204920681FF04CFD1F496E
S214012A1020681FF048FD1FF03DFB1FF03CFB1C4BE0
S214012A201C4A00931C4940F2091320681FF03BFD25
S214012A302B461A4A1A4920681FF035FD284600F031
S214012A405FFB184920681FF02EFD0F4920681FF014
S214012A502AFDFEE7032000F00DFB60B1094D124987
S214012A6028681FF020FD1FF015FB1FF014FB0F490F
S214012A7028681FF018FD2378013B2370ADE600BFE0
S214012A8095270020F011002040E1030027E0030015
S214012A9078E103002CE0030035E0030041E0030089
S214012AA044E0030059E00300A0DF03002DE103002A
S214012AB008B5184B1B68C3F30743012B0ED1164B01
S214012AC004205A6E4FF480231449520358BF144A07
S214012AD04B6601F51041086258BF536602F000F8D4
S214012AE01FF005FB01F08EFF1FF0B0FC01F0ACFFFC
S214012AF01FF0A6FC01F0DEFF1FF04CFA01F092FF7A
S214012B001FF0EAFA00F066FC00F0CCFCBDE80840D5
S214012B1002F0D6BB0080E00F00800050009000500D
S214012B2000A0005070B5124E92B035460BAC0FCDDA
S214012B300FC495E80700032384E8070006F11C0587
S214012B4006AC8DF845300FCD0FC42B68236002AC60
S214012B5006F130030FCB84E80F00064B21460093A5
S214012B600BAA06AB044802F08FF912B070BD00BF85
S214012B7030E4030080110020C4110020831E012BC5
S214012B800AD8012913D80422094B1B69C3F3401341
S214012B900521002001F024BC0239012907D80128AB
S214012BA005D8034B00221B69C3F34013F0E77047B7
S214012BB000C0035008B50449044802F045FCBDE8CE
S214012BC00840FFF7AFBF00BFC00A0020E811002091
S214012BD0014B18681FF040BEC4110020014B1A6A51
S214012BE018681047C411002001481FF094BA00BFAE
S214012BF070E403000368164A23F47F4323F00703B7
S214012C00934210B522D1B0F80530152B1ED1817A2A
S214012C100479012917D1C37ADB0710D50023204692
S214012C201A4613F01FFB41F2FC13002818BF184682
S214012C30C2B215212046BDE8104013F06FBB2046F6
S214012C4013F026FBEFE741F20D10F1E710BD00BFD0
S214012C50A0000A02036837B523F47F43374A23F0FE
S214012C600703934207D002F1027202F580329342C3
S214012C7006D003B030BD03B0BDE8304000F0AAB8BE
S214012C80B0F805400579A4F11703827A082BF0D82D
S214012C9001A151F823F000BFBD2C0100732C0100E7
S214012CA0CF2C0100732C01000D2D0100732C0100A7
S214012CB0DF2C0100732C0100272D0100012A39D1D8
S214012CC0C37A9A1E122A24D81D4A13701BE0012AC1
S214012CD030D1C37A5A1E0E2A1BD81A4AF5E7531E5C
S214012CE0012B27D8002300F10B010DF10600ADF8EA
S214012CF006302AF021FF144ABDF8063012889A429F
S214012D0007D8124A138000F025F820B141F2FC10D2
S214012D1001E041F2FF10C2B22146284603B0BDE8E9
S214012D20304013F0FBBA012A04D1C37A012BF0D844
S214012D30074ACAE741F20D10EDE700BFA000010007
S214012D40B8270020B72700200EE5030048270020FB
S214012D50B627002013B5194B194C1B78207853B9A8
S214012D60184B1A88002300931146207813F0C8F9EF
S214012D7030B102B010BD13F0E5F90028F0D0F8E745
S214012D80114B01211B782078012B14BF012202224E
S214012D9013F012FA0028ECD101460222207813F033
S214012DA037FA0028E5D1CDE90000084B084902466C
S214012DB01B780978207813F07DFADAE7B927002026
S214012DC0980C002048270020B6270020B7270020AF
S214012DD0B82700201421F0B54E4B85B01A8801267D
S214012DE0ADF80C204C4A9B78117020218DF80E30DE
S214012DF000234A4A4A4F16704A4A4B4C11804B4AA6
S214012E0038462370137013F063F9054630B3484C07
S214012E10484920681FF047FB474920681FF043FBDD
S214012E201FF038F91FF037F9444B454A00934549DE
S214012E30402320681FF037FB2B46434A434920684E
S214012E401FF031FB284600F05BF9414920681FF06E
S214012E502AFB384920681FF026FBFEE70321387855
S214012E6003AA13F0BFF9054630B3314C3149206847
S214012E701FF019FB304920681FF015FB1FF00AF9F7
S214012E801FF009F92D4B2E4A00932E494623206840
S214012E901FF009FB2B462C4A2C4920681FF003FB28
S214012EA0284600F02DF92A4920681FF0FCFA21492E
S214012EB020681FF0F8FAFEE7FFF74CFF054630B32F
S214012EC01B4C1C4920681FF0EEFA1B4920681FF0B6
S214012ED0EAFA1FF0DFF81FF0DEF8184B184A0093E5
S214012EE018494A2320681FF0DEFA2B46164A17496E
S214012EF020681FF0D8FA284600F002F91449206825
S214012F001FF0D1FA0B4920681FF0CDFAFEE72670B4
S214012F1005B0F0BDFDE40300B8270020B727002068
S214012F20980C002048270020B9270020B62700204B
S214012F30F011002040E1030027E0030001E5030053
S214012F4088E4030035E0030041E0030044E00300A9
S214012F5059E00300036837B523F47F433A4A23F068
S214012F6007039342044664D002F18272934268D109
S214012F70B0F80510222964D10122344B00791A7069
S214012F80002213F0CBF9054630B3314C31492068A5
S214012F901FF089FA304920681FF085FA1FF07AF889
S214012FA01FF079F82D4B2E4A00932E493F232068B7
S214012FB01FF079FA2B462C4A2C4920681FF073FA29
S214012FC0284600F09DF82A4920681FF06CFA21492E
S214012FD020681FF068FAFEE7207913F031F90546FC
S214012FE000282ED01A4C1B4920681FF05CFA1A499B
S214012FF020681FF058FA1FF04DF81FF04CF8174BD9
S214013000174A00931749432320681FF04CFA2B46B2
S214013010154A164920681FF046FA284600F070F84F
S214013020134920681FF03FFA0A4920681FF03BFA4F
S214013030FEE7064B1B7823B103B0BDE830401FF016
S214013040CFBC03B030BD00BFA0000601BA270020E8
S214013050F011002040E1030027E003007DE50300B6
S21401306010E5030035E0030041E0030044E00300FF
S21401307059E003000B4B02461B7883B10A4B1B78C1
S214013080834234BF00200120084B1B7833B1084B24
S2140130901B78134113F0010F08BF00207047012071
S2140130A0F2E700BF9B0C00209A0C0020BB270020F3
S2140130B0990C0020012208B5074B1A700022074B15
S2140130C01A700422064B1A701F22064B1A7001F062
S2140130D0F1FD054B186008BD9B0C0020BB270020A6
S2140130E09A0C0020990C0020F0110020024B034995
S2140130F018681FF0D8B900BFF01100209DE5030045
S21401310070B50C4C0C49064620681FF0CCF901F04E
S214013110D1FD0546206801F0C1FD3046FFF7E6FF08
S214013120284601F0BBFD20680449BDE870401FF049
S214013130BAB900BFF01100209FE50300A1E5030026
S2140131402DE9F047434D88B001AC0FCD0FC495E88B
S2140131500700012584E8070001213A2000F0A2FBC0
S214013160DFF8FC800121282000F09CFB3A4B40460A
S21401317001A903938DF8125001F0E8FA2B460422B8
S2140131800021022001F02CF92A46294600230220BC
S21401319001F026F902212B460846042201F020F907
S2140131A0042203212B46022001F01AF94FF00213E4
S2140131B02A4C0226C4F83036A3F58033C4F82C36E0
S2140131C01C230827C4F8346604F5005AC4F81C36D4
S2140131D04FF4487002F01CFF04F580591420CAF819
S2140131E0707002F015FF2320C9F8707002F010FF0E
S2140131F0B9214046CAF870701FF013F90023304613
S2140132001A461946C9F8707001F0EAF800232946F3
S2140132101A46304601F0E4F82B4631463046002285
S21401322001F0DEF82B4600220321304601F0D8F8E3
S214013230404601F0E1F900212820C4F83016C4F810
S2140132402C16C4F83416C4F81C1600F02BFB08B074
S214013250BDE8F087A4E5030000127A0000C0035021
S21401326000C0055008B500F02DF8124B12498B42EC
S21401327012D30020114B12498B4218D3FFF740F8A6
S214013280186850F82240586840F822400132986881
S2140132908242F5D30C33EAE70022F8E71C6844F8CB
S2140132A0220001325C68A242F8D30833E4E7002228
S2140132B0F8E700BF583304006433040064330400A5
S2140132C0643304004FF400414FF0FF30124B134AB1
S2140132D010B59A60D3F8882042F47002C3F88820AB
S2140132E00F4A916601F1884101F5005210664FF6CA
S2140132F0DF7050660220C3F8D000BFF34F8FBFF3D4
S2140133006F8F08244FF440330648C0F88041D360DD
S21401331004600B6110BD00BF00ED00E0002001005D
S2140133200090005000E100E0014B1868704700BFB4
S214013330CC0A0020084B1B6F03F00703022B04D0B6
S214013340032B05D0012B05D0FEE7044B1868704708
S214013350034BFBE70348704700800050CC0A00206F
S214013360D40A0020002D310108B5FFF7E3FF054B15
S2140133701B6FC3F303330133B0FBF3F0024B18604A
S21401338008BD00BF00800050C80A002000487047F2
S21401339000B4C404014B1868704700BFD40A00206B
S2140133A0054B1860054B1B6F03F00703032B01D178
S2140133B0FFF7DABF704700BFD40A00200080005034
S2140133C000487047002D3101014B1868704700BF57
S2140133D0D00A002000239B6A10B5B3F5903F0BD2AC
S2140133E0074C227812F0FD0F04D1DB69984710B91B
S2140133F001232370002010BD4FF48170FBE700BF4E
S214013400BC2700204FF00053074A1A60BFF34F8FC6
S2140134100649074BCA6802F4E0621343CB60BFF368
S2140134204F8F00BFFDE700BF02020FF000ED00E086
S2140134300400FA050346054A0549106803448B4211
S2140134408CBF4FF0FF301360704700BFD80A0020D2
S2140134500080002010B5012243780178847830205E
S2140134609A40054B00FB01331CB942F210015A5039
S21401347010BD41F21001FAE700C0035010B5012259
S21401348043780178847830209A40054B00FB01335D
S2140134901CB941F210015A5010BD42F21001FAE770
S2140134A000C00350024B1968024B186816F05EBE46
S2140134B0DC0A0020FC0A002070B59400224605466E
S2140134C00E462AF04DFD431C0AD058B92246314615
S2140134D028462AF0FCFA0028034808BF002070BDE1
S2140134E00248FCE70248FAE710E000F021E000F0AD
S2140134F024E000F013B5044601A801F03BF89DF85E
S2140135000630012223804FF4807300206380054B30
S2140135109B680A3303F01F0302FA03F3636002B0E9
S21401352010BD00BF0080E00F10B504462AF014FD60
S214013530431C15D0B0B90C4B20469A6801230A32B9
S21401354002F01F02934023F003032344984201D163
S214013550002010BD50F8042B0132F7D00348F8E7DD
S2140135600348F6E70348F4E70080E00F0EE000F0BA
S21401357021E000F024E000F008B51EF0FDFE014B4E
S214013580186008BDE4180020014B18681EF0F8BE4C
S214013590E4180020044BD3F88420D206FBD4D3F8D9
S2140135A08400C0F3811070470040005038B5104BBE
S2140135B00546D3F820310C4603F00303022B0BD04B
S2140135C0032B0DD0012B0FD1FFF7AEFE052305B15E
S2140135D0286004B1236038BDFFF7DCFE0323F6E75D
S2140135E0FFF7EEFE0223F2E700231846EFE700BFDF
S2140135F00080005073B50D4600210E4B0191D3F8A3
S2140136008041064604F00304012C09D0022C0CD09C
S2140136100C460EB1019B336005B12C6002B070BD43
S21401362001A8FFF7C3FF0F24F3E7FFF7C9FE0190D8
S214013630EFE700BF0080005038B5174B0546D3F8BA
S21401364024310C4603F00703013B052B20D8DFE8A5
S21401365003F0030F171B0B13FFF766FE052305B1D7
S214013660286004B1236038BDFFF75EFE0623F6E747
S214013670FFF790FE0323F2E7FFF78CFE0423EEE745
S214013680FFF79EFE0223EAE71EF036FD0723E6E774
S21401369000231846E3E700BF0080005038B5104B02
S2140136A00546D3F840310C4603F00303022B0BD03A
S2140136B0032B0DD0012B0FD11EF020FD092305B1E0
S2140136C0286004B1236038BDFFF77EFE0823F6E7C5
S2140136D01EF017FD0B23F2E700231846EFE700BFA5
S2140136E00080005038B5134B0546D3F800320C461F
S2140136F003F00703013B032B18D8DFE803F0020AA7
S2140137000E121EF0FBFC092305B1286004B12360EC
S21401371038BDFFF759FE0823F6E71EF0F2FC0B232F
S214013720F2E7FFF721FE0E23800AEDE70023184695
S214013730EAE700BF0080005038B5104B0546D3F8C5
S21401374040320C4603F00303022B0BD0032B0DD0A3
S214013750012B0FD11EF0D2FC092305B1286004B15C
S214013760236038BDFFF730FE0823F6E71EF0C9FCDC
S2140137700B23F2E700231846EFE700BF0080005056
S21401378038B5104B0546D3F860310C4603F00303F9
S214013790022B0BD0032B0DD0012B0FD11EF0AEFC4C
S2140137A0092305B1286004B1236038BDFFF70CFE7C
S2140137B00823F6E71EF0A5FC0B23F2E700231846C4
S2140137C0EFE700BF0080005010B40D4C0B46D4F854
S2140137D0204204F00304012C0AD0022C0CD008B1BC
S2140137E0002101600BB100221A605DF8044B70479E
S2140137F05DF8044BFFF7DABE5DF8044BFFF74EBFEA
S21401380000800050B0F5207F1FD009D8B0F5007FAA
S21401381015D003D868B1B0F5C07F0AD000200CE0FF
S214013820B0F5607FFAD10B4BD3F88000C0F30110DE
S21401383003E0084B186FC0F3033001307047054BA7
S214013840D3F89000C0F30460F7E7024B186FC0F39B
S2140138508020F2E7008000504FF400320E4B014604
S21401386010B500209A66FFF7CDFF484341F6713246
S2140138700A490B4B884294BF00200120DC69DA63B9
S2140138809A6822F4401242EA00529A60E20344BF68
S2140138900022DA6310BD00BF00900050005A620299
S2140138A000000350420910B50FD0012A0FD00A4B71
S2140138B00A4C022A18BF234600F01F0049B103F53F
S2140138C08053012282401A6010BD1346F4E7044B70
S2140138D0F2E703F50053F4E7688000506082005079
S2140138E06480005008B580201EF07DFC034B984292
S2140138F09EBF4FF48032024B1A6708BD005A62021F
S21401390000A000501FB50023B0F5807F019377D04B
S21401391028D8382800F094800BD82438092810D8E5
S21401392009280ED8DFE800F0676767670D0D620D9E
S214013930377D52285FD008D83D283BD03E2800F07E
S2140139408480019805B05DF804FB8028F9D1414BCD
S2140139501B6F03F00703013B032BF2D8DFE803F0EC
S21401396044413F6CB0F5D06F5BD019D8B0F5A06F6D
S21401397066D00AD8B0F5806F3DD0B0F5906FE0D133
S214013980002001A9FFF758FEDBE7B0F5B06F2DD098
S214013990B0F5C06FD5D1002001A9FFF77FFED0E7B3
S2140139A0B0F5006FECD00AD8B0F5E06F4DD0B0F5A9
S2140139B0F06FC6D1002001A9FFF7E2FEC1E7B0F51E
S2140139C0086FBED1234BD3F8003103F00303022B5B
S2140139D02CD0032B2ED0012B30D1FFF7DBFC032399
S2140139E000E005230193ACE70223FBE7002001A9D1
S2140139F0FFF700FEA5E7002001A9FFF7D7FDA0E726
S214013A0002934FF0E0231B695B0705D5FFF7ACFC7B
S214013A100C230393039BE5E703A902A8FFF73EFEE9
S214013A20F8E7002001A9FFF75DFE8AE7FFF7CCFC67
S214013A300823D7E71EF060FB0723D3E70123D1E76E
S214013A40002001A9FFF7C0FE7BE7002001A9FFF7D0
S214013A5073FE76E70080005008B5FFF753FF08288D
S214013A6011D00938012802D94FF6FF7008BD4FF46E
S214013A700012064B5A6603F5D8335B6ADB07F3D5AB
S214013A804FF4FA70F2E7024B1888EFE70090005007
S214013A90800C0020F8B504468020FFF733FF03288A
S214013AA000F087804FF40022424B02215A6645F609
S214013AB00E03414AC2F88030404B9962012103F55A
S214013AC080539962936DD903FCD4D4E900131B0586
S214013AD043EA0163E17B94F820500B43217BE77EA8
S214013AE043EA0143617B6D0143EA0133A17B43EA6B
S214013AF0811313619169D4E904031B0643EA8063C9
S214013B0001F000410B43A17E94F823000B43217E74
S214013B1043EA0143617E43EA01239361136AE6693E
S214013B2023F00D0394F8221043EA8703002E2DD1CB
S214013B301362966A94F8213045EA031326F033059A
S214013B402B4343F0010393621D4D1B4B9A6D35EADF
S214013B500202FBD10222194DAA621A659A6D520021
S214013B60FCD41A69A56822F4700242EA05521A6169
S214013B704FF00042114B9A6119B9022203F58053A6
S214013B809A6278B901220F4B9A620BE0334343F0F5
S214013B9008031362936A23F0330303432B4343EA78
S214013BA04103936294F824301BB1034B064AC3F8D1
S214013BB08020F8BD0090005000C0005000D000509A
S214013BC00300014000E00050F1A7FFFF014B93F90D
S214013BD000007047BD270020F0B5D0E901434FF43F
S214013BE080061A4A4178057856664FF4D156022760
S214013BF002F5B8325662164E4F2977604FF001072C
S214013C0028BF4F2106F5805677601669F603FCD467
S214013C1041EA052151611B01417B43EA04230B4321
S214013C20017B43EA41039360C37B817B1B0143EA2B
S214013C304113417C0B43017C43EA41035360837C7F
S214013C4013B16FF4D1535362F0BD00BF0090005022
S214013C5000100250014B1880704700BF800C0020F6
S214013C604FF4001208B5184B5A660223174A5360E0
S214013C70936813F48033FBD1012822D1FFF78AFB26
S214013C80134B984215D003F5122303F5F8639842B7
S214013C9013D0104B00EB8002400AB3FBF0F3520A3C
S214013CA00A49CA620B6301234B620022074B5A6022
S214013CB008BD45F67A13084AF2E745F61A03074A9D
S214013CC0EEE75362F1E700BF00900050004002505B
S214013CD000F0490264666666D8B80500BBCF0500E9
S214013CE0B0F5207F10B50C4642D008D8B0F5007F5D
S214013CF033D003D888B1B0F5C07F0ED010BDB0F573
S214013D00607FFBD11F4A4C1ED2F8803023F030036F
S214013D1043EA0413C2F88030F0E71EF05CFA1EF0A6
S214013D2026FB4FF48031184B164A1967136F013C76
S214013D3023F4704343EA04331367FFF715FB044685
S214013D40FFF728FCC0F1020120461EF00AFB00F036
S214013D501DF8BDE81040FFF7C5BD0A4A4C1ED2F853
S214013D60903023F0F85343EA0463C2F89030C5E775
S214013D70044A4C1E136F23F4806343EA84231367BB
S214013D80BCE700BF008000500090005008B54FF41B
S214013D90C0701EF028FABDE808400449884294BF66
S214013DA0012102214FF42070FFF79ABF80F0FA023A
S214013DB0B0F5807F70B50C4600F0F88029D8382819
S214013DC000F04B8110D82438092816D8092814D8B1
S214013DD0DFE810F0DC00DC00DC00DC001300130080
S214013DE0CD00130047003301522800F0CF8005D8DC
S214013DF03D2851D03E2800F0428170BD8028FCD17C
S214013E008B1E052B00F2B080DFE803F0AB99AE699C
S214013E10AEA8B0F5D06F00F0108132D8B0F5A06F23
S214013E2000F01B8116D8B0F5806F00F0AF80B0F5BA
S214013E30906FE2D1023C052C8CBF0021984B994A29
S214013E4098BF195DD2F8243123F007030B43C2F85B
S214013E502431D2E7B0F5B06F00F08980B0F5C06FBD
S214013E60CBD1083C032C8CBF00218F4B8D4A98BFC9
S214013E70195DD2F8403123F003030B43C2F84031F9
S214013E80BBE7B0F5006FD5D016D8B0F5E06F00F0FF
S214013E90F680B0F5F06FB0D1083C032C8CBF002142
S214013EA0824B804A98BF195DD2F8603123F0030334
S214013EB00B43C2F86031A0E7B0F5086F9DD1CC1E68
S214013EC0052C8CBF00217A4B764A98BF195DD2F833
S214013ED0003123F003030B43C2F800318DE70025C0
S214013EE002260121022000F0A3F91EF074F91EF04B
S214013EF03EFA4FF480316F4B6A4A1967136F23F00D
S214013F00070333431367FFF72FFA0646FFF742FB13
S214013F10C0F1020130461EF024FA0121002000F013
S214013F20C7F9FFF733FFFFF7DDFC002D7FF465AF20
S214013F30032C7FF462AF01225F4B9A625DE74FF478
S214013F4000225C4B0E465A66012203F540539D6AD9
S214013F5003F58053C5F340059A62C2E7002504269F
S214013F60BFE700250126BCE700252E46B9E7022C4F
S214013F7003D0A4F10F056C426C414A4AD2F8803155
S214013F8023F003032343C2F8803136E7023C032CB7
S214013F908CBF0021494B434A98BF195DD2F82031A6
S214013FA023F003030B43C2F8203126E7A1F10804EE
S214013FB0082C3FF622AF01A353F824F0E13F01009D
S214013FC0E13F0100FB3D0100E13F01000F40010020
S214013FD0FB3D0100FB3D0100FB3D0100E13F01000F
S214013FE04FF480322F4B3649586E03F580535A668C
S214013FF00B6AC00343F001030B625CBF314B5A6688
S2140140004FF0E022136923F004031361F5E64FF441
S2140140108032244B2A49586E03F580535A660B6A40
S21401402023F001030B62C1035CBF264B5A664FF0B7
S214014030E022136943F00403E7E7083C062C8CBF33
S2140140400021214B174A98BF195DD2F8003223F0A0
S21401405007030B43C2F80032CFE60F2C0DD0A4F1B4
S21401406010035C425C4164000E4AD2F8203223F011
S21401407003032343C2F82032BFE60124F4E7083CD9
S214014080032C8CBF0021114B064A98BF195DD2F84C
S214014090403223F003030B43C2F84032ADE600BFC3
S2140140A03EE603000080005044E6030044E60300B9
S2140140B031E603000090005000E0005048E603009F
S2140140C000C0075000A0005037E6030044E6030096
S2140140D010B5224B70B94FF40031214A1860516671
S2140140E002F598325268012A03D11E4AD2F80021FD
S2140140F01A6010BD1B68002BFBD01B4A5268012AB0
S214014100F7D0184A8020C2F80031FFF7FBFB0528DC
S2140141101FD14FF4C070FFF775FB0128044604D188
S21401412002214FF4C070FFF7DBFD07220F4B1A6127
S2140141300122A3F580535A600B4A1369DB07FCD5AD
S214014140012CD6D12146BDE810404FF4C070FFF7D0
S214014150C7BD0122064B5A60CBE700BFE818002016
S214014160009000500080005000C0015000E0015057
S21401417000D00150044A4178536F23F4407343EA58
S21401418001235367704700BF0040005010B5044636
S21401419010B10020FFF79CFF0E4A136943F0040399
S2140141A0136101F06DFB1EF0F7F81EF0E5F829F03B
S2140141B0DBFE1EF0E5F81EF0F0F801F075FB1CB909
S2140141C0BDE81040FFF7D0B80120BDE81040FFF76A
S2140141D07FBF00BF00ED00E010B5044610B100201F
S2140141E0FFF776FF0C4A136943F00403136101F0ED
S2140141F047FB1EF0C1F829F0B7FE1EF0C1F801F02A
S21401420053FB1CB9BDE81040FFF7AEB80120BDE86E
S2140142101040FFF75DBF00BF00ED00E0034A0179E3
S214014220D36E23F030030B43D36670470040005033
S214014230F8B504461C4BD3F88420D106FBD4D3F83A
S2140142408430C3F381139C422CD0FFF773F8012C02
S214014250064602D121461EF084F81EF08DF84FF076
S2140142600072124B07465A6620461EF09DF84FF420
S21401427080630D4D621E93402B676B6E9A0103D4CB
S214014280D5F884309B060AD538461EF079F8022CFC
S21401429008D13046BDE8F84000211EF062B8D5F8D6
S2140142A08430EAE7F8BD00BF0040005000600050CF
S2140142B010B50C4608B9FFF73DF8074B21461B78A9
S2140142C03BB1064B984204D80120BDE81040FFF7E9
S2140142D0AFBF0220F9E700BFBE270020005A6202E6
S2140142E00278034B012100201A70FFF7E1BF00BFDF
S2140142F0BE2700204FF0004210B501244AF6CD310A
S214014300154B5A66154A03F50B2354605A6C19640B
S214014310224088B9996811F0010F114903D08C60C9
S214014320D86AC007FCD501234B6012B10D4B0E4A6B
S2140143301A6428F090FE10BDD96A0907FCD4202122
S214014340074B59620121A3F58053996005494B6AD1
S2140143509B06FCD5E9E700BF0090005000500950CD
S21401436000600950004009503254FFFF4FF00042F0
S21401437038B5174B174C5A66012203F50C235A60C1
S2140143804AF6CD33656C2364437893401343124A4F
S214014390D363C3788178A2689B0043EA011322F0B5
S2140143A074021343A3600279837943EA02232361EB
S2140143B04279C37943EA022363610078FFF79AFFE3
S2140143C0EB0744BF054B236428F045FE012038BDAA
S2140143D00090005000400950004000503254FFFF4A
S2140143E0F8B504460D461F4616464AB101238B40D2
S2140143F03021184A01FB0022F7B141F21001535057
S21401440004EB4403072D4FF00F014FEA031316D8B0
S214014410A80006FA00F281400F4818441DF0C5FFB7
S2140144204EB9012330210B4AAB4001FB042277B180
S21401443041F210015350F8BD42F21001DFE7A5F139
S2140144400800800006FA00F281400448E5E742F2DF
S2140144501001EFE700C0035004C003500CC0035026
S2140144604FF40032054B9A6641F6713203F51C3360
S214014470DA63012203F50053DA60704700900050BA
S21401448041F671320121064BDA6303F50052D16021
S2140144900022DA634FF40032A3F518339A667047A8
S2140144A000000350CB784A7810B55B010C7843EADC
S2140144B082030A79234343EA02130C22424302F1A0
S2140144C0B0421363012C02BF8A78024B43F82020C6
S2140144D010BD00BFE880035008B54FF0B0435A68DE
S2140144E06AB958B15B680BB11DF06EFF01210D4B27
S2140144F059601DF069FF4FF0B043D96008BD5B6895
S2140145000BB11DF061FF0028F0D11DF05DFF4FF0EB
S214014510B0430222DA601DF057FF0122024B5A60B7
S214014520ECE700BF00100058002000584FF0B041E3
S2140145304B6810B50BB11DF047FF01220B4BC47839
S2140145405A608378934043EA84034478234304798A
S21401455043EA0413447943EAC4038B60044B5A606C
S2140145600378C3F10203CB6010BD00BF00200058E2
S214014570001000584FF48032064B5A6603F5E623C6
S2140145805B69C3F38512827003F03F021B0B427016
S214014590037070470090005070B5054616461C46DD
S2140145A021B94FF420701DF01EFE0146402C1BD091
S2140145B003D8DCB1202C1BD070BD602CFCD10423A9
S2140145C003FB06F2530803EB4113B3FBF2F3094A6C
S2140145D0203B02EAC303AA6822F06002AA60AA6826
S2140145E01443AC60EB61E7E70623E9E71023E7E74E
S2140145F00823E5E7F8FF7F00012200F580535A60A3
S21401460040F6AA6341F20502436100230B49836029
S214014610C365C26000F500520361C361C36491645F
S21401462007498365884203D103650023436502E099
S21401463004498842F8D0012353607047FFFF010008
S21401464000C005500000065070B50D46FFF7D4FFB8
S214014650012300F580567360AB7C04461BB183686A
S21401466043F080438360EB7C5BB1354A2B7D9442FB
S21401467045D1A2F51032C2F88C31E36D43F08003C8
S214014680E3652A8A6B7B20461343EA891343E3607A
S2140146902B7BD5E90112FFF77FFF6B7D1BB1A3686A
S2140146A043F48033A360AB7D1BB1A36843F400439E
S2140146B0A360EB7D2A7E1B07120502F4E00203F0DD
S2140146C0E0431343A365697E1D4A8B1E012B1D4BD8
S2140146D01FD894421BD002F5804294420CBF01229F
S2140146E04FF0FF3203EB4213022041F21C62032912
S2140146F0985020D10423F3652B78636170BD124A6C
S214014700944204BFA2F52032C2F89C31B5E70022DC
S214014710E8E794420DD00C4A94420CBF01224FF0B8
S214014720FF3203EB4213022042F21C620129985029
S214014730DFE70022F5E7042204F50053DA65DBE73C
S21401474000C0055000C003500000065038B50D46A5
S214014750FFF752FF012200F580535A602B8A8268C8
S21401476043F001031343AA7B044643EA8223836092
S21401477083682A7D43EA42738360AB7C5BB11D4A42
S214014780EB7C90422DD1A2F51032C2F88C31E36D4C
S21401479043F08003E3652B7B2046D5E9011243F401
S2140147A08053E3601DF018FE6B7B0BB11023636131
S2140147B06B7D1BB1A36843F48033A360AB7D1BB153
S2140147C0A36843F40043A360EB7D2A7E1B07120512
S2140147D003F0E04302F4E0021343A3652B78636120
S2140147E038BD054A904204BFA2F52032C2F89C317A
S2140147F0CDE700BF00C005500000065038B504469E
S214014800054D28F04EFC0FCC0FC594E8030085E853
S2140148100300002038BD00BFEC18002047F6FF73E8
S2140148209A42F0B563D0022963D8334BCE0003EB2E
S214014830C10513F83110AC78012913D10021E878AD
S214014840001B814202D32044C0B2F0BD431A6E68F9
S214014850A0EB530336F913609642D4BF194603F111
S214014860FF30EEE768680028EFD0B0F900109142FB
S21401487004DBB0F902109142B8BF11468288334476
S214014880FF2A19BFC8222827B0F90620B0F90870F8
S2140148905E78A2EB01030CBF0125002593FBF7F31D
S2140148A0721E2B44934228BF13464FF47A7E00EBC8
S2140148B0C305AF68EA88AC4611FB02721F4622EABE
S2140148C0E272013302F5FA729E42B2FBFEF204D99D
S2140148D0BCF80CC008359445EBD200EBC7039888AA
S2140148E0904228BF1046A04238BF2046ACE7FF20C2
S2140148F0ABE70020A9E700BFEC1800200229F0B5BD
S21401490051D82A4800EBC10410F831106368012918
S2140149100FD1E078A478904294BFC4EB0001C4EBB9
S2140149200201001BCAB28242C8BF002233F912003C
S214014930F0BD002B37D0A178914202D3B3F9020023
S214014940F6E7E178B3F900009142F1D999886478E5
S214014950A1F1FF06013C714203F10405E4B2714185
S21401496003F10C07CEB2B44216D805EBC1014FF4E1
S2140149707A756A43B1F902404968521A04EBD47158
S21401498002EB610292FBF4F29042D1DBB3F9020032
S2140149909042CDDC10B2CBE737F831C04E1C9445BF
S2140149A0E3D33146DEE70248C2E700BFEC18002039
S2140149B00080FFFF08B50448FFF720FFBDE8084068
S2140149C0012028F070BB00BF4CE60300004870478A
S2140149D0820C00207FB50222084B0949CDE901234C
S2140149E04FF00073CDE90313052301A94FF0FF3003
S2140149F0059328F08CFB07B05DF804FB006A1800ED
S214014A000002040007B56B46054A1068516803C3E7
S214014A106846FFF7ABFC002003B05DF804FB00BF5F
S214014A20D0E6030013B50024064A6846536F43F0E8
S214014A300103536700948DF80440FFF7EFFB20460F
S214014A4002B010BD0040005030B58BB06C46164D1C
S214014A500FCD0FC40FCD0FC495E8030084E8030003
S214014A60124BD3F84C21120319D5A3F5FE431C882B
S214014A704FF6FF739C4208BF78248DF81940FFF764
S214014A80A5F8204480F308008DF818000848FEF7C2
S214014A9087FC6846FEF7FEFF00200BB030BDD3F85A
S214014AA05041E4B2E9E700BFD8E603000080E00F1A
S214014AB000F0490230B5094D87B001AC0FCD0FC4E7
S214014AC02B6801A8236025238DF80530FFF784F8AD
S214014AD06420FFF7BFF8002007B030BD00E70300F1
S214014AE06FF00403502110B50A480B4C13F0800FE9
S214014AF003F1010207D12344402A83F80013134629
S214014B00F4D1002010BD03F00F03043B03441976D3
S214014B101346EBE700ED00E000E100E038B501F0F8
S214014B2029F80446E0B901F0E1F84FF4167343435F
S214014B300C4A03F5742303F23F23B3FBF2F30A2175
S214014B40094A0A4813600A4D0268013911F0FF014B
S214014B5045F8043BF9D11A4403EBC303134403603D
S214014B60204638BD40420F003819002008190020A1
S214014B700C190020012208B5034B1A701DF0E7FE40
S214014B80024B186008BD00BFBF2700200419002093
S214014B90F8B5144C237823B31DF0D9FE124B134DF0
S214014BA01B68134EC01A012838BF0120114B124F43
S214014BB018602B7856F8232046F82300111A3A6815
S214014BC00E48521A0A213A600932B2FBF1F2013359
S214014BD0DBB20260B3FBF1F201FB12332B70002350
S214014BE02370F8BDBF27002004190020C02700202D
S214014BF00C1900203419002008190020381900204B
S214014C00014B1868704700BF3819002020234FF465
S214014C1000220A4981F82C33094B5A66094A03F5E2
S214014C20405303F50050426702674FF48050C1F8C5
S214014C308401486003445A67704700BF00E100E002
S214014C4000900050010000A0044B9A6DD20702D4D8
S214014C500028FAD170470120704700BF00C00050FD
S214014C600C4B10B51C6FE20707D5012203F5005364
S214014C701A67FFF78DFF00F03FFD14F000521CBFCE
S214014C80054B1A67002CBEBF4FF00042024B1A6755
S214014C9010BD00BF00C0005000E0005010B5044633
S214014CA01DF06AFB024B1C601DF06AFB002010BD64
S214014CB03C19002010B51DF05FFB034B1C681DF06E
S214014CC05FFB204610BD00BF3C190020034B0222AB
S214014CD018680023806819461CF0DCBCEC0B002029
S214014CE0002807DB01234109034A00F01F00834027
S214014CF042F82130704700BF00E100E0002808DBE1
S214014D0001224309034900F01F008240603341F845
S214014D102320704700E100E070B504460668FFF7FF
S214014D20C9FF844202D10020FFF7B8FF96F9285048
S214014D302846FFF7E3FF002D0CDB012215496B091E
S214014D4005F01F05AA40203341F82320BFF34F8FFB
S214014D50BFF36F8F96F929502846FFF7CFFF002D36
S214014D600CDB01220B496B0905F01F05AA40203315
S214014D7041F82320BFF34F8FBFF36F8F00233046D8
S214014D80C4E90033C4E90433A360F368BDE87040A6
S214014D90184700BF00E100E0F8B51F465368064615
S214014DA00C461546002B5BD09368002B5AD0302258
S214014DB00021204628F0B5FE6B682B4AE361AB68FC
S214014DC0204623622B7B84F82430AB7B276084F853
S214014DD0253040F20113E384069B00276360079B9E
S214014DE0A360089BE3602B7884F828306B7884F8FE
S214014DF029301E4B346073601D4BB3601D4B33610D
S214014E001D4B73611D4BF3601D4B3362012384F808
S214014E102E30B2611B4AF2619DF8282084F82D20BD
S214014E209DF8242084F82A3084F82C20697B84F8A5
S214014E302B701DF099FB95F901402046FFF75EFFA8
S214014E402046FFF74DFF95F900402046FFF756FF35
S214014E502046FFF745FF3046FFF720FF3846F8BDEE
S214014E602220FCE72120FAE769250300D326030068
S214014E7057260300572503005D250300194D010041
S214014E803B250300632503002DE9F04101271C465D
S214014E90584B86B00293584B0C9D0193574B904646
S214014EA000930A46CDE903772946554BFFF774FF71
S214014EB00646002840F09580236839462B636368D0
S214014EC03A206B63637A85F83930237A85F838306F
S214014ED0E37A85F83B30A37A85F83A30637B85F828
S214014EE03D30237B85F83C30E37B85F83F30A37B60
S214014EF085F83E30FEF7D6FC3B460422617A207ADE
S214014F00FFF76EFA3B460222E17AA07AFFF768FACB
S214014F1039466068FEF7C6FC88F80060414620689E
S214014F20FFF792FB1422237C5B0103F1A04303F5F8
S214014F307033C3F81C26617A227A42EA0142C3F82A
S214014F403426E17AA27A42EA0142C3F82C2685F891
S214014F50406098F81930032B49D8DFE803F034464F
S214014F60021C022385F8403000230422E17BA07B4B
S214014F70FFF736FA022741F21C61227C214B03EB34
S214014F8042104750E07BA17BB13241EA004103EB7E
S214014F904213996017E0012785F84030022200236A
S214014FA0617B207BFFF71CFA637B227B217C42EA34
S214014FB00342154B49015A500422236803F58053D6
S214014FC0DA65002FD0D1237A052185F83830637A47
S214014FD085F839302068C36C43F00403C3641DF0C0
S214014FE00BFA304606B0BDE8F0810027D4E7232649
S214014FF0F7E700BFBF270300B32703003B280300E2
S2140150002F28030000C0035024D60350BFF35F8F40
S214015010074B5A6A22F480325A62D3F8942022F05F
S2140150200102C3F89420BFF34F8FBFF36F8F704711
S21401503000ED00E070B52948294CFFF7E7FF8442F0
S214015040284D294919D1D5F8C03023F0FF0343F084
S214015050A003C5F8C0304FF080430A68214D234EA7
S214015060C5F8982043F0010301328442C5F89C60DC
S214015070C5F8A0300A601ED00DE0D5F8C02020F09B
S2140150801F03203B22F0FF0242F0A002B3F1005FB3
S214015090C5F8C020E1D2164B0A68124823F01F0358
S2140150A043F00303C0F89820C0F89C30114B01323E
S2140150B0C0F8A0300A60BFF35F8F0522094BC3F822
S2140150C094205A6A42F480325A62BFF34F8FBFF37C
S2140150D06F8FBFF34F8FBFF36F8F70BDB40C00207F
S2140150E08C0E002000ED00E0401900200300002097
S2140150F0AB0E0020E1FFFF3F10B51446FFF786FF19
S2140151001F2C24D91C4A1D4CD2F8C03023F47F43EF
S21401511043F48073C2F8C030C2061CBF20F01F00E3
S2140151202030CB06144A236818BF21F01F0120F057
S2140151301F0021F01F01C2F8983040F0030041F033
S21401514003010133C2F89C00C2F8A0102360BFF32C
S2140151505F8F0522084BC3F894205A6A42F48032C6
S2140151605A62BFF34F8FBFF36F8FBFF34F8FBFF3FB
S2140151706F8F002010BD00BF00ED00E04019002039
S214015180BFF34F8F0549064BCA6802F4E06213432A
S214015190CB60BFF34F8F00BFFDE700BF00ED00E01F
S2140151A00400FA05034B1B78002B0CBF02200120DC
S2140151B0704700BFCB2700200329F8B598BF124BD4
S2140151C005460E468CBF00245C5C032805D8DFE844
S2140151D000F002080B0E44F002040C4B1F684FB996
S2140151E0F8BD44F00804F8E744F02004F5E744F07D
S2140151F08004F2E77B681A68144203D031462846D9
S2140152005B6898473F68EAE714E703006C190020DB
S21401521038B5104D2B78ABB10F4C23781BB100F08D
S2140152206FFB00232370002000F08CFB0B4C50B169
S21401523000F092FB0023012120782B70FFF7BCFFC2
S2140152400123237038BD0122054B1A702278054BC5
S2140152501A70F7E7C6270020C4270020CD270020B4
S214015260C7270020C827002010B51DF085F8064B7B
S21401527004461B781BB1BDE810401DF081B8FFF74E
S214015280C7FF2046F7E700BFC3270020094A137867
S21401529030B101331370084B1B78012B03D87047CC
S2140152A0013B13707047054B1B780BB9FFF7B0BF76
S2140152B0704700BFCB270020CD270020C72700203E
S2140152C070B51DF059F8114E054633788BB900F0CC
S2140152D051FC044620B128461DF052F8204670BD08
S2140152E00B481CF011FF0B4B1C6000F0FFFC0A4B37
S2140152F0186000F047FA1DF0E8FA084B0024186021
S2140153000123284633701DF03BF8E7E7CE2700203F
S2140153106C19002044190020681900204819002043
S2140153202DE9F843284A0138135C39B1274F013378
S21401533013543A78012A04D8BDE8F883013B135484
S214015340FAE7FFF72FFF0128044635D81DF014F8B9
S214015350DFF88480054698F8003013B31C4E337886
S2140153601BB9012232701B4A1370DFF8709099F84E
S214015370003023B100F0C4FA002389F80030284633
S2140153801CF0FEFF012000F0DDFA1CF0F5FF33787B
S21401539005461BB100F0E0FA00233370002388F8BD
S2140153A0003028461CF0ECFF3878A042C4D02146D5
S2140153B0FFF702FF3C70BFE7032AF5D10228F3D1BD
S2140153C01DF087FAF0E700BFCB270020CD2700208D
S2140153D0C3270020C7270020C6270020C427002097
S2140153E010B504461CF0C8FF002C0CBFFF2101219C
S2140153F0064A13780B44DBB21370B3FA83F3BDE8A5
S2140154001040034A5B0913701CF0BABFCA2700207C
S214015410C927002038B51CF0AFFF094B05461B789D
S214015420012B04D81CF0ACFF0024204638BD054BE8
S2140154301C6800F0C5FA044428461CF0A1FFF4E7F6
S214015440CD2700204419002038B5416004461CF0E1
S21401545093FF0546214604481CF059FE2846BDE840
S21401546038401CF08DBF00BF6C190020054B1B682F
S2140154705843054B00F5742000F23F20B0FBF3F0D3
S214015480704700BF6819002040420F002DE9F04F19
S21401549085B01CF071FF0446AFF300801CF0CAFD16
S2140154A0002870D07F4FDFF828823B7823B1002098
S2140154B0FFF7ECFE00233B70FFF774FE054600285D
S2140154C069D0851EEDB2012D6CD9FFF76BFE012860
S2140154D00646754DDFF8FC9100F2888028788642F2
S2140154E040F0C280287800F055FA99F8003013B1E0
S2140154F06E4B1B782B70AFF3008020461CF040FFEC
S2140155001CF03AFF6A4B04461A7852B100221A7010
S214015510664B28781B78984203D101212970FFF742
S2140155204BFE644800F060FB1CF08EFD064600282A
S214015530BBD1614BDFF88C81187098F80030ABB1A5
S21401554089F80000DFF8849199F800301BB100F06B
S214015550D7F989F80060002000F0F4F9002800F07F
S214015560968000F0F9F9002388F800303B7823B1E3
S2140155700020FFF78BFE00233B7000212878FFF701
S2140155801BFE00232B70AFF30080204605B0BDE85C
S214015590F04F1CF0F5BE3B78002B96D0FFF776FE59
S2140155A03D7092E7002003A900F06CFB0546002839
S2140155B08BD1D8F80030039A9A4205D80120FFF71C
S2140155C065FE01233B7080E73C4B1E6800F0F8F94E
S2140155D0039930448842F1D20223091ACDE90053D7
S2140155E0374A2B4633481DF075F96EE7354BDFF821
S2140155F0C8A093F800B0BBF1000F25D11DF063F9E8
S2140156002878864230D19AF800307BB92D4E33780F
S214015610002B7FF467AF2C4B1B7823B900F06AF997
S21401562001222A4B1A70012333705BE7022EEDD15B
S2140156308AF800B015E02B78022B25D100238AF8D2
S214015640003027F06AFE1FE0287886420CD19AF8CF
S2140156500030002B3FF446AF022ED7D100238AF844
S214015660003027F05AFED1E70023DFF84CA08AF875
S214015670003099F8003013B93146FFF79DFD9AF8CE
S21401568000302E70002BD6D1012EBFD82AE701207C
S21401569000F080F920461CF073FE1CF06DFE0446F7
S2140156A059E700BFC5270020CD270020C8270020C6
S2140156B0C12700204C190020C927002044190020CA
S2140156C069520100C6270020CA270020C4270020EF
S2140156D048190020C727002010B51CF04DFE0022F7
S2140156E0044B1C781A701CF04BFE00F0D7FB2043CD
S2140156F0C0B210BDC227002010B5094B1B786BB194
S214015700084C237853B100F027F90023064A23708A
S21401571013700123054A1370054A137010BD00BFAC
S214015720CD270020C7270020C6270020C22700203B
S214015730C127002073B5114E0446337883420FD03B
S2140157404FF400730E4DADF8043058B101A8FEF7C2
S21401575011FD4020FFF78AFE2B68181A2860347066
S21401576002B070BD8DF8050001A8FEF703FD4020CC
S214015770FFF77CFE2B681844F0E700BF9C0C002066
S2140157807019002073B500244FF4002501A88DF888
S2140157900440FEF7A5FD2046FFF7CCFF314B324A09
S2140157A0186F324900F007001060D3F82041D3F893
S2140157B024214D664FF400354D6601F5983189690F
S2140157C003282B4D2B4801F0020103D004F00304FB
S2140157D0022C2DD10123037011B3224BD3F80031D3
S2140157E003F00303022B36D0032B37D0012B17D13E
S2140157F0FDF7D0FD024698B11F4B204EDC68002312
S2140158001946C4F30B04013404EB84040138E4FBA9
S21401581006011BF03BFCFFF729FE2B6803442B60B7
S2140158206420FFF723FE2B6803442B6002B070BD93
S21401583002F00702961E7442744104700029EFD0EC
S214015840022ACAD0D3F8003103F003035A1E53428A
S21401585053410370C1E7FDF7B7FDCBE71CF04CFCE5
S214015860C8E700BF00800050741900200090005067
S21401587070190020D127002000C0015040420F00BF
S214015880074B1A7852B100221A70064A136F23F09A
S214015890070343F001031367FDF766BD704700BFBA
S2140158A0D0270020008000500E4B10B51B7883B126
S2140158B002201DF06BF860B100F012FA48B10A4BF5
S2140158C09A6DD20306D5DB6D9B0703D50122074BE4
S2140158D09A6210BD0124064B1C70FFF74BF9034B6F
S2140158E09C62F6E7D127002000C0005000D000508F
S2140158F0CF2700200122014B1A707047D0270020C5
S21401590038B50C4B1B786BB10B4C23787BB90B4B22
S2140159100B4D9A6D12F4803F05D0DB6D9B0702D5C7
S2140159200123AB6238BDFFF725F90123AB620023E3
S2140159302370F7E7D1270020CF27002000C00050B2
S21401594000D00050034B1B780BB1FFF77DB9012047
S214015950704700BFD127002008B51CF022FD094A78
S2140159600949136F096823F007030B431367074BB5
S2140159701B7813B10122064B9A62BDE80840FDF779
S214015980F3BC00BF0080005074190020D12700200E
S21401599000E0005002280AD003280BD001280CD1C1
S2140159A0064A136923F00403136130BF70470020D1
S2140159B0FEF7ECBB0020FEF70FBC704700ED00E0E1
S2140159C008B5054B187818B1FFF71AF900EBD000A7
S2140159D0024B1B68184408BDD1270020701900200F
S2140159E00122014B1A707047D127002038B51CF0F0
S2140159F0BAFF0025084B094C1A682368C31A2AB156
S214015A0023B15169994203D3C91A5161206038BD47
S214015A1055615B1A9268F2E7801900207C19002014
S214015A20C38870B504460D463BB9FFF7F3FC8542C3
S214015A30064602D21CF03BFF35460E4965610B68EF
S214015A408BB90C60A3600DE0AD1A9A6818466561C3
S214015A506AB113465A69AA42F6D930B18460521B1C
S214015A60A3605A6170BD0020F4E70C60F7E79C6004
S214015A70A260F7E78019002038B5134D2B685B69E3
S214015A8093B1124A022014681C441CF073FF20468E
S214015A9000F052FA00230E492A680B70D08880075E
S214015AA009D501230B7038BD02201CF063FF0220CC
S214015AB000F08CFAEEE79268002AF4D050690344AD
S214015AC0012BEBD9EFE700BF801900207C190020DD
S214015AD0D327002070B516469DF81420C0E903367A
S214015AE00271049ABDF8183002600022C3808260F9
S214015AF004460D461CF037FF3044A0613DB9E3680B
S214015B00656113B120462168984796B135461CF069
S214015B1033FC0646FFF76AFF29462046FFF780FF5B
S214015B20054B1B68A34201D1FFF7A6FF30461CF0C8
S214015B3027FC002070BD00BF8019002000220C4900
S214015B400B687BB183420AD183687AB1936083681C
S214015B501BB15A6941690A445A61002070471A46C6
S214015B609B68EEE70028EFD0022070470B60EEE757
S214015B708019002070B51CF006FC144E05463478DA
S214015B80FCB9134B1C60134B1C60134B1C8000F0BC
S214015B9091F901201CF0EEFE1CF007FF0F4B0246A8
S214015BA0186020B928461CF0F4FB232070BD23465C
S214015BB040F2E7310A481BF069FA0A4B18600123E4
S214015BC0337028461CF0E5FB0020EFE7D4270020C1
S214015BD0801900207C1900204A2700208419002003
S214015BE018FCFFFF7819002070B5044640B31CF07E
S214015BF0C3FB144E0546FFF7F9FE3068A04209D0F4
S214015C002046FFF79BFF0446B0B128461CF0B8FBC0
S214015C10204670BDFFF792FF04460028F5D1336891
S214015C203BB9022000F0BAF928461CF0A9FB002473
S214015C30EEE7FFF721FFF7E73368002BF4D1F0E733
S214015C402224E5E78019002038B50C460546A8B1A0
S214015C50A1B100230B701CF096FB0121084B1B68B9
S214015C6033B91CF096FB002038BD9D4204D121704B
S214015C702278002AF9D0F4E79B68F1E72220F3E7BF
S214015C8080190020F8B506460F461CF07CFB00255F
S214015C900446114B1B6823B920461CF07AFB1B20D7
S214015CA015E05A691544DA88B24213D11CF05BFE3E
S214015CB00A4E3368C01AA8420AD21CF054FE336852
S214015CC02B441B1A20463B601CF063FB0020F8BDEA
S214015CD00023F7E79B68DEE7801900207C19002087
S214015CE0014B1878704700BFD3270020014B186876
S214015CF0704700BF84190020044B1B6858434FF4BB
S214015D007A7300F2E730B0FBF3F070478419002095
S214015D10F8B50C4B05461B680E4683420FD300248C
S214015D2040F2E7302146084B4FF47A721F68002391
S214015D30E5FB07011BF0AAF930602046F8BD2120DB
S214015D40FCE700BF78190020841900200F4B10B51E
S214015D501A689AB14FF47A71531E1342A0FB0101DF
S214015D600ED1B2FA82F2C2F11F04531CD243E040B4
S214015D7001FA03F3184321FA02F20243104610BD5A
S214015D8000231BF083F90246F8E700BF84190020C0
S214015D90C2072DE9F04704460BD53D4A1388013367
S214015DA09BB21380FFF722FE3A4B1B680BB1FFF73D
S214015DB063FEA30769D51CF0E6FA002605463746BA
S214015DC0FFF714FEB146DFF8CC80D8F800400CB1DE
S214015DD0636983B10022304B012F1A7002D1022E63
S214015DE008BF1F70002C4CD0FFF746FE2846BDE8C2
S214015DF0F0471CF0CEBA23465A693AB91A79217986
S214015E00914288BF1C469B68002BF5D128461CF0A2
S214015E10C0FA2569C5B11CF0A6FDA269861AF3175A
S214015E20B54279EB030310DA23691344A361E368EF
S214015E30E688013713B12046216898471CF0A3FA7B
S214015E400546FFF7D3FDC0E72E461CF09CFA8246B6
S214015E502046FFF773FE50461CF09BFA2369002B81
S214015E60E5D0AD1B1CF08FFA064629462046FFF703
S214015E70D7FDA369226930461344A3611CF089FA51
S214015E80D5E7022000F08AF8B0E7BDE8F08700BF4A
S214015E904A27002080190020D227002010B51CF0C8
S214015EA072FA034B1C781CF074FA204610BD00BF32
S214015EB0D22700201FB500241C4B012118689A88A0
S214015EC00290D3F806009B7A00903E20ADF80C2095
S214015ED08DF80430FDF7E6FC02A88DF808408DF831
S214015EE00C40FEF723FB694601208DF80040FEF7C3
S214015EF0D9FA4FF0B04240F2FF31936923F47F7331
S214015F0023F0030393610A4B5961936A13F0080364
S214015F10FBD113620120FEF7DFFA4FF48052054BE6
S214015F20C3F880211A6004B010BD00BF18E7030053
S214015F300020005800E100E010B504461CF01CFAF1
S214015F404FF0B042936A1907FCD4136A116C526978
S214015F50520604D4CA1A032A01D899420ED1E21A6B
S214015F60022A98BFDC1CB4F1FF3F38BF013C4FF05A
S214015F70B0431C649A6942F040029A611CF000FA30
S214015F80054A13783BB14FF0B041CB6B43F00203A7
S214015F90CB630023137010BD9D0C0020820700F018
S214015FA001030AD50121084A43F0400311704FF05E
S214015FB0B041CA6B22F00302CA634FF0B0418A694E
S214015FC022EA03038B6170479D0C0020830742BFC2
S214015FD04022014B5A6170470010005810B51CF062
S214015FE0D2F94FF0B04304465B695A06074A03F0FC
S214015FF0010003F0510348BF40F002005361FFF770
S214016000C7FE2046BDE810401CF0C3B9002000586A
S21401601010B50446FDF7A8F90C4BA0F57A729A4222
S21401602012D84FF47A73B0FBF3F05C43084BB3FB22
S214016030F0F3B4FBF3F0022806D9BDE810400323C1
S214016040B0FBF3F0FCF77CB810BD00BFFFC99A3B6C
S21401605040420F00024A0349034802F0A5B900BFB7
S21401606024E7030050E70300B0E703000A4619B12E
S214016070024B00211B681847704700BF000B002029
S2140160800E4B0340B3F1607F06D1B1F5885F14BFB4
S2140160906FF0860000207047B3F1707F0BD101F4DA
S2140160A0E043B3F5005F06D111F4E06F0CBF6FF06B
S2140160B08600002070476FF0860070470000C07FA2
S2140160C08A42F8B506460C4600F0DB806F4922F49A
S2140160D0FF7323F001038B420ED06D4B22F0FF01BC
S2140160E0994209D06B4822F47F7323F0030383425D
S2140160F002D0694B994228D1684B24F0FF0199429E
S2140161000FD114F0FF000BD0654B40F000709842A1
S21401611040F0B98082EA0400FF288CBF00200120ED
S214016120F8BD5B4B9942ECD0A3F588539942E8D071
S21401613024F4FF7323F00103B3F1062FE1D0564890
S2140161408142DED053498B42DBD004F0FE43B3F1EB
S214016150A06F14D102F0FE43B3F1A06F40F093801C
S21401616082EA040333F47E1340F08D8014F4004079
S214016170D6D0C4F30540C2F305429042CDE7B3F151
S214016180407F6AD102F0FE43B3F1407F7BD182EAC1
S214016190040535F47E1576D131462046FFF770FFAB
S2140161A0002870D13F4B12F47C1703EA02031BD080
S2140161B0B3F1607FC2F305473FD13B49D3B243F009
S2140161C000738B423DD003F17E43043B0F2B01D875
S2140161D03649CD5C14F47C1FC4F3054333D1BD426C
S2140161E014BF002001209BE7B3F1607F0DD12E493B
S2140161F0D3B243F000738B421DD003F17E43043BC0
S2140162000F2BDAD82A49CF5CD7E7B3F1707FE1D1FB
S21401621006F4E043B3F5005F03D10127C6F302237A
S2140162209F4006F4E043B3F5005FD3D10125C6F3E2
S21401623002218D40CEE71027BFE7B3F1707FC9D1A9
S214016240EFE71025C6E712F47C1F01D1AB4218D048
S21401625022047FF565AFBB425FE7B3F1106F12D141
S21401626024F01F6020F4702068B902F0FE43B3F1F9
S214016270106F7FF455AF0F48104040F01060A042F9
S214016280AEE701204CE700204AE700BF0002000607
S21401629000130006000400060009000600030006BD
S2140162A0FF0000020000C07F03000002DAE70300DF
S2140162B0DAE703000000FFF62DE9F84388461746A3
S2140162C01C4600F063FA054688BBD8F80060B6F8AD
S2140162D0009009F4E043B3F5804FF36808BF27F058
S2140162E0010737EA03031AD10CB3254B24F0FF024A
S2140162F09A421FD114F0FF0304D0224A43F00073E0
S214016300934232D0224648463169FFF7D9FE074606
S21401631068B9224648467169FFF7D2FE70BB6FF036
S214016320840500233046C8F800301DF0F7F92846EA
S214016330BDE8F883144B9A42DCD0A3F588539A4201
S214016340D8D024F4FF7323F00103B3F1062FD1D084
S2140163500E498A42CED00E4A9342CBD004F0FE4379
S214016360B3F1407F04D12304CCD56FF08605D8E77E
S214016370B3F1A06FF7D0034B9C42C2E73D46D6E788
S21401638000030006FF0000020013000600090006D5
S2140163900004000638B500F0FE43B3F1407F044622
S2140163A00D4602D06FF0860038BDFFF769FE002863
S2140163B0FAD114F47C1F05D0C4F30543032B1370E4
S2140163C00DD828E0254B2340B3F1607F29D124491D
S2140163D0E3B243F000738B4216D1102313701F4AA9
S2140163E02240B2F1607F2AD11D4AE4B244F0007423
S2140163F0944231D004F17E44043C0F2CD2D8194A81
S214016400125D9342D0D9CDE703F17E43043B0F2BB7
S21401641004D9002313706FF08500C5E71249CB5CE1
S214016420CCE7B3F1707FF4D101F4E043B3F5005F3C
S214016430EFD10123C1F302218B40DBB2BEE7B2F1FB
S214016440707FAFD105F4E042B2F5005FAAD1012218
S214016450C5F30225AA40D4E71022D2E70000C07F88
S21401646003000002DAE70300DAE7030037B50C4D54
S2140164700C462B78DB070FD500230A46019301460D
S21401648001AB281D1DF0ABFE20B9019BA34218BF2E
S2140164906FF0930003B030BD6FF08800FAE700BFDD
S2140164A0881900202DE9F04F9A460023914601F005
S2140164B0FE4297B0B2F1806F0E46DDE920B7DDF8F7
S2140164C08880089370D10B464FF4807208A9FFF7B5
S2140164D0F3FE0446002841D1DDF820C00DAC654628
S2140164E0CDE914000FCD0FC495E80700BCF80030C5
S2140164F084E8070003F4E042B2F5005F1BD113F411
S214016500E06FC3F3022116D0334826F4807282422C
S2140165100AD000F50070864206D03048864203D085
S214016520A0F53F40824206D101258D40102D0DD9A0
S2140165306FF0830412E042F20402934202D1284B28
S2140165409E420FD0274B9E420ED10D25AF4228D337
S214016550294609A8FFF78AFF044630B108981DF0BE
S214016560DDF81CE00C25F1E700250BEB0503CDE972
S21401657003A3CDE901597F1B0597089909AFCDF80B
S214016580188000973346D1E908120DA81DF013F8BC
S214016590064608981DF0C2F804465EB1344600254A
S2140165A013E06FF08904D9E718461DF0B7F86FF0CD
S2140165B08604F4E70028F2D125B12A463946584622
S2140165C027F0BAFAD8F800301D442046C8F8005023
S2140165D017B0BDE8F08F00BF0010C00400FF4004F4
S2140165E0000180040013C00408B500F073F8084BDE
S2140165F00C211A78064812F0060F1CBF0022C3E9C8
S2140166000122FFF733FDBDE808401CF0FFBE00BFC6
S2140166108819002038B50E4D2B7813F0010211D1E0
S214016620C5E90122022262F342032B7000F046F80C
S214016630044650B91CF0E8FE044630B92B7843F006
S21401664001032B700024204638BDFFF7CDFFFAE783
S2140166508819002000F100420332022A38B50446A8
S2140166600D4609D82821144B01FB02339A68824251
S21401667011D06FF08B0015E001211DF03EF8A0B19E
S2140166800D4B9A68944206D01A6B94420BD09A6DC1
S2140166909442EED15033DA69511C09D00020013200
S2140166A0DA612B6038BD2833F5E76FF08700F9E72C
S2140166B06FF09600F6E700BF94190020044A002008
S2140166C092F8783043F0010382F87830704700BFC3
S2140166D09419002038B501250A4C2046E5611CF0C6
S2140166E01FFB04F1280065641CF01AFB04F150003E
S2140166F0E5661CF015FB94F878306FF3000384F818
S214016700783038BD94190020F8B51E4C064694F82A
S21401671078300F46D8072BD50025234629461888FA
S2140167201A46A8B12DB91A791AB1DA69002A08BF32
S2140167301D460131032903F12803F0D115B96FF085
S2140167408C0017E001232846EB611CF0E9FA2A4683
S214016750D369591C12D000200133D361141B0A4B94
S214016760E4105C4304F10044033C34603A60F8BD35
S2140167706FF0880000233B603360F8E76FF0960007
S214016780F8E700BF94190020CDCCCCCC0023F0B59F
S2140167900B60264B074693F878300D46DC0785B02C
S2140167A041D5FFF757FF10F18C0F04461ED129463D
S2140167B001A8FFF7A9FF0446C0B901232E68CDE959
S2140167C00200B7603046736003AA02A91DF038F8CC
S2140167D0044670B1DDE902011DF028F828681CF0B6
S2140167E09FFA14F18C0F08BF6FF08704204605B09E
S2140167F0F0BDDDE9021230461CF043FA0446DDE93D
S21401680002011DF013F8002CE8D12B68DA68D004D9
S21401681044BF42F48062DA60DA689104E6D542F455
S2140168200062DA60E2E76FF08804DFE7941900207F
S21401683030B4224D2C681C606C685C6000241C72AD
S2140168405C729C72DC725468250A1C735D73250C9D
S214016850240E9D73DC7314881C74240A5C7454889B
S2140168609C74240ADC74D468250A1C755D75250C95
S214016870240E9D75DC751469250A1C765D76250C3B
S214016880240E9D76DC765269140A1A775C77140C0E
S214016890120EDA770A0A83F821200A0C83F82220DE
S2140168A00A0E9C7783F8201083F8232030BC0A4612
S2140168B0014603F1240027F03FB900BFEAE70300D1
S2140168C02DE9F843232904460F4691469846089E2B
S2140168D004D86FF098052846BDE8F88308221949C0
S2140168E027F0F5F805460028F3D1A368002BF0D170
S2140168F0216A243FB942C8F80010EAD8B1F5005F12
S214016900E7D271B9C9F80000E3687360238A33805F
S214016910638A73806369F360A3693361E3697361B2
S214016920D9E701201CF07DF8C9F8000030B1D8F88D
S214016930002004F1240127F0FFF8E5E76FF08C054D
S214016940C9E700BFEAE703001B0603F0706300F027
S2140169500F000902034301F47061120402F470226D
S2140169600B431343014A1360704700BF0020025CCB
S21401697060B5054619B10139B1F5806F0FD2094EE0
S214016980F06810F48030FBD143EA012312072B4351
S21401699002F08052134343F00043736060BD012050
S2140169A0FCE700BF0020025C0122054B9A60DA6812
S2140169B0D203FCD4D86820F00F000004000C704706
S2140169C00020025C014B1868704700BF0040025C63
S2140169D0014B5868704700BF0010025C014B186BF2
S2140169E0704700BF0010025C014B1868704700BF7B
S2140169F00010025C014B9860704700BF0010025CFB
S214016A00014B1864704700BF0010025C014B5864CC
S214016A10704700BF0010025C014B5863704700BF0F
S214016A200010025C0022014B1A6070470010025CE5
S214016A30024A136843F00103136070470010025CBA
S214016A4043F20402014B1A60704700BF0010025C5B
S214016A50024A136843F03003136070470010025C6B
S214016A60044B1A6842F480721A601A6822F4807223
S214016A701A6070470010025C024A136843F4806390
S214016A80136070470010025C034A136823F47023F6
S214016A9043EA0043136070470010025C044B1A6916
S214016AA002605A6942609A698260DB69C360704716
S214016AB00010025C0268044B1A6142685A618268DF
S214016AC09A61C268DA6170470010025C024B1A6B69
S214016AD0D207FCD4186270470010025C0322024BF6
S214016AE0186019615A6370470000025C82B01FB5D6
S214016AF007930A9B04AC8B4228BF0B4604E90700A8
S214016B001048D100079948BF03330160099948BF6F
S214016B1023F0030323F0704301F0E041194341F0F1
S214016B2000518160002102F0E042019C1A4342F0CC
S214016B300052C16004618261416304B0BDE8104047
S214016B4002B070470000025C3F22034B1A6310221A
S214016B50DA6103229A6370470000025C024AD36B33
S214016B609B07FCD4704700BF0000025C044B9B6A85
S214016B7013F0240F14BF012000208000704700BFCF
S214016B800000025C08B5FFF7F1FF064BDB6B23F450
S214016B907F4323F0EF0303431EBF0122024BC3F8DA
S214016BA0FC2F08BD0000025C00F0FF3F4368182B75
S214016BB00AD0202B1DD0102B2BD1174BD3F8043421
S214016BC0DB010AD401207047134BD3F804349A0131
S214016BD0F8D50B6843F008030B6003680F4A93422D
S214016BE010D10B6843F040030B6000234360002084
S214016BF07047094BD3F804345B01E3D50B6843F0C7
S214016C000403E9E7064A9342F1D10B6843F0800397
S214016C10EAE70720704700BF0000025CD627002085
S214016C20D52700200B4607B50749D1F80414C90734
S214016C3008D5002100920246084600F05BF803B032
S214016C405DF804FB0120FAE70000025C1346064AE1
S214016C50D2F80424D20504D50A46014600201DF0C8
S214016C6040B80120704700BF0000025C13B5084C15
S214016C70D4F80444E40508D5009313460A460146B1
S214016C80002000F061F802B010BD0120FBE700BF54
S214016C900000025C13B5084CD4F80444E40508D59A
S214016CA0009313460A460146002000F071F802B030
S214016CB010BD0120FBE700BF0000025C70B5044672
S214016CC00D4616468CB00A4A09AB07CA83E8070088
S214016CD01A462146CDE90563CDE90333CDE90133F3
S214016CE000954FF480301CF028FF0CB070BD00BF3B
S214016CF0F4E70300F0B51C465B6815468DB01A072D
S214016D00129E1AD1CBB17268934216D10C4B0D4A22
S214016D1053F8217009AB07CA83E807001A462946CB
S214016D20CDE90533CDE90333CDE90163009447F49A
S214016D3080701CF002FF0DB0F0BD0720FBE700BF1E
S214016D4000E80300F4E70300F0B516465A688DB074
S214016D50102A0D46129F15D17A68102A12D10A4AB6
S214016D6009AC07CA84E8070022462946CDE905474B
S214016D70CDE90344CDE90144044800961CF0DDFE4C
S214016D800DB0F0BD0720FBE7F4E70300300001007B
S214016D90F0B516465A688DB0102A0D46129F15D1C9
S214016DA07A68102A12D10A4A09AC07CA84E8070091
S214016DB022462946CDE90574CDE90344CDE90144CF
S214016DC0044800961CF0B9FE0DB0F0BD0720FBE7A5
S214016DD0F4E703001000010082B070B586B0149D80
S214016DE003AE202D86E807000B9359D805EB8503E3
S214016DF08B4203D006236B438B4253D10C9BAB4291
S214016E0050D10F9BB3EB450F4CD1129A934249D107
S214016E10012229462220159BFFF7AAFD044630BB16
S214016E20034606220E210C20FFF78EFD0123CDE935
S214016E3000332B4696E807001CF012FE0E230BAA21
S214016E40009307CA2B461CF056FD0C23164C0093E4
S214016E500EAA2B4607CA1CF07EFD636823F07F034B
S214016E6043F026036360FFF79FFD30B106242046FA
S214016E7006B0BDE8704002B07047636823F07F0338
S214016E8043F022036360FFF78FFD04460028EDD12F
S214016E90062311AA009307CA2B461CF08FFDE6E7CE
S214016EA00124E4E70724E2E70020025C70B598B00D
S214016EB0002843D02C4C08AD0FCC0FC50FCC0FC506
S214016EC00FCC0FC594E80F0085E80F006D4604AEA1
S214016ED004F1100320340FCB85E80F0094E80F006F
S214016EE086E80F00FFF7BCFD0420FFF7CDFDFFF796
S214016EF0A7FD3046FFF7DEFD002408AE56F8040B6A
S214016F000134FFF7E3FD102CF8D1FFF761FD0328EC
S214016F10FBD90024FFF786FD2646FFF753FD55F8FB
S214016F20043B01365840042E44EA0004F5D12CB146
S214016F30012206200D4B1A7018B070BDFFF790FDA8
S214016F400820FFF757FD0020FFF75AFD0720FFF73F
S214016F505DFD4FF40070FFF75FFD0820FFF794FD1D
S214016F60FFF766FD0020E7E7E8E80300D8270020E2
S214016F7008B5FFF775FD0122014B1A7008BD00BF69
S214016F80D727002030B589B005AC84E80700FFF7A5
S214016F9025FDC30501D5FFF7EBFF0A4D2B781BB185
S214016FA01DF01EF800232B70074B069AD3E901014A
S214016FB08DE8030002921B6894E807001CF016FF98
S214016FC009B030BDD7270020DCE803001FB51DF04F
S214016FD007F8044630B1012206240D4B1A702046EC
S214016FE004B010BDFFF7EEFC0090FFF7EBFC01903C
S214016FF0FFF7E8FC0290FFF7E5FC03906846FFF711
S21401700059FDFFF7B5FFFFF723FDFFF735FDE6E76F
S214017010D827002030B5154B87B00293144B039048
S214017020049346F611030D46059300F077F91428EC
S214017030044616D168461DF085F84FF0A843032292
S21401704002A95A6319601D619A63DA6B9207FCD133
S214017050142C02D168461DF083F800F093F904461B
S21401706001E00028E9D0204607B030BD101A002004
S214017070040000202DE9F04FB1B005468C469E462F
S214017080E8466F4EDDF8EC90409C06F1100A474644
S21401709030687168083603C75645B846F7D13E9B37
S2140170A003EB0208C8F1000A0AF00F0AB9F1000F53
S2140170B000F09D80C9F1000707F00F070121DDF8F8
S2140170C0FCB044F00050C4F11006CDF810B00591A4
S2140170D00690300200F4F85040F021000790B9F114
S2140170E0000F40F08680CDF820D047F00050002DEC
S2140170F000F08480099121210A9041EA07210B9131
S21401710042F00050CDF830C03D9B08A94FEA0A2C4A
S2140171100D910E904CF041000F901093002A75D1FE
S2140171203E9B119143F0005312933C9B1390149392
S21401713010AB1593434B444A169340F6110317932D
S214017140424B0021002D08BF1346189314AB199328
S2140171503F4B10221A9311231B931CAB184626F0A3
S214017160E0FC01221D92002246F0804603461E9650
S214017170239205B9EB46102CCDF880B024AE4BD146
S21401718001232246002130462193229426F0C9FC91
S21401719020AB002125938F4218BF334647F080422B
S2140171A026923A9A2CA828922993B2FA82F35B097E
S2140171B049EA837310222B912A9326F0B2FCB9F187
S2140171C0000F00D028AED04448F080432CA918A860
S2140171D02D962E93FFF71EFF30B92DB90346A34215
S2140171E025D1002818BF2C2031B0BDE8F08F10271C
S2140171F064E7CDF820E049F0005078E7002C3FF432
S21401720079AF04A9099101210A9076E73E9B0CAA61
S21401721011924120129388E71022002130462193D3
S214017220229426F07EFC002CB2D10123B1E703F1B3
S214017230C0026A4412F8C02C01331043CFE700BFE6
S21401724048E903001000002060E9030064E9030038
S21401725004000020F0B5C0299FB0DDE9244557D0D1
S214017260B1F5807F04D0802948D029201FB0F0BD19
S21401727001265CB140F2344702941024039604942C
S214017280212401970594069502AC0AE040F21447C2
S2140172900294102403960494212405940124019752
S2140172A00695079401251024089409950A9221222F
S2140172B00B950C940D92174A0AAD0E92164A0F952D
S2140172C0109242F61102119212931395149415928C
S2140172D001AA1692D3B112AB179304231893112364
S2140172E0199316AB1A901B9340F61103C9081C910B
S2140172F01AA806A91D93FFF78DFEB7E7012614B954
S2140173004FF48267C4E74FF48667B5E70EABE3E751
S2140173100F20ABE75CE903001000001038B5164BF0
S2140173205A6E42F004025A66D3F8802242F00102F5
S214017330C3F88022114B5B68C3F3080343B14FF0D7
S214017340A842D36B13F0430FFBD11424204638BD5B
S2140173504FF0A843DC6B14F04304FBD1084D2B68B7
S2140173601BB904212846FFF781F82B68013343F047
S21401737000432B60EAE700BF0080005000ED00E00C
S214017380101A0020014B00205B68704700ED00E0FA
S2140173904FF40052034B00209A660322C3F8602282
S2140173A0704700BF009000504FF40052034B00207E
S2140173B09A660322C3F86022704700BF00A00050FF
S2140173C01FB54FF40052164B9A660322C3F860228B
S2140173D0FFF70AFBC3070ED401201CF00EFED8B936
S2140173E000204FF400520F4B9A660322C3F8602226
S2140173F005B05DF804FB10220021684626F091FBDB
S2140174006846FFF74BFBDDE900321343029A13434C
S214017410039A1343E4D1DFE76FF09200E1E700BF80
S2140174200090005000A000500123A0F50320064A5A
S214017430A0F58070410900F01F00834052F821003A
S214017440034342F821307047141A00202DE9F04713
S21401745080460F461E46154688B00AB100231360C3
S2140174600EB1002333604FF0100ADFF8B090CDF86C
S21401747000A000233A464146D9F8000012F0DEFF8C
S2140174800446F8B93B68214A93422ED14FF0180AB8
S2140174900146524602A826F044FBCDF800A023463A
S2140174A04146D9F8000002AA12F0C8FF044648B9BE
S2140174B0069B7B60DDE90423C7E90223144B3B608E
S2140174C025B9144C204608B0BDE8F087114CC5F824
S2140174D000A0002EF6D033464146D9F8000002AA95
S2140174E013F000F860B10446ECE7094A1DB993426F
S2140174F0E8D0094CE6E79342C5F800A0E9D0F8E7E2
S21401750033682A689B1A3360DCE700BFD175E10552
S214017510105D175EFEDF00F0FFDF00F0FC0A0020C2
S2140175202DE9F04F93B007468846FBF7BBFF0446AC
S214017530002847D1374E3378F3B90146402202A8D6
S21401754026F0EFFA344D354A2B463548103595422C
S21401755094BF009500920068102202A925F06CFBEA
S2140175604FF0000982460DF1080BCA4512D12D4B8A
S2140175709D42E8D1012333702B4E337B8BB1D6E984
S2140175800023984508BF97420BD1B568284613B02B
S214017590BDE8F08F5BF8040BFFF746FF09F1010920
S2140175A0E3E7DFF89090DFF890A0DFF890B063098A
S2140175B059F8233004F01F02D340DB0704D401340A
S2140175C0812CF4D1194DE1E7002304F5032505F5D7
S2140175D080751A46284602A9FFF738FF08B15045BC
S2140175E00BD1DDE90423984508BF9742E7D1012373
S2140175F0C6E900783373B560C8E70D4B984201D0F1
S2140176005845DCD1064B2946186812F0B1FF002810
S214017610D5D0D7E7D92700200031080081310800EE
S214017620FC0A002090310800E80E00208231080094
S214017630FFDF00F0141A0020FEDF00F011E000F07A
S2140176402DE9F84FDDF828A083460E4699461746E1
S2140176500AB1002B69D0BAF1010F69D831465846F4
S214017660FFF75EFF07F110080546414601201BF0B3
S214017670D8F9044600285ED04246002126F051FA89
S2140176802E4B9D4234D92E480368D90713D42D4D6D
S2140176902D4BC4E902B62360002614E05A0950F8BF
S2140176A0222003F01F01CA40D20705D405F50325A1
S2140176B005F20115ECE700231D460133812BEDD1C0
S2140176C06FF08D06214DC4F804A02FB13A46494605
S2140176D004F1100026F030FA1D484346224629469A
S2140176E0006812F013FE68B92846FFF79DFE0BE00E
S2140176F0002321461A462846FFF7A8FE78B1154B07
S21401770098420CD06FF0910642460021204626F0A2
S21401771008FA20461BF095F93046BDE8F88F6368F5
S214017720012BB9D16FF08406EEE76FF08606F3E71A
S2140177306FF08506F0E76FF08C06EDE78131080003
S214017740141A002000310800105D175E823108000F
S214017750FC0A0020FEDF00F02DE9F04188B0154656
S214017760DDE90E781C4693B1B8F1000F04D16FF035
S214017770860008B0BDE8F081002FF8D0B7F1005FB1
S214017780F5D3C3F1005303F500439F42EFD8FFF74B
S214017790C7FE1E4B0646984202D96FF08B00E8E7FB
S2140177A0102200210DEB020026F0BBF90023304623
S2140177B0CDE9023303AA02AB04A9FFF747FE144B37
S2140177C09842EAD028B1013B984202D06FF091006E
S2140177D0CFE7029B94B1AB4213D853EA0504C6D156
S2140177E0039B0C48C8F8004000943A4631460068AE
S2140177F02B4412F023FE0028BBD0E7E7AB42EFD2C2
S214017800B5E75B1B9C4228BF1C46E9E781310800AF
S214017810FFDF00F0FC0A002030B5144687B022B323
S214017820FFF77EFE144B0546984203D96FF08B0096
S21401783007B030BD1022002102A826F072F90023FD
S2140178402846CDE9003301AA6B4602A9FFF7FEFDE3
S2140178500A4B9842EAD010B1013B984208D1039BEB
S21401786000206360009B2360E2E76FF08600DFE79D
S2140178706FF09100DCE700BF81310800FFDF00F008
S21401788070B586B006460D46FFF74AFE234B044602
S214017890984203D96FF08B0006B070BD102200210C
S2140178A002A826F03EF900232046CDE9003301AABE
S2140178B06B4602A9FFF7CAFD194B9842EAD028B1D8
S2140178C0013B984202D06FF09100E5E7039B012B44
