S00E0000656D7074795F322E73333726
S113000000100020510500004D0500004D050000C2
S11300104D0500004D0500004D0500004D05000094
S11300204D0500004D0500004D0500004D05000084
S11300304D0500004D0500004D0500004D05000074
S11300404D0500004D0500004D0500004D05000064
S11300504D0500004D0500004D0500004D05000054
S11300604D0500004D0500004D0500004D05000044
S11300704D0500004D0500004D0500004D05000034
S11300804D0500004D0500004D0500004D05000024
S11300904D0500004D0500004D0500004D05000014
S11300A04D0500004D0500004D0500004D05000004
S11300B04D0500004D0500004D0500004D050000F4
S11300C04D0500004D0500004D0500004D050000E4
S11300D04D0500004D0500004D0500004D050000D4
S11300E04D0500004D0500004D0500004D050000C4
S11300F04D0500004D0500004D0500004D050000B4
S11301004D0500004D0500004D0500004D050000A3
S11301104D0500004D0500004D0500004D05000093
S11301204D0500004D0500004D0500004D05000083
S11301304D0500004D0500004D0500004D05000073
S11301400348044B834202D0034B03B11847704762
S11301508C1000208C10002000000000064B074982
S1130160C91A891048BF0131491003D0044B0BB19F
S113017001481847704700BF8C1000208C100020E5
S11301800000000010B5064C237843B9FFF7D8FFF0
S1130190044B13B10448AFF300800123237010BD56
S11301A08C10002000000000B032000008B5054BA0
S11301B01BB105490548AFF30080BDE80840FFF7CF
S11301C0CDBF00BF0000000090100020B03200003E
S11301D0A3F5803A704700BF174B002B08BF134BA1
S11301E09D46FFF7F5FF00218B460F461348144A3E
S11301F0121A02F07FF80E4B002B00D098470D4BDB
S1130200002B00D098470020002104000D000D4869
S1130210002802D00C48AFF3008002F0B9F82000A7
S1130220290000F024F801F08FFE00BF0000080050
S11302300000000000000000001000208C100020CE
S113024004120020000000000000000008B500F0C7
S113025089F800F088F8034B03491868BDE80840A2
S113026001F09FBDAC100020682F0000704708B556
S113027001F022FEFFF7EAFF01F02BFEFFF7F6FF85
S1130280FAE708B5012000F08DF8202000F08AF884
S1130290BDE80840402000F085B808B5032180205F
S11302A001F07AF803214FF4806001F075F803211E
S11302B04FF4906001F070F808214FF4C06001F031
S11302C06BF808214FF4F06001F066F808213E2035
S11302D001F062F808212D2001F05EF8002008BD2D
S11302E008B5134B1B68C3F30743012B0ED1114B05
S11302F004205A6E4FF480230F49520358BF0F4A0B
S11303004B6601F51041086258BF536601F0EAFCE0
S113031000F081F801F078FC01F098FC01F0CCFCCD
S1130320FFF7BBFF01F080FCBDE8084000F068B8AF
S11303300080E00F008000500090005000A00050AA
S113034000F0D8B908B500F02BF801F07BFDBDE84A
S1130350084001F0A3BD704700F006B8704770472D
S1130360704770477047704708B50122074B1A70F1
S11303700022074B1A700422064B1A701F22064BE8
S11303801A7001F0D9FC054B186008BD021000205A
S1130390A81000200110002000100020AC10002044
S11303A00F20704708B5082816D00DDC022803DC9E
S11303B0002811DCEB2102E00428FBD1C2210F4804
S11303C000F086F90E2008BD20280AD0402810D05D
S11303D01028EFD1D421F2E70023042206210220C1
S11303E003E0042200231146012001F0F9FA002061
S11303F0E9E7002304220721F1E700BF782F00007A
S113040008B501213A2000F011FCFFF73AFFBDE8DE
S1130410084000F011B801213A2000F007BC0000A8
S11304200822014B1A67704700D003500822014B81
S11304301A67704700E00350F0B589B03F4D01AC36
S11304400FCD0FC495E8070084E8070001240121BB
S11304503A2000F0EBFB3A4F0121282000F0E6FBA4
S1130460384B384601A903938DF8124001F05CFB28
S1130470234604220021022001F0B2FA224621463A
S11304800023022001F0ACFA02212346084604228C
S113049001F0A6FA042203212346022001F0A0FA67
S11304A04FF00213284D0226C5F83036A3F58033E9
S11304B0C5F82C361C23C5F834664FF44870C5F8CB
S11304C01C3601F011FD1420FFF7B0FF01F00CFD04
S11304D02320FFF7A5FF01F007FDB9213846FFF7F8
S11304E0A5FF01F087FBFFF79BFF002330461A4668
S11304F0194601F075FA002321461A46304601F0E8
S11305006FFA234631463046002201F069FA234649
S113051000220321304601F063FA384601F0CCFA98
S113052000212820C5F83016C5F82C16C5F8341655
S1130530C5F81C1600F07AFB09B0F0BDD42F0000FA
S113054000C0055000127A0000C00350FEE700000E
S113055008B500F02DF8124B12498B4212D300203B
S1130560114B12498B4218D3FFF736FE186850F826
S11305702240586840F82240013298688242F5D3FC
S11305800C33EAE70022F8E71C6844F82200013241
S11305905C68A242F8D30833E4E70022F8E700BF1E
S11305A0B8320000C4320000C4320000C43200007B
S11305B010B54FF400414FF0FF30124B124A9A60CD
S11305C0D3F8882042F47002C3F888200F4A916659
S11305D001F1884101F5005210664FF6DF70506654
S11305E00220C3F8D000BFF34F8FBFF36F8F0824EE
S11305F04FF440330648C0F88041D36004600B6177
S113060010BD00BF00ED00E00000000000900050AD
S113061000E100E0014B1868704700BF081000209B
S1130620084B1B6F03F00703022B04D0032B05D0E8
S1130630012B05D0FEE7044B18687047034BFBE71A
S1130640034870470080005008100020101000205C
S1130650002D310108B5FFF7E3FF054B1B6FC3F312
S113066003330133B0FBF3F0024B186008BD00BF45
S113067000800050041000200048704700B4C404F7
S1130680014B1868704700BF10100020054B18601C
S1130690054B1B6F03F00703032B01D1FFF7DABFF0
S11306A0704700BF101000200080005000207047E9
S11306B000487047002D31014FF4004070474FF45B
S11306C07A707047014B1868704700BF0C10002007
S11306D0FEE700000346054A0549106803448B42BF
S11306E08CBF4FF0FF301360704700BF1410002020
S11306F00080002008B501213A2000F097FA032178
S113070001230422002001F06BF9002001F067F9B5
S11307100122194B4FF46070C3F8442400F0B0FA7E
S1130720164B00F5D520D3F8F02000F2FC4042F03F
S11307300102C3F8F020D3F8FC2042F08072C3F821
S1130740FC200F4AA3F55D431A600E4B0222B0FB56
S1130750F3F00D4B01381861C3F8F0204FF48072A8
S1130760C3F804234FF06043084A0020C3F8B02FB5
S1130770074AC3F8802E08BD00D0035000ED00E006
S1130780FF030040F8590D00000004E055CEACC54D
S1130790090001004FF060420123D2F8001E83409B
S11307A00B430020C2F8003E7047000030B54FF004
S11307B06043D3F8802ED20715D501240B4D844015
S11307C0D5F8FC2042F08072C5F8FC20D3F8002E46
S11307D02243C3F8002E53F82020002AF0D003F857
S11307E02010002030BD1120FCE700BF00ED00E028
S11307F030B54FF06043D3F8802ED20715D50124CD
S11308000B4D8440D5F8FC2042F08072C5F8FC20E2
S1130810D3F8002E2243C3F8002E53F82020002AD8
S1130820F0D023F82010002030BD1120FCE700BFD9
S113083000ED00E030B54FF06043D3F8802ED207CE
S113084015D501240B4D8440D5F8FC2042F080726C
S1130850C5F8FC20D3F8002E2243C3F8002E53F829
S11308602020002AF0D043F82010002030BD1120B1
S1130870FCE700BF00ED00E0044BD3F88420D2066F
S1130880FBD4D3F88400C0F38110704700400050BB
S113089038B5124B0546D3F820310C4603F0030358
S11308A0022B0BD0032B0DD0012B0FD1FFF7B2FE7F
S11308B0052305B1286004B1236038BDFFF7E0FECD
S11308C00323F6E7FFF7F4FE0223F2E7044841F2BC
S11308D02B01FFF7FDFE00231846EAE700800050D5
S11308E0F02F0000F7B50027114B0197D3F8804192
S11308F0064604F00304012C0D4608D0022C12D045
S113090041F278110B48FFF7E3FE3C4604E0394618
S113091001A8FFF7BDFF0F240EB1019B336005B1A1
S11309202C6003B0F0BDFFF7C3FE0190F4E700BFF5
S113093000800050F02F000038B5194B0546D3F85D
S113094024310C4603F00703013B052B20D8DFE8D4
S113095003F0030F171B0B13FFF75CFE052305B110
S1130960286004B1236038BDFFF754FE0623F6E780
S1130970FFF786FE0323F2E7FFF782FE0423EEE788
S1130980FFF796FE0223EAE7FFF790FE0723E6E768
S1130990044840F68851FFF79BFE00231846DEE723
S11309A000800050F02F000038B5124B0546D3F8F4
S11309B040310C4603F00303022B0BD0032B0DD064
S11309C0012B0FD1FFF778FE092305B1286004B18C
S11309D0236038BDFFF776FE0823F6E7FFF76FFEC6
S11309E00B23F2E7044841F25901FFF771FE00239B
S11309F01846EAE700800050F02F000038B5154B88
S1130A000546D3F800320C4603F00703013B032BE1
S1130A1018D8DFE803F0020A0E12FFF74DFE09238F
S1130A2005B1286004B1236038BDFFF74BFE0823ED
S1130A30F6E7FFF744FE0B23F2E7FFF70BFE0E2366
S1130A40800AEDE7044841F22E21FFF741FE00231E
S1130A501846E5E700800050F02F000038B5124B2F
S1130A600546D3F840320C4603F00303022B0BD0A7
S1130A70032B0DD0012B0FD1FFF71EFE092305B167
S1130A80286004B1236038BDFFF71CFE0823F6E795
S1130A90FFF715FE0B23F2E7044841F2C111FFF7FB
S1130AA017FE00231846EAE700800050F02F0000EC
S1130AB038B5124B0546D3F860310C4603F00303F6
S1130AC0022B0BD0032B0DD0012B0FD1FFF7F4FD1C
S1130AD0092305B1286004B1236038BDFFF7F2FD96
S1130AE00823F6E7FFF7EBFD0B23F2E7044841F296
S1130AF08701FFF7EDFD00231846EAE70080005068
S1130B00F02F000010B40F4C0B46D4F8204204F030
S1130B100304012C0ED0022C10D008B10021016076
S1130B200BB100221A6040F6B25107485DF8044B3D
S1130B30FFF7CEBD5DF8044BFFF7AABE5DF8044B8A
S1130B40FFF732BF00800050F02F000010B5B0F561
S1130B50207F34D009D8B0F5007F2AD003D898B1CB
S1130B60B0F5C07F10D0002421E0B0F5607FFAD149
S1130B70154BD3F88030C3F301149B0617D5032C0F
S1130B8015D040F282210FE00F4B1C6F230B13F0A2
S1130B900E0FC4F303340AD0072C08D00F2C06D050
S1130BA0032C04D040F272210848FFF791FD601C29
S1130BB010BD054BD3F89040C4F30464F7E7024B2F
S1130BC01C6FC4F38024F2E700800050F02F000073
S1130BD010B54FF400320E4B04469A660020FFF71E
S1130BE0B5FF604341F671320A4C0B4BA04294BFEF
S1130BF000200120D969DA639A6822F4401242EA9B
S1130C0000529A60CA0344BF0022DA6310BD00BFD9
S1130C1000900050005A62020000035008B5FFF72C
S1130C202BFDBDE808400021FFF7D2BF70B546098F
S1130C3004460D460ED140F216310D48FFF748FD2B
S1130C40334604F01F047DB103F580530122A24012
S1130C501A6070BD012E05D0064B074A022E18BF3C
S1130C601346EEE7054BECE703F50053EEE700BF50
S1130C70F02F0000688000506082005064800050B3
S1130C8030B585B0002380280446019374D02AD857
S1130C90002877D0A0F12004412C32D8412C30D840
S1130CA0DFE804F070737073888888887373923FE8
S1130CB0A8653F7373732F2F2F2F2F2F8D577373A7
S1130CC073B2AD732F2F2F2F2F2F2F2F2F2F2F2FA7
S1130CD02F702F707070882F2F2F2F2F2F2F2F2FC3
S1130CE02F2F2F2F7070B0F5806F63D024D8B0F5FC
S1130CF0007F55D00BD8B0F5807F6AD0B0F5C07FA7
S1130D0040D040F26D414348FFF7E2FC37E0B0F5D4
S1130D10607F45D0F5D8B0F5207F36D0B0F5407F60
S1130D20EFD1FFF797FC04464FF42070FFF70EFF56
S1130D30B4FBF0F4640831E0B0F5C06F5AD00DD8BC
S1130D40B0F5A06F3BD0B0F5B06F3DD0B0F5906F6B
S1130D50D7D1002101A8FFF7EFFD10E0B0F5E06F57
S1130D604DD0B0F5F06F4FD0B0F5D06FC9D10021A0
S1130D7001A8FFF743FE02E0FFF752FC019001983F
S1130D8005B030BDFFF766FCF8E7FFF763FC0446E7
S1130D904FF42070FFF7DAFEB4FBF0F40194EEE7B1
S1130DA0FFF73EFC05462046FFF7D0FEB5FBF0F505
S1130DB00195E4E7002101A8FFF76AFDDFE70021C0
S1130DC001A8FFF79FFEDAE7002101A8FFF78AFDDB
S1130DD0D5E702934FF0E0231B695B0705D5FFF7C6
S1130DE039FC0290029B0193C9E703A902A8FFF70B
S1130DF0DBFDF7E7002101A8FFF7D6FDBFE70021DF
S1130E0001A8FFF72BFEBAE7002101A8FFF750FE67
S1130E10B5E700BFF02F000008B58020FFF730FFD2
S1130E20034B98429EBF4FF48032024B1A6708BDB1
S1130E30005A620200A000501FB50023B0F5807F65
S1130E4001937FD027D8382800F09C800BD8243811
S1130E50092810D809280ED8DFE800F06F6F6F6FEB
S1130E600D0D670D3685522867D007D83D283AD036
S1130E703E2800F08C8040F24B5152E08028FAD199
S1130E80454B1B6F03F00703013B032B47D8DFE8F7
S1130E9003F044413F75B0F5D06F64D019D8B0F574
S1130EA0A06F6FD00AD8B0F5806F46D0B0F5906FC0
S1130EB0E1D1002001A9FFF73FFD3AE0B0F5B06FA2
S1130EC033D0B0F5C06FD6D1002001A9FFF76CFD77
S1130ED02FE0B0F5006FECD00AD8B0F5E06F56D033
S1130EE0B0F5F06FC7D1002001A9FFF7E1FD20E0C4
S1130EF0B0F5086FBFD1284BD3F8003103F00303DA
S1130F00022B35D0032B37D0012B39D1FFF7B8FB97
S1130F10032300E0052301930BE00223FBE740F2E7
S1130F209F411E48FFF7D4FB03E0002001A9FFF70F
S1130F30D9FC019805B05DF804FB002001A9FFF776
S1130F40A7FCF6E702934FF0E0231B695B0705D586
S1130F50FFF780FB0C230393039BDCE703A902A8A0
S1130F60FFF722FDF8E7002001A9FFF747FDE0E7BE
S1130F70FFF7A8FB0823CEE7FFF798FB0723CAE790
S1130F800123C8E7002001A9FFF7BCFDD1E7002039
S1130F9001A9FFF763FDCCE700800050F02F0000AB
S1130FA0F8B5036804460F2B04D940F663216C4856
S1130FB0FFF78EFB63680F2B04D940F6662168485F
S1130FC0FFF786FBA3680F2B04D940F66921644818
S1130FD0FFF77EFB237B0F2B04D940F66C2160487E
S1130FE0FFF776FB637B0F2B04D940F66F215C4837
S1130FF0FFF76EFBA37B3F2B04D940F672215848C0
S1131000FFF766FBE37B3F2B04D940F67521544878
S1131010FFF75EFB2369032B04D940F6782150487F
S1131020FFF756FB6369032B04D940F67B214C4838
S1131030FFF74EFBE369012B04D940F67E214848B3
S1131040FFF746FB8020FFF7F7FE032800F08780B8
S11310504FF40022434B02215A6645F60E03424ADE
S1131060C2F88030414B9962012103F580539962A3
S1131070936DD903FCD4D4E900131B0543EA01633F
S1131080E17B94F820500B43217BE77E43EA014344
S1131090617B6D0143EA0133A17B43EA8113136150
S11310A09169D4E904031B0643EA806301F000411B
S11310B00B43A17E94F823000B43217E43EA0143B2
S11310C0617E43EA01239361136AE66923F00D0309
S11310D094F8221043EA8703002E2DD11362966AF6
S11310E094F8213045EA031326F033052B4343F0EB
S11310F0010393621E4D1C4B9A6D35EA0202FBD12B
S113110002221A4DAA621A659A6D5200FCD41A6919
S1131110A56822F4700242EA05521A614FF00042B7
S1131120124B9A6119B9022203F580539A6278B975
S11311300122104B9A620BE0334343F0080313621D
S1131140936A23F0330303432B4343EA410393623B
S113115094F824301BB1044B074AC3F88020F8BD2F
S1131160F02F00000090005000C0005000D000504C
S11311700300014000E00050F1A7FFFF014B93F989
S113118000007047B010002010B543680446072BD8
S113119004D940F6E1312A48FFF79AFAA368032BF1
S11311A004D940F6E3312648FFF792FA2378032B5B
S11311B004D940F6E5312248FFF78AFA94F9013060
S11311C0002B04DA40F6E7311D48FFF781FA4FF4AB
S11311D080011C4A637851664FF4D151022002F514
S11311E0B832516218494F2B48604FF0010028BFB4
S11311F04F2301F5805148601169C903FCD421785B
S113120043EA01235361D4E901131B0143EA012397
S1131210617B0B43217B43EA41039360E37BA17B26
S11312201B0143EA4113617C0B43217C43EA4103E4
S11312305360A37C13B16FF4D153536210BD00BF4C
S1131240F02F00000090005000100250014B188055
S1131250704700BF181000200029CCBF01210021D5
S1131260FFF7B6BC10B5B0F5207F65D00ED8B0F549
S1131270007F4FD003D800B3B0F5C07F1DD040F23B
S1131280F921BDE810403448FFF722BAB0F5607F79
S1131290F5D14C1E012C06D9042904D040F2DD21DD
S11312A02D48FFF715FA2D4AD2F8803023F0300389
S11312B043EA0413C2F8803010BD4C1E012C0AD935
S11312C0102903D8264BCB40DB0704D440F2B221CB
S11312D02148FFF7FDF9FFF7A1FC00F045F84FF4B2
S11312E08031204B1D4A1967136F23F4704343EA7E
S11312F004331367FFF7AEF90446FFF7BDFAC0F1F4
S113130002012046FFF7A8FF00F034F8BDE81040C2
S1131310FFF782BD4C1E1F2C04D940F2ED210E486C
S1131320FFF7D6F90D4AD2F8903023F0F85343EA88
S11313300463C2F89030BFE74C1E012C04D940F27C
S1131340F3210548FFF7C4F9044A136F23F48063BB
S113135043EA84231367AFE7F02F000000800050B6
S1131360100101000090005002214FF42070FFF79B
S113137079BF000008B54FF4C070FFF781FCBDE8E9
S113138008400449884294BF012102214FF420708F
S1131390FFF768BF80F0FA0270B5B0F5807F0C46A5
S11313A000F008812BD8382800F0A08110D8243808
S11313B0092816D8092814D8DFE810F0E100E10064
S11313C0E100E10013001300CC00130048005001B9
S11313D0522800F0D48007D83D2851D03E2800F090
S11313E09C8140F667011FE18028FAD18B1E052BF2
S11313F000F2A580DFE803F0A091A3ABA364B0F5ED
S1131400D06F00F02B8130D8B0F5A06F00F06E8162
S113141015D8B0F5806F00F0B280B0F5906FE0D1D0
S1131420023C052C00F21381A74B195DA74AD2F8A0
S1131430243123F007030B43C2F824316CE0B0F5E8
S1131440B06F00F08780B0F5C06FCAD1083C032CA0
S113145000F2EF809E4B195D9C4AD2F8403123F094
S113146003030B43C2F8403156E0B0F5006FD7D008
S113147015D8B0F5E06F00F05081B0F5F06FB0D141
S1131480083C032C00F2DC80924B195D8F4AD2F8A1
S1131490603123F003030B43C2F860313CE0B0F544
S11314A0086F9ED14C1E072C00F20481DFE814F073
S11314B007010201F6000201020102010001090113
S11314C0002504260121022000F056F9FFF7A6FBAF
S11314D0FFF74AFF4FF480317F4B7C4A1967136F43
S11314E023F0070333431367FFF7B4F80646FFF707
S11314F0C3F9C0F102013046FFF7AEFE012100201E
S113150000F08EF9FFF736FFFFF786FC25B9032CB0
S113151002D10122714B9A6270BD4FF400226E4BCE
S11315200E465A66012203F540539D6A03F5805323
S1131530C5F340059A62C5E700250126C2E70025E8
S113154040F28D516648FFF7C3F82E46BAE70025EE
S11315500226B7E7022C07D00F2C0ED040F2D2514E
S11315605F48FFF7B5F80024584AD2F8803123F0D9
S113157003032343C2F88031CEE70124F4E7032CAC
S113158012D0052C12D0022C12D040F2096154481A
S1131590FFF79EF800224D49D1F8203123F00303D0
S11315A01343C1F82031B7E70222F4E70122F2E73E
S11315B00322F0E7A1F10804082C33D8DFE804F093
S11315C0050532051C32323205004FF480323F4BA0
S11315D04449586E03F580535A660B6A43F001037D
S11315E00B62C1035CBF404B5A664FF0E0221369A3
S11315F023F0040313618FE74FF48032334B3949EE
S1131600586E03F580535A660B6A23F001030B628C
S1131610C3035CBF344B5A664FF0E022136943F0B6
S11316200403E7E740F23161BDE870402C48FFF75E
S11316304FB840F24D612A48FFF74AF800210BE702
S11316404FF4CD612648FFF743F800211EE740F22E
S11316508D612348FFF73CF80021E7E6083C062C9F
S113166013D8DFE804F01904040E1212100001224A
S11316701649D1F8003223F007031343C1F80032AE
S11316804AE70322F4E70422F2E740F2AD6114488A
S1131690FFF71EF80022EBE70222E9E701220B49DB
S11316A0D1F8003123F003031343C1F8003133E7C9
S11316B00322F4E740F2E9610948FFF709F8002240
S11316C0EDE70222EBE700BF3A3000000080005053
S11316D040300000403000000090005000E0005016
S11316E0F02F000000C0075000A000500F2C10D0B5
S11316F0102C10D040F234711248FEF7E9FF00229A
S11317001149D1F8203223F003031343C1F82032E6
S113171002E70122F4E70222F2E7083C032C0AD88C
S11317200A4B195D084AD2F8403223F003030B43F5
S1131730C2F84032F0E640F2B5710248FEF7C8FF45
S11317400021EFE7F02F000000800050403000003F
S1131750EFF3108072B6704700B962B670470000AC
S1131760034A0179D36E23F030030B43D3667047E9
S11317700040005070470000F8B50446244BD3F8ED
S11317808420D006FBD4D3F88430C3F381139C4265
S11317903CD0FEF745FF012C05460BD11D4B98426A
S11317A004D940F2FD611C48FEF792FF012128464E
S11317B0FFF752FDFFF7CCFF4FF00072174B0746BF
S11317C05A662046FFF7D6FF4FF48063104E621E20
S11317D093403367736E9A0103D4D6F884309B0622
S11317E00AD53846FFF7B8FF022C0FD12846BDE8CA
S11317F0F8400021FFF730BDD6F884309906E9D5CA
S113180040F20B710448FEF763FFE3E7F8BD00BF45
S113181000400050005A6202443000000060005052
S113182010B50C4608B9FEF7FBFE074B21461B78A2
S11318303BB1064B984204D80120BDE81040FFF7A5
S11318409BBF0220F9E700BFB1100020005A6202DA
S11318507047000010B54FF0004201244AF6CD3124
S1131860154B5A66154A03F50B2354605A6C1964D8
S1131870224088B9996811F0010F114903D08C6096
S1131880D86AC007FCD501234B6012B10D4B0E4A38
S11318901A64FFF7DDFF10BDD96A0907FCD42021C3
S11318A0074B59620121A3F58053996005494B6A9E
S11318B09B06FCD5E9E700BF00900050005009509A
S11318C000600950004009503254FFFF38B54FF012
S11318D00042174B174C5A66012203F50C235A6039
S11318E04AF6CD33656C2364437893401343124A1C
S11318F0D363C3788178A2689B0043EA011322F082
S113190074021343A3600279837943EA02232361B7
S11319104279C37943EA022363610078FFF79AFFAF
S1131920EB0744BF054B2364FFF792FF012038BD4A
S11319300090005000400950004000503254FFFF16
S113194038B5032804460D4605D80B4B33F8103040
S1131950CB40DB0704D440F22D410848FEF7B8FE23
S113196030220123544341F2100204F1A044AB405D
S113197004F57034A35038BD243100008E300000CB
S113198038B5032804460D4605D80B4B33F8103000
S1131990CB40DB0704D440F2FE310848FEF798FE42
S11319A030220123544342F2100204F1A044AB401C
S11319B004F57034A35038BD243100008E3000008B
S11319C070B5054614460E46FFF7C2FE2B685C4010
S11319D034405C402C60BDE87040FFF7BDBE7047EA
S11319E0F8B5032804460D4616461F4605D81C4B79
S11319F033F81030CB40DB0704D44FF4B0711948EE
S1131A00FEF766FE26B129462046CFB1FFF798FFC0
S1131A1004EB4403072D4FF00F014FEA031312D8D0
S1131A20A80006FA00F281400F481844FFF7C8FFE7
S1131A30AEB92946204677B1BDE8F840FFF780BF2C
S1131A40FFF79EFFE4E7A5F10800800006FA00F224
S1131A5081400648E9E7BDE8F840FFF791BFF8BDCB
S1131A6024310000D930000004C003500CC00350DE
S1131A7070B506460C46154622B940F28E210C4834
S1131A80FEF726FE24B94FF42070FFF7F9F8044658
S1131A906D00013CB4FBF5F4064B250213EA042364
S1131AA004D040F2B3210248FEF712FEF56170BD86
S1131AB02C310000070080FF10B5174B04469842F4
S1131AC008D003F58043984204D040F242411348C1
S1131AD0FEF7FEFD012204F580535A6040F6AA6326
S1131AE041F20502636100230D49A360E365E260EE
S1131AF004F500522361E361E36491640649A3653C
S1131B008C4203D123650023636502E005498C42BE
S1131B10F8D00123536010BD00C005502C310000E3
S1131B20FFFF01000000065038B52F4B04469842D1
S1131B300D4608D003F58043984204D040F2693141
S1131B402A48FEF7C5FD2046FFF7B6FF012204F53B
S1131B5080535A602B8AA26843F001031343AA7B83
S1131B6043EA8223A360A3682A7D43EA4273A36005
S1131B70AB7C5BB11C4AEB7C94422DD1A2F51032B4
S1131B80C2F88C31E36D43F08003E3652B7B204680
S1131B90D5E9011243F48053E360FFF769FF6B7BDF
S1131BA00BB1102363616B7D1BB1A36843F48033D5
S1131BB0A360AB7D1BB1A36843F40043A360EB7D3A
S1131BC02A7E1B07120503F0E04302F4E0021343EC
S1131BD0A3652B78636138BD054A944204BFA2F51E
S1131BE02032C2F89C31CDE700C005502C310000F2
S1131BF00000065083695A06FCD5C16383699B06BD
S1131C00FCD5406AC0B2704707B56B46054A1068F8
S1131C10516803C36846FFF759FE002003B05DF81E
S1131C2004FB00BF7831000013B50024064A68465F
S1131C30536F43F00103536700948DF80440FFF79A
S1131C408FFD204602B010BD0040005030B58BB06F
S1131C506C46164D0FCD0FC40FCD0FC495E803008D
S1131C6084E80300124BD3F84C21120319D5A3F5D1
S1131C70FE431C884FF6FF739C4208BF78248DF8FE
S1131C801940FFF77BFA204480F308008DF8180010
S1131C900848FEF7FBFC6846FFF782F900200BB00A
S1131CA030BDD3F85041E4B2E9E700BF8031000011
S1131CB00080E00F00F0490230B587B0084D01AC58
S1131CC00FCD0FC42B6801A8236025238DF80530A0
S1131CD0FFF75AFA6420FFF7B9FA002007B030BDC5
S1131CE0A831000010B56FF0040350210A480B4CD2
S1131CF013F0800F03F1010207D12344402A83F833
S1131D0000131346F4D1002010BD03F00F03043B6D
S1131D10034419761346EBE700ED00E000E100E030
S1131D2010B50446FFF714FD024B1C60FFF714FDC9
S1131D30002010BDB410002010B5FFF709FD034BBF
S1131D401C68FFF709FD204610BD00BFB410002039
S1131D5070B50C46154610B9FFF7EEFF38B143686D
S1131D602BB12A462146BDE870400068184723205D
S1131D7070BDF7B50D4616461C4648B103B901AC13
S1131D8087685FB12346324629460068B84706E0B3
S1131D90FFF7D2FF04B901AC0028F1D1232003B02E
S1131DA0F0BD0EB477B507AB53F8046B044601934A
S1131DB078B9FFF7C1FF3046019900F091FA044663
S1131DC0002CD4BF3720002003B0BDE8704003B01E
S1131DD07047FFF7B1FF84420546ECD02046FFF779
S1131DE09FFF3046019900F07BFA04462846FFF72E
S1131DF097FFE5E700207047FEE74FF4005300200B
S1131E004B607047012070470020704707B50020E1
S1131E1001AB0190FFF7ADFF0198002808BF4FF018
S1131E20FF3003B05DF804FB10B500201446FFF743
S1131E308FFF18B1BF210248FEF74AFC204610BDAF
S1131E40BC310000034B0222186800238068194645
S1131E5000F04EB93410002070B514460E46032C21
S1131E60354610D8012C16D900203188FEF7C0FC65
S1131E7098B90235A01E01280FD129780020BDE8A9
S1131E807040FEF793BC002029680436FEF7D2FCAC
S1131E9018B9043CE3E72046EDE770BD10B5002017
S1131EA0FEF778FC044610B90248FFF739FF2046D4
S1131EB010BD00BF1C10002008B5FEF711FAFEF794
S1131EC03FFAFEF73FFAFEF746FABDE80840FEF790
S1131ED043BA08B5FEF742FAFEF741FAFEF740FAB4
S1131EE0BDE80840FEF73DBA10B50446FEF7B2FB64
S1131EF04FF47A729042B0FBF2F105D23621BDE87C
S1131F0010400C48FEF7E4BB0B4BB3FBF1F30B4959
S1131F10884201D93C21F2E702FB04F0B0FBF3F064
S1131F20022806D9BDE810400323B0FBF3F000F00B
S1131F3007B810BD2532000040420F00E7CD9A3BA0
S1131F40013800D0FCE7704708B5064B044613B1CE
S1131F500021AFF30080044B1B6803B1984720466F
S1131F60FFF74AFF00000000F0110020002310B525
S1131F7004468360818119464366C28108228361D5
S1131F80C0E90033C0E904335C3000F0B3F90D4B11
S1131F90246263620C4BA3620C4BE3620C4B23631D
S1131FA00C4B9C4206D003F16802944202D0D03319
S1131FB09C4205D104F15800BDE8104000F00CBA71
S1131FC010BD00BF592200007B220000B322000094
S1131FD0D7220000B8100020024A0349034800F049
S1131FE069B800BF28100020972C0000381000208A
S1131FF041680C4B994210B5044601D000F04BFEE9
S1132000A168094B994202D0204600F044FEE168E1
S1132010064B994204D02046BDE8104000F03BBE78
S113202010BD00BFB810002020110020881100202E
S113203010B50B4B04210B4C0B4A20461A600022AE
S1132040FFF794FF04F1680001220921FFF78EFFD6
S113205004F1D00002221221BDE81040FFF786BF30
S1132060F0110020B8100020D91F0000014800F032
S1132070B4B900BFF9110020014800F0AFB900BFA6
S1132080F911002010B50446FFF7F0FF236A1BB1D5
S1132090BDE81040FFF7F0BF044B2362044B1B68FC
S11320A0002BF5D1FFF7C4FFF2E700BFF11F0000DA
S11320B0F01100202DE9F84307468846144600260F
S11320C0D4E90195B9F1010905D52468002CF7D1AB
S11320D03046BDE8F883AB89012B07D9B5F90E303A
S11320E0013303D029463846C04706436835E9E73B
S11320F02DE9F7431D46574B04460E461F6890468C
S113210027B13B6A13B93846FFF7BCFFB8F1020F99
S113211006D0B8F1010F00F29980002DC0F296802C
S1132120636ED90705D4A3899A0502D4A06D00F083
S113213054F92146384600F0AEFD616B41B104F11B
S11321404403994202D0384600F04AF900236363FD
S11321500023A3616360A3891B0603D52169384664
S113216000F03EF9A389B8F1020F23F44A6323F087
S11321700303A38160D001AB6A462146384600F0D0
S1132180B2FDA3891843A0812DBB009D284600F011
S113219071F90646002851D1DDF80090A9453FD1D8
S11321A04FF0FF35B4F90C3043F00202A281002253
S11321B0A26004F147022260226101226261626E20
S11321C0D60704D4980502D4A06D00F007F9284678
S11321D003B0BDE8F083002ED8D03B6A13B938466B
S11321E0FFF750FFB8F1010F266002BFA38943F047
S11321F00103A381B4F90C3013F00802C4E90465A7
S11322001ED0D90745BF00226D42A560A26048BF19
S1132210A561626ED20701D49B0513D50025D6E7CC
S1132220484600F027F906460028B9D0A3894D4650
S113223043F08003A381D0E70025B3E7A946F5E77F
S1132240A260E6E7A06D00F0C9F8E7E74FF0FF35BC
S1132250BDE700BF3410002010B50C46B1F90E10D4
S113226000F072F80028ABBF636DA3891B1823F438
S11322708053ACBF6365A38110BD2DE9F0411F46B7
S11322808B8905460C46DB05164605D5022300223C
S1132290B1F90E1000F046F8A3893246B4F90E10D5
S11322A0284623F48053A3813B46BDE8F04100F067
S11322B05DB810B50C46B1F90E1000F033F8431CAC
S11322C0A38915BF606523F4805343F48053A3812D
S11322D018BFA38110BDB1F90E1000F013B80000AF
S11322E00B46034902460868816800F09BB900BFA9
S11322F03410002002440346934200D1704703F88F
S1132300011BF9E738B50023054D044608462B6048
S1132310FFF770FD431C02D12B6803B1236038BD65
S1132320F411002038B50446064D08461146002233
S11323302A601A46FFF768FD431C02D12B6803B1DB
S1132340236038BDF411002038B50446064D084614
S1132350114600222A601A46FFF758FD431C02D199
S11323602B6803B1236038BDF411002038B504464E
S1132370064D0846114600222A601A46FFF754FD0E
S1132380431C02D12B6803B1236038BDF411002033
S113239070B50D4D00260D4C641BA410A64209D146
S11323A00B4D00260B4C00F0D3FD641BA410A64279
S11323B005D170BD55F8043B01369847EEE755F852
S11323C0043B01369847F2E7841000208410002073
S11323D08410002088100020704770477047000068
S11323E038B50546002941D051F8043C0C1F002B98
S11323F0B8BFE41800F0E0F81D4A136833B963600D
S113240014602846BDE8384000F0DCB8A34208D97F
S1132410206821188B4201BF19685B680918216084
S1132420EDE71A465B680BB1A342FAD9116850185C
S1132430A0420BD120680144501811608342E0D1BE
S113244018685B68084453601060DAE702D90C230B
S11324502B60D6E7206821188B4202BF19685B689D
S11324600918636008BF21605460CAE738BD00BF23
S113247000120020024B0146186800F025B800BF86
S11324803410002070B50F4E0C460546316811B962
S113249000F040FD30602146284600F03BFD431C1F
S11324A003D14FF0FF34204670BDC41C24F0030454
S11324B0A042F8D0211A284600F02CFD0130F2D1B8
S11324C0EFE700BFFC1100202DE9F041CD1C0646CA
S11324D025F0030508350C2D38BF0C25002D01DB34
S11324E0A94204D90C2333600020BDE8F081314FA8
S11324F000F062F83B681C4644BB29463046FFF7AF
S1132500C1FF431C044650D13C682146002941D1F7
S1132510002C44D02368304604EB030800F0FAFC96
S113252080453CD1216830466D1A2946FFF7AAFF41
S1132530013034D023682B4423603B68002B36D011
S11325405A68A24229D100225A600EE02268521B26
S11325501DD40B2A16D96119A342256018BF5960EE
S1132560636808BF396062514B60304600F02AF856
S113257004F10B00231D20F00700C21AB5D01B1A6A
S1132580A350B2E7A3426268DED13A60EDE7234686
S11325906468B1E70C464968B8E71346CEE70C23F4
S11325A03046336000F00EF89EE70560DDE75B60BF
S11325B0FFDE00BF001200200148FFF70EBF00BF7E
S11325C0F81100200148FFF709BF00BFF8110020EF
S11325D09368013B002B936010B408DA9469A3421A
S11325E001DB0A2903D15DF8044B00F0DDBB13685D
S11325F0581C1060084619705DF8044B7047F8B514
S113260006460F461446D518AC4201D1002007E017
S11326103A4614F8011B3046FFF7DAFF431CF3D1A6
S1132620F8BD00002DE9F04F0D469DB014469846C4
S1132630064618B1036A0BB9FFF724FD6B6ED90780
S113264005D4AB899A0502D4A86DFFF7C6FEAB8901
S11326501B0701D52B699BB92946304600F0E2FBE4
S113266070B16B6EDC0704D54FF0FF301DB0BDE8D0
S1132670F08FAB899805F7D4A86DFFF7AFFEF3E7A9
S11326800023CDF80C804FF00109DFF8B4810993E1
S113269020238DF8293030238DF82A3023469A469A
S11326A013F8012B0AB1252AF9D1BAEB040B0BD08C
S11326B05B46224629463046FFF7A1FF013000F071
S11326C0A780099A5A4409929AF80030002B00F026
S11326D09F8000234FF0FF320AF1010A049307930D
S11326E08DF853301A93CDE90523544605225448F6
S11326F014F8011B00F01EFC049AD8B9D10644BF9B
S113270020238DF85330130744BF2B238DF8533007
S11327109AF800302A2B15D0079A544600204FF01F
S11327200A0C214611F8013B303B092B4BD9B0B1BF
S1132730079214E0A0EB0803A24609FA03F313433B
S11327400493D2E7039B191D1B68002B0391BBBFA5
S11327505B4242F0020207930793B8BF04922378C6
S11327602E2B0AD163782A2B32D1039B02341A1DF3
S11327701B6843EAE37303920593DFF8D4A00322B2
S11327802178504600F0D6FB38B1A0EB0A00402275
S1132790049B013482401343049314F8011B062262
S11327A028488DF8281000F0C5FB00283FD0264BA0
S11327B01BBB039B073323F0070308330393099BD5
S11327C03B4409936AE70CFB02320C460120A8E75C
S11327D0002301344FF00A0C19460593204610F8E3
S11327E0012B303A092A03D9002BC6D00591C4E73E
S11327F00CFB012104460123F0E703AB2A4604A99C
S113280030460093114BAFF300800746781CD6D1B5
S11328106B6ED90705D4AB899A0502D4A86DFFF76E
S1132820DDFDAB895B063FF51FAF09981EE703ABDF
S11328302A4604A930460093044B00F07DF8E4E7EF
S11328407B3200008532000000000000FF250000FC
S1132850813200002DE9F047164698468A680746FB
S11328600B690C46DDF820909342B8BF13463360E1
S113287091F843200AB1013333602368990642BFBB
S1132880336802333360256815F0060506D104F178
S1132890190AE36832689B1AAB422BDC94F8433084
S11328A02268003B18BF0123920630D404F143028E
S11328B041463846C847013023D023681A3454F8B7
S11328C00A2C03F00603042B0ABF54F80E5C0025FF
S11328D033684FF0000608BFED1A54F8123C08BFE5
S11328E025EAE5759342C4BF9B1AED18B5421AD187
S11328F0002008E00123524641463846C8470130CB
S113290003D14FF0FF30BDE8F0870135C1E7E1188E
S11329105A1C30200233224481F8430094F84510B5
S113292082F84310C2E70123224641463846C8478D
S11329300130E6D00136D9E72DE9FF470F7E9146F5
S113294080460C46782F9A460C9E01F1430207D824
S1132950622F0AD8002F00F0DD80582F00F0C380CA
S113296004F1420684F842703AE0A7F16303152BA0
S1132970F6D801A151F823F0D1290000E52900007F
S1132980612900006129000061290000612900001B
S1132990E529000061290000612900006129000087
S11329A061290000FB2A0000732A0000B32A0000FA
S11329B061290000612900001D2B0000612900002D
S11329C0732A00006129000061290000BB2A00006D
S11329D033681A1D1B68326004F1420684F84230E1
S11329E00123A8E031682368081D30601E0601D564
S11329F00D6803E05D06FBD5B1F90050002D616858
S1132A0078DA2D200029A16084F843002DDA6D4284
S1132A105D480A231646B5FBF3F103FB1157C75D66
S1132A2006F8017D2F460D46BB42F4D9082B0BD185
S1132A302368DF0708D5236961689942DEBF302324
S1132A4006F8013C06F1FF36921B22614B4603AAAD
S1132A5021464046CDF800A0FFF7FCFE01306FD1BF
S1132A604FF0FF3004B0BDE8F08723F00403236087
S1132A70CDE721683368080653F8045B02D449069D
S1132A8048BFADB26F2F33603F4814BF0A230823F9
S1132A90002184F843106668002EA660BADB216822
S1132AA021F004012160002DB4D1002EB2D11646CC
S1132AB0BCE7236843F02003236078273348236866
S1132AC084F845701F06316851F8045B02D45F0630
S1132AD048BFADB23160D90744BF43F0200323603F
S1132AE01DB11023D4E72848E9E7236823F0200325
S1132AF02360F6E724480A23CDE733682568181DC8
S1132B00616930602E061B6801D5196002E0680611
S1132B10FBD5198000231646236197E7336800210B
S1132B201A1D32601E686268304600F003FA08B16C
S1132B30801B606063682361002384F8433085E769
S1132B402369324649464046D047013088D023683D
S1132B509B0714D4E068039B9842B8BF184681E7EA
S1132B600123324649464046D04701303FF478AF0E
S1132B700135E36803995B1AAB42F1DCEAE700250F
S1132B8004F11906F5E700BF8C3200009D32000005
S1132B90B1F90C202DE9F041170705460C4656D42F
S1132BA04B68002B02DC0B6C002B3DDDE66A002E2B
S1132BB03AD0002312F480522F68216A2B6025D06A
S1132BC0626DA389580705D56368D21A636B0BB18C
S1132BD0236CD21A216A0023E66A2846B047411CB6
S1132BE024D00023636023692360A389DA0400D519
S1132BF06065616B2F60B9B104F14403994202D05E
S1132C002846FFF7EDFB002363630DE0012328460C
S1132C10B047461C0246D4D12B68002BD1D01D2BC3
S1132C2001D0162B2AD12F6000202EE02A68B4F997
S1132C300C3042B11D2A01D0162A21D10023636031
S1132C4023692360D5E7626022692260CEE70F69B9
S1132C50002FE9D093070E680F600CBF4B69002367
S1132C60A6EB07088B60B8F1000FDDDD43463A465A
S1132C70216A2846A66AB047002808DCB4F90C305B
S1132C8043F040034FF0FF30A381BDE8F0810744D7
S1132C90A8EB0008E7E738B50B6905460C4613B9FD
S1132CA00025284638BD18B1036A0BB9FFF7EAF9C5
S1132CB0B4F90C30002BF3D0626ED00704D499051C
S1132CC002D4A06DFFF789FB28462146FFF760FF79
S1132CD0636E0546DA07E4D4A3899B05E1D4A06DAD
S1132CE0FFF77CFBDDE770B50C46B1F90E1096B02A
S1132CF0154600291E460CDAA389002113F0800F23
S1132D0014BF40234FF48063002031602B6016B061
S1132D1070BD6A4600F0DCF80028EDDB019901F48F
S1132D207041A1F50053594259414FF48063EBE7D8
S1132D308B89F7B59D0706460C4607D504F1470372
S1132D40236023610123636103B0F0BD01AB6A46D4
S1132D50FFF7C9FF009F054630463946FFF7B4FB2D
S1132D6048B9B4F90C309A05EED423F0030343F0C8
S1132D700203A381E2E7A389206043F08003A381D7
S1132D80019BC4E904075BB1B4F90E10304600F0AE
S1132D90B1F828B1A38923F0030343F00103A3810D
S1132DA0A3891D43A581CFE7F8B50E461446054611
S1132DB018B1036A0BB9FFF765F9A369A360A38986
S1132DC01A0701D5236943B92146284600F02AF899
S1132DD018B14FF0FF373846F8BD2368F6B22269C0
S1132DE03746981A6369834205DC21462846FFF773
S1132DF052FF0028EDD1A368013BA36023685A1C4D
S1132E0022601E70431C62699A4204D0A389DB07C6
S1132E10E1D50A2EDFD121462846FFF73CFF0028E2
S1132E20D9D0D6E738B5294B05460C46186818B1F1
S1132E30036A0BB9FFF726F9B4F90C30190722D449
S1132E40DA0607D409222A6043F040034FF0FF302A
S1132E50A38133E0580712D5616B41B104F14403F7
S1132E60994202D02846FFF7BBFA00236363A38983
S1132E7023F02403A3810023636023692360A389CF
S1132E8043F00803A38123694BB9A38903F4207396
S1132E90B3F5007F03D021462846FFF749FFB4F974
S1132EA00C3013F001020AD00022A260626952427F
S1132EB0A261226942B913F08000C5D138BD9907D7
S1132EC058BF6269A260F4E70020F7E734100020DD
S1132ED038B50023064D0446084611462B60FEF71C
S1132EE08CFF431C02D12B6803B1236038BD00BFA3
S1132EF0F411002038B50023054D044608462B6024
S1132F00FEF780FF431C02D12B6803B1236038BD58
S1132F10F411002038B50023054D044608462B6003
S1132F20FDF7D8FB431C02D12B6803B1236038BDE5
S1132F30F4110020C9B20346024410B59342184666
S1132F4001D1002003E0047801338C42F6D110BD96
S1132F50F8B500BFF8BC08BC9E467047F8B500BF82
S1132F60F8BC08BC9E46704748454C4C4F20574F10
S1132F70524C442041414100433A2F5573657273CA
S1132F802F416E64792F53696D706C69636974792C
S1132F9053747564696F2F53444B732F6765636B68
S1132FA06F5F73646B2F68617264776172652F62FF
S1132FB06F6172642F7372632F736C5F626F6172DF
S1132FC0645F636F6E74726F6C5F6770696F2E639A
S1132FD000000000050000000000000040420F0057
S1132FE005010000000000000000000000000000D7
S1132FF0433A2F55736572732F416E64792F536969
S11330006D706C696369747953747564696F2F5357
S1133010444B732F6765636B6F5F73646B2F706CC6
S11330206174666F726D2F656D6C69622F73726364
S11330302F656D5F636D752E630003020601050441
S113304002010103433A2F55736572732F416E6475
S1133050792F53696D706C696369747953747564FD
S1133060696F2F53444B732F6765636B6F5F736492
S11330706B2F706C6174666F726D2F656D6C696215
S11330802F7372632F656D5F656D752E6300633AF0
S11330905C75736572735C616E64795C73696D7081
S11330A06C696369747973747564696F5C73646B58
S11330B0735C6765636B6F5F73646B5C706C617486
S11330C0666F726D5C656D6C69625C696E635C658C
S11330D06D5F6770696F2E6800433A2F5573657290
S11330E0732F416E64792F53696D706C69636974D1
S11330F07953747564696F2F53444B732F676563F9
S11331006B6F5F73646B2F706C6174666F726D2F7D
S1133110656D6C69622F7372632F656D5F6770698B
S11331206F2E6300FF011F00FF000F00433A2F556D
S1133130736572732F416E64792F53696D706C6976
S11331406369747953747564696F2F53444B732F97
S11331506765636B6F5F73646B2F706C6174666F0C
S1133160726D2F656D6C69622F7372632F656D5F6D
S113317075736172742E6300010304010101090374
S11331800B0000000B0000000200000000002020E3
S113319000000000030000008C8C3C0000000000D4
S11331A000000000000000000126000004000000F0
S11331B0000000000001000000000000433A2F5509
S11331C0736572732F416E64792F53696D706C69E6
S11331D06369747953747564696F2F53444B732F07
S11331E06765636B6F5F73646B2F706C6174666F7C
S11331F0726D2F736572766963652F696F7374726C
S113320065616D2F7372632F736C5F696F73747272
S113321065616D5F72657461726765745F73746410
S1133220696F2E6300433A2F55736572732F416E95
S113323064792F53696D706C69636974795374751B
S113324064696F2F53444B732F6765636B6F5F73B0
S1133250646B2F706C6174666F726D2F7365727618
S11332606963652F7564656C61792F7372632F735D
S11332706C5F7564656C61792E6300232D302B209F
S113328000686C4C00656667454647003031323350
S113329034353637383941424344454600303132BB
S11332A0333435363738396162636465660000004B
S10B32B020CFFF7F01000000A4
S10F32B8C43200000010002023000000BD
S11332C41F040100C0EA2101C0EA210100800000BA
S11332D400F0490208120020FFFF00000000000073
S11332E4591E00000000000000000000030000005C
S11332F4B81000203810002000000000B81000208E
S113330420110020881100200000000000000000AB
S113331400000000000000000000000000000000A5
S11333240000000000000000000000000000000095
S11333340000000000000000000000000000000085
S10F334400000000AD0100008501000045
S9030551A6
